:020000040800F2
:100000000030002069980008B9980008B9980008E5
:10001000B9980008B9980008B998000800000000D5
:10002000000000000000000000000000B998000877
:10003000B998000800000000B9980008B143000812
:10004000B9980008B9980008B9980008B99800084C
:10005000B9980008B9980008B9980008C143000889
:10006000B9980008B9980008E5430008054400085D
:10007000B9980008B9980008B9980008B99800081C
:10008000B9980008B9980008B9980008B99800080C
:10009000B9980008B9980008B998000811440008F8
:1000A000B998000851440008B9980008B9980008A8
:1000B0005D4400087D44000800000000B998000875
:1000C000B99800080000000000000000B99800087E
:1000D00000000000914400089D440008B998000801
:1000E000B9980008B998000800000000000000005E
:1000F0000000000000000000000000000000000000
:1001000000000000000000000000000000000000EF
:100110000000000000000000A9440008B998000891
:1001200000000000000000000000000000000000CF
:1001300000000000000000000000000000000000BF
:10014000B9980008B99800080000000000000000FD
:10015000000000000000000000000000000000009F
:10016000000000000000000000000000000000008F
:10017000000000000000000000000000000000007F
:0801800000000000B99800081E
:1001900010B5054C237833B9044B13B10448AFF3C1
:1001A00000800123237010BDC0000020000000006B
:1001B000F8C6000808B5034B1BB103490348AFF369
:1001C000008008BD00000000C4000020F8C6000840
:1001D000034613F8012B002AFBD1181A0138704787
:1001E00001F0FF01102A2BDB10F0070F08D010F8E8
:1001F000013B013A8B422DD010F0070F42B3F6D1EC
:10020000F0B441EA012141EA014122F007047FF004
:1002100000070023F0E80256083C85EA010586EA5B
:10022000010685FA47F5A3FA87F586FA47F6A5FA97
:1002300087F68EB9EED1F0BC01F0FF0102F00702A3
:1002400032B110F8013B013A83EA010313B1F8D14E
:100250000020704701387047002D06BF354603382F
:10026000073815F0010F07D1013015F4807F02BF68
:10027000013015F4C03F0130F0BC0138704700BFB9
:1002800081F0004102E000BF83F0004330B54FEA47
:1002900041044FEA430594EA050F08BF90EA020FB4
:1002A0001FBF54EA000C55EA020C7FEA645C7FEA47
:1002B000655C00F0E2804FEA5454D4EB5555B8BF6A
:1002C0006D420CDD2C4480EA020281EA030382EADB
:1002D000000083EA010180EA020281EA0303362D6D
:1002E00088BF30BD11F0004F4FEA01314FF4801C40
:1002F0004CEA113102D0404261EB410113F0004F52
:100300004FEA03334CEA133302D0524263EB430308
:1003100094EA050F00F0A780A4F10104D5F1200EA6
:100320000DDB02FA0EFC22FA05F2801841F1000101
:1003300003FA0EF2801843FA05F359410EE0A5F1D5
:1003400020050EF1200E012A03FA0EFC28BF4CF006
:10035000020C43FA05F3C01851EBE37101F00045BC
:1003600007D54FF0000EDCF1000C7EEB00006EEBC9
:100370000101B1F5801F1BD3B1F5001F0CD3490853
:100380005FEA30004FEA3C0C04F101044FEA4452AA
:1003900012F5800F80F09A80BCF1004F08BF5FEA31
:1003A000500C50F1000041EB045141EA050130BD11
:1003B0005FEA4C0C404141EB010111F4801FA4F1B4
:1003C0000104E9D191F0000F04BF01460020B1FA09
:1003D00081F308BF2033A3F10B03B3F120020CDA41
:1003E0000C3208DD02F1140CC2F10C0201FA0CF01F
:1003F00021FA02F10CE002F11402D8BFC2F1200C84
:1004000001FA02F120FA0CFCDCBF41EA0C01904039
:10041000E41AA2BF01EB0451294330BD6FEA040482
:100420001F3C1CDA0C340EDC04F11404C4F120026D
:1004300020FA04F001FA02F340EA030021FA04F37F
:1004400045EA030130BDC4F10C04C4F1200220FAD6
:1004500002F001FA04F340EA0300294630BD21FA14
:1004600004F0294630BD94F0000F83F4801306BFDA
:1004700081F480110134013D4EE77FEA645C18BFCE
:100480007FEA655C29D094EA050F08BF90EA020F65
:1004900005D054EA000C04BF1946104630BD91EA5D
:1004A000030F1EBF0021002030BD5FEA545C05D160
:1004B0004000494128BF41F0004130BD14F580049F
:1004C0003CBF01F5801130BD01F0004545F0FE4113
:1004D00041F470014FF0000030BD7FEA645C1ABF48
:1004E000194610467FEA655C1CBF0B46024650EA7F
:1004F000013406BF52EA033591EA030F41F40021AB
:1005000030BD00BF90F0000F04BF0021704730B530
:100510004FF4806404F132044FF000054FF0000105
:1005200050E700BF90F0000F04BF0021704730B5C6
:100530004FF4806404F1320410F0004548BF40429B
:100540004FF000013EE700BF42004FEAE2014FEAF0
:1005500031014FEA02701FBF12F07F4393F07F4FCB
:1005600081F06051704732F07F4208BF704793F0CE
:100570007F4F04BF41F40021704730B54FF46074E1
:1005800001F0004521F000411CE700BF50EA0102E4
:1005900008BF704730B54FF000050AE050EA01028D
:1005A00008BF704730B511F0004502D5404261EBFD
:1005B00041014FF4806404F132045FEA915C3FF43E
:1005C000D8AE4FF003025FEADC0C18BF03325FEADB
:1005D000DC0C18BF033202EBDC02C2F1200300FA8C
:1005E00003FC20FA02F001FA03FE40EA0E0021FAB1
:1005F00002F11444BDE600BF70B54FF0FF0C4CF49F
:10060000E06C1CEA11541DBF1CEA135594EA0C0F50
:1006100095EA0C0F00F0DEF82C4481EA030621EA8B
:100620004C5123EA4C5350EA013518BF52EA0335C6
:1006300041F4801143F4801338D0A0FB02CE4FF078
:100640000005E1FB02E506F00042E0FB03E54FF0A8
:100650000006E1FB03569CF0000F18BF4EF0010EA0
:10066000A4F1FF04B6F5007F64F5407404D25FEA9C
:100670004E0E6D4146EB060642EAC62141EA55514F
:100680004FEAC52040EA5E504FEACE2EB4F1FD0C91
:1006900088BFBCF5E06F1ED8BEF1004F08BF5FEA0F
:1006A000500E50F1000041EB045170BD06F00046C1
:1006B00046EA010140EA020081EA0301B4EB5C046E
:1006C000C2BFD4EB0C0541EA045170BD41F4801166
:1006D0004FF0000E013C00F3AB8014F1360FDEBF8B
:1006E000002001F0004170BDC4F10004203C35DA67
:1006F0000C341BDC04F11404C4F1200500FA05F3EA
:1007000020FA04F001FA05F240EA020001F000428A
:1007100021F0004110EBD37021FA04F642EB060100
:100720005EEA430E08BF20EAD37070BDC4F10C042A
:10073000C4F1200500FA04F320FA05F001FA04F2EE
:1007400040EA020001F0004110EBD37041F10001DA
:100750005EEA430E08BF20EAD37070BDC4F12005E5
:1007600000FA05F24EEA020E20FA04F301FA05F24D
:1007700043EA020321FA04F001F0004121FA04F2F5
:1007800020EA020000EBD3705EEA430E08BF20EAC5
:10079000D37070BD94F0000F0FD101F000464000FF
:1007A00041EB010111F4801F08BF013CF7D041EA81
:1007B000060195F0000F18BF704703F00046520085
:1007C00043EB030313F4801F08BF013DF7D043EA56
:1007D0000603704794EA0C0F0CEA135518BF95EA0C
:1007E0000C0F0CD050EA410618BF52EA4306D1D193
:1007F00081EA030101F000414FF0000070BD50EAB2
:10080000410606BF1046194652EA430619D094EA3B
:100810000C0F02D150EA013613D195EA0C0F05D125
:1008200052EA03361CBF104619460AD181EA030179
:1008300001F0004141F0FE4141F470014FF0000031
:1008400070BD41F0FE4141F4780170BD70B54FF0CC
:10085000FF0C4CF4E06C1CEA11541DBF1CEA13554C
:1008600094EA0C0F95EA0C0F00F0A7F8A4EB05042E
:1008700081EA030E52EA03354FEA013100F0888025
:100880004FEA03334FF0805545EA131343EA1263EE
:100890004FEA022245EA111545EA10654FEA0026A3
:1008A0000EF000419D4208BF964244F1FD0404F55C
:1008B000407402D25B084FEA3202B61A65EB0305B8
:1008C0005B084FEA32024FF480104FF4002CB6EB75
:1008D000020E75EB030E22BFB61A754640EA0C00F5
:1008E0005B084FEA3202B6EB020E75EB030E22BF35
:1008F000B61A754640EA5C005B084FEA3202B6EB76
:10090000020E75EB030E22BFB61A754640EA9C0034
:100910005B084FEA3202B6EB020E75EB030E22BF04
:10092000B61A754640EADC0055EA060E18D04FEAC2
:10093000051545EA16754FEA06164FEAC30343EA62
:1009400052734FEAC2025FEA1C1CC0D111F4801F2F
:100950000BD141EA00014FF000004FF0004CB6E728
:1009600011F4801F04BF01430020B4F1FD0C88BFC7
:10097000BCF5E06F3FF6AFAEB5EB030C04BFB6EBD2
:10098000020C5FEA500C50F1000041EB045170BDC5
:100990000EF0004E4EEA113114EB5C04C2BFD4EBF2
:1009A0000C0541EA045170BD41F480114FF0000E76
:1009B000013C90E645EA060E8DE60CEA135594EAF2
:1009C0000C0F08BF95EA0C0F3FF43BAF94EA0C0FF5
:1009D0000AD150EA01347FF434AF95EA0C0F7FF46A
:1009E00025AF104619462CE795EA0C0F06D152EABE
:1009F00003353FF4FDAE1046194622E750EA4106A2
:100A000018BF52EA43067FF4C5AE50EA41047FF4B2
:100A10000DAF52EA43057FF4EBAE12E74FF0FF3C17
:100A200006E000BF4FF0010C02E000BF4FF0010CE8
:100A30004DF804CD4FEA410C7FEA6C5C4FEA430C61
:100A400018BF7FEA6C5C1BD001B050EA410C0CBFB0
:100A500052EA430C91EA030F02BF90EA020F002012
:100A6000704710F1000F91EA030F58BF994208BF79
:100A700090422CBFD8176FEAE37040F00100704736
:100A80004FEA410C7FEA6C5C02D150EA013C07D18D
:100A90004FEA430C7FEA6C5CD6D152EA033CD3D0D8
:100AA0005DF8040B704700BF8446104662468C46D2
:100AB0001946634600E000BF01B5FFF7B7FF002805
:100AC00048BF10F1000F01BD4DF808EDFFF7F4FF2E
:100AD0000CBF012000205DF808FB00BF4DF808EDB9
:100AE000FFF7EAFF34BF012000205DF808FB00BFDC
:100AF0004DF808EDFFF7E0FF94BF012000205DF8FE
:100B000008FB00BF4DF808EDFFF7CEFF94BF0120B2
:100B100000205DF808FB00BF4DF808EDFFF7C4FFAB
:100B200034BF012000205DF808FB00BF4FEA410CF4
:100B30007FEA6C5C02D150EA013C0AD14FEA430CD7
:100B40007FEA6C5C02D152EA033C02D14FF0000014
:100B500070474FF0010070474FEA410212F5001252
:100B600015D211D56FF47873B3EB625212D94FEAF4
:100B7000C12343F0004343EA505311F0004F23FADE
:100B800002F018BF404270474FF00000704750EA33
:100B9000013005D111F0004008BF6FF000407047F0
:100BA0004FF00000704700BF4A0011D212F500124A
:100BB00011D20DD56FF47873B3EB62520ED44FEAB5
:100BC000C12343F0004343EA505323FA02F0704735
:100BD0004FF00000704750EA013002D14FF0FF3073
:100BE00070474FF000007047037843B10346002080
:100BF00013F8012F0130C0B2002AF9D1704718460E
:100C0000704700BF064B1B6810B50446581E04F021
:100C1000F5FE044A14601368002BFCD110BD00BF20
:100C20001C050020200500202DE9F0411B4D1C4E25
:100C300028709DF820503570DFF884C0194EBDF93A
:100C40001C40DFF88080184FA8F80040704694FBE5
:100C5000F5FE9DF82450ACF800E03570DFF868C070
:100C6000124E94FBF5F4DFF864E0114D3C808CF8F3
:100C7000001032700F4F104C10499DF92860BDF9DB
:100C800018C08EF80030BDF92C20BDF930302E7020
:100C9000A7F800C022800B80BDE8F0812805002065
:100CA000390500203E0500203205002029050020DE
:100CB000340500202E050020300500202C050020E2
:100CC0003A0500203C050020380500202A050020B8
:100CD0002DE9F04FC84AC94BB2F90040B3F90050B2
:100CE0002DED028B89B08C42069000F37981A942E8
:100CF000D4BFC4EB0100C4EB0500FFF713FC804632
:100D00008946BF4BBF4EB3F90000BF4FFFF70AFC47
:100D100042464B46FFF770FC8046281B8946FFF78A
:100D200001FC02460B4640464946FFF78FFDFFF7A0
:100D300013FFDDF81880B54D03B20021404607933C
:100D400001F0ACFDB24B2A781B7831780F24404675
:100D5000009401F059F90121404601F09FFD3178DE
:100D60002A7800940123404601F04EF90026A94A52
:100D70003B88B2F90000A64A13FB06F3181A92F852
:100D80000080FFF7CFFBA44B044693F900000D460B
:100D9000FFF7C8FB02460B4620462946FFF72CFC0E
:100DA00000229E4BFFF752FD91A3D3E90023FFF7EA
:100DB00023FC41EC100B41EC180B09F0FDF95AEC47
:100DC000109BB0EE480AF0EE680A09F055FA944B11
:100DD00093F800B08B4B1D788C4BA8EB0B008DED7E
:100DE000020B1C78FFF79EFB4A465346CDE9049A56
:100DF000FFF702FCFFF7B0FE05EB000AC8F10000A8
:100E0000FFF790FBDDE90223FFF7F6FBFFF7A4FEF7
:100E100004EB00094046FFF785FBDDE90423FFF7FB
:100E2000EBFBFFF799FE0544ABEB0800FFF77AFBFD
:100E3000DDE90223FFF7E0FBFFF78EFE2044C0B29E
:100E40005FFA8AFA5FFA89F9EDB2534600904A4692
:100E50002946069801F054FD724B01361B78F6B214
:100E6000B34284D2DFF8B4B1DFF8C091DFF8C081BB
:100E70004FF0000A0024674AB9F80030B2F90000C8
:100E8000634A13FB04F3181A1578FFF74BFB624B08
:100E9000064693F900000F46FFF744FB02460B4657
:100EA00030463946FFF7A8FB52465B46FFF7CEFCBB
:100EB0004FA3D3E90023FFF79FFB41EC100B41EC5C
:100EC000180B09F079F957EC106BB0EE480AF0EE08
:100ED000680A09F0D1F953EC102B6842CDE90223DE
:100EE000FFF720FBDDE90223FFF786FBFFF734FE67
:100EF000464B1B7803442846DDB2FFF713FB32460E
:100F00003B46FFF779FBFFF727FE3E4B197801447C
:100F10002A46C9B2069801F0A7FC013498F80030BF
:100F2000E4B2A342A7D23B4BB3F90000384B1E7882
:100F3000079B181AFFF7F6FA0D463749044691F950
:100F40000000FFF7EFFA02460B4620462946FFF75E
:100F500053FB0022314BFFF779FC25A3D3E9002393
:100F6000FFF74AFB41EC100B41EC180B09F024F998
:100F700053EC102BB0EE480AF0EE680ACDE90423DA
:100F800009F07AF9701E8DED020BFFF7CBFADDE95F
:100F90000423FFF731FBFFF7DFFD1A490D781B49EA
:100FA0002C18C6F101000F78FFF7BCFA9DED020B7B
:100FB00053EC102BFFF720FBFFF7CEFD3844E4B2D3
:100FC000C0B2234600903A460698294601F098FCA4
:100FD000154B079A1A8009B0BDEC028BBDE8F08F63
:100FE0004FF000084FF000098BE600BFAFF3008020
:100FF000182D4454FB210940300500202C05002009
:101000003C050020280500203A0500203805002076
:10101000290500202E0500203405002000806640B0
:101020002A05002039050020360500203205002061
:101030003E0500202DE9F04F87B00546BDF844403D
:101040009DF84060BDF84C80059489463D491446A2
:101050001F4601F053FB2846002101F01FFC00222F
:101060003B4611460096284600F0EAFC284601213E
:1010700001F014FC4046FFF745FACDE9020138467D
:10108000FFF750FA824605988B46FFF74BFADDE9E9
:101090000223FFF7DBFB52465B46FFF7ADFAFFF793
:1010A00083FDB11E431CC9B2621CDBB20091D2B2F7
:1010B0004946284600F0C4FC264428460221F6B2E0
:1010C00001F0ECFB771EFFB24FF4FA6442F22838CD
:1010D0002046FFF727FADDE90223FFF7B7FB524668
:1010E0005B46FFF789FAFFF75FFD431CDBB204F5AF
:1010F0007A74009719460022284601F001FC444505
:10110000E6D12846022101F0C9FB2846012101F061
:1011100045FA0598042101F08FFFB21E09F1010183
:101120000346D2B2C9B2284601F0AAFA28460021E5
:1011300001F034FA2846012107B0BDE8F04F01F074
:10114000ADBB00BF64DA00082DE9F04F83B005465F
:101150009DF834A09DF83090DDF838800C460121D0
:1011600016461F4601F09AFB28461F4901F0C6FAB1
:10117000BAF1010F24D00223CDE9009332463B4659
:101180002146284600F034FD4046FFF72DFD01348E
:10119000A7EB8001A9F10202324404EB6101D2B253
:1011A0004346C9B2284601F06BFA2846002101F0F7
:1011B000F5F92846012103B0BDE8F04F01F06EBB00
:1011C0004FF0020B3B46324621462846CDE9009BB4
:1011D00000F09AFC5946284601F060FB514628462B
:1011E00001F0DCF9D0E700BF78E300082DE9F04713
:1011F0009DF820A0DDE909981546AAF1020A554498
:1012000006460C46EDB20E491F4601F077FA4B46F2
:101210002A462146304601F033FA3046094901F0AA
:101220006DFA4046FFF7E0FC791E2144A1EB8001F6
:101230002A4643463046C9B2BDE8F04701F020BA1D
:101240006CD300081CC700082DE9F047099F9DF8E2
:10125000206089460B4915461C46804601F04EFA2F
:101260003846FFF7C1FC09F1FF394C44B21EA4EB2C
:1012700080042A44E1B23B464046D2B2BDE8F04782
:1012800001F0FEB91CC700082DE9F04F2DED028BCF
:1012900089B08946199CBDF954709DF85C507E490F
:1012A00006979DF860709DF85860079792461F4614
:1012B000804605959DF850B001F020FA2046FFF7D2
:1012C00093FC079B059A002B0CBF3446741C023F0D
:1012D000C4EBC404FFB2751B8000E4B2002AC0B2A4
:1012E000A7EB0404EDB20CBF00230323241A002152
:1012F00040466F1EE41A01F0D1FA17F0FF07E4B27E
:1013000000F08C800698FFF70DF9059A023D531EF8
:101310003B44EDB25B1BCDE902019FED5D8B049375
:1013200017440BE0CDF800B0404600F089FB049B69
:101330000734013E9F42E4B2F6B26FD03846FFF761
:10134000F1F8B0EE480AF0EE680A41EC110B08F033
:10135000F3FFDDE9020153EC102BFFF7D3FB09EBA0
:101360000405EDB2072352462946013F0028D9D093
:101370000121404601F092FAABF10207079B574466
:10138000FFB2002B57D1059B002B4BD0DDF814A0EA
:101390005046FFF7B7F89FED3E0B41EC110B08F0FC
:1013A000CBFF51EC100BFFF7FFFB5346F61A069AE2
:1013B000CDF814A0F6B21FFA80FA92FBFAFB1FFADE
:1013C0008BFB3146584601F037FEC6EBC606034696
:1013D0003A4629464046344401F052F9E4B2A9F1B4
:1013E000020121442D4BC9B23A46404601F048F96A
:1013F000069A05990BFB1A20C0B201F01DFE09F1F7
:1014000003094C44E4B203463A462146404609B03B
:10141000BDEC028BBDE8F04F01F032B904EB0905D9
:10142000EDB2A5E73146BDF8180001F005FE3A46D9
:1014300003462946EAE70021404601F02FFA5246CA
:10144000072329464046CDF800B000F0F9FA012103
:10145000404601F023FA0734069BE4B209EB040A84
:10146000002B5FFA8AFA294606DB0D4B3A464046C6
:1014700001F006F9554686E70A4B3A46404601F028
:10148000FFF8069B584203B2554606937BE700BF20
:10149000000000000000244064DA000818C70008BB
:1014A00014C7000810C700082DE9F04F2DED028B7E
:1014B00089B08946199CBDF954709DF85C507E49ED
:1014C00006979DF860709DF85860079792461F46F2
:1014D000804605959DF850B001F010F92046FFF7C1
:1014E00083FB079B059A002B0CBF3446741C023FFC
:1014F00004EB8404FFB2751B8000E4B2002AC0B282
:10150000A7EB0404EDB20CBF00230223241A002130
:1015100040466F1EE41A01F0C1F917F0FF07E4B26C
:1015200000F08C800698FEF7FDFF059A023D531EE1
:101530003B44EDB25B1BCDE902019FED5D8B049353
:1015400017440BE0CDF800B0404600F079FA049B58
:101550000534013E9F42E4B2F6B26FD03846FEF742
:10156000E1FFB0EE480AF0EE680A41EC110B08F01A
:10157000E3FEDDE9020153EC102BFFF7C3FA09EBA0
:101580000405EDB2052352462946013F0028D9D073
:101590000121404601F082F9ABF10207079B574455
:1015A000FFB2002B57D1059B002B4BD0DDF814A0C8
:1015B0005046FEF7A7FF9FED3E0B41EC110B08F0E4
:1015C000BBFE51EC100BFFF7EFFA5346F61A069AE2
:1015D000CDF814A0F6B21FFA80FA92FBFAFB1FFABC
:1015E0008BFB3146584601F027FD06EB8606034685
:1015F0003A4629464046344401F042F8E4B209F143
:10160000FF3121442D4BC9B23A46404601F038F82B
:10161000069A05990BFB1A20C0B201F00DFD09F1E5
:1016200002094C44E4B203463A462146404609B01A
:10163000BDEC028BBDE8F04F01F022B804EB0905C8
:10164000EDB2A5E73146BDF8180001F0F5FC3A46C9
:1016500003462946EAE70021404601F01FF95246B9
:10166000052329464046CDF800B000F0E9F90121F4
:10167000404601F013F90534069BE4B209EB040A75
:10168000002B5FFA8AFA294606DB0D4B3A464046A4
:1016900000F0F6FF554686E70A4B3A46404600F012
:1016A000EFFF069B584203B2554606937BE700BF07
:1016B00000000000000024406CD3000818C7000898
:1016C00014C7000810C700082DE9F04F2DED068B58
:1016D00087B0464D9DF858C0BDF95CE0BDF960404B
:1016E0009DF86490C5F800E0ACF1080C5FFA8CFC42
:1016F00007EE90CAA4EB0E04B8EE677A07EE904AA4
:10170000B8EEE78A07EE909AB8EEE79AC7EE087A45
:1017100005463748DFF8ECB0364F374E87F800C043
:101720001A3B884603320370344BD1B207EE10EAFD
:1017300008F1180200241A70317022464FF0010A95
:1017400088EE09AAF8EEC78ACBED007AF0EE089A87
:1017500004E0317897F800C0DBED007A284828EEE5
:10176000277A01EB0C03C7EE096A0321CDE904A037
:1017700002200390029101344146284607EE903A38
:1017800007EE102AF8EEE77AB8EEC77A0823E6EEFD
:10179000C77A00931823F0EE686AE7EE0A6A77EEDC
:1017A000E97ABDEEE67AFDEEE77A8DED017A17EE85
:1017B000902AFFF779FEE2B29145CAD20C4B0F494D
:1017C00038781B78097832780230C0B20233013A97
:1017D00001391690DBB2D2B2C9B2284607B0BDECCF
:1017E000068BBDE8F04F00F051B900BF480500205E
:1017F0004D0500204C050020440500204E0500202A
:1018000044E80008400500202DE9F04FA7B0DFF8BC
:101810003881BDF9C42003920021BDF9C820474F8B
:10182000DFF828A1DFF82891059205461E46BDF88D
:10183000D0B001F033F898F800003B789AF8002017
:1018400099F800100090284600F0FAF8183E284653
:10185000012101F023F8002E64DD0024224621E05E
:101860004FF000030CF8803C3B7899F8001098F892
:1018700000009AF800201944C9B202440B1B013A37
:10188000DBB22846D2B203F1010E002C36D19DF80E
:1018900018300134D21AD2B2A4B200F0E5FFB4423B
:1018A00022463FDA26A902EB0B0303F07F0301EB8C
:1018B000020C339931F9133003998B42D0DD204962
:1018C000096804911F499DED047AD1ED007A26A99B
:1018D00001EB020C05998B42B8EEC77A25DB06EEC8
:1018E000901AF8EEE66A36EEC77A67EE277AFCEED3
:1018F000E77A17EE903A0CF8803CB5E71CF8800CBC
:101900001CF881CC101AC0B2A2EB0C02013400907A
:10191000D2B2A4B25FFA8EF1284600F0F1FFB442D1
:101920002246BFDB27B0BDE8F08F06EE903A26AB2B
:10193000F8EEE66A03EB020CD5E700BF4D05002088
:1019400048050020400500204C05002044050020EB
:101950004E0500202DE9F04F01EB030883B0541C25
:101960005FFA88F8E4B29B46009443460D469146E0
:10197000064690F87DA00C9F00F098FF18B3BBF1CD
:10198000000F1ED001244FF0000B0CE096F87C30C5
:10199000E3B10135640014F0FF04EDB204BF013778
:1019A0000124A8450DD03B781C42EFD086F87DA0DD
:1019B000CDF800B001234A462946304600F014FF16
:1019C000E7E786F87DA003B0BDE8F08FBAFA8AF2A7
:1019D0005209009386F87D20ECE700BF2DE9F0471F
:1019E00082B01F469DF828900B9D02EB0906F6B2C7
:1019F0000B440096DBB214468846824600F056FF40
:101A000090B1B9F1000F0FD007F10709C9F3C4096C
:101A10002246013400953B4641465046E4B2FFF76A
:101A200099FFA6424D44F3D102B0BDE8F08700BF54
:101A300010B49DF8044001945DF8044BFFF7CEBF4D
:101A40002DE9F04383B01F469DF8289002EB09056D
:101A5000EDB2CB180095DBB214460E46804600F07E
:101A600025FF80B1B9F1000F0DD04FF000092246DB
:101A70000134CDF800903B4631464046E4B200F0D8
:101A8000B3FEA542F3D103B0BDE8F0832DE9F04FDA
:101A900083B0CD189DF8309002EB0904EDB2E4B2AA
:101AA000984600942B460E461746824600F0FEFEEE
:101AB00010B903B0BDE8F08F002300933A464346C7
:101AC000314650464FF0010B00F08EFE4B463A4631
:101AD00031465046CDF800B000F086FE691E4B46F8
:101AE0003A465046CDF800B0C9B200F07DFE621E05
:101AF00000230C93D2B243463146504603B0BDE8B2
:101B0000F04F00F071BE00BF2DE9F04F85B0CC184A
:101B10009DF838509DF83C605719E4B2FFB29A46E0
:101B20000097234689469346804600F0BFFE10B9D1
:101B300005B0BDE8F08FF343DBB2022009EB0601EC
:101B40000BEB0602C9B2D2B21C441F4400903346CC
:101B50004046CDE90221E4B200F056FA01232146C5
:101B6000029A00934046334600F04EFAFFB2042337
:101B70003A46039900934046334600F045FA08235D
:101B80000093214633463A46404600F03DFAAAEB20
:101B9000460303F0FF03022B13D8A5EB460505F01F
:101BA000FF05022DC4D9029A023D0132EDB2D2B234
:101BB0005346494640460E9505B0BDE8F04FFFF745
:101BC0003FBF039A741C0132D1B2E4B2023BDBB2D4
:101BD0005A4640468B4600940393FFF731FF00942A
:101BE000039B59463A464046FFF72AFFD5E700BF18
:101BF0002DE9F04F85B0CD189DF838A09DF83C40F8
:101C000002EB0A0BEDB25FFA8BFB9946CDF800B000
:101C10002B460F469046064600F048FE10B905B028
:101C2000BDE8F08FE343DBB2391908EB0402022070
:101C3000C9B2D2B21D449B44009023463046CDE940
:101C40000221EDB200F094F901232946029A009393
:101C50003046234600F08CF95FFA8BFB04235A468A
:101C6000039900933046234600F082F90823294661
:101C7000A9EB440500935A462346304605F0FF057C
:101C800000F076F9AAEB4404022D04F0FF0418D802
:101C9000022CC4D9029D023C0135EDB2E4B22346C8
:101CA0002A463946304600F0C5FD09F1FF31394476
:101CB00023462A46C9B2304605B0BDE8F04F00F0D1
:101CC000B9BD039B023D03F1010B5FFA8BFBEDB243
:101CD0002B4659464246304600F092FD0AF1FF324B
:101CE00042442B465946D2B2304600F089FDCFE738
:101CF0002DE9F043036890F8388093F8119090F83C
:101D0000397083B00646002502E0994518D933683A
:101D10001B7C726BD80005FB00F04FF6F871014098
:101D2000ECB20A443919013400923046CAB2013586
:101D30000021E4B201F0DCF87B19A045DBB2E4D865
:101D400003B0BDE8F08300BF026890F83830127C21
:101D5000406BDB00002102FB03F207F0E3BD00BF94
:101D600010B50446FFF7C4FF2046BDE8104001F05F
:101D7000FBB800BF026B80F839101368184700BF2A
:101D800010B590F87E30044653B1026890F83830B0
:101D9000127C406BDB0002FB03F2002107F0C2FD66
:101DA00020460021BDE81040FFF7E4BF38B50546E6
:101DB000FFF79EFF95F8394095F838302A681C44A3
:101DC000517CE4B2A14216D995F87E1029B9284673
:101DD0002146FFF7CFFF012038BD127C686BDB0086
:101DE00002FB03F2002107F09DFD28462146FFF784
:101DF000C1FF0120F0E7284601F0B6F8002038BD09
:101E00002DE9F8439DF824409DF820801D46E30706
:101E10000E46174681463BD4A10728D4220715D485
:101E2000630701D4BDE8F88308EB0702A91B484605
:101E3000D2B2C9B200F018FD06EB0802E91B484611
:101E4000D2B2C9B2BDE8F84300F00EBD08EB0702FC
:101E5000A9194846D2B2C9B200F006FD06EB080245
:101E6000E919D2B2C9B2484600F0FEFCD8E7A8EBA7
:101E70000702A91B4846D2B2C9B200F0F5FCA8EB94
:101E80000602E91BD2B2C9B2484600F0EDFCC5E734
:101E9000A8EB02026918D2B2C9B200F0E5FCA8EBC7
:101EA0000602E919D2B2C9B2484600F0DDFCB3E738
:101EB0002DE9F0479DF824509DF820801E46EB0741
:101EC0000C46174681463FD4A90728D42A0715D4C3
:101ED0006B0701D4BDE8F0877B1C311B42464846A6
:101EE000DBB2C9B200F0A6FC631CF11B42464846B7
:101EF000DBB2C9B2BDE8F04700F09CBC7B1C3119D5
:101F000042464846DBB2C9B200F094FC631CF119AA
:101F1000DBB2C9B24246484600F08CFCD8E77B1CD5
:101F2000A8EB0702311B4846DBB2D2B2C9B200F0BF
:101F300081FC631CA8EB0402F11BDBB2D2B2C9B274
:101F4000484600F077FCC1E7531C7118A8EB020269
:101F5000DBB2D2B2C9B200F06DFC631CA8EB040284
:101F6000F119DBB2D2B2C9B2484600F063FCABE76C
:101F70002DE9F04F1C46531C83B091462344621C4C
:101F8000DDB288468B18A9EB0402091B0095DBB271
:101F9000D2B2C9B282469DF830B000F087FC10B9C9
:101FA00003B0BDE8F08FC4EBC4177F00C4F1010695
:101FB000CDE9009B43462246002150467FB276B2CF
:101FC000FFF71EFF002CEBD000250135EDB2002EEF
:101FD000F2B243462946504607F1020605DBF7B246
:101FE0003A44013CD2B27FB2E4B202EB4506CDE9FD
:101FF000009B22460136FFF703FFA54276B2E4D3E9
:1020000003B0BDE8F08F00BF2DE9F04F1C46531C14
:1020100083B091462344621CDDB288468B18A9EB3D
:102020000402091B0095DBB2D2B2C9B282469DF808
:1020300030B000F03BFC10B903B0BDE8F08FC4EB4A
:10204000C4177F00C4F10106CDE9009B4346224638
:10205000002150467FB276B2FFF72AFF002CEBD06A
:1020600000250135EDB2002EF2B243462946504616
:1020700007F1020605DBF7B23A44013CD2B27FB267
:10208000E4B202EB4506CDE9009B22460136FFF79C
:102090000FFFA54276B2E4D303B0BDE8F08F00BFD6
:1020A00010B50446FFF76CFE2046FFF77FFE0028C0
:1020B000FAD101462046BDE81040FFF75BBE00BFE5
:1020C0000823037000487047DC00002030B585B05D
:1020D0000D46009309491346094A044600F09AFF49
:1020E0000DF10F00FFF7ECFF9DF80F200095014662
:1020F000044B204600F016FD05B030BD152E00083B
:10210000192D0008F52900084218435C507800EBAF
:10211000032080B2704700BF012B0BD007D3022BE6
:1021200002D1801AC0B27047401AC0B27047104442
:10213000C0B270470844C0B2704700BF012B0BD03B
:1021400007D3022B02D1401AC0B270471044C0B26C
:1021500070470844C0B27047801AC0B2704700BFD1
:1021600070B490F864500165002380F85A30072D50
:102170000A7836D90131A5F108030165DBB24FF0C9
:10218000FF34AC4090F8656080F85A3022EA0402CF
:1021900080F85820F4180D78E4B2072C45FA03F5BE
:1021A00021D94A1C0265C3F108034A78DBB202FA5E
:1021B00003F3083C2B43E4B2DBB290F87D5080F887
:1021C0005A404FF0FF31B140B5FA85F2520923EA87
:1021D000010380F85C5080F85D2080F8593070BCB5
:1021E00070472B46CBE7EBB2E7E700BF0020704714
:1021F00038B50B7803704B7843708B788370CB784D
:10220000C3700B7903714B7943718B798371CB79EF
:10221000C3710B7A03724B7A43728B7A8372CB7AD7
:10222000C3720B7B03734B7B43738B7B8373CB7BBF
:10223000C3730B7C037404460D4608461121FFF757
:1022400063FF132160822846FFF75EFF1521A082FD
:102250002846FFF759FFE08238BD00BF70B4847A8A
:1022600006680A193378D2B2072A43FA04F51AD954
:10227000731C0360C4F108047378E4B2A340083A05
:102280002B43D2B2DBB24FF0FF340D19EDB204FA9A
:1022900001F1012423EA010104FA05F38272C91A4B
:1022A00048B270BC7047EBB2EDE700BF2DE9F04FCC
:1022B00087B005460F4690F8569090F857A00592C3
:1022C0000EE095F85B20002A43D0A7420AF10103F3
:1022D000A7EB040435D3E7B25FFA83FA4FF00009A5
:1022E00095F85E8095F8553003934FFA89F64FFACA
:1022F0008AFB43465A46314695F8540095F85840B3
:10230000FFF71CFFA4EB090404900398FFF704FFF8
:10231000E4B2059AA7423B4628BF2346002AD0D004
:1023200095F85C60CDF800800246049985F87D60E0
:10233000284600F059FAA7420AF10103A7EB04046A
:10234000C9D24F4485F8567085F857B007B0BDE83C
:10235000F08F95F85D60E5E72DE9F04F044600F158
:10236000500785B0FFF7FCFE384694F8661094F9E4
:102370005960FFF773FF94F8671082463846FFF7FD
:102380006DFF94F8681005463846FFF767FF94F92B
:102390005870002F834627DDF3B21D446D4294F838
:1023A0005E8003936DB22A4694F85400434651462A
:1023B000FFF7C4FE84F85400814694F85500FFF7F7
:1023C000ABFE024684F85500B8F1030F00F2B3806B
:1023D000DFE808F07279850E94F95720B2421EDBCF
:1023E00094F85C3084F87D30584605B0BDE8F08F35
:1023F000039BC7F1010101444B440130CAB2DBB277
:10240000C1B200912046494600F050FA0028EBD0B6
:10241000002294F85A30A4F856204FF0FF3894F870
:1024200062C0216D0CEB03020F78D2B2072A47FA83
:1024300003F064D8C7B294F8630084F85A20831874
:102440000D78DBB208FA0CFC072B27EA0C0745FADB
:1024500002FC62D85FFA8CF508FA00F025EA000564
:1024600084F85A3004E0C2B2D20784F85A30B3D5A7
:10247000002239462046FFF719FF0122294620464F
:10248000FFF714FF94F85A20216D531C0878DBB233
:10249000C2F1080C072B01F1010E40FA02F05FFABD
:1024A0008CFCE0D9C4F850E0497801FA0CF1D31F54
:1024B0000143CAB2DBB2D7E7039909EB0703014432
:1024C000DBB2C9B29DE7039BC3F10100484409F1A7
:1024D0000103D1195FFA80F9DBB2C9B291E7039B1E
:1024E000C7F10105C3F10100511C09F101034D447D
:1024F00010445FFA85F9DBB2C2B2C9B281E74D1C64
:1025000025654978C3F10807FFB201FA07F7083AD1
:102510000743D2B2FFB229468DE74D1C25654D78A1
:10252000C2F10802D2B205FA02F2083B42EA0C05F7
:10253000DBB2EDB290E701464B4662E7836CFF29C0
:1025400003F1170311D8602922D8402984BFB0F8BD
:1025500072209B18587818B90EE003445878D8B107
:102560001A788A42F9D1981C7047B0F87600034473
:10257000188840BA80B238B970479A7813441888DE
:1025800040BA80B20028F7D08142F6D1D81C7047FB
:10259000B0F874201344DDE7704700BF80F85B108B
:1025A000704700BF2DE9F04190F85E6004460F4689
:1025B00015469846032E07D8DFE806F0201B1602C2
:1025C000C26C90470744FFB284F8547084F85550A9
:1025D00041462046FFF7B2FF20B101462046FFF7F3
:1025E000BBFEC0B2BDE8F081C36C98472D1AEDB2B6
:1025F000EAE7C36C98473F1AFFB2E5E7C36C984718
:102600000544EDB2E0E700BF2DE9F84F1E468846CD
:102610001746054600F0ACFA013E4FF0000A4FF6AF
:10262000FF794FF6FE7B6B6816F8011F2846984726
:102630004845044603463A46414628461DD05C4577
:10264000F1D0FFF7AFFF95F85E30032B05D8DFE838
:1026500003F00B080F023F1AFFB282445FFA8AFAB6
:10266000E1E70744FFB2F8E780445FFA88F8F4E74F
:10267000A8EB00085FFA88F8EFE75046BDE8F88F4E
:1026800010B4034C44605DF8044BFFF7BDBF00BFBE
:10269000612B0008836CEBB190F8781090F96D20F5
:1026A00090F96E3080F8792080F87A3091B1012964
:1026B00011D010B490F96A1090F96C4021448A420C
:1026C000B8BF80F87910A342C8BF80F87A405DF89F
:1026D000044B7047704790F96F108A4290F9702050
:1026E000B8BF80F879109342F4DD80F87A20704703
:1026F000014BC364704700BFED210008826C8A4221
:102700000AD010B504466030A164FFF771FD204681
:10271000BDE81040FFF7BEBF704700BFF0B490F8AF
:10272000394090F83AC09DF81070A2EBC402012B1A
:102730000546D2B20C4640D0022F1E4607F00101DA
:1027400090F83B301AD0032F42D0D9B1644532D231
:102750001644F6B296422AD2934227D95E1EF6B2AA
:10276000B34294BFC2EB0303C2EB0603DBB2049196
:102770002146EC6A2846A446F0BC60470134A41BFD
:1027800004F0FF049A4216D22644F6B2A64227D29B
:10279000A44524D90CF1FF36F6B266B1B44594BF16
:1027A000C4EB0C06C4EB0606F3B2E0E7002293424A
:1027B00001D9002ED4D1F0BC70476145FBD290F80E
:1027C0003B409442F7D90497C46AA446F0BC6047E2
:1027D000C6F1010002446445D2B2B9D3EBE700244C
:1027E0006445E8D2D9E700BF30B49DF808402BB16A
:1027F000056B02946C68A44630BC604730BC7047DF
:10280000F0B5541C83B0E4B21D46CB180094DBB283
:1028100017460E46044600F049F848B145B1206B12
:10282000002300933A462B46314645682046A84788
:1028300003B0F0BDF0B5D41883B0E4B21D464B1C14
:102840000094DBB217460E46044600F02FF848B15C
:1028500045B1206B012300933A462B46314645682B
:102860002046A84703B0F0BD70B590F8435095429C
:1028700082B011D890F8445095420DD990F841405B
:102880008C4209D890F842408C4205D9036B002451
:1028900000945C680123A04702B070BD02298ABF82
:1028A000012380F87D1080F87D30704770B490F877
:1028B000446090F843509DF80C4096420FD9A542D1
:1028C0000FD290F8424090F841208C420ED99A42A3
:1028D00013D3994294BF0020012070BC7047A542D9
:1028E00001D2A242EDD8002070BC70479A42FAD2C1
:1028F000994294BF00200120EFE7012070BC70478F
:102900002DE9F04F83B099429DF830908CBFA1EB38
:10291000030AA3EB010A4A450C469B46804615462E
:102920005FFA8AFA38D9A2EB0907FFB2BA453DD25D
:10293000504611461D4622460123BA464C460746DC
:102940008B46019391464D4534BF4FF001094FF03E
:10295000FF394AF34706BBF1FF0F08BF4FF0FE0BEC
:102960005C4516D8019B2A46214640460BB12246BB
:102970002946F61BFFF778FFF2B256B20134002E5B
:10298000E4B204DA4D4402EB0A06EDB276B2A34596
:10299000E8D203B0BDE8F08FA9EB0207FFB2BA4559
:1029A0001CD399420FD800230193CCE79942FAD95E
:1029B000224600234D465C464AF347069346019360
:1029C0004FF00109C7E7224600234D465C464AF313
:1029D0004706934601934FF0FF39BCE75046224625
:1029E000CB4699460123BA462C4607460193154625
:1029F000A9E700BFF0B590F87D509DF8147002F083
:102A000007060124B440012D8C46E4B23BD90025D1
:102A1000016891F810E002F0F8020EFB02C1426B6F
:102A200011447FB95A1ED2B201320A440B782B43AB
:102A3000634001F8013B9142F8D1F0BDFDB2D4B240
:102A4000002BFAD00A7801362A436240013B16F087
:102A500007060A70DBB24FEA45074FEA4402EDD1A0
:102A600090F87D2090F83A70012A394403D9012466
:102A7000002BE7D1E1E708BF1546E1D00124254648
:102A8000002BDFD1D9E7254608BF0024C0E700BFEF
:102A900070B490F83850046890F83960EB00DBB2FD
:102AA00080F83B30217C1F2928BF1F21F200C9007C
:102AB000D2B280F83A1080F83C20617C35448D42D7
:102AC00002DD8B1BDB00DBB21344F02180F83F10EA
:102AD00080F83E3080F83D20A38A8B4298BF80F872
:102AE0003F30E38A80F8403070BC704710B5044630
:102AF000FFF7CEFF002094F83A1094F83D2094F8A8
:102B00003E3084F8410084F8421084F8432084F871
:102B1000443010BD10B49DF8044001945DF8044B9E
:102B2000FFF7FCBD38B580F838204FF480750122DE
:102B3000A0F87C5080F87E200025049A80F8395057
:102B400080F85B500446C362416302638564136886
:102B500098472046FFF7CCFD84F85E5038BD00BF93
:102B600019B10A2901D088B270474FF6FF7070473B
:102B7000002380F82330704710B404690A46A44645
:102B8000002320215DF8044B604700BF10B40469A6
:102B90001346A4460A465DF8044B1721604700BF60
:102BA00000B583B002AA02F8011D0121FFF7EEFF74
:102BB00003B05DF804FB00BF70B5173982B01C4646
:102BC000092933D8DFE801F0152A0D3232323232CA
:102BD000320572BB0221184803F048FA012002B006
:102BE00070BD01221146144803F040FA012002B0E2
:102BF00070BD002AF2D0551EEDB201350F4E2544AE
:102C000014F8013B8DF8073001220A230DF107016A
:102C1000304604F0A9FDA542F2D1DFE700220121F0
:102C2000054803F023FA012002B070BD002002B075
:102C300070BD0122CEE700BF0004004860070020FD
:102C400010B4C4680A46A446002315215DF8044B5D
:102C5000604700BF10B4C4680A46A446002316218A
:102C60005DF8044B604700BF10B4C4681346A44627
:102C70000A465DF8044B1721604700BF10B4C468D2
:102C80000023A4461A4618215DF8044B604700BF94
:102C900010B4C4680023A4461A4619215DF8044BF9
:102CA000604700BF70B5064682B00D462C78172CE1
:102CB00013D01DD90023192C1A462146304626D997
:102CC000FE2C4FF0290120D16A788DF807200235BB
:102CD00000F054F92C78172CEBD16B788DF8073075
:102CE0000DF10702012130460235FFF7BDFFDDE798
:102CF000152C4FF000032146304606D36A788DF834
:102D00000720F4680235A047D0E702B070BDF46830
:102D10000135A047CAE700BF70B50D46143982B02F
:102D20000446164605291CD8DFE801F01203030DFE
:102D300012120021FFF720FF31462046FFF730FF37
:102D4000012002B070BD01210193FFF715FF019B27
:102D50002946256932462046AC4602B0BDE870409F
:102D600060470020EDE700BF0E29F8B5144606467F
:102D700037D00F290AD00B2901D00020F8BD002A36
:102D80003ED12249FFF78EFF0120F8BD1D46FFF717
:102D900075FF6B79B77F07EBC30707F0FF073909AA
:102DA00041F010013046FFF74BFF07F00F013046AE
:102DB000FFF750FFA979304641F0B001FFF74AFF15
:102DC00029792A68C90001F0F8013046FFF74CFF65
:102DD000621E12F0FF04F3D13046FFF759FF0120C5
:102DE000F8BDFFF74BFF81213046FFF729FF214651
:102DF0003046FFF72FFF3046FFF74AFF0120EFE78D
:102E00000349FFF74FFF0120F8BD00BF84E600082B
:102E10008CE6000870B505460C461646FFF7A4FF81
:102E200030B90A2C06D00D2C13D0092C0BD070BD54
:102E3000012070BD284600F02BF828460E49FFF708
:102E400031FF012070BD28460C4900F01DF801201B
:102E500070BD46B928460A49FFF724FF2B689B7CC2
:102E6000AB77012070BD28460649FFF71BFF2B6892
:102E7000DB7CAB77012070BD58E6000894E60008C3
:102E800048E6000850E6000801608B7C83777047B5
:102E900038B5002304461A4645692821A84700236F
:102EA0001A46E56820461421A847204601224B21F6
:102EB00000F064F8236820461A79292100F05EF8B2
:102EC000204600224B2100F059F8236820461A7949
:102ED000292100F053F8204601224B2100F04EF842
:102EE000236820465A792921BDE8384000F046B8C9
:102EF00030B583B002AC069D44F8085D8DF805102E
:102F00008DF806208DF804308568234601220F21B4
:102F1000A84703B030BD00BF10B484680023A446A6
:102F20001A4609215DF8044B604700BF10B484685D
:102F30000023A4461A460A215DF8044B604700BFEF
:102F400010B484680A46A44600230B215DF8044BA4
:102F5000604700BF10B484680A46A44600230E21CF
:102F60005DF8044B604700BF10B484680023A4469A
:102F70001A4610215DF8044B604700BF10B4446945
:102F80000023A4465DF8044B604700BF283908B50C
:102F90002B2917D8DFE801F019343819191916163A
:102FA00016161616161616161616161616161616C1
:102FB0002A2F191919191919192025191919191947
:102FC0001B1B1B1B012380F82430012008BD00239C
:102FD00080F82430012008BD01210D4803F046F897
:102FE000F3E702210A4803F041F8EEE71021084810
:102FF00003F03CF8E9E72021054803F037F8E4E75F
:10300000104601F04FFDE0E70120FDF7FBFDDCE796
:103010000004004830B4029D8160C2600021FF229C
:10302000C0E904350160C177418480F8202080F830
:10303000252030BCFFF770BFF0B4104E104DC1F129
:103040000501CFB2741D314642F2107282424FF038
:10305000300305D8801A80B201339042DBB2F9D236
:1030600001F8013BA5FB0232A1424FEAD202EDD1A9
:103070000023F0197371F0BC704700BFDC0400201E
:10308000CDCCCCCC70B5054608460C46FDF7A0F873
:10309000214682B232232846BDE8704006F0D0B9FE
:1030A0000EB470B583B007AB002153F8045B0193F5
:1030B0002A460646084606F021FD013006F022FCAD
:1030C000019A0446294606F03DFD21463046FFF7A9
:1030D000D9FF204606F01EFC03B0BDE8704003B0E7
:1030E000704700BF30B5284B4FF0A0404FF440313F
:1030F00010228BB002250424186059609A600121C7
:10310000002218461D62C3E90414D961D9625963CB
:103110005A621A63DA609A619A6301F07FFD68BBB4
:103120000AA9002341F8243D174802F0F3F900BB37
:1031300000230122072404A913480993CDE904229E
:10314000CDE90733069401F0DBFF68B9022304A937
:103150000D48CDE9043301F0D3FF18B16B210B48C2
:1031600001F046F80BB030BD6221084801F040F88C
:10317000ECE75521054801F03BF8D9E74D2103481C
:1031800001F036F8CCE700BF50050020ACE600089F
:103190000368B3F1A04F00D0704703F1704303F50B
:1031A000043370B55A69194C42F080525A615B6918
:1031B00086B003F08053009300260B22032301A95D
:1031C0000546009801924FF09040CDE9023602F09A
:1031D000CFFD0F4B236080204FF480714FF480624D
:1031E0002023E06020466660A660E661C4E9041220
:1031F000A36102F043FC18B9EC63656206B070BDD0
:103200009221044800F0F4FFF6E700BFA405002077
:1032100008000240ACE6000808B50D4B0D4A1A60E4
:10322000102100221846C3E90112C3E90322C3E9B1
:103230000522C3E90722C3E90922DA6202F010FA83
:1032400000B908BD45210448BDE8084000F0D0BFE2
:10325000E805002000640040B8E600080268114B51
:103260009A4200D0704703F5D63370B5DA6942F060
:103270000072DA61DB6986B003F000734FF4C0506E
:1032800000930322092301900225002401A94FF095
:103290009040009ECDE90254CDE9042302F068FD80
:1032A00006B070BD0064004010B50B4C0B482146C1
:1032B000012205F041FE0A4B0A481A782178D2B261
:1032C000C9B281541A78212A9DBF1A780132D2B22C
:1032D00000221A7010BD00BF2C060020C408002078
:1032E00054060020300600202DE9F04F00225949F5
:1032F000594EDFF87081DFF870E19FED586ADFF812
:103300006CC1574D83B0174691F800903378053B58
:10331000994513D00B78C35C13F0F00313D0002A47
:1033200050D10B78622B0CD80B780133DBB20B70C9
:1033300091F800903378053B9945EBD103B0BDE897
:10334000F08F0F70E0E791F800A091F800B091F8CD
:1033500000900C780A7810F80AA08DF800A0834439
:103360008144044402449BF801B099F80290E47847
:1033700012798DF801B08DF802908DF803408DF828
:103380000420EA5C9245DCB203F1010302D0072B72
:10339000F7D11C464B464FF0020AA3F13002D2B2DD
:1033A000413B092A0AF1010ADBB205D9052B8CBF82
:1033B00000220122002AB4D0BAF1050F04D01DF872
:1033C0000A30EAE79DF8029009F0F00BBBF1300FEC
:1033D0000DF1030A4FF008034FF0000214D0BBF1C7
:1033E000400F1AD109F00F0909F1090909FA03F987
:1033F000043B13F1040F4A440FD01AF8019B09F063
:10340000F00BBBF1300FEAD109F00F0909FA03F90B
:10341000043B13F1040F4A44EFD107EE902AB8EEB3
:10342000677A58F824305EF82420C7EE066A07EE63
:10343000902A07EE103AF8EEE77AB8EE477A0122C2
:10344000E7EE267AFDEEE77A17EE903A1BB22CF8FB
:10345000143066E753060020540600200000134590
:10346000000000200800002024000020E4040020C8
:103470000B4B00B55A6942F001025A615B6983B097
:10348000002203F00103019311460B20019B02F07F
:103490003FFA0B2003B05DF804EB02F081BA00BFE5
:1034A00000100240334B2DE9F0415A69324E334F40
:1034B00042F480025A615A6988B002F48002009294
:1034C000009A5A6942F400325A615A6902F4003291
:1034D0000192019A5A6942F480225A615B6903F4AD
:1034E00080230293304600220B210125029B4FF0DE
:1034F000020802F0BBFD03A921480595CDE9038729
:1035000002F036FC1F4B0595402203A94FF0904076
:10351000CDE90323002402F02BFC03A930460B2342
:10352000CDE90335CDE9054402F022FC302303A99F
:1035300030460393CDE9047502F01AFC22460A21B5
:10354000072002F0E5F9072002F02AFA2246414658
:103550000A2002F0DDF90A2002F022FA22460A21AE
:10356000172002F0D5F9172002F01AFA08B0BDE8CA
:10357000F08100BF0010024000040048000021104C
:103580000014004800001110164B174A10B5012115
:10359000164C1A60184600225C60C3E90221C3E998
:1035A0000422C3E906221A6202F0C6FEA8B900216D
:1035B0000C4803F0DDF858B900210A4803F014F96B
:1035C00000B910BD50210A48BDE8104000F010BEFF
:1035D0004921074800F00CFEEEE74221044800F0C4
:1035E00007FEE4E758060020005400400E090020C2
:1035F000C4E600080268104B9A4200D0704730B50C
:1036000087B00423C02003220DEB03010190122593
:1036100001240A48CDE90423CDE9025402F0A8FBB5
:10362000074BDA6942F40012DA61DB6903F4001334
:103630000093009B07B030BD0054004000040048D8
:103640000010024070B586B006AA0B4C02F8091DA6
:1036500045000A26294620460096012302F020FF55
:1036600000962946204601230DF1170202F0CCFFF7
:103670009DF9170006B070BD58060020F0B50D4D3D
:103680000D4C85B00127092602942846CDE9006734
:103690001B23352248210534FDF756FDCDE9017481
:1036A000009628461B2335226521FDF74DFD05B008
:1036B000F0BD00BFDC060020DCE60008F0B5334CAE
:1036C000334E344F87B00C2502972046CDE9005683
:1036D000462310220021FDF789FD7A1DF31DCDE957
:1036E00001322046009546231C220021FDF77EFD75
:1036F00007F10A0206F10E03CDE9013220460095DA
:10370000462328220021FDF771FD07F10F0206F183
:103710001503CDE9013220460095382310224821B7
:10372000FDF764FD07F1140206F11C03CDE9013237
:103730002046009538231C22482119372336FDF7EF
:1037400055FDCDE901672046009538232822482100
:10375000FDF74CFD104E114B00952046CDE901368A
:10376000342246230021FDF741FD0021032264237A
:10377000CDE90132059600952046CDE90311462397
:103780003422FDF781FD07B0F0BD00BFDC0600204C
:10379000C8E80008FCE80008D0E60008D4E6000805
:1037A000054B064A03F1140033F8021B22F8021BF2
:1037B0008342F9D1704700BFC8060020B006002040
:1037C00030B597B003224FF4A0230020012510212B
:1037D00002240C920D934FF480324FF4E0130E90BC
:1037E0000CA8CDE91051CDE91342159303F036F83A
:1037F00000B1FEE703464FF4806221460F2501A881
:10380000CDE9024305930195049203F0A5FB03461D
:1038100000B1FEE741F2210206A8CDE908330B937F
:10382000069203F0F7FC044600B1FEE703F0BCFC8F
:103830004FF47A73B0FBF3F002F0E0F8042002F0EA
:10384000F7F8224621464FF0FF3002F061F817B03A
:1038500030BD00BF2DE9F04F2DED048BCFB001F04E
:1038600001F900214FF480720EA806F05BF8FFF713
:10387000A7FFFFF717FEFFF7FBFDFFF733FCFFF78E
:10388000CBFCFFF781FE00F003FD00F067FE00F0C7
:10389000E9FE00F03BFF00F08DFF01F027F801F09A
:1038A0004BF80021754804F0F7FE00B1FEE77448BC
:1038B00004F014F800B1FEE7724804F00FF800B10C
:1038C000FEE7714804F00AF8054600B1FEE70A2257
:1038D0006E496F486F4C01F07FFB01226E496F48C3
:1038E00005F02AFB6E4B6F4A6F497048FEF7EEFBFE
:1038F0002A4608216E4802F0B9FB052001F0D2F8F3
:10390000012208216A4802F0B1FB6848FFF70EFB6C
:1039100029466648FFF714FBFF216448FFF71AFBAE
:103920006248FEF7BDFB634B0193302300932A46A8
:1039300028215E48FEF77CF85F495C48FEF7DEFE12
:103940005E4B5A4837221021FEF79AFE5C4B5748CF
:1039500040222821FEF794FE5448FEF701FA4FF466
:103960007A7001F09FF85148FEF7EEF95549564834
:10397000FFF796FBB4F90030544AC3F16403536374
:10398000FFF79CFEFFF77AFE4848FEF7E9F9294663
:103990001D20FFF757FEC6B232464D494A48FFF791
:1039A0007FFBE52E4B4B00F0078409931D700A2521
:1039B0000DAA022340F62D0600953A214648ADF89F
:1039C000346002F06DFD2D211D20FFF73BFE022328
:1039D0000DAA00953A2140F231553F48ADF83450D8
:1039E00002F05EFD31211D20FFF72CFEFFF766FE81
:1039F000FFF744FE2D48DFF8F480DFF8F4A0DFF88D
:103A0000F490DFF8F4B09FED359A9FED358ADFED45
:103A1000358AFEF7A5F900211D20FFF713FEC5B278
:103A20002A462B492848FFF73BFBE52D099A2A48EF
:103A30000CBF012300230A2513703A2102230DAA8B
:103A4000009540F62D06ADF8346002F029FD2D21D9
:103A50001D20FFF7F7FD022300950DAA40F2315516
:103A60003A211D48ADF8345002F01AFD31211D20D5
:103A7000FFF7E8FD00231C4D0A936DE04408002089
:103A800084080020C407002004080020C806002085
:103A900050050020400000202C060020C408002013
:103AA0008D2F0008B92B000840E60008DC06002036
:103AB00000040048ECE60008E0CC00080CE8000830
:103AC00024E8000830E8000834090020002C0140F8
:103AD00048E800085D070020580600200000A543C4
:103AE00000007F4300002543E4040020B0060020CE
:103AF000F804002048000020F4040020B4F900304D
:103B0000B34AC3F164035363B24B1B6803B3022B84
:103B100000F0C080032B00F0A080012B00F0A580F6
:103B2000AD48FEF711F9AD4B1B78002B78D0012B77
:103B300000F0C480022B00F07F81032B00F09A81FB
:103B4000A548FEF70DF9A64A00235362A14A136067
:103B5000DBF80030002B68D1B8F80030A14807EE40
:103B6000103AB8F80230B8EE477A07EE903A27EEEE
:103B7000097AF8EE677AC7EE086A9B4B1B882A8899
:103B80001BB240F6B7318B4212B267EEA87AFDEE57
:103B9000E66A87EE887A16EE906ABDEEC77A0680EE
:103BA000924817EE106A068014DC002A12DA8E4B57
:103BB0008F4A1B881BB282FB0312DB17C3EBA213D5
:103BC00003EB830303EB83039B001BB2642B238073
:103BD00040F3F882642323808648FFF785FBDAF8F8
:103BE0000030012B8AD1099B1B78012B00F0B58096
:103BF0007E4A2B881288A9F80030AB88A9F80230D9
:103C0000A9F80420AB89774AA9F806306B89128895
:103C1000A9F808300023A9F80A20CAF800306DE797
:103C2000FFF74CFDFFF72AFD8AE76C4B1E78002E4C
:103C300000F06581012E00F01382022E00F02D812C
:103C4000032E00F0E281042E00F07E826248FEF72F
:103C500087F80023CBF800307EE767496748FFF715
:103C60001FFA072001F0B2FE5AE765496348FFF7E3
:103C700017FA172001F0AAFE624B1B78002B7FF485
:103C80004FAF564A1278042A00F0F180534B0132AC
:103C90001A7045E75C495948FFF702FA172001F00E
:103CA00095FE584B1B78002B7FF43AAF4B4A1378A4
:103CB000002B40F0DB800423137031E7534B544F4B
:103CC00008930226089B02970D22019300923C2341
:103CD000324644214048FDF789FA0D36089BF6B27A
:103CE0000733362E089307F10507EBD1494B4A4FAE
:103CF000089348260123CDE90137314609231D36B3
:103D0000009335221B233448F6B2FDF71DFABC2E72
:103D100007F1050704D0089A12F8013B0892EAE778
:103D200078226FF04F034FF0FF3106920593049114
:103D3000142620210A204FF496726FF03B03CDE940
:103D40000032CDE90206032308461F22FCF76CFF70
:103D500000212148FCF7BCFFF2E633211D20FFF7CC
:103D600071FC2E4E2E4F307035211D20FFF76AFC5E
:103D70002C4B372118701D20FFF764FC2A4A96F956
:103D8000003010704FF4C87202FB03F2254B93F918
:103D90000010002A4FF4C87303FB01F3B8BF7F3251
:103DA0002249D2110A804FF4C87101FB00F1002BA7
:103DB000B8BF7F330029B8BF7F311D48CE11DB115A
:103DC00003801C4900960D483E80FFF769F90FE714
:103DD000002C0140FC040020DC060020AD06002081
:103DE00000100040440000205E0700204200002038
:103DF000F11976053006002074E800083409002027
:103E000068E80008C40600206CE80008C8E800085C
:103E1000FCE80008E9E60008DCE60008AE06002041
:103E2000A6060020C6060020A4060020AA06002040
:103E3000A80600205CE8000834206FF06301C82267
:103E400003238DE80F0080230D220021AD48FDF7EC
:103E50003BFCAD490291AD490D230022CDE9003173
:103E6000A84811464023FDF7C1F969E6013BA84A7D
:103E7000137055E634206FF0C701C82204238DE883
:103E80000F0080230D2200219E48FDF71DFCA14953
:103E900002910D230022A049E0E70A9B002B00F0CD
:103EA000DB80013B9BB20A931E466FF06302342312
:103EB000CDE900320EAAB9F800300496C8210EA848
:103EC000CDE9021022F81630002180230D228D4802
:103ED0008D4FFDF799FC0EAB022033F9163001939C
:103EE000012603210D230022CDE902100093CDE924
:103EF0000467114640238348FDF7C6F9A6E6B4F9E6
:103F00000030864A019303270C23CDE90462CDE9F2
:103F1000027600933422462331467A48FDF7B4F9FD
:103F20007F4B78481988019142F228320E23039280
:103F300000933246802331460296FDF77BF80C2130
:103F400000917849B9F90030059102220121CDE9AB
:103F50000321029701931022462331466948FDF759
:103F600093F90122CDE902720C2200926E4AB9F94E
:103F700002300193CDE9046246231C223146614898
:103F8000FDF782F90122CDE902720C220092674A04
:103F9000B9F904300B97CDE90462019331465948D1
:103FA0000C27462328220897FDF76EF90B98314617
:103FB00007465F4A0491FBB2A2FB03C2520802EB20
:103FC00042029B1A03EB43039A0002F1100C554A7C
:103FD00039F91710019107EB87031344089A0092EF
:103FE000CDE9020605930CF0FC0201373823482185
:103FF0004448FDF749F9062F3FF428AE4D4BD85DF4
:104000004D4BDE5D4D4BD95DD3E70A9B002B74D041
:10401000013B9BB20A931E46C8216FF0C7023423AE
:104020000EA8CDE90210CDE90032454B04960EAA48
:104030001B8822F81630002180230D223148354F8D
:10404000FDF7E2FB0EAB022033F916300193012697
:1040500003210D23002247E780230A931E4624E70D
:10406000B9F900102748FCF733FEB9F90030354A9A
:1040700005924FF0020C10270322CDE903C6CDE9CB
:10408000013200971E23212224211E48CDF820C092
:10409000FDF7FAF81C4B00970193282226211948B6
:1040A0001C23FDF7D1F808993046032284460027E7
:1040B00008460D2611461B4A029107EB870313445D
:1040C00039F917200593CDE9030C01923C230096A2
:1040D000089A0C484421FDF7D7F8089B01370D33A7
:1040E000DBB2042F08933FF4B1AD124BD95D124BF4
:1040F000D85D124B13F807C0DDE780230A931E46F4
:104100008AE700BFDC0600207CE8000880E80008A1
:10411000AD06002084E8000888E80008D0E6000822
:104120005E070020FCE8000801E9000806E9000835
:10413000ABAAAAAAB8E80008C0E80008F4E800089A
:10414000A806002044E800082148FDF7FDFD2149AC
:104150001F48FEF7D3FA204B1D480F220221FEF71D
:104160008FFA1E4B1B7803BB1D4B19481E220221E0
:10417000FEF786FA1B4B16481E220A21FEF780FA2C
:10418000164B13481B78012B0CBF154B164B2D22D9
:104190000221FEF775FA154B0D482D220A21FEF774
:1041A0006FFA0B48FDF7DCFD50E50F4B08481E2267
:1041B0000221FEF765FADDE71A4609930123137021
:1041C000FFF7F5BB3B2BDCBF3C23238004E500BF9E
:1041D000DC06002064DA000890E8000800050020F2
:1041E000A0E80008A4E8000870E80008B0E80008AB
:1041F000FEE700BF704700BF064B1A78012A03D9BB
:10420000054B00221A8070471A780132D2B21A7018
:10421000704700BF080500205E07002010B5164C4F
:104220002378012B04D9154A00231380237010BD75
:10423000134A144B10685B6A217813601B1A03EB56
:10424000014307EE903ADFED106AF8EE677A86EEEA
:10425000A77A77EE077A17EE900AFCF775F9002235
:104260000A4BFCF7C9F9FCF777FC044A00B20023BB
:104270001080237010BD00BF080500205E070020DD
:1042800004050020000400400050434800004E4058
:1042900038B5124B124A1A604FF482714FF4E06045
:1042A0004FF40072102507245960D86008219A61E4
:1042B00018460022DD61DC6259639A60C3E904227A
:1042C000C3E908229A621A6303F03EF900B938BDC7
:1042D00047210448BDE83840FFF78ABF6007002047
:1042E000003001401CE900080268114B9A4200D0DE
:1042F000704703F5604370B59A6942F480529A6141
:104300009B6986B003F48053A02000930322052309
:1043100001900225002401A94FF09040009ECDE9B4
:104320000254CDE9042301F023FD06B070BD00BFA7
:10433000003001401D4B00B59A6942F001029A61BC
:104340009B6983B003F0010301930320019B01F0FB
:10435000C3FA002211466FF00B0001F0D9FA0022D7
:1043600011466FF00A0001F0D3FA002211466FF0F7
:10437000090001F0CDFA002211466FF0040001F0AF
:10438000C7FA002211466FF0030001F0C1FA0022C3
:1043900011466FF0010001F0BBFA002211464FF008
:1043A000FF3003B05DF804EB01F0B2BA0010024038
:1043B00008B500F069FBBDE8084001F05BBB00BF39
:1043C00008B5022001F06EFE0221044801F03CFE17
:1043D00010B9034B03221A6008BD00BF0014004847
:1043E000FC04002008B5102001F05CFE10210448F8
:1043F00001F02AFE00B108BDBDE80840FFF70EBF7E
:1044000000040048014801F065BC00BFA40500207D
:1044100008B5202001F046FE402001F043FE202197
:10442000094801F011FE18B9084B01221A6008BDB5
:1044300040214FF0904001F007FE0028F7D1034BD8
:1044400002221A6008BD00BF00040048FC040020DE
:10445000014803F0DBBC00BF4408002008B5044855
:1044600003F0D4FC0349044A01230B60136008BD28
:1044700084080020F4040020F804002008B5034854
:1044800003F0C4FCBDE80840FFF7B6BEC407002037
:10449000014805F037B900BFC4080020014805F005
:1044A00031B900BF3409002008B5054803F0AEFC5F
:1044B000072001F075FA1720BDE8084001F070BA36
:1044C000040800201749184B184A194810B4D1F8AD
:1044D000884044F47004C1F888401C6844F001042A
:1044E0001C605C6822405A601A6822F0847222F4D0
:1044F00080321A601A6822F480221A605A6822F404
:10450000FE025A60DA6A22F00F02DA621A6B0024A5
:1045100010404FF0006218639C608A605DF8044BA5
:10452000704700BF00ED00E0001002400CC07FF8B3
:10453000CCFC00FF30B587B0002306224FF4807515
:10454000022401A94FF09040CDE90154CDE9033395
:10455000059201F00DFC07B030BD00BF30B53D4CF9
:104560003D4B23609BB000234821642220466160BC
:10457000C4E90232C4E90433A36103F063FD0028F7
:1045800042D11AA94FF4805341F8583D314803F005
:10459000DFF9002858D12F4803F02CFE00284ED117
:1045A000002301A92B480393CDE9013304F07CFBE0
:1045B00000283FD10023294D264809931A4608A90F
:1045C000CDE90A33CDE90C330E93089504F014FAC3
:1045D00058BB00234FF400554FF000720FA91D483F
:1045E0001393CDE90F33CDE91133CDE91533CDE97F
:1045F00018331495179204F0C9FB50B92268164B72
:104600009A420ED01BB030BD45211548FFF7F0FD92
:10461000B7E774211248FFF7EBFD22680E4B9A4270
:10462000F0D1FFF787FF1BB030BD64210C48FFF7C6
:10463000DFFDCEE758210A48FFF7DAFDBAE750213F
:104640000748FFF7D5FDABE74B210548FFF7D0FD45
:10465000A1E700BF44080020002C014070000100C9
:1046600040E9000830B5274B00228FB04FF080455D
:104670004FF434744FF4FA611846C3E90054C3E9A7
:1046800002211A619A6103F0DDFC002834D10EA9E1
:104690004FF4805341F82C3D1A4803F059F930BBD0
:1046A000184803F039FDE8B900236946154800931E
:1046B000029304F0F9FA80B900231A4607A91148B9
:1046C0000993CDE907330B9304F0A4F818B1A421A2
:1046D0000D48FFF78DFD0FB030BD9B210A48FFF755
:1046E00087FDE9E794210848FFF782FDDCE78F2189
:1046F0000548FFF77DFDD3E789210348FFF778FDE3
:10470000C5E700BF8408002040E9000810B5264B2B
:10471000264A1A608EB000224FF4B4744FF6FF712F
:1047200018465C60C3E902211A619A6103F08AFCB1
:10473000002834D10EA94FF4805341F82C3D1A487B
:1047400003F006F930BB184803F0E6FCE8B9002393
:10475000694615480093029304F0A6FA80B9002335
:104760001A4607A910480993CDE907330B9304F0C3
:1047700051F818B1D2210E48FFF73AFD0EB010BD26
:10478000C9210B48FFF734FDE9E7C2210848FFF7CC
:104790002FFDDCE7BD210648FFF72AFDD3E7B7214F
:1047A0000348FFF725FDC5E7C407002000040040CB
:1047B00040E9000810B5124B124A1A6084B000227A
:1047C0004FF4347442F2107118465C60C3E9022160
:1047D0009A6103F037FC68B9002301A908480193E6
:1047E000039304F061FA18B1E9210748FFF700FDCF
:1047F00004B010BDE2210448FFF7FAFCECE700BF6B
:10480000040800200010004040E9000800B50368DB
:10481000324A934285B020D0B3F1804F32D0304A33
:10482000934245D02F4A934202D005B05DF804FB75
:104830002D4BDA6942F01002DA61DB6903F01003F4
:104840000393002204213620039B01F061F83620F7
:1048500005B05DF804EB01F0A3B8234B9A6942F46C
:1048600000629A619B6903F40063009300220121B6
:104870001920009B01F04CF8192005B05DF804EBFD
:1048800001F08EB803F504330321DA6942F0010226
:10489000DA61DB6903F00103019300221C20019B14
:1048A00001F036F81C2005B05DF804EB01F078B893
:1048B0000D4BDA6942F00202DA61DB69002203F093
:1048C0000203029311461D20029B01F021F81D20D6
:1048D00005B05DF804EB01F063B800BF002C0140A7
:1048E00000040040001000400010024038B50F4B9B
:1048F0000F4A1A604FF496424FF480554FF480648B
:104900000C215A60184600229D60C3E90441DA6018
:10491000C3E90622C3E9082204F028FE00B938BD25
:1049200045210448BDE83840FFF762BCC4080020B8
:10493000003801404CE9000838B50F4B0F4A1A60A7
:104940004FF496424FF480554FF480640C215A6026
:10495000184600229D60C3E90441DA60C3E90622DB
:10496000C3E9082204F002FE00B938BD5A21044808
:10497000BDE83840FFF73CBC34090020004400404B
:104980004CE9000870B50368284A934288B028D0E3
:10499000274A934201D008B070BD264BDA6942F431
:1049A0000032DA61DB6948F2040003F40033029359
:1049B0000322072303A90390022501244FF090400E
:1049C000CDE90623029ECDE9045401F0D1F900227D
:1049D0000F21262000F09CFF262000F0E1FF08B008
:1049E00070BD144B9A6942F480429A619B694FF4FE
:1049F000C06003F4804301930322072303A90390BB
:104A0000022501244FF09040CDE90623019ECDE917
:104A1000045401F0ADF900220521252000F078FFB3
:104A2000252000F0BDFF08B070BD00BF0038014078
:104A30000044004000100240084B094A1B6810B5B2
:104A4000A2FB03230446980900F0D8FF2146002268
:104A50004FF0FF3000F05CFF002010BD540000203C
:104A6000D34D6210074A08B5136843F01003136072
:104A7000032000F031FF0020FFF7DEFFFFF75AFCB4
:104A8000002008BD00200240024A13680133136071
:104A9000704700BFA4090020014B1868704700BF91
:104AA000A409002030B583B00190FFF7F5FF019C09
:104AB000631C054618BF0134FFF7EEFF401BA04200
:104AC000FAD303B030BD00BF704700BF704700BFCE
:104AD000406A436C43F040034364836C43F0040337
:104AE0008364FFF7F3BF00BF406AFFF7EDBF00BF6D
:104AF000436A5A6C12F0500F02D0DB6B1B6B1847E5
:104B00005A6C196842F400725A64CA6812F4406F11
:104B10000CD1DA6952B95A6C22F480725A645A6C18
:104B2000D20403D45A6C42F001025A641846FEF7CC
:104B300037BE00BF026838B5936803F00303012B4A
:104B400002D00023184638BD1168C907F9D591680D
:104B500001F00D01012909D0426C42F010024264BB
:104B6000826C42F001028264184638BD93680321CA
:104B700043F00203936011600446FFF78DFF054682
:104B800023689B68DB07DCD5FFF786FF401B022804
:104B9000F6D9636C43F010036364A36C43F0010324
:104BA000A3640123CEE700BF026838B5936803F021
:104BB0000303012B0DD09168174B19420ED0436CA3
:104BC00043F010034364836C43F0010383640120CA
:104BD00038BD1368D907EED5002038BD936843F07F
:104BE000010393600446FFF757FF054604E0FFF713
:104BF00053FF401B022804D823681B68DB07F6D547
:104C0000EAE7636C43F010036364A36C43F00103B1
:104C1000A364012038BD00BF3F00008070B596B08E
:104C200000230093002800F03D810368B3F1A04FFA
:104C3000044607D0B74A934204D040F20911B6485F
:104C4000FFF7D8FA636833F4403304D04FF485712A
:104C5000B148FFF7CFFAA36833F0180304D040F24D
:104C60000B11AD48FFF7C6FAE36833F0200304D018
:104C70004FF48671A848FFF7BDFA2369012B00F2B3
:104C8000E780E369012B00F2D880236B33F44063A3
:104C900004D040F20F11A048FFF7ACFAE36A012BF1
:104CA0001ED923F08002402A1AD023F48072802A71
:104CB00016D023F41072B2F5807F11D023F4007265
:104CC000B2F5E07F0CD023F0C002B2F5007F07D030
:104CD000B3F5607F04D04FF488718F48FFF78AFAEC
:104CE000636B012B00F29F806369042B06D0082BB5
:104CF00004D04FF489718848FFF77CFAA36B012B2D
:104D000000F2BA80A369012B00F2AC80236993B151
:104D1000236A013B0F2B00F2E080636A012B00F253
:104D2000C48043B1A36A013B072B04D94FF48E71B1
:104D30007948FFF75FFA606C10F0100019D1656CCC
:104D4000002D00F0BC8023689A68D20040F19E805C
:104D50009A68960000F19A80626CD50640F1D08086
:104D6000636C23F0120343F010036364012016B058
:104D700070BD636CD806F3D423689A6812F00402FD
:104D8000EED1616C21F4817141F00201B3F1A04FC9
:104D900061640CBF5F494FF0A0410191996801F037
:104DA0000301012900F0FF800198816801F00301EF
:104DB000012900F0A98059486568816821F44031D3
:104DC00029438160D4E90251A66BE0692943656AF1
:104DD000012E18BF4FF4805241EA4031012D42EAC2
:104DE000010200F0D880E16A012902D0206B014362
:104DF0000A43996811F00C0F75D0DD6848492069A5
:104E000029400A430128DA6000F0BD801A6B22F0C5
:104E10000F021A630020A064636C23F0030343F0C5
:104E200001036364A3E740F211113B48FFF7E2F985
:104E30006369042B7FF45BAF60E74FF487713648FA
:104E4000FFF7D8F9236B33F440633FF427AF20E733
:104E500040F20D113048FFF7CDF9E369012B7FF6E1
:104E600014AFEAE74FF48A712B48FFF7C3F92369BF
:104E7000002B3FF460AF4BE740F213112648FFF7D9
:104E8000B9F9A369012B7FF641AFEBE7636C23F01F
:104E9000120343F010036364A36C43F00103A364A3
:104EA000636C5DE7012016B070BD40F219111A481D
:104EB000FFF7A0F9636A002B3FF43DAF32E7A5642A
:104EC000C4E9135584F840502046FEF761F9236881
:104ED0009A68D10026D5284636E74FF48C710E48E3
:104EE000FFF788F919E7D868616BA56920F480405D
:104EF000490020F0020041EA8531D8600A437CE78E
:104F000000287FF42DAF38E70168C9073FF55AAF95
:104F100051E700BF0001005058E9000800030050AD
:104F200007C0F0FF2046FFF705FE636C13F0100F7B
:104F300023687FF409AF00287FF406AF616C244A30
:104F4000244D126821F4885121F0020141F0020140
:104F50006164996821F040519960A5FB0212920C9E
:104F6000996802EB8202520041F0805199600092F0
:104F7000009A002A3FF4E8AE009A013A0092009AA3
:104F8000002AF9D1E0E6196B226A21F00F01013AFB
:104F90000A431A633EE778B9A16A013942EA4142FD
:104FA00042F480321FE71968C8073FF50BAF01983C
:104FB00000283FF400AFF8E6616C21F0220141F0D7
:104FC00020016164A16C41F00101A1640BE700BF05
:104FD0005400002083DE1B432DE9F8430F4601688F
:104FE000B1F1A04F0446904608D03F4B994205D0FE
:104FF00040F628113D48FFF7FDF82168896811F057
:10500000040112D194F84030012B0ED0DFF8EC905F
:10501000D9F80860012516F01F0684F8405008D022
:1050200084F840102846BDE8F88302252846BDE8EC
:10503000F8832046FFF7B8FD0546002850D1636C81
:10504000216823F4706323F0010343F480736364E5
:10505000D9F8083013F01F0F636C3AD0B1F1A04FAC
:1050600037D0214A43F48013914263640AD14FF050
:10507000A043DB689B0105D5636C23F4405343F4E4
:1050800080536364636CE06B194A13F480531CBF54
:10509000A36C23F00603A3640026164B84F840603B
:1050A0008262C362144A02631C230B604B6843F0A4
:1050B00010034B60CE6846F0010643463A46CE6088
:1050C000403100F089FD2268936843F00403936047
:1050D000A8E723F480136364CB689A01D2D5CBE7A9
:1050E00084F840609EE700BF0001005058E90008C6
:1050F000F14A0008E94A0008D14A000800030050BC
:10510000F0B5036897B00022B3F1A04F05460092B6
:105110000C4607D0B34A934204D041F23A51B24808
:10512000FFF768F86368013B0F2B00F2F480A36877
:10513000072B00F2F980E368012B04D941F23D51BD
:10514000A948FFF757F82369042B00F2F3802B6876
:10515000DA6812F0180F4ED16269B2F5805F4AD258
:10516000E2682368012A03F1FF3361D0112B00F2BA
:10517000818095F84030012B65D02B689A6801201A
:10518000510785F8400061D4D4E9001000EB4002DB
:1051900004284FEA420200F2D380186B1F26964083
:1051A00020EA060001FA02F202431A639A6812F03A
:1051B0000C0F40F09380092901EB4100A26800F236
:1051C000F3805E6907278740824026EA0700024392
:1051D0005A61D4E90406DA68C2F3C1025200013808
:1051E00006FA02F28E06032854D8DFE810F04601D2
:1051F0003D0134012B01DA6802F01802082A2ED092
:10520000DA6802F01802102A3AD0DB6803F01803BB
:10521000182B02D163693F2BA2D941F23F5172484A
:10522000FEF7E8FFE2682368012A03F1FF339DD10E
:105230000D2B9ED941F24B516B48FEF7DBFF95F8E1
:105240004030012B99D1022017B0F0BD6B6C43F0B8
:1052500020036B64002385F8403017B0F0BD62690D
:10526000B2F5806FFFF47CAFDA6802F01802102A02
:10527000CBD105E041F247515B48FEF7BBFF78E731
:105280006269FF2A7FF66CAFDB6803F01803182B06
:10529000C0D0C2E71A6E02F0F842B24203D11A6ED1
:1052A00022F000421A665A6E02F0F842B24203D16E
:1052B0005A6E22F000425A669A6E02F0F842B242EA
:1052C00003D19A6E22F000429A66DA6E02F0F8423A
:1052D000B24203D1DA6E22F00042DA669A6802F036
:1052E0000302012A7AD0E0680122012802FA01F2C1
:1052F000D3F8B0007CD020EA0202C3F8B020102915
:105300002DD0112965D0122903D1384A9268540250
:1053100029D500209EE741F23B513348FEF76AFF52
:10532000A368072B7FF607AF41F23C512E48FEF7EA
:1053300061FF00E741F23E512B48FEF75BFF06E7B5
:1053400009283BD90E2872D83C3A986B1F26964004
:1053500020EA060001FA02F202439A6326E7234A92
:1053600092681702D5D4B3F1A04F0CBF1D4A4FF07D
:10537000A04201929A6802F00302012A00F0918093
:105380000198826802F00302012A00F0928010293D
:1053900000F09980112979D01229BAD1134A936863
:1053A00043F480039360B4E71E389E690727874063
:1053B000824026EA070002439A610AE71E3A586BC8
:1053C0001F26964020EA060001FA02F202435A63C1
:1053D000ECE6064A9268D601C5D59AE71A68D20764
:1053E00081D596E70001005058E9000800030050FD
:1053F00002430929A468C3F8B0200CD901EB41028B
:105400001B3A98690726964020EA060004FA02F241
:1054100002439A6173E7481C00EB40005A69072673
:105420008640844022EA060222435A6169E75A3ADA
:10543000D86B1F26964020EA060001FA02F20243CA
:10544000DA63B3E6DF6E2F4846F00046384030435B
:105450000243DA6642E79F6E2A4846F0004638402B
:10546000304302439A6639E75F6E264846F00046AD
:105470003840304302435A6630E71F6E214846F0F9
:1054800000463840304302431A6627E7B3F1A04F85
:105490007FF43FAF1C4A936843F080739360002011
:1054A000D8E61A68D00708D4019800283FF46FAFF7
:1054B00067E70268D2077FF56AAF6B6C43F02003A1
:1054C0006B640120C6E6B3F1A04F7FF422AF0E4A11
:1054D0000E4893680E4943F4000393600368A1FBF0
:1054E00003239B0C03EB83035B000093009B002BC7
:1054F0003FF40FAF009B013B0093009B002BF9D1C1
:1055000007E700BF00F0FF830003005054000020B5
:1055100083DE1B43F8B50368B3F1A04F04460D4684
:1055200004D041F617314B48FEF764FE2B68032B7D
:105530000AD95A1F022A22D9092B20D041F6183144
:105540004448FEF757FE2B68CBB9216894F84030E9
:10555000414AB1F1A04F18BF4FF0A042012B4FD0EC
:105560008B6801205B0784F8400024D5636C43F00E
:10557000200363640120002384F84030F8BD6B6889
:1055800033F4004207D0B3F5404F04D041F61B314D
:105590003048FEF72FFEAB6833F44073D5D0B3F537
:1055A000806FD2D0B3F5006FCFD041F61C312948BF
:1055B000FEF720FEC9E793685F07D7D42F68274816
:1055C00007B383686E6823F460433343666B43EA32
:1055D000463383608B6803F00303012B2DD093685F
:1055E00003F00303012B30D01C4AA968936823F40D
:1055F00071630F4323F00F031F4397600020BAE746
:105600000220F8BD836823F4604383608B6803F055
:105610000303012B0DD0936803F00303012B10D07B
:105620000E4A936823F4716323F00F039360002004
:10563000A1E70B68D907E1D4EDE70B68DE07CED50B
:10564000DCE71368DB07D9D4EAE71368D807D5D4B9
:10565000CAE700BF58E900080001005000030050ED
:10566000002800F026819A4B02689A4270B50446E1
:1056700003D0B8219748FEF7BDFDA369012B00F2C6
:10568000E280E369012B00F2D580236A012B00F24E
:10569000C880636A012B00F2BB80A36A012B00F271
:1056A000AE80E36A012B00F2A080A36833F0404390
:1056B00003D0BF218748FEF79DFDE36833F04073B8
:1056C00003D0C0218348FEF795FD2369B3F5702F01
:1056D00000F2DF806369B3F5E00F00F2CF8063680A
:1056E000013BB3F5806F80F0BD8094F83D3003F04E
:1056F000FF02002B00F0B0802368022284F83D20D6
:105700001A6822F002021A601A6842F001021A6056
:10571000FFF7C2F9064605E0FFF7BEF9801B0A282D
:1057200000F2C1802268556815F00105F4D0536875
:10573000D90755D5A369012B13680CBF43F080032B
:1057400023F080031360E369012B13680CBF43F05F
:10575000400323F040031360236A012B13680CBF3E
:1057600043F0200323F020031360636A012B1368C6
:105770000CBF43F0100323F010031360A36A012B46
:1057800013680CBF43F0080323F008031360E36AB7
:10579000012B13680CBF43F0040323F004031360D0
:1057A000D4E90231D4E904500B4361682B4303432D
:1057B00001390B43D361136823F001031360FFF732
:1057C0006BF9054604E0FFF767F9401B0A2872D819
:1057D00023685A68D207F6D4586810F0010071D0D7
:1057E000042384F83D30012070BDBE213948FEF706
:1057F00001FDA36833F040433FF45FAF59E7BD219B
:105800003448FEF7F7FCE36A012B7FF64EAFECE776
:10581000BC213048FEF7EEFCA36A012B7FF641AFB6
:10582000EDE7BB212B48FEF7E5FC636A012B7FF611
:1058300034AFEDE7BA212748FEF7DCFC236A012BE1
:105840007FF627AFEDE7B9212248FEF7D3FCE369E5
:10585000012B7FF61AAFEDE784F83C202046FDF7D8
:10586000FDFC49E7C3211B48FEF7C4FC94F83D301A
:1058700003F0FF02002B7FF43FAFEDE7C221154894
:10588000FEF7B8FC6368013BB3F5806FFFF42DAF02
:10589000E8E7C1210F48FEF7ADFC6369B3F5E00FFF
:1058A0007FF61DAFEAE7032084F83C5084F83D0002
:1058B00070BD012070470320002384F83D0084F868
:1058C0003C3070BD0123206484F83D3070BD00BFC2
:1058D0000064004090E90008C31E042B10B5044684
:1058E00003D9BC210848FEF785FC084AD3684FF667
:1058F000FF010B40240243F0BF6304F4E06443F46F
:1059000000331C43D46010BDC8E9000800ED00E07E
:105910000F2A70B5164605460C4629D80F2C2DD8EF
:105920001C4BDB68C3F30223C3F10701042903F115
:10593000040228BF0421062A17D9033B4FF0FF3287
:105940009A4026EA02064FF0FF328A4024EA020219
:105950009A4032431201002DD2B214DB05F16045AA
:1059600005F5614585F8002370BD00263346EAE75A
:10597000D4210948FEF73EFC0F2CD1D9D521064889
:10598000FEF738FCCCE7054B05F00F052B441A76E3
:1059900070BD00BF00ED00E0C8E90008FCEC00E0CD
:1059A00010B5041E08DB04F01F0101236409054A39
:1059B0008B4042F8243010BDE8210348FEF71AFC62
:1059C000F1E700BF00E100E0C8E9000810B5041EDF
:1059D0000ADB6309203304F01F040122054902FA9F
:1059E00004F441F8234010BDF8210348FEF702FCFF
:1059F000EFE700BF00E100E0C8E900080138B0F1BE
:105A0000807F0ED2084B10B4084C5860F02084F808
:105A100023000022072110469A6019605DF8044BAC
:105A200070470120704700BF10E000E000ED00E08B
:105A3000042808B511D028B90B4A136823F00403D1
:105A4000136008BD40F2E1110848FEF7D3FB064A97
:105A5000136823F004031360F3E7034A136843F069
:105A60000403136008BD00BF10E000E0C8E90008AF
:105A7000704700BF08B5FFF7FBFF08BD002873D0D3
:105A8000F8B5504A03689342044615D01432934245
:105A900012D0143293420FD0143293420CD01432ED
:105AA000934209D01432934206D01432934203D069
:105AB000A4214548FEF79EFB636833F0100202D034
:105AC000B3F5804F63D1A36833F040034ED1E36850
:105AD00033F0800352D1236933F4807202D0B3F5DE
