:020000040800F2
:10000000003000205D8B0008AD8B0008AD8B000830
:10001000AD8B0008AD8B0008AD8B00080000000020
:10002000000000000000000000000000AD8B000890
:10003000AD8B000800000000AD8B0008E54900080A
:10004000AD8B0008AD8B0008AD8B0008AD8B0008B0
:10005000AD8B0008AD8B0008AD8B0008E9490008A6
:10006000AD8B0008AD8B00080D4A00082D4A000832
:10007000AD8B0008AD8B0008AD8B0008AD8B000880
:10008000AD8B0008AD8B0008AD8B0008394A000825
:10009000454A0008754A0008AD8B0008794A0008F7
:1000A000AD8B0008B94A0008AD8B0008AD8B000885
:1000B000DD4A0008FD4A000800000000AD8B000882
:1000C000AD8B00080000000000000000AD8B0008B0
:1000D00000000000114B00081D4B0008AD8B00080C
:1000E000AD8B0008AD8B0008000000000000000090
:1000F0000000000000000000000000000000000000
:1001000000000000000000000000000000000000EF
:100110000000000000000000294B00083D4B0008D3
:1001200000000000000000000000000000000000CF
:1001300000000000000000000000000000000000BF
:10014000AD8B0008AD8B000800000000000000002F
:10015000000000000000000000000000000000009F
:10016000000000000000000000000000000000008F
:10017000000000000000000000000000000000007F
:0801800000000000AD8B000837
:1001900010B5054C237833B9044B13B10448AFF3C1
:1001A00000800123237010BDC80000200000000063
:1001B000E8B9000808B5034B1BB103490348AFF386
:1001C000008008BD00000000CC000020E8B9000855
:1001D000034613F8012B002AFBD1181A0138704787
:1001E00001F0FF01102A2BDB10F0070F08D010F8E8
:1001F000013B013A8B422DD010F0070F42B3F6D1EC
:10020000F0B441EA012141EA014122F007047FF004
:1002100000070023F0E80256083C85EA010586EA5B
:10022000010685FA47F5A3FA87F586FA47F6A5FA97
:1002300087F68EB9EED1F0BC01F0FF0102F00702A3
:1002400032B110F8013B013A83EA010313B1F8D14E
:100250000020704701387047002D06BF354603382F
:10026000073815F0010F07D1013015F4807F02BF68
:10027000013015F4C03F0130F0BC0138704700BFB9
:1002800081F0004102E000BF83F0004330B54FEA47
:1002900041044FEA430594EA050F08BF90EA020FB4
:1002A0001FBF54EA000C55EA020C7FEA645C7FEA47
:1002B000655C00F0E2804FEA5454D4EB5555B8BF6A
:1002C0006D420CDD2C4480EA020281EA030382EADB
:1002D000000083EA010180EA020281EA0303362D6D
:1002E00088BF30BD11F0004F4FEA01314FF4801C40
:1002F0004CEA113102D0404261EB410113F0004F52
:100300004FEA03334CEA133302D0524263EB430308
:1003100094EA050F00F0A780A4F10104D5F1200EA6
:100320000DDB02FA0EFC22FA05F2801841F1000101
:1003300003FA0EF2801843FA05F359410EE0A5F1D5
:1003400020050EF1200E012A03FA0EFC28BF4CF006
:10035000020C43FA05F3C01851EBE37101F00045BC
:1003600007D54FF0000EDCF1000C7EEB00006EEBC9
:100370000101B1F5801F1BD3B1F5001F0CD3490853
:100380005FEA30004FEA3C0C04F101044FEA4452AA
:1003900012F5800F80F09A80BCF1004F08BF5FEA31
:1003A000500C50F1000041EB045141EA050130BD11
:1003B0005FEA4C0C404141EB010111F4801FA4F1B4
:1003C0000104E9D191F0000F04BF01460020B1FA09
:1003D00081F308BF2033A3F10B03B3F120020CDA41
:1003E0000C3208DD02F1140CC2F10C0201FA0CF01F
:1003F00021FA02F10CE002F11402D8BFC2F1200C84
:1004000001FA02F120FA0CFCDCBF41EA0C01904039
:10041000E41AA2BF01EB0451294330BD6FEA040482
:100420001F3C1CDA0C340EDC04F11404C4F120026D
:1004300020FA04F001FA02F340EA030021FA04F37F
:1004400045EA030130BDC4F10C04C4F1200220FAD6
:1004500002F001FA04F340EA0300294630BD21FA14
:1004600004F0294630BD94F0000F83F4801306BFDA
:1004700081F480110134013D4EE77FEA645C18BFCE
:100480007FEA655C29D094EA050F08BF90EA020F65
:1004900005D054EA000C04BF1946104630BD91EA5D
:1004A000030F1EBF0021002030BD5FEA545C05D160
:1004B0004000494128BF41F0004130BD14F580049F
:1004C0003CBF01F5801130BD01F0004545F0FE4113
:1004D00041F470014FF0000030BD7FEA645C1ABF48
:1004E000194610467FEA655C1CBF0B46024650EA7F
:1004F000013406BF52EA033591EA030F41F40021AB
:1005000030BD00BF90F0000F04BF0021704730B530
:100510004FF4806404F132044FF000054FF0000105
:1005200050E700BF90F0000F04BF0021704730B5C6
:100530004FF4806404F1320410F0004548BF40429B
:100540004FF000013EE700BF42004FEAE2014FEAF0
:1005500031014FEA02701FBF12F07F4393F07F4FCB
:1005600081F06051704732F07F4208BF704793F0CE
:100570007F4F04BF41F40021704730B54FF46074E1
:1005800001F0004521F000411CE700BF50EA0102E4
:1005900008BF704730B54FF000050AE050EA01028D
:1005A00008BF704730B511F0004502D5404261EBFD
:1005B00041014FF4806404F132045FEA915C3FF43E
:1005C000D8AE4FF003025FEADC0C18BF03325FEADB
:1005D000DC0C18BF033202EBDC02C2F1200300FA8C
:1005E00003FC20FA02F001FA03FE40EA0E0021FAB1
:1005F00002F11444BDE600BF70B54FF0FF0C4CF49F
:10060000E06C1CEA11541DBF1CEA135594EA0C0F50
:1006100095EA0C0F00F0DEF82C4481EA030621EA8B
:100620004C5123EA4C5350EA013518BF52EA0335C6
:1006300041F4801143F4801338D0A0FB02CE4FF078
:100640000005E1FB02E506F00042E0FB03E54FF0A8
:100650000006E1FB03569CF0000F18BF4EF0010EA0
:10066000A4F1FF04B6F5007F64F5407404D25FEA9C
:100670004E0E6D4146EB060642EAC62141EA55514F
:100680004FEAC52040EA5E504FEACE2EB4F1FD0C91
:1006900088BFBCF5E06F1ED8BEF1004F08BF5FEA0F
:1006A000500E50F1000041EB045170BD06F00046C1
:1006B00046EA010140EA020081EA0301B4EB5C046E
:1006C000C2BFD4EB0C0541EA045170BD41F4801166
:1006D0004FF0000E013C00F3AB8014F1360FDEBF8B
:1006E000002001F0004170BDC4F10004203C35DA67
:1006F0000C341BDC04F11404C4F1200500FA05F3EA
:1007000020FA04F001FA05F240EA020001F000428A
:1007100021F0004110EBD37021FA04F642EB060100
:100720005EEA430E08BF20EAD37070BDC4F10C042A
:10073000C4F1200500FA04F320FA05F001FA04F2EE
:1007400040EA020001F0004110EBD37041F10001DA
:100750005EEA430E08BF20EAD37070BDC4F12005E5
:1007600000FA05F24EEA020E20FA04F301FA05F24D
:1007700043EA020321FA04F001F0004121FA04F2F5
:1007800020EA020000EBD3705EEA430E08BF20EAC5
:10079000D37070BD94F0000F0FD101F000464000FF
:1007A00041EB010111F4801F08BF013CF7D041EA81
:1007B000060195F0000F18BF704703F00046520085
:1007C00043EB030313F4801F08BF013DF7D043EA56
:1007D0000603704794EA0C0F0CEA135518BF95EA0C
:1007E0000C0F0CD050EA410618BF52EA4306D1D193
:1007F00081EA030101F000414FF0000070BD50EAB2
:10080000410606BF1046194652EA430619D094EA3B
:100810000C0F02D150EA013613D195EA0C0F05D125
:1008200052EA03361CBF104619460AD181EA030179
:1008300001F0004141F0FE4141F470014FF0000031
:1008400070BD41F0FE4141F4780170BD70B54FF0CC
:10085000FF0C4CF4E06C1CEA11541DBF1CEA13554C
:1008600094EA0C0F95EA0C0F00F0A7F8A4EB05042E
:1008700081EA030E52EA03354FEA013100F0888025
:100880004FEA03334FF0805545EA131343EA1263EE
:100890004FEA022245EA111545EA10654FEA0026A3
:1008A0000EF000419D4208BF964244F1FD0404F55C
:1008B000407402D25B084FEA3202B61A65EB0305B8
:1008C0005B084FEA32024FF480104FF4002CB6EB75
:1008D000020E75EB030E22BFB61A754640EA0C00F5
:1008E0005B084FEA3202B6EB020E75EB030E22BF35
:1008F000B61A754640EA5C005B084FEA3202B6EB76
:10090000020E75EB030E22BFB61A754640EA9C0034
:100910005B084FEA3202B6EB020E75EB030E22BF04
:10092000B61A754640EADC0055EA060E18D04FEAC2
:10093000051545EA16754FEA06164FEAC30343EA62
:1009400052734FEAC2025FEA1C1CC0D111F4801F2F
:100950000BD141EA00014FF000004FF0004CB6E728
:1009600011F4801F04BF01430020B4F1FD0C88BFC7
:10097000BCF5E06F3FF6AFAEB5EB030C04BFB6EBD2
:10098000020C5FEA500C50F1000041EB045170BDC5
:100990000EF0004E4EEA113114EB5C04C2BFD4EBF2
:1009A0000C0541EA045170BD41F480114FF0000E76
:1009B000013C90E645EA060E8DE60CEA135594EAF2
:1009C0000C0F08BF95EA0C0F3FF43BAF94EA0C0FF5
:1009D0000AD150EA01347FF434AF95EA0C0F7FF46A
:1009E00025AF104619462CE795EA0C0F06D152EABE
:1009F00003353FF4FDAE1046194622E750EA4106A2
:100A000018BF52EA43067FF4C5AE50EA41047FF4B2
:100A10000DAF52EA43057FF4EBAE12E74FF0FF3C17
:100A200006E000BF4FF0010C02E000BF4FF0010CE8
:100A30004DF804CD4FEA410C7FEA6C5C4FEA430C61
:100A400018BF7FEA6C5C1BD001B050EA410C0CBFB0
:100A500052EA430C91EA030F02BF90EA020F002012
:100A6000704710F1000F91EA030F58BF994208BF79
:100A700090422CBFD8176FEAE37040F00100704736
:100A80004FEA410C7FEA6C5C02D150EA013C07D18D
:100A90004FEA430C7FEA6C5CD6D152EA033CD3D0D8
:100AA0005DF8040B704700BF8446104662468C46D2
:100AB0001946634600E000BF01B5FFF7B7FF002805
:100AC00048BF10F1000F01BD4DF808EDFFF7F4FF2E
:100AD0000CBF012000205DF808FB00BF4DF808EDB9
:100AE000FFF7EAFF34BF012000205DF808FB00BFDC
:100AF0004DF808EDFFF7E0FF94BF012000205DF8FE
:100B000008FB00BF4DF808EDFFF7CEFF94BF0120B2
:100B100000205DF808FB00BF4DF808EDFFF7C4FFAB
:100B200034BF012000205DF808FB00BF4FEA410CF4
:100B30007FEA6C5C02D150EA013C0AD14FEA430CD7
:100B40007FEA6C5C02D152EA033C02D14FF0000014
:100B500070474FF0010070474FEA410212F5001252
:100B600015D211D56FF47873B3EB625212D94FEAF4
:100B7000C12343F0004343EA505311F0004F23FADE
:100B800002F018BF404270474FF00000704750EA33
:100B9000013005D111F0004008BF6FF000407047F0
:100BA0004FF00000704700BF4A0011D212F500124A
:100BB00011D20DD56FF47873B3EB62520ED44FEAB5
:100BC000C12343F0004343EA505323FA02F0704735
:100BD0004FF00000704750EA013002D14FF0FF3073
:100BE00070474FF000007047037843B10346002080
:100BF00013F8012F0130C0B2002AF9D1704718460E
:100C0000704700BF064B1B6810B50446581E05F020
:100C100029FB044A14601368002BFCD110BD00BFEF
:100C20002C050020300500202DE9F0411B4D1C4E05
:100C300028709DF820503570DFF884C0194EBDF93A
:100C40001C40DFF88080184FA8F80040704694FBE5
:100C5000F5FE9DF82450ACF800E03570DFF868C070
:100C6000124E94FBF5F4DFF864E0114D3C808CF8F3
:100C7000001032700F4F104C10499DF92860BDF9DB
:100C800018C08EF80030BDF92C20BDF930302E7020
:100C9000A7F800C022800B80BDE8F0813805002055
:100CA000490500204E05002042050020390500209E
:100CB000440500203E050020400500203C050020A2
:100CC0004A0500204C050020480500203A05002078
:100CD0002DE9F04FC84AC94BB2F90040B3F90050B2
:100CE0002DED028B89B08C42069000F37981A942E8
:100CF000D4BFC4EB0100C4EB0500FFF713FC804632
:100D00008946BF4BBF4EB3F90000BF4FFFF70AFC47
:100D100042464B46FFF770FC8046281B8946FFF78A
:100D200001FC02460B4640464946FFF78FFDFFF7A0
:100D300013FFDDF81880B54D03B20021404607933C
:100D400001F0F0FDB24B2A781B7831780F24404631
:100D5000009401F09DF90121404601F0E3FD317856
:100D60002A7800940123404601F092F90026A94A0E
:100D70003B88B2F90000A64A13FB06F3181A92F852
:100D80000080FFF7CFFBA44B044693F900000D460B
:100D9000FFF7C8FB02460B4620462946FFF72CFC0E
:100DA00000229E4BFFF752FD91A3D3E90023FFF7EA
:100DB00023FC41EC100B41EC180B08F075FB5AECCE
:100DC000109BB0EE480AF0EE680A08F0CDFB944B99
:100DD00093F800B08B4B1D788C4BA8EB0B008DED7E
:100DE000020B1C78FFF79EFB4A465346CDE9049A56
:100DF000FFF702FCFFF7B0FE05EB000AC8F10000A8
:100E0000FFF790FBDDE90223FFF7F6FBFFF7A4FEF7
:100E100004EB00094046FFF785FBDDE90423FFF7FB
:100E2000EBFBFFF799FE0544ABEB0800FFF77AFBFD
:100E3000DDE90223FFF7E0FBFFF78EFE2044C0B29E
:100E40005FFA8AFA5FFA89F9EDB2534600904A4692
:100E50002946069801F098FD724B01361B78F6B2D0
:100E6000B34284D2DFF8B4B1DFF8C091DFF8C081BB
:100E70004FF0000A0024674AB9F80030B2F90000C8
:100E8000634A13FB04F3181A1578FFF74BFB624B08
:100E9000064693F900000F46FFF744FB02460B4657
:100EA00030463946FFF7A8FB52465B46FFF7CEFCBB
:100EB0004FA3D3E90023FFF79FFB41EC100B41EC5C
:100EC000180B08F0F1FA57EC106BB0EE480AF0EE90
:100ED000680A08F049FB53EC102B6842CDE9022365
:100EE000FFF720FBDDE90223FFF786FBFFF734FE67
:100EF000464B1B7803442846DDB2FFF713FB32460E
:100F00003B46FFF779FBFFF727FE3E4B197801447C
:100F10002A46C9B2069801F0EBFC013498F800307B
:100F2000E4B2A342A7D23B4BB3F90000384B1E7882
:100F3000079B181AFFF7F6FA0D463749044691F950
:100F40000000FFF7EFFA02460B4620462946FFF75E
:100F500053FB0022314BFFF779FC25A3D3E9002393
:100F6000FFF74AFB41EC100B41EC180B08F09CFA20
:100F700053EC102BB0EE480AF0EE680ACDE90423DA
:100F800008F0F2FA701E8DED020BFFF7CBFADDE9E7
:100F90000423FFF731FBFFF7DFFD1A490D781B49EA
:100FA0002C18C6F101000F78FFF7BCFA9DED020B7B
:100FB00053EC102BFFF720FBFFF7CEFD3844E4B2D3
:100FC000C0B2234600903A460698294601F0DCFC60
:100FD000154B079A1A8009B0BDEC028BBDE8F08F63
:100FE0004FF000084FF000098BE600BFAFF3008020
:100FF000182D4454FB210940400500203C050020E9
:101000004C050020380500204A0500204805002036
:10101000390500203E050020440500200080664080
:101020003A05002049050020460500204205002021
:101030004E0500202DE9F04F87B00546BDF844402D
:101040009DF84060BDF84C80059489463D491446A2
:101050001F4601F097FB2846002101F063FC0022A7
:101060003B4611460096284600F02EFD28460121F9
:1010700001F058FC4046FFF745FACDE90201384639
:10108000FFF750FA824605988B46FFF74BFADDE9E9
:101090000223FFF7DBFB52465B46FFF7ADFAFFF793
:1010A00083FDB11E431CC9B2621CDBB20091D2B2F7
:1010B0004946284600F008FD264428460221F6B29B
:1010C00001F030FC771EFFB24FF4FA6442F2283888
:1010D0002046FFF727FADDE90223FFF7B7FB524668
:1010E0005B46FFF789FAFFF75FFD431CDBB204F5AF
:1010F0007A74009719460022284601F045FC4445C1
:10110000E6D12846022101F00DFC2846012101F01C
:1011100089FA0598042101F0D3FFB21E09F10101FB
:101120000346D2B2C9B2284601F0EEFA28460021A1
:1011300001F078FA2846012107B0BDE8F04F01F030
:10114000F1BB00BFC4E400082DE9F04F83B00446B2
:101150000D4616461F469DF830909DF834B0DDF8D8
:10116000388000214FF0020A01F0DCFB3B4632469A
:1011700029462046CDF80090CDF804A000F008FDE7
:101180002046012101F0CEFB20461A4901F0FAFA6F
:10119000BBF1010FCDE9009A3B4632462946204675
:1011A0001DD000F069FD4046FFF71EFD0135A7EB9D
:1011B0008001A9F10202324405EB6101D2B243463B
:1011C000C9B2204601F0A0FA2046002101F02AFA17
:1011D0002046012103B0BDE8F04F01F0A3BB00F0B1
:1011E000D7FC5146204601F09DFB5946204601F0B0
:1011F00019FAD8E7D8ED000800B583B0092B0DD84F
:10120000DFE803F00F11131517191B1D1F050E4BF7
:1012100001933C230093502300F04EFC03B05DF893
:1012200004FB0A4BF4E70A4BF2E70A4BF0E70A4BE0
:10123000EEE70A4BECE70A4BEAE70A4BE8E70A4B12
:10124000E6E70A4BE4E700BF58BC000800BA000814
:10125000B0BE000808C1000860C30008B8C5000897
:1012600010C8000868CA0008C0CC000818CF0008E1
:101270002DE9F0479DF820A0DDE909981546AAF16F
:10128000020A554406460C46EDB20E491F4601F0CF
:1012900079FA4B462A462146304601F035FA304667
:1012A000094901F06FFA4046FFF79EFC791E214480
:1012B000A1EB80012A4643463046C9B2BDE8F0475B
:1012C00001F022BACCDD00087CD100082DE9F047FE
:1012D000099F9DF8206089460B4915461C468046AB
:1012E00001F050FA3846FFF77FFC09F1FF394C4412
:1012F000B21EA4EB80042A44E1B23B464046D2B27F
:10130000BDE8F04701F000BA7CD100080000000001
:101310002DE9F04F2DED028B89B08946199CBDF95E
:1013200054709DF85C507E4906979DF860709DF85A
:101330005860079792461F46804605959DF850B025
:1013400001F020FA2046FFF74FFC079B059A002B7F
:101350000CBF3446741C023FC4EBC404FFB2751BBF
:101360008000E4B2002AC0B2A7EB0404EDB20CBFC7
:1013700000230323241A002140466F1EE41A01F0C3
:10138000D1FA17F0FF07E4B200F08C800698FFF75F
:10139000C9F8059A023D531E3B44EDB25B1BCDE9F3
:1013A00002019FED5D8B049317440BE0CDF800B074
:1013B000404600F089FB049B0734013E9F42E4B2A3
:1013C000F6B26FD03846FFF7ADF8B0EE480AF0EE4F
:1013D000680A41EC110B08F027F9DDE9020153EC32
:1013E000102BFFF78FFB09EB0405EDB207235246E4
:1013F0002946013F0028D9D00121404601F092FA48
:10140000ABF10207079B5744FFB2002B57D1059B56
:10141000002B4BD0DDF814A05046FFF773F89FED7A
:101420003E0B41EC110B08F0FFF851EC100BFFF7ED
:10143000BBFB5346F61A069ACDF814A0F6B21FFA73
:1014400080FA92FBFAFB1FFA8BFB3146584601F0FB
:1014500037FEC6EBC60603463A46294640463444A4
:1014600001F052F9E4B2A9F1020121442D4BC9B2B5
:101470003A46404601F048F9069A05990BFB1A20B6
:10148000C0B201F01DFE09F103094C44E4B2034669
:101490003A462146404609B0BDEC028BBDE8F04F0C
:1014A00001F032B904EB0905EDB2A5E73146BDF80C
:1014B000180001F005FE3A4603462946EAE70021F6
:1014C000404601F02FFA5246072329464046CDF800
:1014D00000B000F0F9FA0121404601F023FA073488
:1014E000069BE4B209EB040A002B5FFA8AFA29464C
:1014F00006DB0D4B3A46404601F006F9554686E7B5
:101500000A4B3A46404601F0FFF8069B584203B2A8
:10151000554606937BE700BF000000000000244012
:10152000C4E4000878D1000874D1000870D1000824
:101530002DE9F04F2DED028B89B08946199CBDF93C
:1015400054709DF85C507E4906979DF860709DF838
:101550005860079792461F46804605959DF850B003
:1015600001F010F92046FFF73FFB079B059A002B7F
:101570000CBF3446741C023F04EB8404FFB2751B9D
:101580008000E4B2002AC0B2A7EB0404EDB20CBFA5
:1015900000230223241A002140466F1EE41A01F0A2
:1015A000C1F917F0FF07E4B200F08C800698FEF74F
:1015B000B9FF059A023D531E3B44EDB25B1BCDE9DA
:1015C00002019FED5D8B049317440BE0CDF800B052
:1015D000404600F079FA049B0534013E9F42E4B294
:1015E000F6B26FD03846FEF79DFFB0EE480AF0EE37
:1015F000680A41EC110B08F017F8DDE9020153EC21
:10160000102BFFF77FFA09EB0405EDB205235246D4
:101610002946013F0028D9D00121404601F082F936
:10162000ABF10207079B5744FFB2002B57D1059B34
:10163000002B4BD0DDF814A05046FEF763FF9FED62
:101640003E0B41EC110B07F0EFFF51EC100BFFF7D5
:10165000ABFA5346F61A069ACDF814A0F6B21FFA62
:1016600080FA92FBFAFB1FFA8BFB3146584601F0D9
:1016700027FD06EB860603463A4629464046344493
:1016800001F042F8E4B209F1FF3121442D4BC9B217
:101690003A46404601F038F8069A05990BFB1A20A5
:1016A000C0B201F00DFD09F102094C44E4B2034659
:1016B0003A462146404609B0BDEC028BBDE8F04FEA
:1016C00001F022B804EB0905EDB2A5E73146BDF8FB
:1016D000180001F0F5FC3A4603462946EAE70021E6
:1016E000404601F01FF95246052329464046CDF8F1
:1016F00000B000F0E9F90121404601F013F905348A
:10170000069BE4B209EB040A002B5FFA8AFA294629
:1017100006DB0D4B3A46404600F0F6FF554686E79D
:101720000A4B3A46404600F0EFFF069B584203B290
:10173000554606937BE700BF0000000000002440F0
:10174000CCDD000878D1000874D1000870D1000801
:101750002DE9F04F2DED068B87B0464D9DF858C012
:10176000BDF95CE0BDF960409DF86490C5F800E00B
:10177000ACF1080C5FFA8CFC07EE90CAA4EB0E04E7
:10178000B8EE677A07EE904AB8EEE78A07EE909ACD
:10179000B8EEE79AC7EE087A05463748DFF8ECB0AE
:1017A000364F374E87F800C01A3B88460332037025
:1017B000344BD1B207EE10EA08F1180200241A7077
:1017C000317022464FF0010A88EE09AAF8EEC78A66
:1017D000CBED007AF0EE089A04E0317897F800C07B
:1017E000DBED007A284828EE277A01EB0C03C7EEE0
:1017F000096A0321CDE904A002200390029101347B
:101800004146284607EE903A07EE102AF8EEE77AAE
:10181000B8EEC77A0823E6EEC77A00931823F0EEF5
:10182000686AE7EE0A6A77EEE97ABDEEE67AFDEEDF
:10183000E77A8DED017A17EE902AFFF779FEE2B292
:101840009145CAD20C4B0F4938781B780978327809
:101850000230C0B20233013A01391690DBB2D2B283
:10186000C9B2284607B0BDEC068BBDE8F04F00F0CA
:1018700051B900BF580500205D0500205C0500201F
:10188000540500205E0500207CF200085005002071
:101890002DE9F04FA7B0DFF83881BDF9C4200392DD
:1018A0000021BDF9C820474FDFF828A1DFF82891B3
:1018B000059205461E46BDF8D0B001F033F898F801
:1018C00000003B789AF8002099F800100090284614
:1018D00000F0FAF8183E2846012101F023F8002E06
:1018E00064DD0024224621E04FF000030CF8803C28
:1018F0003B7899F8001098F800009AF800201944F5
:10190000C9B202440B1B013ADBB22846D2B203F142
:10191000010E002C36D19DF818300134D21AD2B203
:10192000A4B200F0E5FFB44222463FDA26A902EB5A
:101930000B0303F07F0301EB020C339931F91330F1
:1019400003998B42D0DD2049096804911F499DED20
:10195000047AD1ED007A26A901EB020C05998B429D
:10196000B8EEC77A25DB06EE901AF8EEE66A36EE98
:10197000C77A67EE277AFCEEE77A17EE903A0CF812
:10198000803CB5E71CF8800C1CF881CC101AC0B262
:10199000A2EB0C0201340090D2B2A4B25FFA8EF135
:1019A000284600F0F1FFB4422246BFDB27B0BDE875
:1019B000F08F06EE903A26ABF8EEE66A03EB020CE7
:1019C000D5E700BF5D050020580500205005002028
:1019D0005C050020540500205E0500202DE9F04F35
:1019E00001EB030883B0541C5FFA88F8E4B29B460D
:1019F000009443460D469146064690F87DA00C9F04
:101A000000F098FF18B3BBF1000F1ED001244FF077
:101A1000000B0CE096F87C30E3B10135640014F063
:101A2000FF04EDB204BF01370124A8450DD03B7877
:101A30001C42EFD086F87DA0CDF800B001234A46C5
:101A40002946304600F014FFE7E786F87DA003B092
:101A5000BDE8F08FBAFA8AF25209009386F87D2029
:101A6000ECE700BF2DE9F04782B01F469DF82890B3
:101A70000B9D02EB0906F6B20B440096DBB214464E
:101A80008846824600F056FF90B1B9F1000F0FD0A2
:101A900007F10709C9F3C4092246013400953B4602
:101AA00041465046E4B2FFF799FFA6424D44F3D1B8
:101AB00002B0BDE8F08700BF10B49DF80440019467
:101AC0005DF8044BFFF7CEBF2DE9F04383B01F460E
:101AD0009DF8289002EB0905EDB2CB180095DBB21A
:101AE00014460E46804600F025FF80B1B9F1000F84
:101AF0000DD04FF0000922460134CDF800903B464E
:101B000031464046E4B200F0B3FEA542F3D103B043
:101B1000BDE8F0832DE9F04F83B0CD189DF83090EB
:101B200002EB0904EDB2E4B2984600942B460E464F
:101B30001746824600F0FEFE10B903B0BDE8F08FF4
:101B4000002300933A464346314650464FF0010B7E
:101B500000F08EFE4B463A4631465046CDF800B076
:101B600000F086FE691E4B463A465046CDF800B05E
:101B7000C9B200F07DFE621E00230C93D2B2434630
:101B80003146504603B0BDE8F04F00F071BE00BFD3
:101B90002DE9F04F85B0CC189DF838509DF83C6089
:101BA0005719E4B2FFB29A460097234689469346F6
:101BB000804600F0BFFE10B905B0BDE8F08FF343DA
:101BC000DBB2022009EB06010BEB0602C9B2D2B26E
:101BD0001C441F44009033464046CDE90221E4B244
:101BE00000F056FA01232146029A009340463346FC
:101BF00000F04EFAFFB204233A46039900934046A0
:101C0000334600F045FA08230093214633463A460E
:101C1000404600F03DFAAAEB460303F0FF03022B17
:101C200013D8A5EB460505F0FF05022DC4D9029A8D
:101C3000023D0132EDB2D2B25346494640460E95BE
:101C400005B0BDE8F04FFFF73FBF039A741C0132A7
:101C5000D1B2E4B2023BDBB25A4640468B46009416
:101C60000393FFF731FF0094039B59463A464046E1
:101C7000FFF72AFFD5E700BF2DE9F04F85B0CD185B
:101C80009DF838A09DF83C4002EB0A0BEDB25FFADC
:101C90008BFB9946CDF800B02B460F469046064682
:101CA00000F048FE10B905B0BDE8F08FE343DBB2A9
:101CB000391908EB04020220C9B2D2B21D449B4478
:101CC000009023463046CDE90221EDB200F094F9B0
:101CD00001232946029A00933046234600F08CF9EE
:101CE0005FFA8BFB04235A46039900933046234640
:101CF00000F082F908232946A9EB440500935A46CF
:101D00002346304605F0FF0500F076F9AAEB4404BF
:101D1000022D04F0FF0418D8022CC4D9029D023C05
:101D20000135EDB2E4B223462A463946304600F08A
:101D3000C5FD09F1FF31394423462A46C9B2304670
:101D400005B0BDE8F04F00F0B9BD039B023D03F1C3
:101D5000010B5FFA8BFBEDB22B46594642463046EB
:101D600000F092FD0AF1FF3242442B465946D2B2AE
:101D7000304600F089FDCFE72DE9F043036890F885
:101D8000388093F8119090F8397083B0064600259A
:101D900002E0994518D933681B7C726BD80005FBAB
:101DA00000F04FF6F8710140ECB20A4439190134E1
:101DB00000923046CAB201350021E4B201F0DCF8ED
:101DC0007B19A045DBB2E4D803B0BDE8F08300BFC7
:101DD000026890F83830127C406BDB00002102FB77
:101DE00003F206F019BF00BF10B50446FFF7C4FFA9
:101DF0002046BDE8104001F0FBB800BF026B80F840
:101E000039101368184700BF10B590F87E300446AB
:101E100053B1026890F83830127C406BDB0002FB53
:101E200003F2002106F0F8FE20460021BDE8104034
:101E3000FFF7E4BF38B50546FFF79EFF95F8394038
:101E400095F838302A681C44517CE4B2A14216D976
:101E500095F87E1029B928462146FFF7CFFF0120CB
:101E600038BD127C686BDB0002FB03F2002106F038
:101E7000D3FE28462146FFF7C1FF0120F0E72846A0
:101E800001F0B6F8002038BD2DE9F8439DF8244054
:101E90009DF820801D46E3070E46174681463BD439
:101EA000A10728D4220715D4630701D4BDE8F8831D
:101EB00008EB0702A91B4846D2B2C9B200F018FDD0
:101EC00006EB0802E91B4846D2B2C9B2BDE8F843A6
:101ED00000F00EBD08EB0702A9194846D2B2C9B2FC
:101EE00000F006FD06EB0802E919D2B2C9B2484675
:101EF00000F0FEFCD8E7A8EB0702A91B4846D2B2C7
:101F0000C9B200F0F5FCA8EB0602E91BD2B2C9B2D7
:101F1000484600F0EDFCC5E7A8EB02026918D2B212
:101F2000C9B200F0E5FCA8EB0602E919D2B2C9B2C9
:101F3000484600F0DDFCB3E72DE9F0479DF824505A
:101F40009DF820801E46EB070C46174681463FD47D
:101F5000A90728D42A0715D46B0701D4BDE8F08758
:101F60007B1C311B42464846DBB2C9B200F0A6FCDE
:101F7000631CF11B42464846DBB2C9B2BDE8F047DC
:101F800000F09CBC7B1C311942464846DBB2C9B20A
:101F900000F094FC631CF119DBB2C9B2424648461A
:101FA00000F08CFCD8E77B1CA8EB0702311B4846ED
:101FB000DBB2D2B2C9B200F081FC631CA8EB040210
:101FC000F11BDBB2D2B2C9B2484600F077FCC1E7E0
:101FD000531C7118A8EB0202DBB2D2B2C9B200F0F6
:101FE0006DFC631CA8EB0402F119DBB2D2B2C9B2DA
:101FF000484600F063FCABE72DE9F04F1C46531C4C
:1020000083B091462344621CDDB288468B18A9EB4D
:102010000402091B0095DBB2D2B2C9B282469DF818
:1020200030B000F087FC10B903B0BDE8F08FC4EB0E
:10203000C4177F00C4F10106CDE9009B4346224648
:10204000002150467FB276B2FFF71EFF002CEBD086
:1020500000250135EDB2002EF2B243462946504626
:1020600007F1020605DBF7B23A44013CD2B27FB277
:10207000E4B202EB4506CDE9009B22460136FFF7AC
:1020800003FFA54276B2E4D303B0BDE8F08F00BFF2
:102090002DE9F04F1C46531C83B091462344621C2B
:1020A000DDB288468B18A9EB0402091B0095DBB250
:1020B000D2B2C9B282469DF830B000F03BFC10B9F4
:1020C00003B0BDE8F08FC4EBC4177F00C4F1010674
:1020D000CDE9009B43462246002150467FB276B2AE
:1020E000FFF72AFF002CEBD000250135EDB2002EC2
:1020F000F2B243462946504607F1020605DBF7B225
:102100003A44013CD2B27FB2E4B202EB4506CDE9DB
:10211000009B22460136FFF70FFFA54276B2E4D3BB
:1021200003B0BDE8F08F00BF10B50446FFF76CFEAA
:102130002046FFF77FFE0028FAD101462046BDE881
:102140001040FFF75BBE00BF0823037000487047D4
:10215000E400002030B585B00D46009309491346D0
:10216000094A044600F09AFF0DF10F00FFF7ECFF5B
:102170009DF80F2000950146044B204600F016FD07
:1021800005B030BD9D2E0008A12D00087D2A000855
:102190004218435C507800EB032080B2704700BFC8
:1021A000012B0BD007D3022B02D1801AC0B270478B
:1021B000401AC0B270471044C0B270470844C0B261
:1021C000704700BF012B0BD007D3022B02D1401A5E
:1021D000C0B270471044C0B270470844C0B27047E4
:1021E000801AC0B2704700BF70B490F864500165A7
:1021F000002380F85A30072D0A7836D90131A5F12D
:1022000008030165DBB24FF0FF34AC4090F8656025
:1022100080F85A3022EA040280F85820F4180D7829
:10222000E4B2072C45FA03F521D94A1C0265C3F133
:1022300008034A78DBB202FA03F3083C2B43E4B20A
:10224000DBB290F87D5080F85A404FF0FF31B1403A
:10225000B5FA85F2520923EA010380F85C5080F850
:102260005D2080F8593070BC70472B46CBE7EBB24D
:10227000E7E700BF0020704738B50B7803704B7854
:1022800043708B788370CB78C3700B7903714B7973
:1022900043718B798371CB79C3710B7A03724B7A5B
:1022A00043728B7A8372CB7AC3720B7B03734B7B43
:1022B00043738B7B8373CB7BC3730B7C03740446A8
:1022C0000D4608461121FFF763FF1321608228465F
:1022D000FFF75EFF1521A0822846FFF759FFE08235
:1022E00038BD00BF70B4847A06680A193378D2B258
:1022F000072A43FA04F51AD9731C0360C4F10804D1
:102300007378E4B2A340083A2B43D2B2DBB24FF069
:10231000FF340D19EDB204FA01F1012423EA0101A1
:1023200004FA05F38272C91A48B270BC7047EBB266
:10233000EDE700BF2DE9F04F87B005460F4690F856
:10234000569090F857A005920EE095F85B20002A71
:1023500043D0A7420AF10103A7EB040435D3E7B247
:102360005FFA83FA4FF0000995F85E8095F85530D2
:1023700003934FFA89F64FFA8AFB43465A46314691
:1023800095F8540095F85840FFF71CFFA4EB09049A
:1023900004900398FFF704FFE4B2059AA7423B4676
:1023A00028BF2346002AD0D095F85C60CDF8008085
:1023B0000246049985F87D60284600F059FAA74244
:1023C0000AF10103A7EB0404C9D24F4485F8567003
:1023D00085F857B007B0BDE8F08F95F85D60E5E788
:1023E0002DE9F04F044600F1500785B0FFF7FCFEE1
:1023F000384694F8661094F95960FFF773FF94F823
:10240000671082463846FFF76DFF94F8681005465E
:102410003846FFF767FF94F95870002F834627DD91
:10242000F3B21D446D4294F85E8003936DB22A4668
:1024300094F8540043465146FFF7C4FE84F8540014
:10244000814694F85500FFF7ABFE024684F855002C
:10245000B8F1030F00F2B380DFE808F07279850E5F
:1024600094F95720B2421EDB94F85C3084F87D303A
:10247000584605B0BDE8F08F039BC7F10101014448
:102480004B440130CAB2DBB2C1B20091204649468A
:1024900000F050FA0028EBD0002294F85A30A4F84B
:1024A00056204FF0FF3894F862C0216D0CEB030208
:1024B0000F78D2B2072A47FA03F064D8C7B294F86B
:1024C000630084F85A2083180D78DBB208FA0CFCFC
:1024D000072B27EA0C0745FA02FC62D85FFA8CF555
:1024E00008FA00F025EA000584F85A3004E0C2B288
:1024F000D20784F85A30B3D5002239462046FFF778
:1025000019FF012229462046FFF714FF94F85A20AC
:10251000216D531C0878DBB2C2F1080C072B01F1C6
:10252000010E40FA02F05FFA8CFCE0D9C4F850E0EA
:10253000497801FA0CF1D31F0143CAB2DBB2D7E7E5
:10254000039909EB07030144DBB2C9B29DE7039B82
:10255000C3F10100484409F10103D1195FFA80F980
:10256000DBB2C9B291E7039BC7F10105C3F10100DA
:10257000511C09F101034D4410445FFA85F9DBB2A7
:10258000C2B2C9B281E74D1C25654978C3F108077D
:10259000FFB201FA07F7083A0743D2B2FFB2294661
:1025A0008DE74D1C25654D78C2F10802D2B205FABF
:1025B00002F2083B42EA0C05DBB2EDB290E70146BD
:1025C0004B4662E7836CFF2903F1170311D860299A
:1025D00022D8402984BFB0F872209B18587818B9C7
:1025E0000EE003445878D8B11A788A42F9D1981C81
:1025F0007047B0F876000344188840BA80B238B902
:1026000070479A781344188840BA80B20028F7D0EF
:102610008142F6D1D81C7047B0F874201344DDE72E
:10262000704700BF80F85B10704700BF2DE9F04194
:1026300090F85E6004460F4615469846032E07D86C
:10264000DFE806F0201B1602C26C90470744FFB279
:1026500084F8547084F8555041462046FFF7B2FF85
:1026600020B101462046FFF7BBFEC0B2BDE8F081B5
:10267000C36C98472D1AEDB2EAE7C36C98473F1A2E
:10268000FFB2E5E7C36C98470544EDB2E0E700BF51
:102690002DE9F84F1E4688461746054600F0ACFA6D
:1026A000013E4FF0000A4FF6FF794FF6FE7B6B6854
:1026B00016F8011F284698474845044603463A46FF
:1026C000414628461DD05C45F1D0FFF7AFFF95F895
:1026D0005E30032B05D8DFE803F00B080F023F1A2A
:1026E000FFB282445FFA8AFAE1E70744FFB2F8E7F3
:1026F00080445FFA88F8F4E7A8EB00085FFA88F8EE
:10270000EFE75046BDE8F88F10B4034C44605DF825
:10271000044BFFF7BDBF00BFE92B0008836CEBB192
:1027200090F8781090F96D2090F96E3080F879204B
:1027300080F87A3091B1012911D010B490F96A1063
:1027400090F96C4021448A42B8BF80F87910A342C6
:10275000C8BF80F87A405DF8044B7047704790F925
:102760006F108A4290F97020B8BF80F879109342B8
:10277000F4DD80F87A207047014BC364704700BFD6
:1027800075220008826C8A420AD010B50446603077
:10279000A164FFF771FD2046BDE81040FFF7BEBF02
:1027A000704700BFF0B490F8394090F83AC09DF8F7
:1027B0001070A2EBC402012B0546D2B20C4640D0E9
:1027C000022F1E4607F0010190F83B301AD0032F6C
:1027D00042D0D9B1644532D21644F6B296422AD2DA
:1027E000934227D95E1EF6B2B34294BFC2EB0303F5
:1027F000C2EB0603DBB204912146EC6A2846A446EC
:10280000F0BC60470134A41B04F0FF049A4216D2C6
:102810002644F6B2A64227D2A44524D90CF1FF36AD
:10282000F6B266B1B44594BFC4EB0C06C4EB060621
:10283000F3B2E0E70022934201D9002ED4D1F0BCDC
:1028400070476145FBD290F83B409442F7D904971A
:10285000C46AA446F0BC6047C6F101000244644566
:10286000D2B2B9D3EBE700246445E8D2D9E700BF80
:1028700030B49DF808402BB1056B02946C68A446F7
:1028800030BC604730BC7047F0B5541C83B0E4B234
:102890001D46CB180094DBB217460E46044600F0E6
:1028A00049F848B145B1206B002300933A462B46C6
:1028B000314645682046A84703B0F0BDF0B5D418AE
:1028C00083B0E4B21D464B1C0094DBB217460E46A3
:1028D000044600F02FF848B145B1206B0123009366
:1028E0003A462B46314645682046A84703B0F0BD1E
:1028F00070B590F84350954282B011D890F844508A
:1029000095420DD990F841408C4209D890F8424048
:102910008C4205D9036B002400945C680123A04716
:1029200002B070BD02298ABF012380F87D1080F8B3
:102930007D30704770B490F8446090F843509DF833
:102940000C4096420FD9A5420FD290F8424090F821
:1029500041208C420ED99A4213D3994294BF002051
:10296000012070BC7047A54201D2A242EDD80020E0
:1029700070BC70479A42FAD2994294BF002001205D
:10298000EFE7012070BC70472DE9F04F83B099420A
:102990009DF830908CBFA1EB030AA3EB010A4A45D6
:1029A0000C469B46804615465FFA8AFA38D9A2EB58
:1029B0000907FFB2BA453DD2504611461D46224690
:1029C0000123BA464C4607468B46019391464D4536
:1029D00034BF4FF001094FF0FF394AF34706BBF10E
:1029E000FF0F08BF4FF0FE0B5C4516D8019B2A462F
:1029F000214640460BB122462946F61BFFF778FFD9
:102A0000F2B256B20134002EE4B204DA4D4402EBC5
:102A10000A06EDB276B2A345E8D203B0BDE8F08F66
:102A2000A9EB0207FFB2BA451CD399420FD8002385
:102A30000193CCE79942FAD9224600234D465C46E1
:102A40004AF34706934601934FF00109C7E7224630
:102A500000234D465C464AF34706934601934FF0E8
:102A6000FF39BCE750462246CB4699460123BA4679
:102A70002C46074601931546A9E700BFF0B590F82C
:102A80007D509DF8147002F007060124B440012D1A
:102A90008C46E4B23BD90025016891F810E002F0C1
:102AA000F8020EFB02C1426B11447FB95A1ED2B22A
:102AB00001320A440B782B43634001F8013B9142F9
:102AC000F8D1F0BDFDB2D4B2002BFAD00A780136AD
:102AD0002A436240013B16F007060A70DBB24FEA58
:102AE00045074FEA4402EDD190F87D2090F83A7006
:102AF000012A394403D90124002BE7D1E1E708BFBB
:102B00001546E1D001242546002BDFD1D9E7254623
:102B100008BF0024C0E700BF70B490F838500468C4
:102B200090F83960EB00DBB280F83B30217C1F2944
:102B300028BF1F21F200C900D2B280F83A1080F8F5
:102B40003C20617C35448D4202DD8B1BDB00DBB217
:102B50001344F02180F83F1080F83E3080F83D208B
:102B6000A38A8B4298BF80F83F30E38A80F84030D8
:102B700070BC704710B50446FFF7CEFF002094F8F4
:102B80003A1094F83D2094F83E3084F8410084F8DF
:102B9000421084F8432084F8443010BD10B49DF8EE
:102BA000044001945DF8044BFFF7FCBD38B580F894
:102BB00038204FF480750122A0F87C5080F87E20E8
:102BC0000025049A80F8395080F85B500446C362AF
:102BD000416302638564136898472046FFF7CCFD84
:102BE00084F85E5038BD00BF19B10A2901D088B2FF
:102BF00070474FF6FF707047002380F8233070470E
:102C000010B404690A46A446002320215DF8044B51
:102C1000604700BF10B404691346A4460A465DF835
:102C2000044B1721604700BF00B583B002AA02F829
:102C3000011D0121FFF7EEFF03B05DF804FB00BFAB
:102C400070B5173982B01C46092933D8DFE801F086
:102C5000152A0D3232323232320572BB0221184847
:102C600003F0D8FC012002B070BD012211461448C7
:102C700003F0D0FC012002B070BD002AF2D0551E36
:102C8000EDB201350F4E254414F8013B8DF80730A5
:102C900001220A230DF10701304604F07BFDA54215
:102CA000F2D1DFE700220121054803F0B3FC012047
:102CB00002B070BD002002B070BD0122CEE700BF9F
:102CC00000040048A007002010B4C4680A46A446C7
:102CD000002315215DF8044B604700BF10B4C468A1
:102CE0000A46A446002316215DF8044B604700BF46
:102CF00010B4C4681346A4460A465DF8044B172175
:102D0000604700BF10B4C4680023A4461A461821C7
:102D10005DF8044B604700BF10B4C4680023A446AC
:102D20001A4619215DF8044B604700BF70B506468E
:102D300082B00D462C78172C13D01DD90023192CE6
:102D40001A462146304626D9FE2C4FF0290120D1C3
:102D50006A788DF80720023500F054F92C78172C8A
:102D6000EBD16B788DF807300DF107020121304669
:102D70000235FFF7BDFFDDE7152C4FF000032146BC
:102D8000304606D36A788DF80720F4680235A047EC
:102D9000D0E702B070BDF4680135A047CAE700BFB4
:102DA00070B50D46143982B00446164605291CD864
:102DB000DFE801F01203030D12120021FFF720FFDC
:102DC00031462046FFF730FF012002B070BD0121DF
:102DD0000193FFF715FF019B2946256932462046DE
:102DE000AC4602B0BDE8704060470020EDE700BF90
:102DF0000E29F8B51446064637D00F290AD00B29FC
:102E000001D00020F8BD002A3ED12249FFF78EFFF5
:102E10000120F8BD1D46FFF775FF6B79B77F07EB03
:102E2000C30707F0FF07390941F010013046FFF7EB
:102E30004BFF07F00F013046FFF750FFA9793046EE
:102E400041F0B001FFF74AFF29792A68C90001F073
:102E5000F8013046FFF74CFF621E12F0FF04F3D179
:102E60003046FFF759FF0120F8BDFFF74BFF8121E6
:102E70003046FFF729FF21463046FFF72FFF304647
:102E8000FFF74AFF0120EFE70349FFF74FFF01205B
:102E9000F8BD00BFE4F00008ECF0000870B505468E
:102EA0000C461646FFF7A4FF30B90A2C06D00D2CAD
:102EB00013D0092C0BD070BD012070BD284600F046
:102EC0002BF828460E49FFF731FF012070BD284638
:102ED0000C4900F01DF8012070BD46B928460A498A
:102EE000FFF724FF2B689B7CAB77012070BD284641
:102EF0000649FFF71BFF2B68DB7CAB77012070BD19
:102F0000B8F00008F4F00008A8F00008B0F00008DD
:102F100001608B7C8377704738B5002304461A46DE
:102F200045692821A84700231A46E5682046142150
:102F3000A847204601224B2100F064F82368204670
:102F40001A79292100F05EF8204600224B2100F07A
:102F500059F8236820461A79292100F053F82046B1
:102F600001224B2100F04EF8236820465A7929218E
:102F7000BDE8384000F046B830B583B002AC069DDD
:102F800044F8085D8DF805108DF806208DF80430A2
:102F90008568234601220F21A84703B030BD00BF3A
:102FA00010B484680023A4461A4609215DF8044B36
:102FB000604700BF10B484680023A4461A460A2163
:102FC0005DF8044B604700BF10B484680A46A4460D
:102FD00000230B215DF8044B604700BF10B48468E8
:102FE0000A46A44600230E215DF8044B604700BF4B
:102FF00010B484680023A4461A4610215DF8044BDF
:10300000604700BF10B444690023A4465DF8044B38
:10301000604700BF283908B52B2917D8DFE801F031
:1030200019343819191916161616161616161616F4
:1030300016161616161616162A2F191919191919F1
:1030400019202519191919191B1B1B1B012380F89D
:103050002430012008BD002380F82430012008BD61
:1030600001210D4803F0D6FAF3E702210A4803F0E4
:10307000D1FAEEE71021084803F0CCFAE9E7202165
:10308000054803F0C7FAE4E7104602F0EFF8E0E77E
:103090000120FDF7B7FDDCE70004004830B4029DD5
:1030A0008160C2600021FF22C0E904350160C17760
:1030B000418480F8202080F8252030BCFFF770BFC5
:1030C000F0B4104E104DC1F10501CFB2741D314660
:1030D00042F2107282424FF0300305D8801A80B25B
:1030E00001339042DBB2F9D201F8013BA5FB023279
:1030F000A1424FEAD202EDD10023F0197371F0BC66
:10310000704700BFE4040020CDCCCCCC70B50546A0
:1031100008460C46FDF75CF8214682B23223284669
:10312000BDE8704005F04CBC0EB470B583B007AB81
:10313000002153F8045B01932A460646084605F031
:1031400057FE013005F058FD019A0446294605F066
:1031500073FE21463046FFF7D9FF204605F054FDA7
:1031600003B0BDE8704003B0704700BF10B5294BF5
:103170004FF0A0414FF440328AB0102019605A60DD
:10318000022104229860D9615A6101210022184667
:1031900019615976996283F8301083F820200192E2
:1031A0000492DA62DA601A765A63CDE90222CDE936
:1031B0000522CDE90722099202F014F930BB002361
:1031C00001A91448019302F02BFCE0B9002301226D
:1031D000072404A90F480993CDE90422CDE9073358
:1031E000069402F093FA58B9022304A90948CDE9DC
:1031F000043302F08BFA08B101F014FB0AB010BDE1
:1032000001F010FBF0E701F00DFBDFE701F00AFB36
:10321000D5E700BF6005002070B5036888B00024C2
:10322000B3F1A04FCDE90344CDE90544079401D0A3
:1032300008B070BD03F1704303F504331B4D5A69A8
:1032400042F080525A615A6902F080520192019A0A
:103250005A6942F400325A615B6903F40033029305
:103260000B22032303A90646029803924FF09040D5
:10327000049303F0F7F80E4B2B6080204FF480711D
:103280004FF480622023E86028466C60AC60EC61FB
:10329000C5E90412AB6102F0FFFF18B9B5636E62B5
:1032A00008B070BD01F0BEFAF8E700BFB00500201D
:1032B000080002400D4B0E4A10B54FF4A0211A60D1
:1032C0000924002218465C601961C3E902225A6190
:1032D0001A765A769A76DA761A775A7702F012FCCC
:1032E00000B910BDBDE8104001F09CBAF405002003
:1032F0000064004070B50268234B88B000249A42F5
:10330000CDE90344CDE90544079401D008B070BD70
:1033100003F5D6334FF4C050DA6942F00072DA6137
:10332000DA6902F000720192019A5A6942F400329D
:103330005A615B69039003F40033029303A90923E4
:10334000032202254FF09040CDE90623029E04950A
:1033500003F088F822460E21132002F02BFF1320E1
:1033600002F05EFF22460C21142002F023FF1420FD
:1033700002F056FF22460D21152002F01BFF1520FA
:1033800002F04EFF08B070BD0064004030B58BB055
:1033900000234FF6E0344FF6E072012569461848E5
:1033A0000593CDE9063304930993CDE90044CDE9B3
:1033B0000222089502F028FCF8B91249124A104876
:1033C0004FF4FD6500230D60082440F2DF75C1E96C
:1033D00002330B750C611461C2E90133D360C2E999
:1033E0000533156002F090FC0221054802F092FDC1
:1033F00008B101F017FA0BB030BD01F013FADCE7A9
:10340000F40500201C060020440600202DE9F041B0
:10341000CF4CBDF818502278002A35D0CD4A167806
:10342000022E49D01678022E68D01678022E00F0AF
:1034300087801678022E00F0A6801678022E00F003
:10344000C4801678022E00F0E3801678022E00F079
:10345000FF801678022E00F012811078022800F00A
:103460002D811178022900F046811178022900F09F
:1034700058811378022B09D0B74BB84AB849B948DC
:1034800002F070FC00232370BDE8F0815378012B1B
:10349000F2D19378DBB2592BEED1B04A032041210F
:1034A00010705170280A0021EDB29370D070157120
:1034B00051719171D171DFE75678F6B2012EB1D119
:1034C000977807F0FF0C002FACD1A44F4FF00608FF
:1034D0004FF0410E87F8008087F801E04FF0380880
:1034E0004FF0800E87F802C087F803C087F8048089
:1034F00087F805E0BE7187F807C093E75678F6B203
:10350000012E92D1977807F0FF0C002F8DD1934FA9
:103510004FF006084FF0410E87F8008087F801E071
:103520004FF038084FF0800E87F802C087F803C0CC
:1035300087F8048087F805E0BE7187F807C074E754
:103540005678F6B2012E7FF474AF9778FFB2202F31
:103550007FF46FAFDFF804C24FF0060E8CF800E086
:103560004FF041084FF0000E8CF801808CF802708B
:103570008CF803E08CF804E08CF805E08CF8066029
:103580008CF807E055E75678012E7FF456AF967811
:10359000F6B2402E7FF451AF704F4FF0060C4FF053
:1035A000410E87F800C087F801E04FF0000C4FF0A3
:1035B000810EBE7087F803C087F804C087F805C085
:1035C00087F806E087F807C037E75678F6B2012E8D
:1035D0007FF437AF9778FFB2602F7FF432AFDFF818
:1035E0007CC14FF0060E8CF800E04FF041084FF020
:1035F000000E8CF801808CF802708CF803E08CF8D7
:1036000004E08CF805E08CF806608CF807E018E719
:103610005678012E7FF419AF9678F6B2802E7FF49B
:1036200014AF4E4F4FF0060C87F800C04FF0410E1C
:103630004FF0000C87F801E0BE7087F803C087F8F0
:1036400004C087F805C087F806C087F807C0FCE605
:103650005678092E7FF4FDAE967806F0FF07002E0F
:103660007FF4F7AE3D4E4FF0040C86F800C0777043
:10367000B770F77037717771B771F771E9E65678FF
:10368000012E7FF4EAAE9678F6B20B2E7FF4E5AE0B
:10369000324F4FF0030C87F800C04FF0410E4FF04F
:1036A000000C87F801E0BE70F87087F804C087F856
:1036B00005C087F806C087F807C0CEE65078012815
:1036C0007FF4CFAE9078C0B20C287FF4CAAE234E00
:1036D000042737704FEA810C41277770C1F38711B7
:1036E00000270CF0FC0CB070F17086F804C0777104
:1036F000B771F771B5E6517801297FF4B6AE9178CC
:10370000C9B20D297FF4B1AE1448032606704127D3
:10371000002647708170C670067146718671C67149
:10372000A3E6517801297FF4A4AE9178C9B211299A
:103730007FF49FAE09480326067041270026477094
:103740008170C370067146718671C67191E600BFC3
:1037500040060020340600203C06002060060020C1
:103760001C060020F405002010B50B4C0B48214628
:10377000012204F013FE0A4B0A481A782178D2B2CB
:10378000C9B281541A78262A9DBF1A780132D2B262
:1037900000221A7010BD00BF6806002084090020B6
:1037A000950600206C0600205C4ADFF880C1117885
:1037B0009CF80030053B8B4200F0AE802DE9F04FC5
:1037C000002183B0DFF86891DFF868819FED546ACB
:1037D000544F8E4666240BE013780133DBB2013C74
:1037E000137013D016789CF80030053B9E420DD024
:1037F0001378C35C13F0F0030BD0002946D1137883
:10380000622BE9D9013C82F800E0EBD103B0BDE8BE
:10381000F08F92F800A092F800B016781578117821
:1038200010F80AA08DF800A0834406440544014422
:103830009BF801B0B678ED7809798DF801B08DF874
:1038400002608DF803508DF80410F95C8A45DDB2F2
:1038500003F1010302D0072BF7D11D4633464FF089
:10386000020AA3F13001C9B2413B09290AF1010A58
:10387000DBB205D9052B8CBF00230123002B49D0D7
:10388000BAF1050F04D01DF80A30EAE79DF802608E
:1038900006F0F00BBBF1300F0DF1030A4FF00803F7
:1038A0004FF0000111D0BBF1400F15D106F00F060B
:1038B00009369E40043B31441E1D0DD01AF8016BA1
:1038C00006F0F00BBBF1300FEDD106F00F069E4075
:1038D000043B31441E1DF1D107EE901AB8EE677A11
:1038E00059F8253058F825100F4EC7EE066A07EE36
:1038F000901A07EE103AF8EEE77AB8EE477A01210F
:10390000E7EE267AFDEEE77A17EE903A1BB226F83C
:10391000153074E7194672E7704700BF940600201F
:103920000000134500000020EC0400209506002054
:1039300008000020240000200B4B00B55A6942F01B
:1039400001025A615B6983B0002203F00103019315
:1039500011460B20019B02F02DFC0B2003B05DF8FB
:1039600004EB02F05DBC00BF001002402DE9F04105
:10397000002488B0CDE90344CDE90544364B0794D3
:103980005A69364E364F42F480025A615A6902F43F
:1039900080020092009A5A6942F400325A615A69D0
:1039A00002F400320192019A5A6942F480225A616B
:1039B0005B6903F480232246029330460B210125E4
:1039C000029B4FF0020802F025FE03A92548059549
:1039D000CDE9038702F046FD03A910234FF0904084
:1039E0000393CDE9044502F03DFD1F4B05954022B0
:1039F00003A94FF09040CDE9032302F033FD03A962
:103A000030460B230393CDE90454069402F02AFDBB
:103A1000302303A930460393CDE9047502F022FD5B
:103A200022460A21072002F0C5FB072002F0F8FB1E
:103A3000224641460A2002F0BDFB0A2002F0F0FBBC
:103A400022460A21172002F0B5FB172002F0E8FBFE
:103A500008B0BDE8F08100BF00100240000400483B
:103A600000002110001400480000111070B586B04D
:103A700006AA0B4C02F8091D45000A2629462046D5
:103A80000096012302F036FF0096294620460123C6
:103A90000DF1170202F0E2FF9DF9170006B070BDAC
:103AA00098060020F0B585B004AC00211D20FFF77A
:103AB000DDFF40F62D0324F8043D0D4D0A26224675
:103AC00007460096284602233A2102F013FF2246B9
:103AD0000096284640F2315402233A21ADF80C40BA
:103AE00002F008FF1B3714BF0020012005B0F0BD15
:103AF00098060020012908B50CBF53231D237928FF
:103B000016D07A2811D0782801D0002008BD184698
:103B10003321FFF7ABFF4FF4C87303FB00F000281D
:103B2000B8BF7F3040F3C71008BD18463721F0E713
:103B300018463521EDE700BF134B144A10B501219B
:103B4000134C1A60184600225C60C3E90221C3E9E5
:103B50000422C3E906221A6202F078FE88B9002125
:103B6000094803F031F848B90021074803F056F836
:103B700000B910BDBDE8104000F054BE00F052FE88
:103B8000F2E700F04FFEEAE79806002000540040FC
:103B90000E09002070B50168174A88B000239142D1
:103BA000CDE90333CDE90533079301D008B070BDEB
:103BB000124C1348636943F480236361636903F41F
:103BC00080230193C022122303920493032204232F
:103BD00003A901250793019ECDE9055202F042FC9D
:103BE000E36943F40013E361E36903F40013029310
:103BF000029B08B070BD00BF00540040001002409E
:103C000000040048F0B50E4F0E4D3B780E4C85B0C9
:103C1000092601932846029400961B233522482149
:103C2000FDF792FA7B7800960534CDE901342846F9
:103C30001B2335226521FDF787FA05B0F0BD00BFD3
:103C4000100500201807002038F20008F0B5334CAA
:103C5000334E344F87B00C2502972046CDE90056ED
:103C6000462310220021FDF703FB7A1DF31DCDE949
:103C700001322046009546231C220021FDF7F8FA68
:103C800007F10A0206F10E03CDE901322046009544
:103C9000462328220021FDF7EBFA07F10F0206F177
:103CA0001503CDE901322046009538231022482122
:103CB000FDF7DEFA07F1140206F11C03CDE901322B
:103CC0002046009538231C22482119372336FDF75A
:103CD000CFFACDE9016720460095382328224821F4
:103CE000FDF7C6FA104E114B00952046CDE901367E
:103CF000342246230021FDF7BBFA0021032264236E
:103D0000CDE90132059600952046CDE90311462301
:103D10003422FDF7FDFA07B0F0BD00BF1807002000
:103D2000ECF2000820F300080CF1000810F1000884
:103D30002DE9F0410D4E0E4DDFF8388084B010248F
:103D40000C2722460C34CDE901650097462300215B
:103D50004046E4B2FDF78CFA402C06F1070605F167
:103D60000505EED104B0BDE8F08100BFECF200081B
:103D700020F3000818070020054B064A03F1140041
:103D800033F8021B22F8021B8342F9D1704700BFAF
:103D900004070020EC06002030B597B00023032470
:103DA0004FF4A0220120CDE90E3312930193069324
:103DB000CDE90233CDE90433CDE90733CDE9093349
:103DC0000B9310210C940D9202244FF4803210902A
:103DD0004FF4E0130CA81191CDE91342159302F0B2
:103DE00045FF00B1FEE703464FF4806201A821467B
:103DF0000F250393059302940195049203F04AFA68
:103E0000034600B1FEE741F2210206A8CDE90833DE
:103E10000B93069203F020FB00B1FEE717B030BD14
:103E20002DE9F04FCDB001F0FDF900214FF4807283
:103E30000CA804F0F1FEFFF7AFFFFFF797FDFFF7C7
:103E40007BFDFFF793F9FFF735FAFFF775FE00F0FA
:103E500053FD01F093F800F0B7FE00F009FF00F009
:103E60005DFF01F009F901F029F900F07FFF00F092
:103E7000A5FF0021B84803F0BBFE00B1FEE7B7483C
:103E800003F066FE00B1FEE7B54803F061FE00B145
:103E9000FEE7B44803F05CFE00B1FEE7B24803F071
:103EA00057FE00B1FEE7B14803F052FE054600B1EF
:103EB000FEE70A22AE49AF48DFF830B3DFF83093AF
:103EC000DFF83083AC4CDFF830A301F099FB01221E
:103ED000AA49AB4804F062FAFFF758FAA94BAA4A7C
:103EE000AA49AB48FEF736F92A460821A94802F04C
:103EF00091FB052001F0BAF901220821A54802F042
:103F000089FBA348FFF756F82946A148FFF75CF85C
:103F1000FF219F48FFF762F89D48FEF705F99E4B89
:103F20000193302300932A4628219948FDF7C4FDC8
:103F30009A499748FEF726FC994B9548372210215D
:103F4000FEF7E2FB974B924840222821FEF7DCFB6C
:103F50008F48FDF749FF4FF47A7001F087F98C48DC
:103F6000FDF736FF90499148FFF7DEF8BBF90030C6
:103F70008F4AC3F164035363FFF768FEFFF742FE05
:103F80008348FDF731FF2846FFF78CFD894B0995E3
:103F90001870A8E00023C9F80030874B874A1B78C7
:103FA000DBB21370864D834A2888864912780B70DD
:103FB00007EE900AF8EE677A4A7017EE900AFCF75F
:103FC000C3FA5DA3D3E90023FCF716FB5CA3D3E996
:103FD0000023FCF73BFCFCF7BFFD6B887A4A07EE39
:103FE000903AF8EE677A108017EE900AFCF7ACFA78
:103FF00055A3D3E90023FCF7FFFA51A3D3E900232B
:10400000FCF724FCFCF7A8FDB8F800306F492288C3
:1040100008801BB240F6B7318B4212B21DDC002A79
:104020001BDCB8F8003018B207EE900AF8EEE77A19
:1040300017EE900AFCF788FA45A3D3E90023FCF7B2
:1040400005FC0022624BFCF7D7FAFCF7ADFD00B28D
:104050006428ABF8000040F3C8836423ABF8003059
:104060002088B8F80010002300931A46C0B2FFF76A
:10407000CDF95848FFF798FB574B1B68012B3DD0F3
:10408000BBF900304A4AC3F164035363534B1B68C6
:1040900023B3022B00F0DA80032B00F0CF80012B3A
:1040A00000F0E6803A48FDF793FE4D4B1D78002D59
:1040B00000F0A480012D00F0ED80022D00F044817D
:1040C000032D00F05081042D00F068813048FDF789
:1040D0008BFE444B00225A62404B1A60424B1B68D5
:1040E000002B40F09080D9F80030002B7FF452AFC5
:1040F000324B1B78002B7FF455AF4EE72D4B1B78CE
:10410000012B00F00E81314B22881B88AAF8002079
:10411000AAF80430A2882C4B2F49AAF80220A289C1
:10412000AAF80620002062891B880860AAF80820E7
:10413000AAF80A30A4E700BF0000000000A0744005
:104140000000000000E06F400000000000A064409C
:10415000000000000070A74084080020C408002070
:10416000040800204408002044090020040900201D
:104170000407002060050020EC04002068060020F1
:104180008409002015300008412C0008A0F0000828
:10419000180700200004004818F1000840D7000864
:1041A00044F200085CF2000868F20008040A0020EB
:1041B000002C01409807002040060020EB0600205C
:1041C000EC060020100500204400002042000020E2
:1041D000000059406C060020000500200805002062
:1041E000EA06002000100040FC04002040000020EF
:1041F000040500209A07002048000020FFF726FD54
:10420000FFF700FD62E78A4B1D78002D00F0388132
:10421000012D00F02382022D00F0B381032D00F068
:10422000D580042D00F06382052D00F0A98281481D
:10423000FDF7DAFD804B00221A6054E77F49804881
:10424000FEF772FF072001F0F9FF2BE77D497C485C
:10425000FEF76AFF172001F0F1FF754A1378042B6F
:104260003FF620AF002B40F0AD800423137019E718
:1042700075497348FEF758FF172001F0DFFF6C4BBC
:104280001B78042B3FF60EAF00F0E381684A013340
:10429000137007E76D4F6E4E02250D232A460D352C
:1042A000CDE90176009344213C236248EDB2FCF74E
:1042B000DFFF362D07F1070706F10506EDD1654F43
:1042C000654E482517F8013B5A48029609222946AF
:1042D0001D35CDE90023EDB21B233522FCF734FF59
:1042E000BC2D06F10506EDD178226FF04F034FF09B
:1042F000FF31069205930491142520210A204FF4E2
:1043000096726FF03B03CDE90032CDE9020503233D
:1043100008461F22FCF788FC00214648FCF7D8FC21
:10432000D4E600217820FFF7E5FB4C4B00211880F4
:104330007920FFF7DFFB4A4B002118807A20FFF736
:10434000D9FB484B1880DEE6FFF7F2FC464A0292A2
:104350000C23464A019200932A4646230021354801
:10436000FCF786FFB2E6C8216FF063023423CDE983
:104370000032CDE9021580230D2200212D48FDF7E2
:10438000E7F93B4902913B490D230022CDE9003179
:10439000284811464023FCF76BFF97E6C8216FF0D1
:1043A000C7023423CDE90032CDE9021580230D2266
:1043B00000212048FDF7CCF92F4902910D2300225E
:1043C0002E49E3E71A4A013B13706BE6099B002B69
:1043D00000F08981013B9BB209931D466FF0630297
:1043E0003423CDE900320CAABAF800300495C82174
:1043F0000CA8CDE9021022F81530002180230D22EF
:104400000C481B4EFDF744FA0CAB022033F9153073
:104410000193012503210D230022CDE90210009311
:10442000CDE90456114640230248FCF771FFFEE631
:10443000EA06002018070020FC0400208CF2000887
:10444000040A002084F2000880F20008ECF2000860
:1044500020F300081005002038F20008E8060020CC
:10446000E6060020E406002094F2000898F2000816
:10447000A0F20008A4F20008A8F20008ACF20008BC
:10448000BBF90030AD4A059203260C27CDE9013671
:10449000342246232946AA480097CDE90355FCF764
:1044A00037FFB8F80010019142F228320E23039230
:1044B00000932A4680232946A1480295FCF7BAFDBD
:1044C000A049BAF90030059102220121CDE903216A
:1044D0000193102246232946994802960097FCF73B
:1044E00017FF0122CDE90262974ABAF9023001931F
:1044F000CDE9045246231C22294691480097FCF737
:1045000007FF0122CDE90262904ABAF90430019313
:10451000CDE9045229468A480097462328220B9762
:10452000FCF7F6FE30462946894A0491F3B2A2FB15
:104530000372520802EB42029B1A03EB4303814FC2
:104540003AF9161001919A0006EB86033B44CDE937
:10455000020510320B980090059302F0FC02013620
:10456000382348217648FCF7D3FE062E06D0794B37
:10457000985D794B9D5D794B995DD5E7FFF742FBDF
:1045800055E6B8F800300A9A1A4492B242F2107313
:104590009A420A9204D9A2F51C53103B9BB20A938B
:1045A000DDED0A7A6E4EF8EE677A0C2517EE900A6A
:1045B000FBF7CAFF00226B4BFCF748F9FCF7F4FA53
:1045C0000222C3B23A215E48FCF716FE664B029601
:1045D000CDE900530222462300215948FCF748FE4A
:1045E000B8F800305648009500211BB20422CDE9EE
:1045F0000311CDE901320596022246230B951026C0
:10460000FCF786FE0025FFF793FB01200221032221
:104610004C4F3AF915C0029205EB85030B9A0092B4
:104620003B44CDE9031005933246CDF804C0462340
:10463000002143480135FCF76BFE0C36042DF6B221
:104640003FF4F5AD434B5A5D434B595D434B585DC9
:10465000DEE7464B4FF000021A7023E5BAF900106E
:104660003748FCF735FBBAF90030414A059210266D
:1046700002270322CDE9013200961E2321222421A4
:104680002F48CDE90375FCF743FE3A4B00960193A2
:1046900026211C232A482822FCF718FE0026032383
:1046A00028463946274D3AF916C0029306EB860292
:1046B0002A440D23CDE9031000930592CDF804C0E0
:1046C0003A463C2344211E480136FCF721FE0D37B3
:1046D000042EFFB23FF4ABAD1F4A1E4B915D1F4A43
:1046E0009B5D905DDEE7802309931D4676E6099B7E
:1046F000002B76D0013B9BB209931D46C8216FF079
:10470000C70234230CA8CDE90210CDE900321A4BC0
:1047100004950CAA1B8822F81530002180230D2255
:104720000748164EFDF7B4F80CAB022033F91530EC
:104730000193012503210D2300226EE60CF10008F0
:104740001807002020F3000825F300082AF30008CA
:10475000ABAAAAAADCF20008E4F2000818F30008E9
:1047600094F2000800408F4098F20008EA0600200A
:104770007CF20008A0F20008E6060020A8F200087B
:104780002048FDF725FB20491E48FDF7FBFF1F4B86
:104790001C480F220221FDF7B7FF1D4B1B7853BBAE
:1047A0001C4B18481E220221FDF7AEFF1A4B15487C
:1047B0001E220A21FDF7A8FF154B12481B78012B7A
:1047C0000CBF144B154B2D220221FDF79DFF144BFE
:1047D0000C482D220A21FDF797FF0A48FDF704FB3C
:1047E00025E5802309931D4688E73B28DCBF3C2351
:1047F000ABF8003034E4094B02481E220221FDF7D9
:1048000083FFD3E718070020C4E40008B4F20008CF
:104810000C050020C4F20008C8F2000888F2000865
:10482000D4F20008FEE700BF064B1A78012A03D92C
:10483000054B00221A8070471A780132D2B21A70E2
:10484000704700BF180500209C070020064B1A780F
:10485000012A03D9054B00221A8070471A780132C9
:10486000D2B21A70704700BF190500209A070020C5
:1048700010B51B4C2378012B04D91A4A002313804E
:10488000237010BD184A194B10685B6A21781360B9
:104890001B1A03EB014307EE903A9FED156AF8EE01
:1048A000677AB6EE007AC6EE276A66EE877A17EE6A
:1048B000900AFBF749FE00220E4BFBF79DFEFCF72A
:1048C00073F9084B80B218801B8841F657329A4220
:1048D00003D323780133DBB223700023237010BD90
:1048E000190500209A07002014050020000400404C
:1048F0000050434800004E4038B5114B114A1A6031
:104900004FF482714FF4E0604FF4007210250724D9
:104910005960D86008219A6118460022DD61DC6286
:1049200059639A60C3E90422C3E908229A621A63B0
:1049300002F0C8FE00B938BDBDE83840FFF772BFCD
:10494000A00700200030014070B50168184A88B007
:1049500000239142CDE90333CDE90533079301D01C
:1049600008B070BD03F1804303F5043303A99A69CD
:1049700042F480529A619A6902F480520192019A3B
:104980005A6942F400325A615B6903F400330293BE
:1049900003220523A02502244FF09040029ECDE97A
:1049A0000354CDE9062301F05DFD08B070BD00BFE2
:1049B000003001400A4B9A6942F001029A619A69FB
:1049C00082B002F001020092009ADA6942F080524D
:1049D000DA61DB6903F080530193019B02B07047F9
:1049E0000010024000F030BC08B5022001F01AFEB1
:1049F0000221044801F008FE10B9034B03221A609B
:104A000008BD00BF001400480805002008B51020AC
:104A100001F008FE1021044801F0F6FD00B108BDC8
:104A2000BDE80840FFF724BF00040048014801F03A
:104A3000CBBC00BFB0050020014801F097BA00BF11
:104A4000F405002010B5074C204601F08FFA064B04
:104A5000064A2046002101F0DDF9054B01221A70BB
:104A600010BD00BFF40500203406002044060020DD
:104A700040060020FFF7E0BF08B5202001F0D2FD7E
:104A8000402001F0CFFD2021094801F0BDFD18B9FB
:104A9000084B01221A6008BD40214FF0904001F000
:104AA000B3FD0028F7D1034B02221A6008BD00BFF6
:104AB000000400480805002008B5054803F04CF93B
:104AC000044803F049F9044B01221A6008BD00BFF5
:104AD00084080020040900200405002008B50448CB
:104AE00003F03AF90349044A01230B60136008BD3F
:104AF000C4080020FC0400200005002008B503487D
:104B000003F02AF9BDE80840FFF7A0BE0408002022
:104B1000014803F00BBD00BF84090020014803F0E9
:104B200005BD00BF040A002008B5034803F014F9CE
:104B3000BDE80840FFF778BE4408002008B50548E6
:104B400003F00AF9072001F06BFB1720BDE80840CD
:104B500001F066BB440900201749184B184A194850
:104B600010B4D1F8884044F47004C1F888401C683F
:104B700044F001041C605C6822405A601A6822F00C
:104B8000847222F480321A601A6822F480221A6039
:104B90005A6822F4FE025A60DA6A22F00F02DA62E0
:104BA0001A6B002410404FF0006218639C608A600A
:104BB0005DF8044B704700BF00ED00E000100240BC
:104BC0000CC07FF8CCFC00FF00B5284A4FF08043B2
:104BD0008FB0136040F2CF7340F2CF21D360104604
:104BE00000235160936003930093079313619361D3
:104BF000CDE904330693CDE90133CDE90833CDE99E
:104C00000A33CDE90C3303F0C3F960BB4FF4805392
:104C100003A91648039302F0EDFF08BB134803F005
:104C2000D3F9D0B90023694610480093029303F0EA
:104C30002FFB78B9002307A91A460C480993CDE940
:104C400007330B9303F036FA08B1FFF7EBFD0FB013
:104C50005DF804FBFFF7E6FDECE7FFF7E3FDE1E7B6
:104C6000FFF7E0FDDAE7FFF7DDFDCFE7C40800203E
:104C700000B5284A284B13608FB04FF6FF7340F2FF
:104C80006711D36010460023516093600393009333
:104C9000079313619361CDE904330693CDE90133A2
:104CA000CDE90833CDE90A33CDE90C3303F070F9CF
:104CB00060BB4FF4805303A91648039302F09AFF98
:104CC00008BB144803F080F9D0B9002369461148A5
:104CD0000093029303F0DCFA78B9002307A91A467F
:104CE0000C480993CDE907330B9303F0E3F908B1BE
:104CF000FFF798FD0FB05DF804FBFFF793FDECE7BD
:104D0000FFF790FDE1E7FFF78DFDDAE7FFF78AFD9A
:104D1000CFE700BF040800200004004010B5114B8D
:104D2000114A1A6084B0002240F267144FF6FF71F6
:104D300018465C60C3E9022101929A61CDE9022222
:104D400003F026F958B9002301A9064801930393FB
:104D500003F09EFA08B1FFF765FD04B010BDFFF740
:104D600061FDF0E7440800200010004010B5114B31
:104D7000114A1A6084B0002240F2CF2442F20F712F
:104D800018465C60C3E9022101929A61CDE90222D2
:104D900003F0FEF858B9002301A9064801930393D4
:104DA00003F076FA08B1FFF73DFD04B010BDFFF740
:104DB00039FDF0E744090020001400400B4B0C4A79
:104DC00010B547F6FE711A6040F6950400221846A9
:104DD0005C60C3E90221C3E904229A6103F0D8F8B8
:104DE00000B910BDBDE81040FFF71CBD040900204C
:104DF0000044014000B50368444A934287B026D07E
:104E0000B3F1804F38D0424A93424BD0414A93424B
:104E10005DD0414A934205D0404A934268D007B0E2
:104E20005DF804FB3E4BDA6942F02002DA61DB698F
:104E300003F020030493372000220B21049B01F090
:104E4000B9F9372007B05DF804EB01F0E9B9344B4C
:104E50009A6942F400629A619B6903F400630093CB
:104E6000009B00220F21192001F0A4F9192007B09E
:104E70005DF804EB01F0D4B903F504330321DA69DA
:104E800042F00102DA61DB6903F0010301930022C1
:104E90001C20019B01F08EF91C2007B05DF804EB8B
:104EA00001F0BEB91E4BDA6942F00202DA61DB6939
:104EB000002203F00203029311461D20029B01F021
:104EC00079F91D2007B05DF804EB01F0A9B9144B86
:104ED000DA6942F01002DA61DB6903F01003039330
:104EE000362000220421039B01F064F93620A9E753
:104EF0000B4B9A6942F400329A619B6903F40033C8
:104F0000059300220F211920059BADE7002C0140DD
:104F10000004004000100040001400400044014024
:104F20000010024030B50168134A87B00023914257
:104F3000CDE90133CDE90333059301D007B030BD8E
:104F400003F1804303F5043301A95A6942F40032A6
:104F50005A615B6903F400330093022206234FF485
:104F600080744FF09040009D0593CDE9014201F01F
:104F700079FA07B030BD00BF002C014030B50024E5
:104F80009BB021462C220FA8CDE90444CDE906446C
:104F900001940894CDE90244CDE90944CDE90B44DC
:104FA000CDE90D4403F038FE304B314D9C60472174
:104FB00063221846C3E904449C61C3E90051DA60E6
:104FC00002F0E6FF00284DD14FF4805304A9274892
:104FD000049302F00FFE002841D1244803F010F89A
:104FE000002839D1002301A920480393CDE90133DA
:104FF00003F04EF968BB00231E4C1C48089408A916
:105000001A46CDE90933CDE90B33CDE90D3303F071
:105010008DF8D8B900234FF400544FF000720FA957
:1050200012481393CDE90F33CDE91133CDE9153390
:10503000CDE918331494179203F068F908B1FFF71B
:10504000F1FB0A48FFF76EFF1BB030BDFFF7EAFB2C
:10505000E0E7FFF7E7FBCEE7FFF7E4FBC2E7FFF788
:10506000E1FBBAE7FFF7DEFBAEE700BF84080020F4
:10507000002C01407000010038B50E4B0E4A1A603A
:105080004FF496424FF480554FF480640C215A60DF
:10509000184600229D60C3E90441DA60C3E9062294
:1050A000C3E9082203F026FD00B938BDBDE8384049
:1050B000FFF7B8BB840900200038014038B50E4B1B
:1050C0000E4A1A604FF496424FF480554FF48064B4
:1050D0000C215A60184600229D60C3E90441DA6041
:1050E000C3E90622C3E9082203F004FD00B938BD74
:1050F000BDE83840FFF796BB040A0020004400409A
:1051000070B50368324A8AB000249342CDE9054461
:10511000CDE9074409942FD02E4A934201D00AB01A
:1051200070BD2D4BDA6942F40032DA61DA6902F4BB
:1051300000320392039A5A6942F400325A615B6961
:1051400048F2040003F40033049305A90723032263
:10515000059002254FF09040CDE90823049E069566
:1051600001F080F922460F21262001F023F82620A5
:1051700001F056F80AB070BD174B9A6942F48042AC
:105180009A619A6902F480420192019A5A6942F442
:1051900000325A615B694FF4C06003F4003302933C
:1051A00005A907230322059002254FF09040CDE981
:1051B0000823029E069501F055F922460521252077
:1051C00000F0F8FF252001F02BF80AB070BD00BFF9
:1051D00000380140004400400010024038B50E4A3B
:1051E0000E4B12781B6805464FF47A70B0FBF2F054
:1051F000B3FBF0F001F036F808B90F2D01D901200A
:1052000038BD0446024629464FF0FF3000F0D2FF79
:10521000034B20461D6038BD58000020540000207C
:105220005C000020074A08B5136843F010031360C0
:10523000032000F0ADFF0020FFF7D0FFFFF7BAFB1F
:10524000002008BD00200240034A044B11681B786F
:105250000B441360704700BF840A002058000020F0
:10526000014B1868704700BF840A002038B5044617
:10527000FFF7F6FF631C054602D0044B1B781C4465
:10528000FFF7EEFF401BA042FAD338BD58000020C4
:10529000704700BF704700BF406A036C43F0400393
:1052A0000364436C43F004034364FFF7F3BF00BFA0
:1052B000406AFFF7EDBF00BF436A1A6C12F0500F4F
:1052C00002D09B6B1B6B18471A6C196842F4007272
:1052D0001A64CA6812F4406F0CD15A7E52B91A6C23
:1052E00022F480721A641A6CD20403D41A6C42F04D
:1052F00001021A641846FEF73FBD00BF026838B5C8
:10530000936803F00303012B02D00023184638BD35
:105310001168C907F9D5916801F00D01012909D07B
:10532000026C42F010020264426C42F001024264DC
:10533000184638BD9368032143F00203936011605F
:105340000446FFF78DFF054623689B68DB07DCD525
:10535000FFF786FF401B0228F6D9236C43F01003A9
:105360002364636C43F0010363640123CEE700BF51
:10537000026838B5936803F00303012B0DD09168E0
:10538000174B19420ED0036C43F010030364436CB7
:1053900043F001034364012038BD1368D907EED5FB
:1053A000002038BD936843F0010393600446FFF783
:1053B00057FF054604E0FFF753FF401B022804D8BF
:1053C00023681B68DB07F6D5EAE7236C43F010037C
:1053D0002364636C43F001036364012038BD00BFA4
:1053E0003F00008070B596B000230193002800F0C4
:1053F0008180036C13F01003044616D1056C002D58
:105400007BD002689168C90068D591688E0065D428
:10541000216CCD0640F18C80236C23F0120343F005
:1054200010032364012016B070BD036CDD06F3D4B5
:105430000268936813F00403EED1216C21F48171AA
:1054400041F00201B2F1A04F21640CBF67494FF057
:10545000A0410291916801F00301012900F0B2809E
:105460000298816801F00301012965D060486568F0
:10547000816821F4403129438160D4E90251666B8F
:10548000607E294394F82050012E18BF4FF48053BA
:1054900041EA4031012D43EA010300F08B80A16A0B
:1054A000012902D0E06A01430B43916811F00C0F0F
:1054B00030D0D5684F49206929400B430128D3607B
:1054C00070D0136B23F00F03136300206064236C10
:1054D00023F0030343F001032364A4E7236C23F0C8
:1054E000120343F010032364636C43F0010363640D
:1054F000236C91E7012016B070BD4564C0E91255D8
:1055000080F83C50FDF788FE22689368D80017D5D4
:105510002B4677E7D06894F83010257E20F4804041
:10552000490020F0020041EA8531D0600B43C0E71A
:10553000002B7FF471AF7CE70168C9079DD495E724
:105540002046FFF7DBFE226C12F0100F03462268A4
:105550007FF458AF00287FF455AF206C2649274DC3
:10556000096820F4885020F0020040F00200206416
:10557000906820F040509060A5FB0101890C906874
:1055800001EB8101490040F0805090600191019948
:1055900000293FF437AF01990139019101990029A0
:1055A000F9D12FE7116BE36921F00F01013B0B43A8
:1055B00013638AE778B9616A013943EA414343F4E6
:1055C00080336CE71168C8073FF557AF0298002891
:1055D0003FF44CAF45E7216C21F0220141F020015E
:1055E0002164616C41F00101616458E700010050E1
:1055F0000003005007C0F0FF5400002083DE1B436F
:105600002DE9F84303689D6815F0040514D190F85E
:105610003C60012E04460FD0DFF8EC80D8F808601B
:10562000012716F01F0680F83C7009D080F83C5026
:105630003D462846BDE8F88302252846BDE8F883A4
:1056400091460F46FFF794FE0546002850D1236C83
:10565000216823F4706323F0010343F4807323640F
:10566000D8F8083013F01F0F236C3AD0B1F1A04FD7
:1056700037D0214A43F48013914223640AD14FF07A
:10568000A043DB689B0105D5236C23F4405343F40E
:1056900080532364236CA06B184A13F480531CBFFF
:1056A000636C23F0060363640026154B84F83C60AA
:1056B0008262C362134A02631C230B604B6843F08F
:1056C00010034B60CE6846F001064B463A46CE606A
:1056D000403100F015FE2268936843F004039360A4
:1056E000A7E723F480132364CB689A01D2D5CBE7D4
:1056F00084F83C609DE700BF00010050B9520008EB
:10570000B15200089952000800030050F0B402465C
:1057100096B092F83C300020012B019000F0DA8026
:105720001368CC689D6801206D0782F83C0037D46F
:10573000D1E9005606EB4600042E4FEA400079D826
:105740001E6B1F27874026EA070605FA00F0304344
:105750001863986810F00C0F50D1092D05EB450621
:10576000886840F29C801E3E9F694FF0070C0CFA3F
:1057700006FCB04027EA0C0630439861D1E9046783
:10578000D868C0F3C1004000013E07FA00F0AF0640
:10579000032E0FD8DFE816F0F300E800DD00D2009A
:1057A000136C43F020031364002382F83C3016B0DE
:1057B000F0BC7047186E00F0F840874203D1186EB5
:1057C00020F000401866586E00F0F840874203D180
:1057D000586E20F000405866986E00F0F8408742FE
:1057E00003D1986E20F000409866D86E00F0F84023
:1057F000874203D1D86E20F00040D866986800F048
:10580000030001286AD00120012C00FA05F069D0BC
:10581000D3F8B01021EA0000C3F8B000102D18D062
:10582000112D52D0122D03D1784989684C0214D51C
:105830000020B9E7092E3DD90E2E74D83C389E6B56
:105840001F27874026EA070605FA00F030439863D1
:105850007FE76E4989680F02EAD4B3F1A04F0CBF0D
:105860006B494FF0A0410291996801F003010129B1
:1058700000F09B800298816801F00301012900F08B
:105880009C80102D00F0A380112D00F08380122D3C
:10589000CED15E498B6843F480038B60C8E75F69B3
:1058A0004FF0070C0CFA06FCB04027EA0C06304318
:1058B000586163E71E385E6B1F27874026EA07069C
:1058C00005FA00F03043586343E750498968CE0138
:1058D000C3D5ADE7022016B0F0BC70471868C0070A
:1058E00091D5A5E7D3F8B0608C683043092DC3F893
:1058F000B0000CD905EB45011B39986907268E408D
:1059000020EA060004FA01F10143996186E7681C68
:1059100000EB4000596907268640844021EA0601D1
:10592000214359617CE75A38DE6B1F27874026EAFE
:10593000070605FA00F03043D8630AE7D3F86CC0D5
:10594000344E0CEA0606374347F000473843D86622
:1059500054E7D3F868C02F4E0CEA0606374347F0E9
:1059600000473843986649E7D3F864C0294E0CEAEB
:105970000606374347F00047384358663EE7D3F8FA
:1059800060C0244E0CEA0606374347F00047384310
:10599000186633E7B3F1A04F7FF44AAF1B498B6819
:1059A00043F080738B600020FEE61968C80708D4B6
:1059B000029800283FF465AF5DE70168C9077FF5ED
:1059C00060AF136C43F0200313640120ECE6B3F1E5
:1059D000A04F7FF42DAF0D490F4C8B680F4843F457
:1059E00000038B602368A0FB03139B0C03EB830372
:1059F0005B000193019B002B3FF41AAF019B013B1D
:105A00000193019B002BF9D112E700BF0003005066
:105A10000001005000F0FF835400002083DE1B4390
:105A20000346F0B4046893F83C2034480D68B4F1A0
:105A3000A04F18BF4FF0A040012A34D0A268012621
:105A4000570783F83C6009D51A6C42F020021A64AB
:105A50000120002283F83C20F0BC70478268560782
:105A6000F2D41DB3264F4E68BA6893F830C022F4C2
:105A70006042324342EA4C32BA60A26802F003024A
:105A8000012A2FD0826802F00302012A2ED01C487E
:105A90008968826822F471620D4322F00F02154377
:105AA00085600020D5E70220F0BC704714498A6861
:105AB00022F460428A60A26802F00302012A0DD03B
:105AC000826802F00302012A14D00D498A6822F488
:105AD000716222F00F028A600020BAE72268D107C3
