:020000040800F2
:1000000000300020C99300081994000819940008D2
:1000100019940008199400081994000800000000C1
:10002000000000000000000000000000199400081B
:10003000199400080000000019940008914F00086E
:1000400019940008199400081994000819940008DC
:10005000199400081994000819940008954F000895
:100060001994000819940008B94F0008D94F0008E6
:10007000199400081994000819940008E54F000825
:10008000199400081994000819940008F14F000809
:10009000FD4F00082D500008199400083150000849
:1000A0001994000871500008199400081994000868
:1000B00095500008B5500008000000001994000891
:1000C00019940008000000000000000019940008C6
:1000D00000000000C9500008D5500008199400081D
:1000E00019940008199400080000000000000000A6
:1000F0000000000000000000000000000000000000
:1001000000000000000000000000000000000000EF
:100110000000000000000000E1500008F550000859
:1001200000000000000000000000000000000000CF
:1001300000000000000000000000000000000000BF
:100140001994000819940008000000000000000045
:10015000000000000000000000000000000000009F
:10016000000000000000000000000000000000008F
:10017000000000000000000000000000000000007F
:080180000000000019940008C2
:1001900010B5054C237833B9044B13B10448AFF3C1
:1001A00000800123237010BDD40000200000000057
:1001B00058C2000808B5034B1BB103490348AFF30D
:1001C000008008BD00000000D800002058C20008D0
:1001D000034613F8012B002AFBD1181A0138704787
:1001E00001F0FF01102A2BDB10F0070F08D010F8E8
:1001F000013B013A8B422DD010F0070F42B3F6D1EC
:10020000F0B441EA012141EA014122F007047FF004
:1002100000070023F0E80256083C85EA010586EA5B
:10022000010685FA47F5A3FA87F586FA47F6A5FA97
:1002300087F68EB9EED1F0BC01F0FF0102F00702A3
:1002400032B110F8013B013A83EA010313B1F8D14E
:100250000020704701387047002D06BF354603382F
:10026000073815F0010F07D1013015F4807F02BF68
:10027000013015F4C03F0130F0BC0138704700BFB9
:1002800081F0004102E000BF83F0004330B54FEA47
:1002900041044FEA430594EA050F08BF90EA020FB4
:1002A0001FBF54EA000C55EA020C7FEA645C7FEA47
:1002B000655C00F0E2804FEA5454D4EB5555B8BF6A
:1002C0006D420CDD2C4480EA020281EA030382EADB
:1002D000000083EA010180EA020281EA0303362D6D
:1002E00088BF30BD11F0004F4FEA01314FF4801C40
:1002F0004CEA113102D0404261EB410113F0004F52
:100300004FEA03334CEA133302D0524263EB430308
:1003100094EA050F00F0A780A4F10104D5F1200EA6
:100320000DDB02FA0EFC22FA05F2801841F1000101
:1003300003FA0EF2801843FA05F359410EE0A5F1D5
:1003400020050EF1200E012A03FA0EFC28BF4CF006
:10035000020C43FA05F3C01851EBE37101F00045BC
:1003600007D54FF0000EDCF1000C7EEB00006EEBC9
:100370000101B1F5801F1BD3B1F5001F0CD3490853
:100380005FEA30004FEA3C0C04F101044FEA4452AA
:1003900012F5800F80F09A80BCF1004F08BF5FEA31
:1003A000500C50F1000041EB045141EA050130BD11
:1003B0005FEA4C0C404141EB010111F4801FA4F1B4
:1003C0000104E9D191F0000F04BF01460020B1FA09
:1003D00081F308BF2033A3F10B03B3F120020CDA41
:1003E0000C3208DD02F1140CC2F10C0201FA0CF01F
:1003F00021FA02F10CE002F11402D8BFC2F1200C84
:1004000001FA02F120FA0CFCDCBF41EA0C01904039
:10041000E41AA2BF01EB0451294330BD6FEA040482
:100420001F3C1CDA0C340EDC04F11404C4F120026D
:1004300020FA04F001FA02F340EA030021FA04F37F
:1004400045EA030130BDC4F10C04C4F1200220FAD6
:1004500002F001FA04F340EA0300294630BD21FA14
:1004600004F0294630BD94F0000F83F4801306BFDA
:1004700081F480110134013D4EE77FEA645C18BFCE
:100480007FEA655C29D094EA050F08BF90EA020F65
:1004900005D054EA000C04BF1946104630BD91EA5D
:1004A000030F1EBF0021002030BD5FEA545C05D160
:1004B0004000494128BF41F0004130BD14F580049F
:1004C0003CBF01F5801130BD01F0004545F0FE4113
:1004D00041F470014FF0000030BD7FEA645C1ABF48
:1004E000194610467FEA655C1CBF0B46024650EA7F
:1004F000013406BF52EA033591EA030F41F40021AB
:1005000030BD00BF90F0000F04BF0021704730B530
:100510004FF4806404F132044FF000054FF0000105
:1005200050E700BF90F0000F04BF0021704730B5C6
:100530004FF4806404F1320410F0004548BF40429B
:100540004FF000013EE700BF42004FEAE2014FEAF0
:1005500031014FEA02701FBF12F07F4393F07F4FCB
:1005600081F06051704732F07F4208BF704793F0CE
:100570007F4F04BF41F40021704730B54FF46074E1
:1005800001F0004521F000411CE700BF50EA0102E4
:1005900008BF704730B54FF000050AE050EA01028D
:1005A00008BF704730B511F0004502D5404261EBFD
:1005B00041014FF4806404F132045FEA915C3FF43E
:1005C000D8AE4FF003025FEADC0C18BF03325FEADB
:1005D000DC0C18BF033202EBDC02C2F1200300FA8C
:1005E00003FC20FA02F001FA03FE40EA0E0021FAB1
:1005F00002F11444BDE600BF70B54FF0FF0C4CF49F
:10060000E06C1CEA11541DBF1CEA135594EA0C0F50
:1006100095EA0C0F00F0DEF82C4481EA030621EA8B
:100620004C5123EA4C5350EA013518BF52EA0335C6
:1006300041F4801143F4801338D0A0FB02CE4FF078
:100640000005E1FB02E506F00042E0FB03E54FF0A8
:100650000006E1FB03569CF0000F18BF4EF0010EA0
:10066000A4F1FF04B6F5007F64F5407404D25FEA9C
:100670004E0E6D4146EB060642EAC62141EA55514F
:100680004FEAC52040EA5E504FEACE2EB4F1FD0C91
:1006900088BFBCF5E06F1ED8BEF1004F08BF5FEA0F
:1006A000500E50F1000041EB045170BD06F00046C1
:1006B00046EA010140EA020081EA0301B4EB5C046E
:1006C000C2BFD4EB0C0541EA045170BD41F4801166
:1006D0004FF0000E013C00F3AB8014F1360FDEBF8B
:1006E000002001F0004170BDC4F10004203C35DA67
:1006F0000C341BDC04F11404C4F1200500FA05F3EA
:1007000020FA04F001FA05F240EA020001F000428A
:1007100021F0004110EBD37021FA04F642EB060100
:100720005EEA430E08BF20EAD37070BDC4F10C042A
:10073000C4F1200500FA04F320FA05F001FA04F2EE
:1007400040EA020001F0004110EBD37041F10001DA
:100750005EEA430E08BF20EAD37070BDC4F12005E5
:1007600000FA05F24EEA020E20FA04F301FA05F24D
:1007700043EA020321FA04F001F0004121FA04F2F5
:1007800020EA020000EBD3705EEA430E08BF20EAC5
:10079000D37070BD94F0000F0FD101F000464000FF
:1007A00041EB010111F4801F08BF013CF7D041EA81
:1007B000060195F0000F18BF704703F00046520085
:1007C00043EB030313F4801F08BF013DF7D043EA56
:1007D0000603704794EA0C0F0CEA135518BF95EA0C
:1007E0000C0F0CD050EA410618BF52EA4306D1D193
:1007F00081EA030101F000414FF0000070BD50EAB2
:10080000410606BF1046194652EA430619D094EA3B
:100810000C0F02D150EA013613D195EA0C0F05D125
:1008200052EA03361CBF104619460AD181EA030179
:1008300001F0004141F0FE4141F470014FF0000031
:1008400070BD41F0FE4141F4780170BD70B54FF0CC
:10085000FF0C4CF4E06C1CEA11541DBF1CEA13554C
:1008600094EA0C0F95EA0C0F00F0A7F8A4EB05042E
:1008700081EA030E52EA03354FEA013100F0888025
:100880004FEA03334FF0805545EA131343EA1263EE
:100890004FEA022245EA111545EA10654FEA0026A3
:1008A0000EF000419D4208BF964244F1FD0404F55C
:1008B000407402D25B084FEA3202B61A65EB0305B8
:1008C0005B084FEA32024FF480104FF4002CB6EB75
:1008D000020E75EB030E22BFB61A754640EA0C00F5
:1008E0005B084FEA3202B6EB020E75EB030E22BF35
:1008F000B61A754640EA5C005B084FEA3202B6EB76
:10090000020E75EB030E22BFB61A754640EA9C0034
:100910005B084FEA3202B6EB020E75EB030E22BF04
:10092000B61A754640EADC0055EA060E18D04FEAC2
:10093000051545EA16754FEA06164FEAC30343EA62
:1009400052734FEAC2025FEA1C1CC0D111F4801F2F
:100950000BD141EA00014FF000004FF0004CB6E728
:1009600011F4801F04BF01430020B4F1FD0C88BFC7
:10097000BCF5E06F3FF6AFAEB5EB030C04BFB6EBD2
:10098000020C5FEA500C50F1000041EB045170BDC5
:100990000EF0004E4EEA113114EB5C04C2BFD4EBF2
:1009A0000C0541EA045170BD41F480114FF0000E76
:1009B000013C90E645EA060E8DE60CEA135594EAF2
:1009C0000C0F08BF95EA0C0F3FF43BAF94EA0C0FF5
:1009D0000AD150EA01347FF434AF95EA0C0F7FF46A
:1009E00025AF104619462CE795EA0C0F06D152EABE
:1009F00003353FF4FDAE1046194622E750EA4106A2
:100A000018BF52EA43067FF4C5AE50EA41047FF4B2
:100A10000DAF52EA43057FF4EBAE12E74FF0FF3C17
:100A200006E000BF4FF0010C02E000BF4FF0010CE8
:100A30004DF804CD4FEA410C7FEA6C5C4FEA430C61
:100A400018BF7FEA6C5C1BD001B050EA410C0CBFB0
:100A500052EA430C91EA030F02BF90EA020F002012
:100A6000704710F1000F91EA030F58BF994208BF79
:100A700090422CBFD8176FEAE37040F00100704736
:100A80004FEA410C7FEA6C5C02D150EA013C07D18D
:100A90004FEA430C7FEA6C5CD6D152EA033CD3D0D8
:100AA0005DF8040B704700BF8446104662468C46D2
:100AB0001946634600E000BF01B5FFF7B7FF002805
:100AC00048BF10F1000F01BD4DF808EDFFF7F4FF2E
:100AD0000CBF012000205DF808FB00BF4DF808EDB9
:100AE000FFF7EAFF34BF012000205DF808FB00BFDC
:100AF0004DF808EDFFF7E0FF94BF012000205DF8FE
:100B000008FB00BF4DF808EDFFF7CEFF94BF0120B2
:100B100000205DF808FB00BF4DF808EDFFF7C4FFAB
:100B200034BF012000205DF808FB00BF4FEA410CF4
:100B30007FEA6C5C02D150EA013C0AD14FEA430CD7
:100B40007FEA6C5C02D152EA033C02D14FF0000014
:100B500070474FF0010070474FEA410212F5001252
:100B600015D211D56FF47873B3EB625212D94FEAF4
:100B7000C12343F0004343EA505311F0004F23FADE
:100B800002F018BF404270474FF00000704750EA33
:100B9000013005D111F0004008BF6FF000407047F0
:100BA0004FF00000704700BF4A0011D212F500124A
:100BB00011D20DD56FF47873B3EB62520ED44FEAB5
:100BC000C12343F0004343EA505323FA02F0704735
:100BD0004FF00000704750EA013002D14FF0FF3073
:100BE00070474FF000007047037843B10346002080
:100BF00013F8012F0130C0B2002AF9D1704718460E
:100C0000704700BF064B1B6810B50446581E05F020
:100C100049FE044A14601368002BFCD110BD00BFCC
:100C2000380500203C0500202DE9F0411B4D1C4EED
:100C300028709DF820503570DFF884C0194EBDF93A
:100C40001C40DFF88080184FA8F80040704694FBE5
:100C5000F5FE9DF82450ACF800E03570DFF868C070
:100C6000124E94FBF5F4DFF864E0114D3C808CF8F3
:100C7000001032700F4F104C10499DF92860BDF9DB
:100C800018C08EF80030BDF92C20BDF930302E7020
:100C9000A7F800C022800B80BDE8F0814405002049
:100CA000550500205A0500204E050020450500206E
:100CB000500500204A0500204C0500204805002072
:100CC0005605002058050020540500204605002048
:100CD0002DE9F04FC84AC94BB2F90040B3F90050B2
:100CE0002DED028B89B08C42069000F37981A942E8
:100CF000D4BFC4EB0100C4EB0500FFF713FC804632
:100D00008946BF4BBF4EB3F90000BF4FFFF70AFC47
:100D100042464B46FFF770FC8046281B8946FFF78A
:100D200001FC02460B4640464946FFF78FFDFFF7A0
:100D300013FFDDF81880B54D03B20021404607933C
:100D400001F0F0FDB24B2A781B7831780F24404631
:100D5000009401F09DF90121404601F0E3FD317856
:100D60002A7800940123404601F092F90026A94A0E
:100D70003B88B2F90000A64A13FB06F3181A92F852
:100D80000080FFF7CFFBA44B044693F900000D460B
:100D9000FFF7C8FB02460B4620462946FFF72CFC0E
:100DA00000229E4BFFF752FD91A3D3E90023FFF7EA
:100DB00023FC41EC100B41EC180B08F0ADFF5AEC92
:100DC000109BB0EE480AF0EE680A09F005F8944B63
:100DD00093F800B08B4B1D788C4BA8EB0B008DED7E
:100DE000020B1C78FFF79EFB4A465346CDE9049A56
:100DF000FFF702FCFFF7B0FE05EB000AC8F10000A8
:100E0000FFF790FBDDE90223FFF7F6FBFFF7A4FEF7
:100E100004EB00094046FFF785FBDDE90423FFF7FB
:100E2000EBFBFFF799FE0544ABEB0800FFF77AFBFD
:100E3000DDE90223FFF7E0FBFFF78EFE2044C0B29E
:100E40005FFA8AFA5FFA89F9EDB2534600904A4692
:100E50002946069801F098FD724B01361B78F6B2D0
:100E6000B34284D2DFF8B4B1DFF8C091DFF8C081BB
:100E70004FF0000A0024674AB9F80030B2F90000C8
:100E8000634A13FB04F3181A1578FFF74BFB624B08
:100E9000064693F900000F46FFF744FB02460B4657
:100EA00030463946FFF7A8FB52465B46FFF7CEFCBB
:100EB0004FA3D3E90023FFF79FFB41EC100B41EC5C
:100EC000180B08F029FF57EC106BB0EE480AF0EE53
:100ED000680A08F081FF53EC102B6842CDE9022329
:100EE000FFF720FBDDE90223FFF786FBFFF734FE67
:100EF000464B1B7803442846DDB2FFF713FB32460E
:100F00003B46FFF779FBFFF727FE3E4B197801447C
:100F10002A46C9B2069801F0EBFC013498F800307B
:100F2000E4B2A342A7D23B4BB3F90000384B1E7882
:100F3000079B181AFFF7F6FA0D463749044691F950
:100F40000000FFF7EFFA02460B4620462946FFF75E
:100F500053FB0022314BFFF779FC25A3D3E9002393
:100F6000FFF74AFB41EC100B41EC180B08F0D4FEE4
:100F700053EC102BB0EE480AF0EE680ACDE90423DA
:100F800008F02AFF701E8DED020BFFF7CBFADDE9AA
:100F90000423FFF731FBFFF7DFFD1A490D781B49EA
:100FA0002C18C6F101000F78FFF7BCFA9DED020B7B
:100FB00053EC102BFFF720FBFFF7CEFD3844E4B2D3
:100FC000C0B2234600903A460698294601F0DCFC60
:100FD000154B079A1A8009B0BDEC028BBDE8F08F63
:100FE0004FF000084FF000098BE600BFAFF3008020
:100FF000182D4454FB2109404C05002048050020D1
:101000005805002044050020560500205405002006
:10101000450500204A05002050050020008066405C
:101020004605002055050020520500204E050020F1
:101030005A0500202DE9F04F87B00546BDF8444021
:101040009DF84060BDF84C80059489463D491446A2
:101050001F4601F097FB2846002101F063FC0022A7
:101060003B4611460096284600F02EFD28460121F9
:1010700001F058FC4046FFF745FACDE90201384639
:10108000FFF750FA824605988B46FFF74BFADDE9E9
:101090000223FFF7DBFB52465B46FFF7ADFAFFF793
:1010A00083FDB11E431CC9B2621CDBB20091D2B2F7
:1010B0004946284600F008FD264428460221F6B29B
:1010C00001F030FC771EFFB24FF4FA6442F2283888
:1010D0002046FFF727FADDE90223FFF7B7FB524668
:1010E0005B46FFF789FAFFF75FFD431CDBB204F5AF
:1010F0007A74009719460022284601F045FC4445C1
:10110000E6D12846022101F00DFC2846012101F01C
:1011100089FA0598042101F0D3FFB21E09F10101FB
:101120000346D2B2C9B2284601F0EEFA28460021A1
:1011300001F078FA2846012107B0BDE8F04F01F030
:10114000F1BB00BF34ED00082DE9F04F83B0044639
:101150000D4616461F469DF830909DF834B0DDF8D8
:10116000388000214FF0020A01F0DCFB3B4632469A
:1011700029462046CDF80090CDF804A000F008FDE7
:101180002046012101F0CEFB20461A4901F0FAFA6F
:10119000BBF1010FCDE9009A3B4632462946204675
:1011A0001DD000F069FD4046FFF71EFD0135A7EB9D
:1011B0008001A9F10202324405EB6101D2B243463B
:1011C000C9B2204601F0A0FA2046002101F02AFA17
:1011D0002046012103B0BDE8F04F01F0A3BB00F0B1
:1011E000D7FC5146204601F09DFB5946204601F0B0
:1011F00019FAD8E748F6000800B583B0092B0DD8D6
:10120000DFE803F00F11131517191B1D1F050E4BF7
:1012100001933C230093502300F04EFC03B05DF893
:1012200004FB0A4BF4E70A4BF2E70A4BF0E70A4BE0
:10123000EEE70A4BECE70A4BEAE70A4BE8E70A4B12
:10124000E6E70A4BE4E700BFC8C4000870C2000824
:1012500020C7000878C90008D0CB000828CE0008B5
:1012600080D00008D8D2000830D5000888D7000800
:101270002DE9F0479DF820A0DDE909981546AAF16F
:10128000020A554406460C46EDB20E491F4601F0CF
:1012900079FA4B462A462146304601F035FA304667
:1012A000094901F06FFA4046FFF79EFC791E214480
:1012B000A1EB80012A4643463046C9B2BDE8F0475B
:1012C00001F022BA3CE60008ECD900082DE9F0470D
:1012D000099F9DF8206089460B4915461C468046AB
:1012E00001F050FA3846FFF77FFC09F1FF394C4412
:1012F000B21EA4EB80042A44E1B23B464046D2B27F
:10130000BDE8F04701F000BAECD900080000000089
:101310002DE9F04F2DED028B89B08946199CBDF95E
:1013200054709DF85C507E4906979DF860709DF85A
:101330005860079792461F46804605959DF850B025
:1013400001F020FA2046FFF74FFC079B059A002B7F
:101350000CBF3446741C023FC4EBC404FFB2751BBF
:101360008000E4B2002AC0B2A7EB0404EDB20CBFC7
:1013700000230323241A002140466F1EE41A01F0C3
:10138000D1FA17F0FF07E4B200F08C800698FFF75F
:10139000C9F8059A023D531E3B44EDB25B1BCDE9F3
:1013A00002019FED5D8B049317440BE0CDF800B074
:1013B000404600F089FB049B0734013E9F42E4B2A3
:1013C000F6B26FD03846FFF7ADF8B0EE480AF0EE4F
:1013D000680A41EC110B08F05FFDDDE9020153ECF6
:1013E000102BFFF78FFB09EB0405EDB207235246E4
:1013F0002946013F0028D9D00121404601F092FA48
:10140000ABF10207079B5744FFB2002B57D1059B56
:10141000002B4BD0DDF814A05046FFF773F89FED7A
:101420003E0B41EC110B08F037FD51EC100BFFF7B0
:10143000BBFB5346F61A069ACDF814A0F6B21FFA73
:1014400080FA92FBFAFB1FFA8BFB3146584601F0FB
:1014500037FEC6EBC60603463A46294640463444A4
:1014600001F052F9E4B2A9F1020121442D4BC9B2B5
:101470003A46404601F048F9069A05990BFB1A20B6
:10148000C0B201F01DFE09F103094C44E4B2034669
:101490003A462146404609B0BDEC028BBDE8F04F0C
:1014A00001F032B904EB0905EDB2A5E73146BDF80C
:1014B000180001F005FE3A4603462946EAE70021F6
:1014C000404601F02FFA5246072329464046CDF800
:1014D00000B000F0F9FA0121404601F023FA073488
:1014E000069BE4B209EB040A002B5FFA8AFA29464C
:1014F00006DB0D4B3A46404601F006F9554686E7B5
:101500000A4B3A46404601F0FFF8069B584203B2A8
:10151000554606937BE700BF000000000000244012
:1015200034ED0008E8D90008E4D90008E0D9000843
:101530002DE9F04F2DED028B89B08946199CBDF93C
:1015400054709DF85C507E4906979DF860709DF838
:101550005860079792461F46804605959DF850B003
:1015600001F010F92046FFF73FFB079B059A002B7F
:101570000CBF3446741C023F04EB8404FFB2751B9D
:101580008000E4B2002AC0B2A7EB0404EDB20CBFA5
:1015900000230223241A002140466F1EE41A01F0A2
:1015A000C1F917F0FF07E4B200F08C800698FEF74F
:1015B000B9FF059A023D531E3B44EDB25B1BCDE9DA
:1015C00002019FED5D8B049317440BE0CDF800B052
:1015D000404600F079FA049B0534013E9F42E4B294
:1015E000F6B26FD03846FEF79DFFB0EE480AF0EE37
:1015F000680A41EC110B08F04FFCDDE9020153ECE5
:10160000102BFFF77FFA09EB0405EDB205235246D4
:101610002946013F0028D9D00121404601F082F936
:10162000ABF10207079B5744FFB2002B57D1059B34
:10163000002B4BD0DDF814A05046FEF763FF9FED62
:101640003E0B41EC110B08F027FC51EC100BFFF79F
:10165000ABFA5346F61A069ACDF814A0F6B21FFA62
:1016600080FA92FBFAFB1FFA8BFB3146584601F0D9
:1016700027FD06EB860603463A4629464046344493
:1016800001F042F8E4B209F1FF3121442D4BC9B217
:101690003A46404601F038F8069A05990BFB1A20A5
:1016A000C0B201F00DFD09F102094C44E4B2034659
:1016B0003A462146404609B0BDEC028BBDE8F04FEA
:1016C00001F022B804EB0905EDB2A5E73146BDF8FB
:1016D000180001F0F5FC3A4603462946EAE70021E6
:1016E000404601F01FF95246052329464046CDF8F1
:1016F00000B000F0E9F90121404601F013F905348A
:10170000069BE4B209EB040A002B5FFA8AFA294629
:1017100006DB0D4B3A46404600F0F6FF554686E79D
:101720000A4B3A46404600F0EFFF069B584203B290
:10173000554606937BE700BF0000000000002440F0
:101740003CE60008E8D90008E4D90008E0D9000820
:101750002DE9F04F2DED068B87B0464D9DF858C012
:10176000BDF95CE0BDF960409DF86490C5F800E00B
:10177000ACF1080C5FFA8CFC07EE90CAA4EB0E04E7
:10178000B8EE677A07EE904AB8EEE78A07EE909ACD
:10179000B8EEE79AC7EE087A05463748DFF8ECB0AE
:1017A000364F374E87F800C01A3B88460332037025
:1017B000344BD1B207EE10EA08F1180200241A7077
:1017C000317022464FF0010A88EE09AAF8EEC78A66
:1017D000CBED007AF0EE089A04E0317897F800C07B
:1017E000DBED007A284828EE277A01EB0C03C7EEE0
:1017F000096A0321CDE904A002200390029101347B
:101800004146284607EE903A07EE102AF8EEE77AAE
:10181000B8EEC77A0823E6EEC77A00931823F0EEF5
:10182000686AE7EE0A6A77EEE97ABDEEE67AFDEEDF
:10183000E77A8DED017A17EE902AFFF779FEE2B292
:101840009145CAD20C4B0F4938781B780978327809
:101850000230C0B20233013A01391690DBB2D2B283
:10186000C9B2284607B0BDEC068BBDE8F04F00F0CA
:1018700051B900BF640500206905002068050020FB
:10188000600500206A05002040FB00085C05002080
:101890002DE9F04FA7B0DFF83881BDF9C4200392DD
:1018A0000021BDF9C820474FDFF828A1DFF82891B3
:1018B000059205461E46BDF8D0B001F033F898F801
:1018C00000003B789AF8002099F800100090284614
:1018D00000F0FAF8183E2846012101F023F8002E06
:1018E00064DD0024224621E04FF000030CF8803C28
:1018F0003B7899F8001098F800009AF800201944F5
:10190000C9B202440B1B013ADBB22846D2B203F142
:10191000010E002C36D19DF818300134D21AD2B203
:10192000A4B200F0E5FFB44222463FDA26A902EB5A
:101930000B0303F07F0301EB020C339931F91330F1
:1019400003998B42D0DD2049096804911F499DED20
:10195000047AD1ED007A26A901EB020C05998B429D
:10196000B8EEC77A25DB06EE901AF8EEE66A36EE98
:10197000C77A67EE277AFCEEE77A17EE903A0CF812
:10198000803CB5E71CF8800C1CF881CC101AC0B262
:10199000A2EB0C0201340090D2B2A4B25FFA8EF135
:1019A000284600F0F1FFB4422246BFDB27B0BDE875
:1019B000F08F06EE903A26ABF8EEE66A03EB020CE7
:1019C000D5E700BF69050020640500205C05002004
:1019D00068050020600500206A0500202DE9F04F11
:1019E00001EB030883B0541C5FFA88F8E4B29B460D
:1019F000009443460D469146064690F87DA00C9F04
:101A000000F098FF18B3BBF1000F1ED001244FF077
:101A1000000B0CE096F87C30E3B10135640014F063
:101A2000FF04EDB204BF01370124A8450DD03B7877
:101A30001C42EFD086F87DA0CDF800B001234A46C5
:101A40002946304600F014FFE7E786F87DA003B092
:101A5000BDE8F08FBAFA8AF25209009386F87D2029
:101A6000ECE700BF2DE9F04782B01F469DF82890B3
:101A70000B9D02EB0906F6B20B440096DBB214464E
:101A80008846824600F056FF90B1B9F1000F0FD0A2
:101A900007F10709C9F3C4092246013400953B4602
:101AA00041465046E4B2FFF799FFA6424D44F3D1B8
:101AB00002B0BDE8F08700BF10B49DF80440019467
:101AC0005DF8044BFFF7CEBF2DE9F04383B01F460E
:101AD0009DF8289002EB0905EDB2CB180095DBB21A
:101AE00014460E46804600F025FF80B1B9F1000F84
:101AF0000DD04FF0000922460134CDF800903B464E
:101B000031464046E4B200F0B3FEA542F3D103B043
:101B1000BDE8F0832DE9F04F83B0CD189DF83090EB
:101B200002EB0904EDB2E4B2984600942B460E464F
:101B30001746824600F0FEFE10B903B0BDE8F08FF4
:101B4000002300933A464346314650464FF0010B7E
:101B500000F08EFE4B463A4631465046CDF800B076
:101B600000F086FE691E4B463A465046CDF800B05E
:101B7000C9B200F07DFE621E00230C93D2B2434630
:101B80003146504603B0BDE8F04F00F071BE00BFD3
:101B90002DE9F04F85B0CC189DF838509DF83C6089
:101BA0005719E4B2FFB29A460097234689469346F6
:101BB000804600F0BFFE10B905B0BDE8F08FF343DA
:101BC000DBB2022009EB06010BEB0602C9B2D2B26E
:101BD0001C441F44009033464046CDE90221E4B244
:101BE00000F056FA01232146029A009340463346FC
:101BF00000F04EFAFFB204233A46039900934046A0
:101C0000334600F045FA08230093214633463A460E
:101C1000404600F03DFAAAEB460303F0FF03022B17
:101C200013D8A5EB460505F0FF05022DC4D9029A8D
:101C3000023D0132EDB2D2B25346494640460E95BE
:101C400005B0BDE8F04FFFF73FBF039A741C0132A7
:101C5000D1B2E4B2023BDBB25A4640468B46009416
:101C60000393FFF731FF0094039B59463A464046E1
:101C7000FFF72AFFD5E700BF2DE9F04F85B0CD185B
:101C80009DF838A09DF83C4002EB0A0BEDB25FFADC
:101C90008BFB9946CDF800B02B460F469046064682
:101CA00000F048FE10B905B0BDE8F08FE343DBB2A9
:101CB000391908EB04020220C9B2D2B21D449B4478
:101CC000009023463046CDE90221EDB200F094F9B0
:101CD00001232946029A00933046234600F08CF9EE
:101CE0005FFA8BFB04235A46039900933046234640
:101CF00000F082F908232946A9EB440500935A46CF
:101D00002346304605F0FF0500F076F9AAEB4404BF
:101D1000022D04F0FF0418D8022CC4D9029D023C05
:101D20000135EDB2E4B223462A463946304600F08A
:101D3000C5FD09F1FF31394423462A46C9B2304670
:101D400005B0BDE8F04F00F0B9BD039B023D03F1C3
:101D5000010B5FFA8BFBEDB22B46594642463046EB
:101D600000F092FD0AF1FF3242442B465946D2B2AE
:101D7000304600F089FDCFE72DE9F043036890F885
:101D8000388093F8119090F8397083B0064600259A
:101D900002E0994518D933681B7C726BD80005FBAB
:101DA00000F04FF6F8710140ECB20A4439190134E1
:101DB00000923046CAB201350021E4B201F0DCF8ED
:101DC0007B19A045DBB2E4D803B0BDE8F08300BFC7
:101DD000026890F83830127C406BDB00002102FB77
:101DE00003F207F04FBB00BF10B50446FFF7C4FF76
:101DF0002046BDE8104001F0FBB800BF026B80F840
:101E000039101368184700BF10B590F87E300446AB
:101E100053B1026890F83830127C406BDB0002FB53
:101E200003F2002107F02EFB20460021BDE8104000
:101E3000FFF7E4BF38B50546FFF79EFF95F8394038
:101E400095F838302A681C44517CE4B2A14216D976
:101E500095F87E1029B928462146FFF7CFFF0120CB
:101E600038BD127C686BDB0002FB03F2002107F037
:101E700009FB28462146FFF7C1FF0120F0E728466D
:101E800001F0B6F8002038BD2DE9F8439DF8244054
:101E90009DF820801D46E3070E46174681463BD439
:101EA000A10728D4220715D4630701D4BDE8F8831D
:101EB00008EB0702A91B4846D2B2C9B200F018FDD0
:101EC00006EB0802E91B4846D2B2C9B2BDE8F843A6
:101ED00000F00EBD08EB0702A9194846D2B2C9B2FC
:101EE00000F006FD06EB0802E919D2B2C9B2484675
:101EF00000F0FEFCD8E7A8EB0702A91B4846D2B2C7
:101F0000C9B200F0F5FCA8EB0602E91BD2B2C9B2D7
:101F1000484600F0EDFCC5E7A8EB02026918D2B212
:101F2000C9B200F0E5FCA8EB0602E919D2B2C9B2C9
:101F3000484600F0DDFCB3E72DE9F0479DF824505A
:101F40009DF820801E46EB070C46174681463FD47D
:101F5000A90728D42A0715D46B0701D4BDE8F08758
:101F60007B1C311B42464846DBB2C9B200F0A6FCDE
:101F7000631CF11B42464846DBB2C9B2BDE8F047DC
:101F800000F09CBC7B1C311942464846DBB2C9B20A
:101F900000F094FC631CF119DBB2C9B2424648461A
:101FA00000F08CFCD8E77B1CA8EB0702311B4846ED
:101FB000DBB2D2B2C9B200F081FC631CA8EB040210
:101FC000F11BDBB2D2B2C9B2484600F077FCC1E7E0
:101FD000531C7118A8EB0202DBB2D2B2C9B200F0F6
:101FE0006DFC631CA8EB0402F119DBB2D2B2C9B2DA
:101FF000484600F063FCABE72DE9F04F1C46531C4C
:1020000083B091462344621CDDB288468B18A9EB4D
:102010000402091B0095DBB2D2B2C9B282469DF818
:1020200030B000F087FC10B903B0BDE8F08FC4EB0E
:10203000C4177F00C4F10106CDE9009B4346224648
:10204000002150467FB276B2FFF71EFF002CEBD086
:1020500000250135EDB2002EF2B243462946504626
:1020600007F1020605DBF7B23A44013CD2B27FB277
:10207000E4B202EB4506CDE9009B22460136FFF7AC
:1020800003FFA54276B2E4D303B0BDE8F08F00BFF2
:102090002DE9F04F1C46531C83B091462344621C2B
:1020A000DDB288468B18A9EB0402091B0095DBB250
:1020B000D2B2C9B282469DF830B000F03BFC10B9F4
:1020C00003B0BDE8F08FC4EBC4177F00C4F1010674
:1020D000CDE9009B43462246002150467FB276B2AE
:1020E000FFF72AFF002CEBD000250135EDB2002EC2
:1020F000F2B243462946504607F1020605DBF7B225
:102100003A44013CD2B27FB2E4B202EB4506CDE9DB
:10211000009B22460136FFF70FFFA54276B2E4D3BB
:1021200003B0BDE8F08F00BF10B50446FFF76CFEAA
:102130002046FFF77FFE0028FAD101462046BDE881
:102140001040FFF75BBE00BF0823037000487047D4
:10215000F000002030B585B00D46009309491346C4
:10216000094A044600F09AFF0DF10F00FFF7ECFF5B
:102170009DF80F2000950146044B204600F016FD07
:1021800005B030BD9D2E0008A12D00087D2A000855
:102190004218435C507800EB032080B2704700BFC8
:1021A000012B0BD007D3022B02D1801AC0B270478B
:1021B000401AC0B270471044C0B270470844C0B261
:1021C000704700BF012B0BD007D3022B02D1401A5E
:1021D000C0B270471044C0B270470844C0B27047E4
:1021E000801AC0B2704700BF70B490F864500165A7
:1021F000002380F85A30072D0A7836D90131A5F12D
:1022000008030165DBB24FF0FF34AC4090F8656025
:1022100080F85A3022EA040280F85820F4180D7829
:10222000E4B2072C45FA03F521D94A1C0265C3F133
:1022300008034A78DBB202FA03F3083C2B43E4B20A
:10224000DBB290F87D5080F85A404FF0FF31B1403A
:10225000B5FA85F2520923EA010380F85C5080F850
:102260005D2080F8593070BC70472B46CBE7EBB24D
:10227000E7E700BF0020704738B50B7803704B7854
:1022800043708B788370CB78C3700B7903714B7973
:1022900043718B798371CB79C3710B7A03724B7A5B
:1022A00043728B7A8372CB7AC3720B7B03734B7B43
:1022B00043738B7B8373CB7BC3730B7C03740446A8
:1022C0000D4608461121FFF763FF1321608228465F
:1022D000FFF75EFF1521A0822846FFF759FFE08235
:1022E00038BD00BF70B4847A06680A193378D2B258
:1022F000072A43FA04F51AD9731C0360C4F10804D1
:102300007378E4B2A340083A2B43D2B2DBB24FF069
:10231000FF340D19EDB204FA01F1012423EA0101A1
:1023200004FA05F38272C91A48B270BC7047EBB266
:10233000EDE700BF2DE9F04F87B005460F4690F856
:10234000569090F857A005920EE095F85B20002A71
:1023500043D0A7420AF10103A7EB040435D3E7B247
:102360005FFA83FA4FF0000995F85E8095F85530D2
:1023700003934FFA89F64FFA8AFB43465A46314691
:1023800095F8540095F85840FFF71CFFA4EB09049A
:1023900004900398FFF704FFE4B2059AA7423B4676
:1023A00028BF2346002AD0D095F85C60CDF8008085
:1023B0000246049985F87D60284600F059FAA74244
:1023C0000AF10103A7EB0404C9D24F4485F8567003
:1023D00085F857B007B0BDE8F08F95F85D60E5E788
:1023E0002DE9F04F044600F1500785B0FFF7FCFEE1
:1023F000384694F8661094F95960FFF773FF94F823
:10240000671082463846FFF76DFF94F8681005465E
:102410003846FFF767FF94F95870002F834627DD91
:10242000F3B21D446D4294F85E8003936DB22A4668
:1024300094F8540043465146FFF7C4FE84F8540014
:10244000814694F85500FFF7ABFE024684F855002C
:10245000B8F1030F00F2B380DFE808F07279850E5F
:1024600094F95720B2421EDB94F85C3084F87D303A
:10247000584605B0BDE8F08F039BC7F10101014448
:102480004B440130CAB2DBB2C1B20091204649468A
:1024900000F050FA0028EBD0002294F85A30A4F84B
:1024A00056204FF0FF3894F862C0216D0CEB030208
:1024B0000F78D2B2072A47FA03F064D8C7B294F86B
:1024C000630084F85A2083180D78DBB208FA0CFCFC
:1024D000072B27EA0C0745FA02FC62D85FFA8CF555
:1024E00008FA00F025EA000584F85A3004E0C2B288
:1024F000D20784F85A30B3D5002239462046FFF778
:1025000019FF012229462046FFF714FF94F85A20AC
:10251000216D531C0878DBB2C2F1080C072B01F1C6
:10252000010E40FA02F05FFA8CFCE0D9C4F850E0EA
:10253000497801FA0CF1D31F0143CAB2DBB2D7E7E5
:10254000039909EB07030144DBB2C9B29DE7039B82
:10255000C3F10100484409F10103D1195FFA80F980
:10256000DBB2C9B291E7039BC7F10105C3F10100DA
:10257000511C09F101034D4410445FFA85F9DBB2A7
:10258000C2B2C9B281E74D1C25654978C3F108077D
:10259000FFB201FA07F7083A0743D2B2FFB2294661
:1025A0008DE74D1C25654D78C2F10802D2B205FABF
:1025B00002F2083B42EA0C05DBB2EDB290E70146BD
:1025C0004B4662E7836CFF2903F1170311D860299A
:1025D00022D8402984BFB0F872209B18587818B9C7
:1025E0000EE003445878D8B11A788A42F9D1981C81
:1025F0007047B0F876000344188840BA80B238B902
:1026000070479A781344188840BA80B20028F7D0EF
:102610008142F6D1D81C7047B0F874201344DDE72E
:10262000704700BF80F85B10704700BF2DE9F04194
:1026300090F85E6004460F4615469846032E07D86C
:10264000DFE806F0201B1602C26C90470744FFB279
:1026500084F8547084F8555041462046FFF7B2FF85
:1026600020B101462046FFF7BBFEC0B2BDE8F081B5
:10267000C36C98472D1AEDB2EAE7C36C98473F1A2E
:10268000FFB2E5E7C36C98470544EDB2E0E700BF51
:102690002DE9F84F1E4688461746054600F0ACFA6D
:1026A000013E4FF0000A4FF6FF794FF6FE7B6B6854
:1026B00016F8011F284698474845044603463A46FF
:1026C000414628461DD05C45F1D0FFF7AFFF95F895
:1026D0005E30032B05D8DFE803F00B080F023F1A2A
:1026E000FFB282445FFA8AFAE1E70744FFB2F8E7F3
:1026F00080445FFA88F8F4E7A8EB00085FFA88F8EE
:10270000EFE75046BDE8F88F10B4034C44605DF825
:10271000044BFFF7BDBF00BFE92B0008836CEBB192
:1027200090F8781090F96D2090F96E3080F879204B
:1027300080F87A3091B1012911D010B490F96A1063
:1027400090F96C4021448A42B8BF80F87910A342C6
:10275000C8BF80F87A405DF8044B7047704790F925
:102760006F108A4290F97020B8BF80F879109342B8
:10277000F4DD80F87A207047014BC364704700BFD6
:1027800075220008826C8A420AD010B50446603077
:10279000A164FFF771FD2046BDE81040FFF7BEBF02
:1027A000704700BFF0B490F8394090F83AC09DF8F7
:1027B0001070A2EBC402012B0546D2B20C4640D0E9
:1027C000022F1E4607F0010190F83B301AD0032F6C
:1027D00042D0D9B1644532D21644F6B296422AD2DA
:1027E000934227D95E1EF6B2B34294BFC2EB0303F5
:1027F000C2EB0603DBB204912146EC6A2846A446EC
:10280000F0BC60470134A41B04F0FF049A4216D2C6
:102810002644F6B2A64227D2A44524D90CF1FF36AD
:10282000F6B266B1B44594BFC4EB0C06C4EB060621
:10283000F3B2E0E70022934201D9002ED4D1F0BCDC
:1028400070476145FBD290F83B409442F7D904971A
:10285000C46AA446F0BC6047C6F101000244644566
:10286000D2B2B9D3EBE700246445E8D2D9E700BF80
:1028700030B49DF808402BB1056B02946C68A446F7
:1028800030BC604730BC7047F0B5541C83B0E4B234
:102890001D46CB180094DBB217460E46044600F0E6
:1028A00049F848B145B1206B002300933A462B46C6
:1028B000314645682046A84703B0F0BDF0B5D418AE
:1028C00083B0E4B21D464B1C0094DBB217460E46A3
:1028D000044600F02FF848B145B1206B0123009366
:1028E0003A462B46314645682046A84703B0F0BD1E
:1028F00070B590F84350954282B011D890F844508A
:1029000095420DD990F841408C4209D890F8424048
:102910008C4205D9036B002400945C680123A04716
:1029200002B070BD02298ABF012380F87D1080F8B3
:102930007D30704770B490F8446090F843509DF833
:102940000C4096420FD9A5420FD290F8424090F821
:1029500041208C420ED99A4213D3994294BF002051
:10296000012070BC7047A54201D2A242EDD80020E0
:1029700070BC70479A42FAD2994294BF002001205D
:10298000EFE7012070BC70472DE9F04F83B099420A
:102990009DF830908CBFA1EB030AA3EB010A4A45D6
:1029A0000C469B46804615465FFA8AFA38D9A2EB58
:1029B0000907FFB2BA453DD2504611461D46224690
:1029C0000123BA464C4607468B46019391464D4536
:1029D00034BF4FF001094FF0FF394AF34706BBF10E
:1029E000FF0F08BF4FF0FE0B5C4516D8019B2A462F
:1029F000214640460BB122462946F61BFFF778FFD9
:102A0000F2B256B20134002EE4B204DA4D4402EBC5
:102A10000A06EDB276B2A345E8D203B0BDE8F08F66
:102A2000A9EB0207FFB2BA451CD399420FD8002385
:102A30000193CCE79942FAD9224600234D465C46E1
:102A40004AF34706934601934FF00109C7E7224630
:102A500000234D465C464AF34706934601934FF0E8
:102A6000FF39BCE750462246CB4699460123BA4679
:102A70002C46074601931546A9E700BFF0B590F82C
:102A80007D509DF8147002F007060124B440012D1A
:102A90008C46E4B23BD90025016891F810E002F0C1
:102AA000F8020EFB02C1426B11447FB95A1ED2B22A
:102AB00001320A440B782B43634001F8013B9142F9
:102AC000F8D1F0BDFDB2D4B2002BFAD00A780136AD
:102AD0002A436240013B16F007060A70DBB24FEA58
:102AE00045074FEA4402EDD190F87D2090F83A7006
:102AF000012A394403D90124002BE7D1E1E708BFBB
:102B00001546E1D001242546002BDFD1D9E7254623
:102B100008BF0024C0E700BF70B490F838500468C4
:102B200090F83960EB00DBB280F83B30217C1F2944
:102B300028BF1F21F200C900D2B280F83A1080F8F5
:102B40003C20617C35448D4202DD8B1BDB00DBB217
:102B50001344F02180F83F1080F83E3080F83D208B
:102B6000A38A8B4298BF80F83F30E38A80F84030D8
:102B700070BC704710B50446FFF7CEFF002094F8F4
:102B80003A1094F83D2094F83E3084F8410084F8DF
:102B9000421084F8432084F8443010BD10B49DF8EE
:102BA000044001945DF8044BFFF7FCBD38B580F894
:102BB00038204FF480750122A0F87C5080F87E20E8
:102BC0000025049A80F8395080F85B500446C362AF
:102BD000416302638564136898472046FFF7CCFD84
:102BE00084F85E5038BD00BF19B10A2901D088B2FF
:102BF00070474FF6FF707047002380F8233070470E
:102C000010B404690A46A446002320215DF8044B51
:102C1000604700BF10B404691346A4460A465DF835
:102C2000044B1721604700BF00B583B002AA02F829
:102C3000011D0121FFF7EEFF03B05DF804FB00BFAB
:102C400070B5173982B01C46092933D8DFE801F086
:102C5000152A0D3232323232320572BB0221184847
:102C600004F01EF8012002B070BD01221146144884
:102C700004F016F8012002B070BD002AF2D0551EF3
:102C8000EDB201350F4E254414F8013B8DF80730A5
:102C900001220A230DF10701304605F0C1F8A542D3
:102CA000F2D1DFE700220121054803F0F9FF0120FE
:102CB00002B070BD002002B070BD0122CEE700BF9F
:102CC00000040048AC07002010B4C4680A46A446BB
:102CD000002315215DF8044B604700BF10B4C468A1
:102CE0000A46A446002316215DF8044B604700BF46
:102CF00010B4C4681346A4460A465DF8044B172175
:102D0000604700BF10B4C4680023A4461A461821C7
:102D10005DF8044B604700BF10B4C4680023A446AC
:102D20001A4619215DF8044B604700BF70B506468E
:102D300082B00D462C78172C13D01DD90023192CE6
:102D40001A462146304626D9FE2C4FF0290120D1C3
:102D50006A788DF80720023500F054F92C78172C8A
:102D6000EBD16B788DF807300DF107020121304669
:102D70000235FFF7BDFFDDE7152C4FF000032146BC
:102D8000304606D36A788DF80720F4680235A047EC
:102D9000D0E702B070BDF4680135A047CAE700BFB4
:102DA00070B50D46143982B00446164605291CD864
:102DB000DFE801F01203030D12120021FFF720FFDC
:102DC00031462046FFF730FF012002B070BD0121DF
:102DD0000193FFF715FF019B2946256932462046DE
:102DE000AC4602B0BDE8704060470020EDE700BF90
:102DF0000E29F8B51446064637D00F290AD00B29FC
:102E000001D00020F8BD002A3ED12249FFF78EFFF5
:102E10000120F8BD1D46FFF775FF6B79B77F07EB03
:102E2000C30707F0FF07390941F010013046FFF7EB
:102E30004BFF07F00F013046FFF750FFA9793046EE
:102E400041F0B001FFF74AFF29792A68C90001F073
:102E5000F8013046FFF74CFF621E12F0FF04F3D179
:102E60003046FFF759FF0120F8BDFFF74BFF8121E6
:102E70003046FFF729FF21463046FFF72FFF304647
:102E8000FFF74AFF0120EFE70349FFF74FFF01205B
:102E9000F8BD00BF54F900085CF9000870B505469C
:102EA0000C461646FFF7A4FF30B90A2C06D00D2CAD
:102EB00013D0092C0BD070BD012070BD284600F046
:102EC0002BF828460E49FFF731FF012070BD284638
:102ED0000C4900F01DF8012070BD46B928460A498A
:102EE000FFF724FF2B689B7CAB77012070BD284641
:102EF0000649FFF71BFF2B68DB7CAB77012070BD19
:102F000028F9000864F9000818F9000820F90008F9
:102F100001608B7C8377704738B5002304461A46DE
:102F200045692821A84700231A46E5682046142150
:102F3000A847204601224B2100F064F82368204670
:102F40001A79292100F05EF8204600224B2100F07A
:102F500059F8236820461A79292100F053F82046B1
:102F600001224B2100F04EF8236820465A7929218E
:102F7000BDE8384000F046B830B583B002AC069DDD
:102F800044F8085D8DF805108DF806208DF80430A2
:102F90008568234601220F21A84703B030BD00BF3A
:102FA00010B484680023A4461A4609215DF8044B36
:102FB000604700BF10B484680023A4461A460A2163
:102FC0005DF8044B604700BF10B484680A46A4460D
:102FD00000230B215DF8044B604700BF10B48468E8
:102FE0000A46A44600230E215DF8044B604700BF4B
:102FF00010B484680023A4461A4610215DF8044BDF
:10300000604700BF10B444690023A4465DF8044B38
:10301000604700BF283908B52B2917D8DFE801F031
:1030200019343819191916161616161616161616F4
:1030300016161616161616162A2F191919191919F1
:1030400019202519191919191B1B1B1B012380F89D
:103050002430012008BD002380F82430012008BD61
:1030600001210D4803F01CFEF3E702210A4803F09A
:1030700017FEEEE71021084803F012FEE9E72021D1
:10308000054803F00DFEE4E7104602F00FFCE0E710
:103090000120FDF7B7FDDCE70004004830B4029DD5
:1030A0008160C2600021FF22C0E904350160C17760
:1030B000418480F8202080F8252030BCFFF770BFC5
:1030C000F0B4104E104DC1F10501CFB2741D314660
:1030D00042F2107282424FF0300305D8801A80B25B
:1030E00001339042DBB2F9D201F8013BA5FB023279
:1030F000A1424FEAD202EDD10023F0197371F0BC66
:10310000704700BFF0040020CDCCCCCC70B5054694
:1031100008460C46FDF75CF8214682B23223284669
:10312000BDE8704006F082B80EB470B583B007AB4E
:10313000002153F8045B01932A460646084606F030
:103140008DFA013006F08EF9019A0446294606F000
:10315000A9FA21463046FFF7D9FF204606F08AF942
:1031600003B0BDE8704003B0704700BF10B5294BF5
:103170004FF0A0414FF440328AB0102019605A60DD
:10318000022104229860D9615A6101210022184667
:1031900019615976996283F8301083F820200192E2
:1031A0000492DA62DA601A765A63CDE90222CDE936
:1031B0000522CDE90722099202F034FC30BB00233E
:1031C00001A91448019302F04BFFE0B9002301224A
:1031D000072404A90F480993CDE90422CDE9073358
:1031E000069402F0B3FD58B9022304A90948CDE9B9
:1031F000043302F0ABFD08B101F0F2FD0AB010BDDE
:1032000001F0EEFDF0E701F0EBFDDFE701F0E8FD96
:10321000D5E700BF6C05002070B5036888B00024B6
:10322000B3F1A04FCDE90344CDE90544079401D0A3
:1032300008B070BD03F1704303F504331B4D5A69A8
:1032400042F080525A615A6902F080520192019A0A
:103250005A6942F400325A615B6903F40033029305
:103260000B22032303A90646029803924FF09040D5
:10327000049303F03DFC0E4B2B6080204FF48071D3
:103280004FF480622023E86028466C60AC60EC61FB
:10329000C5E90412AB6103F01FFB18B9B5636E6298
:1032A00008B070BD01F09CFDF8E700BFBC05002030
:1032B000080002400D4B0E4A10B54FF4A0211A60D1
:1032C0000924002218465C601961C3E902225A6190
:1032D0001A765A769A76DA761A775A7702F032FFA9
:1032E00000B910BDBDE8104001F07ABD0006002015
:1032F0000064004070B50268234B88B000249A42F5
:10330000CDE90344CDE90544079401D008B070BD70
:1033100003F5D6334FF4C050DA6942F00072DA6137
:10332000DA6902F000720192019A5A6942F400329D
:103330005A615B69039003F40033029303A90923E4
:10334000032202254FF09040CDE90623029E04950A
:1033500003F0CEFB22460E21132003F04BFA13207C
:1033600003F07EFA22460C21142003F043FA1420C5
:1033700003F076FA22460D21152003F03BFA1520C2
:1033800003F06EFA08B070BD0064004030B58BB039
:1033900000234FF6E0344FF6E072012569461848E5
:1033A0000593CDE9063304930993CDE90044CDE9B3
:1033B0000222089502F048FFF8B91249124A104853
:1033C0004FF4FD6500230D60082440F2DF75C1E96C
:1033D00002330B750C611461C2E90133D360C2E999
:1033E0000533156002F0B0FF0221054803F0B2F882
:1033F00008B101F0F5FC0BB030BD01F0F1FCDCE7E9
:1034000000060020280600205006002000000000D2
:103410002DE9F04FE24D83B02C789DF830C09DF837
:103420003460BDF838E09DF83C700193002C54D016
:10343000DC4C94F80080B8F1020F67D094F800805B
:10344000B8F1020F00F08D8094F80080B8F1020FFF
:1034500000F0B28094F80080B8F1020F00F0D5803F
:1034600094F80080B8F1020F00F0F88094F8008022
:10347000B8F1020F00F0198194F80080B8F1020F42
:1034800000F0368194F800C0BCF1020F00F05B81BF
:1034900094F800C0BCF1020F00F09081207802285F
:1034A00000F0B5812178022900F0D9812278022A22
:1034B00000F0F4812278022A00F00A822378022B9D
:1034C00000F01D822378022B0AD0B74BB74AB849C7
:1034D000B84802F067FF00232B7003B0BDE8F08FFF
:1034E0006378012BF1D1A378DBB25C2BEDD1AF4A2D
:1034F000032128361170F6B20021412050709370DC
:10350000D670117151719171D171DEE794F801801B
:103510005FFA88F8B8F1010F90D194F8029009F0A1
:10352000FF03B9F1000F89D1DFF880924FF0060B4D
:1035300089F800B04FF0410A4FF0080B89F801A05C
:1035400089F802304FF0800A89F803B04FF07A0B07
:1035500089F804B089F805A089F8068089F8073051
:103560006CE794F801805FFA88F8B8F1010F7FF4F6
:103570006BAF94F802905FFA89F9B9F1200F7FF4EC
:1035800063AFDFF828A24FF0060B4FF041038AF833
:1035900000B08AF801304FF0000B4FF040038AF87A
:1035A00002908AF803308AF804B08AF805B08AF8E5
:1035B00006808AF807B047E794F80180B8F1010F58
:1035C0007FF448AF94F802805FFA88F8B8F1400FB2
:1035D0007FF440AFDFF8D4914FF0060A4FF0410B73
:1035E00089F800A089F801B04FF0000A4FF0110BE4
:1035F00089F8028089F803A089F804A089F805A059
:1036000089F806B089F807A024E794F801805FFAEA
:1036100088F8B8F1010F7FF423AF94F802905FFAB5
:1036200089F9B9F1600F7FF41BAFDFF880A14FF08B
:10363000060B8AF800B04FF041034FF0000B8AF8F8
:1036400001308AF802908AF803B08AF804B08AF848
:1036500005B08AF806808AF807B001E794F801807F
:10366000B8F1010F7FF402AF94F802805FFA88F896
:10367000B8F1800F7FF4FAAEDFF830A14FF0060901
:103680008AF800904FF0410B4FF000098AF801B022
:103690008AF802808AF803908AF804908AF80590E4
:1036A0008AF806908AF80790E0E694F80180B8F16D
:1036B000090F7FF4E1AE94F8028008F0FF09B8F139
:1036C000000F7FF4D9AEDFF8E4804FF0040A88F8E9
:1036D00000A088F8019088F8029088F8039088F894
:1036E000049088F8059088F8069088F80790C3E65B
:1036F00094F80180B8F1010F7FF4C4AE94F8028011
:103700005FFA88F8B8F1050F7FF4BCAEDFF89C9043
:103710004FF0030A0CF1280C89F800A05FFA8CFC2A
:103720004FF0000A4FF0410B89F801B089F8028090
:1037300089F803C089F804A089F805A089F806A0D3
:1037400089F807A09EE694F801C0BCF1010F7FF450
:103750009FAE94F802C05FFA8CFCBCF10A0F7FF4B4
:1037600097AEDFF84880DFF850904FF0030A88F8F2
:1037700000A0A9FB0E394FF0410A88F801A0C9F357
:1037800047094FF0000A88F802C088F8039088F8CB
:1037900004A088F805A088F806A088F807A077E6B6
:1037A0004C06002040060020480600206C06002041
:1037B0002806002000060020ABAAAAAA94F801C09F
:1037C000BCF1010F7FF46AAE94F802C05FFA8CFC82
:1037D000BCF10B0F7FF462AEDFF874814FF0030988
:1037E000653088F80090C0B24FF000094FF0410AF0
:1037F00088F801A088F802C088F8030088F80490CF
:1038000088F8059088F8069088F8079046E6607872
:1038100001287FF447AEA078C0B20C287FF442AEF6
:10382000DFF82CC14FF004088CF800804FEA8109C2
:103830004FF041088CF80180C1F387114FF0000868
:1038400009F0FC098CF802008CF803108CF8049045
:103850008CF805808CF806808CF8078022E6617869
:1038600001297FF423AEA178C9B20D297FF41EAEE1
:1038700037484FF0030C80F800C04FF041084FF07C
:10388000000C80F801808170C27080F804C080F85C
:1038900005C080F806C080F807C007E66278012AF4
:1038A0007FF408AEA278D2B20F2A7FF403AE284983
:1038B000032028370870FFB200204FF0410C81F838
:1038C00001C08A70CF70087148718871C871F1E5C4
:1038D0006278012A7FF4F2ADA278D2B2112A7FF485
:1038E000EDAD1B49019B03200870412700204F705C
:1038F0008A70CB70087148718871C871DEE5637891
:10390000012B7FF4DFADA778FFB2222F7FF4DAAD71
:103910007046FCF707FE0CA3D3E90023FCF76CFE0E
:10392000FDF742F90A4B80B204221A70010A002204
:10393000C0B24FF0410C83F801C09F70D97018716C
:103940005A719A71DA71BDE5A2D2913D03512940B5
:103950006C06002028220021014805F093BD00BF1D
:1039600078060020614B6249DB6E624A1B682DE9D4
:10397000F04F5B6810781478C3F12803A1FB031C97
:103980004FEA5C1C0CEB8C0CA3EBCC0C644583B0B5
:10399000ACF1050802D8C0B280451ED30026564DB2
:1039A000564FDFF868B19FED566AB246662013782D
:1039B000DBB2EB5C13F0F00315D01378262B0FD895
:1039C00013780133DBB21370013806D01178137805
:1039D0004145DBB2EBD96345E9D803B0BDE8F08FD0
:1039E00082F800A0F0E71178C9B215F801E011786B
:1039F00001315FFA8EFE6C5C11788DF80140023166
:103A00008DF800E0695C14780334C9B215F80490AD
:103A100014788DF8021004348DF803902C5D8DF825
:103A20000440FC5CA64547D00133072BF9D1002E9A
:103A3000C3D001F0F009B9F1300F0DF1030E4FF0D2
:103A400008044FF0000611D0B9F1400F15D101F074
:103A50000F010931A140043C0E44211D0DD01EF878
:103A6000011B01F0F009B9F1300FEDD101F00F01A8
:103A7000A140043C0E44211DF1D107EE906AB8EE3E
:103A8000677A204C5BF8231054F82340C7EE066A8F
:103A9000012607EE904A07EE101AF8EEE77AB8EE24
:103AA000477A194CE7EE267AFDEEE77A17EE901A80
:103AB00009B224F8131080E70C464FF0020EA4F16F
:103AC0003006F6B2413C092E0EF1010EE4B204D9E3
:103AD000052C8CBF002401242CB1BEF1050FA8D009
:103AE0001DF80E40EBE7264667E700BF140A0020EA
:103AF000CDCCCCCCA0060020780600200000002011
:103B00000000134524000020F804002008000020D5
:103B10000F4B00B55A6942F001025A615B6983B0EC
:103B2000002203F00103114601930B20019B02F0D8
:103B300061FE0B2002F094FE002211460F2002F0DD
:103B400059FE0F2003B05DF804EB02F089BE00BF00
:103B5000001002402DE9F041002488B0CDE9034473
:103B6000CDE90544354B07945A69354F354E42F43B
:103B700080025A615A6902F480020092009A5A69DE
:103B800042F400325A615A6902F400320192019AF9
:103B90005A6942F480225A615B6903F48023224609
:103BA000029338460B210125029B4FF0020803F0D7
:103BB00077F803A924480595CDE9038602F098FF1C
:103BC00003A910234FF090400393CDE9044502F080
:103BD0008FFF03A940234FF090400393CDE9046584
:103BE00002F086FF03A938460B230393CDE9045462
:103BF000069402F07DFF302303A938460393CDE9F4
:103C0000046502F075FF22460A21072002F0F2FD4A
:103C1000072002F025FE224641460A2002F0EAFD76
:103C20000A2002F01DFE22460A21172002F0E2FDC2
:103C3000172002F015FE08B0BDE8F0810010024028
:103C400000040048000021100014004870B586B040
:103C500006AA0B4C02F8091D45000A2629462046F3
:103C60000096012303F08CF9009629462046012393
:103C70000DF1170203F038FA9DF9170006B070BD78
:103C8000A4060020F0B5012885B004AC0CBF532079
:103C90001D204FF000010CBFA6263A26FFF7D6FFE5
:103CA00040F62D0324F8043D0A25314622460746F6
:103CB00000950223094803F063F922463146009536
:103CC00040F2315402230548ADF80C4003F058F996
:103CD0001B3714BF0020012005B0F0BDA406002052
:103CE000012908B50CBF53231D23792816D07A2843
:103CF00011D0782801D0002008BD18463321FFF7E5
:103D0000A5FF4FF4C87303FB00F00028B8BF7F3055
:103D100040F3C71008BD18463721F0E71846352193
:103D2000EDE700BF134B144A10B50121134C1A6084
:103D3000184600225C60C3E90221C3E90422C3E9FA
:103D400006221A6203F0C8F888B90021094803F076
:103D500081FA48B90021074803F0A6FA00B910BD5E
:103D6000BDE8104001F03CB801F03AF8F2E701F08C
:103D700037F8EAE7A4060020005400400E090020AE
:103D800070B50168174A88B000239142CDE903332A
:103D9000CDE90533079301D008B070BD124C13482C
:103DA000636943F480236361636903F480230193AF
:103DB000C0221223039204930322042303A90125A2
:103DC0000793019ECDE9055202F092FEE36943F4A8
:103DD0000013E361E36903F400130293029B08B04C
:103DE00070BD00BF005400400010024000040048B5
:103DF000F0B50E4F0E4D3B780E4C85B00926019361
:103E00002846029400961B2335224821FDF79CF991
:103E10007B7800960534CDE9013428461B233522F2
:103E20006521FDF791F905B0F0BD00BF1C0500202C
:103E300024070020ECFA0008F0B5334C334E344F21
:103E400087B00C2502972046CDE900564623102264
:103E50000021FDF70DFA7A1DF31DCDE90132204650
:103E6000009546231C220021FDF702FA07F10A0201
:103E700006F10E03CDE901322046009546232822A3
:103E80000021FDF7F5F907F10F0206F11503CDE961
:103E9000013220460095382310224821FDF7E8F929
:103EA00007F1140206F11C03CDE90132204600950A
:103EB00038231C22482119372336FDF7D9F9CDE9DB
:103EC000016720460095382328224821FDF7D0F9C4
:103ED000104E114B00952046CDE901363422462381
:103EE0000021FDF7C5F9002103226423CDE9013249
:103EF000059600952046CDE9031146233422FDF7AF
:103F000007FA07B0F0BD00BF24070020D4FB00086B
:103F100008FC0008C0F90008C4F900082DE9F041C8
:103F20000D4E0E4DDFF8388084B010240C27224649
:103F30000C34CDE901650097462300214046E4B2E8
:103F4000FDF796F9402C06F1070605F10505EED1BF
:103F500004B0BDE8F08100BFD4FB000808FC0008F5
:103F600024070020F0B5174E174D184F85B00C24CC
:103F700000223046CDE90045114602974023FDF767
:103F800077F9EB1DCDE900432246304602974023E6
:103F90000021FDF76DF905F11503CDE90043224637
:103FA00030460297402342211C35FDF761F9CDE9E7
:103FB000015700943046402300224221FDF758F972
:103FC00005B0F0BD240700207CF90008BCF900080A
:103FD0000268094B9A4200D0704710B5074C084858
:103FE0002146012204F020FD227806490448BDE85C
:103FF0001040FFF799B800BF0044004009070020B7
:10400000940A0020A8F90008054B064A03F11400A1
:1040100033F8021B22F8021B8342F9D1704700BF1C
:104020000C070020F406002030B597B000230324CD
:104030004FF4A0220120CDE90E3312930193069391
:10404000CDE90233CDE90433CDE90733CDE90933B6
:104050000B9310210C940D9202244FF48032109097
:104060004FF4E0130CA81191CDE91342159303F01E
:1040700043F900B1FEE703464FF4806201A82146F0
:104080000F250393059302940195049203F048FCD5
:10409000034600B1FEE741F2210206A8CDE908334C
:1040A0000B93069203F01EFD00B1FEE717B030BD82
:1040B0002DE9F04FCDB001F0D5FB00214FF4807217
:1040C0000CA805F0DFF9FFF7AFFFFFF743FDFFF79F
:1040D0001FFDFFF74BF8FFF7EDF8FFF723FE00F0A9
:1040E000E1FE01F053FA01F04BF801F09DF801F008
:1040F000F1F801F0C9FA01F0E9FA01F013F901F061
:1041000039F901F053F900215E4804F0B7F800B125
:10411000FEE75D4804F062F800B1FEE75B4804F09A
:104120005DF800B1FEE75A4804F058F800B1FEE728
:10413000584804F053F800B1FEE7574804F04EF831
:1041400000B1FEE7554804F049F800B1FEE70A2245
:104150005349544801F074FDFFF7FCFB28225249F3
:10416000524804F0CBFC01225149524804F05CFC57
:10417000FFF70CF90221504802F08CFD4F4B00284C
:1041800000F000860A934E4B4E4A4F494F48FDF7C8
:10419000E1FF002208214E4802F082FD052001F0D7
:1041A00085FB012208214A4802F07AFD4748FEF7C4
:1041B00001FF00214548FEF707FFFF214348FEF7B6
:1041C0000DFF4248FDF7B0FF424B019330230093AF
:1041D000002228213D48FDF76FFC3F493B48FEF790
:1041E000D1FA3E4B394837221021FEF78DFA3C4B6D
:1041F000364840222821FEF787FA3448FDF7F4FDBF
:104200000A9B1B7863B1374B304808220021FEF728
:104210007BFA2E48FDF7E8FD4FF4FA7001F046FBFB
:104220002A48314CDFF8DCB0DFF8DCA02F4DFDF779
:10423000DBFD4FF47A7001F039FB2448FDF7C8FD2F
:104240002B491C48FEF770FF2A4B2B4AB3F900306C
:10425000C3F164035363FFF7EFFDFFF7C9FD1B488C
:10426000FDF7C2FD0020FFF70DFD244B1870012063
:10427000FFF708FD224B187000230993DFF8289000
:104280007DE100BFD0080020100900205008002068
:1042900090080020900900205009002010080020FC
:1042A0000C0700206C05002078060020140A00206E
:1042B00009070020940A002000140048200700206D
:1042C00015300008412C000810F9000824070020D0
:1042D00000040048CCF90008B0DF0008F8FA000834
:1042E00010FB00081CFB0008F8040020540000200C
:1042F0002CFB000840000020002C0140F0060020AC
:10430000A4070020A607002044000020002313601B
:10431000AD4B1A78AD4BD2B21A70AD4EAD4B308862
:10432000AD491B780978AD4F07EE900AF8EE677A31
:104330000B4017EE900A3A707B70FCF705F99CA3CE
:10434000D3E90023FCF758F99BA3D3E90023FCF73A
:104350007DFAFCF701FC7388A14A07EE903AF8EE6B
:10436000677A108017EE900AFCF7EEF890A3D3E975
:104370000023FCF741F990A3D3E90023FCF766FA88
:10438000FCF7EAFB974B2788BBF800101A88A68930
:10439000954BB4F80AC01880F6B25FFA8CF3009619
:1043A000E68801930023D2B2CDE90263F8B2FFF7A9
:1043B0002FF8BBF8003022881BB240F6B7318B4291
:1043C00012B21DDC002A1BDCBBF8003018B207EE6D
:1043D000900AF8EEE77A17EE900AFCF7B5F878A3A2
:1043E000D3E90023FCF732FA0022804BFCF704F9F2
:1043F000FCF7DAFB7E4A03B2642B138040F3C884D7
:104400007B4A6423138000237A4A5363FFF7AAFA96
:10441000794B1B68002B00F084806E4B1B78DBB15E
:1044200000217820FFF75CFC0021AAF80000792029
:10443000FFF756FC0021AAF802007A20FFF750FC93
:10444000BAF9023000900646BAF900206B496C4870
:10445000AAF80460FEF768FE5F4B1B78DBB1012110
:104460007820FFF73DFC0121AAF806007920FFF72C
:1044700037FC0121AAF808007A20FFF731FCBAF9CD
:10448000083000900646BAF906205E495C48AAF852
:104490000A60FEF749FE22882A80A2886A80A289E3
:1044A000EA80514A0A9B1288AA8062892A814C4A72
:1044B0001B7812886A81002B30D023881BB25A2BBC
:1044C000DBBF238801334FF6C4731BB22380A3885C
:1044D0001BB23C2BDBBFA38801330F231BB2A3808D
:1044E000A3891BB2782BDBBFA38901333C231BB20A
:1044F000A38163891BB2782BDBBF6389013332232D
:104500001BB26381BBF8003042F234121BB29342FB
:10451000CCBF40F2EE230023ABF80030364A002334
:104520001360394B1B6833B3022B00F0AB80032BB5
:1045300000F0A480012B00F0B3803448FDF748FC64
:10454000334B1E78002E76D0012E00F0B880022E5C
:1045500000F0FE80032E00F00A81042E00F0DD82C0
:10456000052E00F023812948FDF73EFC294A00234F
:104570005362254A1360284B1B68002B60D1274BE0
:104580001B68DA69100708D4DA69510705D4DA69BB
:10459000920702D4DB69DB0742D5204804F002FB16
:1045A000282249461D4804F0A9FA39E0AFF30080FB
:1045B0000000000000A074400000000000E06F4018
:1045C000000000000070A7404C060020F20600200A
:1045D000F4060020F0060020A40700201C0500209F
:1045E00050000020A8070020420000200000594091
:1045F00040000020002C01400C05002044FB000876
:10460000940A00205CFB0008140500202407002009
:10461000F10600200014004008050020140A0020C4
:10462000C04A1368002B7FF471AEBF4B1A78002A82
:104630007FF473AE6CE6FFF7FFFBFFF7D9FB92E761
:10464000BA4B1E78002E00F0E481012E00F090811C
:10465000022E00F0F680032E00F0C280042E00F03F
:10466000B982052E00F05C82062E00F05A83B04815
:10467000FDF7BAFBAF4A00231360FFE5072002F005
:10468000FDF85AE7172002F0F9F8A84A1378062B2C
:104690003FF453AF002B40F08580052313704CE7A7
:1046A000172002F0EBF8A14B1B78062B3FF445AF27
:1046B000052B9E4A0CBF0023013313703DE7DFF842
:1046C000A8829D4F02260D2332460D36CDE9018783
:1046D000009344213C239648F6B2FCF7C9FD362EE0
:1046E00008F1070807F10507EDD1DFF88082934F45
:1046F000482618F8013B8E480297092231461D369C
:10470000CDE90023F6B21B233522FCF71DFDBC2E9C
:1047100007F10507EDD178226FF04F034FF0FF311D
:10472000069205930491142620210A204FF49672D4
:104730006FF03B03CDE90032CDE9020603230846C2
:104740001F22FCF771FA00217948FCF7C1FA0AE749
:10475000FFF7E4FB7A4A02920C237A4A0192009313
:104760003246462300217248FCF782FDFBE6C82151
:104770006FF063023223CDE90032CDE902168023C7
:104780000E2200216A48FCF7E3FF6F4902916F494E
:1047900067480D230022CDE9003111464023FCF784
:1047A00067FDE0E6614A013B1370C6E632206FF018
:1047B000C701C82204238DE80F0080230E220021A8
:1047C0005B48FCF7C5FF62490291624958480D23D6
:1047D0000022CDE9003111468023FCF749FDC2E6F5
:1047E000099B002B00F09980013B9BB209931E4668
:1047F0006FF063023223CDE900320CAA2B880496B5
:104800000CA8C821CDE9021022F81630002180231F
:104810000E2247484C4FFDF73BF80CAB022033F912
:1048200016300193012603210D230022CDE9021049
:104830000093CDE90467114640233D48FCF768FD2D
:1048400015E7BBF800300B9A1A4492B242F210738B
:104850009A420B9204D9A2F51C53103B9BB20B93C6
:10486000DDED0B7A364FF8EE677A0C2617EE900ADC
:10487000FBF76AFE0022384BFBF7E8FFFCF794F9E0
:10488000C3B22B4802223A218046FCF7B5FC2D4BDF
:104890000297CDE900630222462300214046FCF73F
:1048A000E7FCBBF80030009600211BB20422CDE9E2
:1048B0000311404605970193029246230222B14616
:1048C0000E46FCF725FDFFF729FB032210270120E8
:1048D00002219646184A35F916C0CDF808E006EBD5
:1048E00086031344CDE9031005933A46CDF80090B2
:1048F000CDF804C04623002140460136FCF708FDF0
:104900000C37042EFFB23FF4B2AE144B13F806E09E
:10491000134B995D134B985DDCE7802309931E468A
:1049200066E700BF10050020F2060020F106002017
:10493000240700200805002008FC0008ECFA000805
:1049400070FB000874FB00087CFB000880FB00087B
:10495000BCF9000884FB000800408F40C4FB00083D
:10496000CCFB000800FC0008D4FB00081C0500205C
:10497000B5F900108A48FCF7ABF9B5F90030894A5F
:1049800005924FF003094FF010080227CDE90139D5
:10499000CDF800801E23212224218148CDE9037611
:1049A000FCF7B6FC804BCDF80080019326211C2338
:1049B0007B482822FCF78AFC4FF000084B46304623
:1049C00039464FF00D09794E35F918C0029308EBBE
:1049D00088023244CDE903100592CDF800903A46A2
:1049E000CDF804C03C2344216D4808F10108FCF7D0
:1049F0008FFC0D37B8F1040FFFB23FF438AE6C4AAC
:104A00006C4B12F808106C4A13F8083012F80800C2
:104A1000D9E76A4B6A4AB3F9003061480592032727
:104A20004FF00C08CDE90137342246233146CDE959
:104A30000366CDF80080FCF76BFCBBF80010019119
:104A400042F228320E2303920093324680233146ED
:104A500053480296FCF7EEFA5449B5F90030019339
:104A60004FF001090222CDE904910392462310225E
:104A700031464B480297CDF80080FCF749FC514A7B
:104A8000B5F902300193CDE90279CDE904624623FC
:104A90001C2231464248CDF80080FCF739FC4A4AD6
:104AA000B5F904303E480193CDE90279CDE90462BD
:104AB0003146CDF80080462328228146FCF728FCA9
:104AC00038463146414A0491FBB2A2FB03C2520868
:104AD00002EB42029B1A03EB43039A0002F1100C13
:104AE000324A35F91710019107EB87031344CDE9DA
:104AF00002060593CDF800800CF0FC020137382344
:104B000048214846FCF704FC062F41D0294BD85DCC
:104B1000274BDE5D284BD95DD4E7FFF723FA22E56A
:104B2000099B002B37D0013B9BB209931E46BAF973
:104B30000820BAF90230049613440CAF0DF1300C82
:104B400003EBD3730397C8205F106FF0C7013222C5
:104B5000CDE90110009280232CF816700E2200215E
:104B60000F481B4FFCF794FE0CAB022033F91630B4
:104B70000193012603210D230022CDE902100093A9
:104B8000CDE90467114680230548FCF7C1FB6EE5BB
:104B9000FFF72EF96BE5802309931E46C7E700BF98
:104BA0002407002040FB00087CFB000808FC0008EC
:104BB000CCFB0008C4FB000800FC000840000020FB
:104BC000C0F900080DFC000812FC0008ABAAAAAA54
:104BD000BCF90008BAF90030774A059201260C2783
:104BE0004FF002084FF003090022CDE90386CDE91A
:104BF00001390097114640237048FCF789FBBAF948
:104C000002306D4A0097CDE90386059201933A463A
:104C1000CDF80890402300216848FCF779FBBAF9E9
:104C20000630654A0097CDE9038605920193CDF8D9
:104C300008904023002242216048FCF769FBBAF942
:104C400008305D4900973A46CDE903860591019306
:104C5000CDF808904023422158480F27FCF758FB15
:104C600000215648FDF75EFE13232B2200972021DA
:104C70005248FDF70DFA31465048FDF753FE0097B4
:104C800013232B2220214D48FDF7B6F9BAF9023043
:104C9000BAF90020009702EBC20003EBC3014FF00A
:104CA000C80802EB400203EB410192FBF8F291FBD2
:104CB000F8F12B3220313346D2B2C9B23F48FDF76A
:104CC000E7F900213D48FDF72DFE13232B22009725
:104CD00060213A48FDF7DCF931463848FDF722FEFD
:104CE000009713232B2260213448FDF785F9BAF988
:104CF0000830BAF90620009702EBC20003EBC301AB
:104D000002EB400203EB410192FBF8F291FBF8F158
:104D10002B3260313346D2B2C9B22848FDF7B8F918
:104D2000A5E42648FDF754F825492448FDF72AFD57
:104D3000244B22480F220221FDF7E6FC224B1B7870
:104D400073BB224B1D481E220221FDF7DDFC204BC8
:104D50001A481E220A21FDF7D7FC1B4B17481B7867
:104D6000012B0CBF194B1B4B2D220221FDF7CCFC54
:104D7000194B12482D220A21FDF7C6FC0F48FDF7FA
:104D800033F874E41A460A9301231370FFF7FBB952
:104D90003B2B0CDC114A3C2313802823FFF734BB48
:104DA0000C4B06481E220221FDF7AEFCCFE7C3F1F3
:104DB0006403FFF729BB00BFBCF9000824070020EB
:104DC00034ED000898FB000818050020A8FB000837
:104DD000B0FB0008ACFB0008BCFB00084000002052
:104DE000FEE700BF064B1A78012A03D9054B0022C3
:104DF0001A8070471A780132D2B21A70704700BF19
:104E000024050020A8070020064B1A78012A03D9A0
:104E1000054B00221A8070471A780132D2B21A70FC
:104E2000704700BF25050020A607002010B5174CCD
:104E30002378012B04D9164A00231380237010BD58
:104E4000144A154B10685B6A217813601B1A03EB38
:104E5000014307EE903A9FED116AF8EE677AB6EEDD
:104E6000007AC6EE276A66EE877A17EE900AFBF79D
:104E70006BFB00220A4BFBF7BFFBFBF795FE044AD6
:104E800080B200231080237010BD00BF25050020D4
:104E9000A6070020200500200004004000504348E1
:104EA00000004E4038B5114B114A1A604FF4827120
:104EB0004FF4E0604FF40072102507245960D86069
:104EC00008219A6118460022DD61DC6259639A600C
:104ED000C3E90422C3E908229A621A6302F038FF88
:104EE00000B938BDBDE83840FFF77ABFAC070020F5
:104EF0000030014070B50168184A88B00023914223
:104F0000CDE90333CDE90533079301D008B070BD77
:104F100003F1804303F5043303A99A6942F48052F4
:104F20009A619A6902F480520192019A5A6942F494
:104F300000325A615B6903F40033029303220523B4
:104F4000A02502244FF09040029ECDE90354CDE904
:104F5000062301F0CDFD08B070BD00BF0030014058
:104F60000A4B9A6942F001029A619A6982B002F092
:104F700001020092009ADA6942F08052DA61DB693C
:104F800003F080530193019B02B070470010024070
:104F900000F07ABC08B5022001F08AFE0221044824
:104FA00001F078FE10B9034B03221A6008BD00BF60
:104FB000001400481405002008B5102001F078FE08
:104FC0001021044801F066FE00B108BDBDE80840AC
:104FD000FFF72CBF00040048014801F039BD00BFB5
:104FE000BC050020014801F033BD00BFD0090020FE
:104FF000014801F0DBBA00BF0006002010B5074CE5
:10500000204601F0D3FA064B064A2046002101F063
:1050100021FA054B01221A7010BD00BF00060020C6
:1050200040060020500600204C060020FFF7E0BF9D
:1050300008B5202001F03CFE402001F039FE20217F
:10504000094801F027FE18B9084B01221A6008BD73
:1050500040214FF0904001F01DFE0028F7D1034B96
:1050600002221A6008BD00BF000400481405002099
:1050700008B5054803F0B6F9044803F0B3F9044B4A
:1050800001221A6008BD00BFD0080020500900208E
:105090001005002008B5044803F0A4F90349044AA8
:1050A00001230B60136008BD1009002008050020D3
:1050B0000C05002008B5034803F094F9BDE808404A
:1050C000FFF7A2BE50080020014803F065BE00BFF4
:1050D000140A0020014803F05FBE00BF940A0020BC
:1050E00008B5034803F07EF9BDE80840FFF77ABE33
:1050F0009008002008B5054803F074F9072001F076
:10510000AFFB1720BDE8084001F0AABB90090020C2
:105110001749184B184A194810B4D1F8884044F47C
:105120007004C1F888401C6844F001041C605C688D
:1051300022405A601A6822F0847222F480321A6087
:105140001A6822F480221A605A6822F4FE025A6019
:10515000DA6A22F00F02DA621A6B002410404FF074
:10516000006218639C608A605DF8044B704700BF62
:1051700000ED00E0001002400CC07FF8CCFC00FF06
:1051800000B5284A4FF080438FB0136040F2CF73D0
:1051900040F2CF21D3601046002351609360039307
:1051A0000093079313619361CDE904330693CDE92E
:1051B0000133CDE90833CDE90A33CDE90C3303F0EF
:1051C0002DFA60BB4FF4805303A91648039303F0F4
:1051D00057F808BB134803F03DFAD0B900236946DD
:1051E00010480093029303F099FB78B9002307A9B4
:1051F0001A460C480993CDE907330B9303F0A0FA44
:1052000008B1FFF7EDFD0FB05DF804FBFFF7E8FD17
:10521000ECE7FFF7E5FDE1E7FFF7E2FDDAE7FFF78F
:10522000DFFDCFE71009002000B5284A284B1360A6
:105230008FB04FF6FF7340F26711D3601046002322
:105240005160936003930093079313619361CDE9D9
:1052500004330693CDE90133CDE90833CDE90A33B0
:10526000CDE90C3303F0DAF960BB4FF4805303A9A6
:105270001648039303F004F808BB144803F0EAF956
:10528000D0B90023694611480093029303F046FB0E
:1052900078B9002307A91A460C480993CDE90733CA
:1052A0000B9303F04DFA08B1FFF79AFD0FB05DF8CC
:1052B00004FBFFF795FDECE7FFF792FDE1E7FFF751
:1052C0008FFDDAE7FFF78CFDCFE700BF5008002025
:1052D0000004004010B5114B114A1A6084B000223E
:1052E00040F267144FF6FF7118465C60C3E9022173
:1052F00001929A61CDE9022203F090F958B9002396
:1053000001A906480193039303F008FB08B1FFF7D6
:1053100067FD04B010BDFFF763FDF0E790080020C3
:105320000010004010B5114B114A1A6084B00022E1
:1053300040F2CF2442F20F7118465C60C3E90221AB
:1053400001929A61CDE9022203F068F958B900236D
:1053500001A906480193039303F0E0FA08B1FFF7AF
:105360003FFD04B010BDFFF73BFDF0E790090020C2
:10537000001400400B4B0C4A10B547F6FF711A6041
:1053800040F69504002218465C60C3E90221C3E997
:1053900004229A6103F042F900B910BDBDE8104043
:1053A000FFF71EBD50090020004401400B4B0C4A82
:1053B00010B547F6FF711A6040F6950400221846B2
:1053C0005C60C3E90221C3E904229A6103F026F973
:1053D00000B910BDBDE81040FFF702BD1008002065
:1053E0000048014000B503684B4A934289B033D06E
:1053F000B3F1804F45D0494A934258D0484A93422E
:105400006AD0484A934212D0474A934275D0474ADD
:10541000934209D1464B9A6942F480229A619B6972
:1054200003F480230793079B09B05DF804FB404B0E
:10543000DA6942F02002DA61DB6903F020030593A8
:10544000372000220B21059B01F0D4F9372009B049
:105450005DF804EB01F004BA354B9A6942F400623E
:105460009A619B6903F400630193019B00220F2161
:10547000192001F0BFF9192009B05DF804EB01F023
:10548000EFB903F504330321DA6942F00102DA616E
:10549000DB6903F00103029300221C20029B01F050
:1054A000A9F91C2009B05DF804EB01F0D9B9204B33
:1054B000DA6942F00202DA61DB69002203F00203DA
:1054C000039311461D20039B01F094F91D2009B0A0
:1054D0005DF804EB01F0C4B9154BDA6942F0100233
:1054E000DA61DB6903F01003049336200022042103
:1054F000049B01F07FF93620A9E70D4B9A6942F42D
:1055000000329A619B6903F40033069300220F2155
:105510001920069BADE700BF002C014000040040AD
:1055200000100040001400400044014000480140C9
:105530000010024030B50168134A87B00023914241
:10554000CDE90133CDE90333059301D007B030BD78
:1055500003F1804303F5043301A95A6942F4003290
:105560005A615B6903F400330093022206234FF46F
:1055700080744FF09040009D0593CDE9014201F009
:10558000B7FA07B030BD00BF002C014030B5002491
:105590009BB021462C220FA8CDE90444CDE9064456
:1055A00001940894CDE90244CDE90944CDE90B44C6
:1055B000CDE90D4403F066FF304B314D9C6047212F
:1055C00063221846C3E904449C61C3E90051DA60D0
:1055D00003F024F800284DD14FF4805304A9274844
:1055E000049302F04DFE002841D1244803F04EF808
:1055F000002839D1002301A920480393CDE90133C4
:1056000003F08CF968BB00231E4C1C48089408A9C1
:105610001A46CDE90933CDE90B33CDE90D3303F05B
:10562000CBF8D8B900234FF400544FF000720FA903
:1056300012481393CDE90F33CDE91133CDE915337A
:10564000CDE918331494179203F0A6F908B1FFF7C7
:10565000C7FB0A48FFF76EFF1BB030BDFFF7C0FB6A
:10566000E0E7FFF7BDFBCEE7FFF7BAFBC2E7FFF7C6
:10567000B7FBBAE7FFF7B4FBAEE700BFD0080020E6
:10568000002C01407000010038B50E4B0E4A1A6024
:105690004FF496424FF480554FF480640C215A60C9
:1056A000184600229D60C3E90441DA60C3E906227E
:1056B000C3E9082203F054FE00B938BDBDE8384004
:1056C000FFF78EBB140A00200038014038B50E4B9E
:1056D0000E4A1A604FF496424FF480554FF480649E
:1056E0000C215A60184600229D60C3E90441DA602B
:1056F000C3E90622C3E9082203F032FE00B938BD2F
:10570000BDE83840FFF76CBB940A0020004400401D
:1057100070B503683C4A8AB000249342CDE9054441
:10572000CDE90744099404D0384A934241D00AB0E5
:1057300070BD374B374E9A6942F480429A619A693C
:1057400002F480420192019A5A6942F400325A618D
:105750005B6903F4003302934FF4C062022305A98E
:1057600005920693032207230546029808924FF0FC
:105770009040099301F0BCF92749746080222023EE
:105780003046B460C6E90444F4613160F260B3614C
:1057900001F0A2F808B1FFF723FB00220521EE6615
:1057A0002520756201F026F8252001F059F80AB08D
:1057B00070BD174BDA6942F40032DA61DA6902F43B
:1057C00000320392039A5A6942F400325A615B69CB
:1057D00048F2040003F40033049305A907230322CD
:1057E000059002254FF09040CDE90823049E0695D0
:1057F00001F07EF922460F21262000F0FBFF262033
:1058000001F02EF80AB070BD00380140004400409D
:1058100000100240D00900205800024038B50E4A5E
:105820000E4B12781B6805464FF47A70B0FBF2F00D
:10583000B3FBF0F001F036F808B90F2D01D90120C3
:1058400038BD0446024629464FF0FF3000F0D2FF33
:10585000034B20461D6038BD64000020600000201E
:1058600068000020074A08B5136843F0100313606E
:10587000032000F0ADFF0020FFF7D0FFFFF770FB23
:10588000002008BD00200240034A044B11681B7829
:105890000B441360704700BF140B0020640000200D
:1058A000014B1868704700BF140B002038B5044640
:1058B000FFF7F6FF631C054602D0044B1B781C441F
:1058C000FFF7EEFF401BA042FAD338BD6400002072
:1058D000704700BF704700BF406A036C43F040034D
:1058E0000364436C43F004034364FFF7F3BF00BF5A
:1058F000406AFFF7EDBF00BF436A1A6C12F0500F09
:1059000002D09B6B1B6B18471A6C196842F400722B
:105910001A64CA6812F4406F0CD15A7E52B91A6CDC
:1059200022F480721A641A6CD20403D41A6C42F006
:1059300001021A641846FEF767BB00BF026838B55B
:10594000936803F00303012B02D00023184638BDEF
:105950001168C907F9D5916801F00D01012909D035
:10596000026C42F010020264426C42F00102426496
:10597000184638BD9368032143F002039360116019
:105980000446FFF78DFF054623689B68DB07DCD5DF
:10599000FFF786FF401B0228F6D9236C43F0100363
:1059A0002364636C43F0010363640123CEE700BF0B
:1059B000026838B5936803F00303012B0DD091689A
:1059C000174B19420ED0036C43F010030364436C71
:1059D00043F001034364012038BD1368D907EED5B5
:1059E000002038BD936843F0010393600446FFF73D
:1059F00057FF054604E0FFF753FF401B022804D879
:105A000023681B68DB07F6D5EAE7236C43F0100335
:105A10002364636C43F001036364012038BD00BF5D
:105A20003F00008070B596B000230193002800F07D
:105A30008180036C13F01003044616D1056C002D11
:105A40007BD002689168C90068D591688E0065D4E2
:105A5000216CCD0640F18C80236C23F0120343F0BF
:105A600010032364012016B070BD036CDD06F3D46F
:105A70000268936813F00403EED1216C21F4817164
:105A800041F00201B2F1A04F21640CBF67494FF011
:105A9000A0410291916801F00301012900F0B28058
:105AA0000298816801F00301012965D060486568AA
:105AB000816821F4403129438160D4E90251666B49
:105AC000607E294394F82050012E18BF4FF4805374
:105AD00041EA4031012D43EA010300F08B80A16AC5
