:020000040800F2
:1000000000300020D19C0008219D0008219D00089F
:10001000219D0008219D0008219D0008000000008E
:10002000000000000000000000000000219D00080A
:10003000219D000800000000219D00088143000868
:10004000219D0008219D0008219D0008219D000898
:10005000219D0008219D0008219D00088D43000876
:10006000219D0008219D0008B1430008D1430008EC
:10007000219D0008219D0008219D0008219D000868
:10008000219D0008219D0008219D0008219D000858
:10009000219D0008219D0008219D0008E1430008E2
:1000A000219D000821440008219D0008219D000891
:1000B000314400085144000800000000219D000860
:1000C000219D00080000000000000000219D0008A4
:1000D000000000006544000875440008219D0008E8
:1000E000219D0008219D0008000000000000000084
:1000F0000000000000000000000000000000000000
:1001000000000000000000000000000000000000EF
:10011000000000000000000085440008219D000848
:1001200000000000000000000000000000000000CF
:1001300000000000000000000000000000000000BF
:10014000219D0008219D0008000000000000000023
:10015000000000000000000000000000000000009F
:10016000000000000000000000000000000000008F
:10017000000000000000000000000000000000007F
:0801800000000000219D0008B1
:1001900010B5054C237833B9044B13B10448AFF3C1
:1001A00000800123237010BDC0000020000000006B
:1001B00060CB000808B5034B1BB103490348AFF3FC
:1001C000008008BD00000000C400002060CB0008D3
:1001D000034613F8012B002AFBD1181A0138704787
:1001E00001F0FF01102A2BDB10F0070F08D010F8E8
:1001F000013B013A8B422DD010F0070F42B3F6D1EC
:10020000F0B441EA012141EA014122F007047FF004
:1002100000070023F0E80256083C85EA010586EA5B
:10022000010685FA47F5A3FA87F586FA47F6A5FA97
:1002300087F68EB9EED1F0BC01F0FF0102F00702A3
:1002400032B110F8013B013A83EA010313B1F8D14E
:100250000020704701387047002D06BF354603382F
:10026000073815F0010F07D1013015F4807F02BF68
:10027000013015F4C03F0130F0BC0138704700BFB9
:1002800081F0004102E000BF83F0004330B54FEA47
:1002900041044FEA430594EA050F08BF90EA020FB4
:1002A0001FBF54EA000C55EA020C7FEA645C7FEA47
:1002B000655C00F0E2804FEA5454D4EB5555B8BF6A
:1002C0006D420CDD2C4480EA020281EA030382EADB
:1002D000000083EA010180EA020281EA0303362D6D
:1002E00088BF30BD11F0004F4FEA01314FF4801C40
:1002F0004CEA113102D0404261EB410113F0004F52
:100300004FEA03334CEA133302D0524263EB430308
:1003100094EA050F00F0A780A4F10104D5F1200EA6
:100320000DDB02FA0EFC22FA05F2801841F1000101
:1003300003FA0EF2801843FA05F359410EE0A5F1D5
:1003400020050EF1200E012A03FA0EFC28BF4CF006
:10035000020C43FA05F3C01851EBE37101F00045BC
:1003600007D54FF0000EDCF1000C7EEB00006EEBC9
:100370000101B1F5801F1BD3B1F5001F0CD3490853
:100380005FEA30004FEA3C0C04F101044FEA4452AA
:1003900012F5800F80F09A80BCF1004F08BF5FEA31
:1003A000500C50F1000041EB045141EA050130BD11
:1003B0005FEA4C0C404141EB010111F4801FA4F1B4
:1003C0000104E9D191F0000F04BF01460020B1FA09
:1003D00081F308BF2033A3F10B03B3F120020CDA41
:1003E0000C3208DD02F1140CC2F10C0201FA0CF01F
:1003F00021FA02F10CE002F11402D8BFC2F1200C84
:1004000001FA02F120FA0CFCDCBF41EA0C01904039
:10041000E41AA2BF01EB0451294330BD6FEA040482
:100420001F3C1CDA0C340EDC04F11404C4F120026D
:1004300020FA04F001FA02F340EA030021FA04F37F
:1004400045EA030130BDC4F10C04C4F1200220FAD6
:1004500002F001FA04F340EA0300294630BD21FA14
:1004600004F0294630BD94F0000F83F4801306BFDA
:1004700081F480110134013D4EE77FEA645C18BFCE
:100480007FEA655C29D094EA050F08BF90EA020F65
:1004900005D054EA000C04BF1946104630BD91EA5D
:1004A000030F1EBF0021002030BD5FEA545C05D160
:1004B0004000494128BF41F0004130BD14F580049F
:1004C0003CBF01F5801130BD01F0004545F0FE4113
:1004D00041F470014FF0000030BD7FEA645C1ABF48
:1004E000194610467FEA655C1CBF0B46024650EA7F
:1004F000013406BF52EA033591EA030F41F40021AB
:1005000030BD00BF90F0000F04BF0021704730B530
:100510004FF4806404F132044FF000054FF0000105
:1005200050E700BF90F0000F04BF0021704730B5C6
:100530004FF4806404F1320410F0004548BF40429B
:100540004FF000013EE700BF42004FEAE2014FEAF0
:1005500031014FEA02701FBF12F07F4393F07F4FCB
:1005600081F06051704732F07F4208BF704793F0CE
:100570007F4F04BF41F40021704730B54FF46074E1
:1005800001F0004521F000411CE700BF50EA0102E4
:1005900008BF704730B54FF000050AE050EA01028D
:1005A00008BF704730B511F0004502D5404261EBFD
:1005B00041014FF4806404F132045FEA915C3FF43E
:1005C000D8AE4FF003025FEADC0C18BF03325FEADB
:1005D000DC0C18BF033202EBDC02C2F1200300FA8C
:1005E00003FC20FA02F001FA03FE40EA0E0021FAB1
:1005F00002F11444BDE600BF70B54FF0FF0C4CF49F
:10060000E06C1CEA11541DBF1CEA135594EA0C0F50
:1006100095EA0C0F00F0DEF82C4481EA030621EA8B
:100620004C5123EA4C5350EA013518BF52EA0335C6
:1006300041F4801143F4801338D0A0FB02CE4FF078
:100640000005E1FB02E506F00042E0FB03E54FF0A8
:100650000006E1FB03569CF0000F18BF4EF0010EA0
:10066000A4F1FF04B6F5007F64F5407404D25FEA9C
:100670004E0E6D4146EB060642EAC62141EA55514F
:100680004FEAC52040EA5E504FEACE2EB4F1FD0C91
:1006900088BFBCF5E06F1ED8BEF1004F08BF5FEA0F
:1006A000500E50F1000041EB045170BD06F00046C1
:1006B00046EA010140EA020081EA0301B4EB5C046E
:1006C000C2BFD4EB0C0541EA045170BD41F4801166
:1006D0004FF0000E013C00F3AB8014F1360FDEBF8B
:1006E000002001F0004170BDC4F10004203C35DA67
:1006F0000C341BDC04F11404C4F1200500FA05F3EA
:1007000020FA04F001FA05F240EA020001F000428A
:1007100021F0004110EBD37021FA04F642EB060100
:100720005EEA430E08BF20EAD37070BDC4F10C042A
:10073000C4F1200500FA04F320FA05F001FA04F2EE
:1007400040EA020001F0004110EBD37041F10001DA
:100750005EEA430E08BF20EAD37070BDC4F12005E5
:1007600000FA05F24EEA020E20FA04F301FA05F24D
:1007700043EA020321FA04F001F0004121FA04F2F5
:1007800020EA020000EBD3705EEA430E08BF20EAC5
:10079000D37070BD94F0000F0FD101F000464000FF
:1007A00041EB010111F4801F08BF013CF7D041EA81
:1007B000060195F0000F18BF704703F00046520085
:1007C00043EB030313F4801F08BF013DF7D043EA56
:1007D0000603704794EA0C0F0CEA135518BF95EA0C
:1007E0000C0F0CD050EA410618BF52EA4306D1D193
:1007F00081EA030101F000414FF0000070BD50EAB2
:10080000410606BF1046194652EA430619D094EA3B
:100810000C0F02D150EA013613D195EA0C0F05D125
:1008200052EA03361CBF104619460AD181EA030179
:1008300001F0004141F0FE4141F470014FF0000031
:1008400070BD41F0FE4141F4780170BD70B54FF0CC
:10085000FF0C4CF4E06C1CEA11541DBF1CEA13554C
:1008600094EA0C0F95EA0C0F00F0A7F8A4EB05042E
:1008700081EA030E52EA03354FEA013100F0888025
:100880004FEA03334FF0805545EA131343EA1263EE
:100890004FEA022245EA111545EA10654FEA0026A3
:1008A0000EF000419D4208BF964244F1FD0404F55C
:1008B000407402D25B084FEA3202B61A65EB0305B8
:1008C0005B084FEA32024FF480104FF4002CB6EB75
:1008D000020E75EB030E22BFB61A754640EA0C00F5
:1008E0005B084FEA3202B6EB020E75EB030E22BF35
:1008F000B61A754640EA5C005B084FEA3202B6EB76
:10090000020E75EB030E22BFB61A754640EA9C0034
:100910005B084FEA3202B6EB020E75EB030E22BF04
:10092000B61A754640EADC0055EA060E18D04FEAC2
:10093000051545EA16754FEA06164FEAC30343EA62
:1009400052734FEAC2025FEA1C1CC0D111F4801F2F
:100950000BD141EA00014FF000004FF0004CB6E728
:1009600011F4801F04BF01430020B4F1FD0C88BFC7
:10097000BCF5E06F3FF6AFAEB5EB030C04BFB6EBD2
:10098000020C5FEA500C50F1000041EB045170BDC5
:100990000EF0004E4EEA113114EB5C04C2BFD4EBF2
:1009A0000C0541EA045170BD41F480114FF0000E76
:1009B000013C90E645EA060E8DE60CEA135594EAF2
:1009C0000C0F08BF95EA0C0F3FF43BAF94EA0C0FF5
:1009D0000AD150EA01347FF434AF95EA0C0F7FF46A
:1009E00025AF104619462CE795EA0C0F06D152EABE
:1009F00003353FF4FDAE1046194622E750EA4106A2
:100A000018BF52EA43067FF4C5AE50EA41047FF4B2
:100A10000DAF52EA43057FF4EBAE12E74FF0FF3C17
:100A200006E000BF4FF0010C02E000BF4FF0010CE8
:100A30004DF804CD4FEA410C7FEA6C5C4FEA430C61
:100A400018BF7FEA6C5C1BD001B050EA410C0CBFB0
:100A500052EA430C91EA030F02BF90EA020F002012
:100A6000704710F1000F91EA030F58BF994208BF79
:100A700090422CBFD8176FEAE37040F00100704736
:100A80004FEA410C7FEA6C5C02D150EA013C07D18D
:100A90004FEA430C7FEA6C5CD6D152EA033CD3D0D8
:100AA0005DF8040B704700BF8446104662468C46D2
:100AB0001946634600E000BF01B5FFF7B7FF002805
:100AC00048BF10F1000F01BD4DF808EDFFF7F4FF2E
:100AD0000CBF012000205DF808FB00BF4DF808EDB9
:100AE000FFF7EAFF34BF012000205DF808FB00BFDC
:100AF0004DF808EDFFF7E0FF94BF012000205DF8FE
:100B000008FB00BF4DF808EDFFF7CEFF94BF0120B2
:100B100000205DF808FB00BF4DF808EDFFF7C4FFAB
:100B200034BF012000205DF808FB00BF4FEA410CF4
:100B30007FEA6C5C02D150EA013C0AD14FEA430CD7
:100B40007FEA6C5C02D152EA033C02D14FF0000014
:100B500070474FF0010070474FEA410212F5001252
:100B600015D211D56FF47873B3EB625212D94FEAF4
:100B7000C12343F0004343EA505311F0004F23FADE
:100B800002F018BF404270474FF00000704750EA33
:100B9000013005D111F0004008BF6FF000407047F0
:100BA0004FF00000704700BF4A0011D212F500124A
:100BB00011D20DD56FF47873B3EB62520ED44FEAB5
:100BC000C12343F0004343EA505323FA02F0704735
:100BD0004FF00000704750EA013002D14FF0FF3073
:100BE00070474FF000007047002302E00133DBB292
:100BF0000846411C0278002AF8D1184670470000C8
:100C000010B50446054B1868013804F053FF044B37
:100C10001C60034B1B68002BFBD110BD1C05002082
:100C200020050020F0B4BDF914409DF818509DF83F
:100C30001C60144F38701448017014490A70144A2B
:100C40001370BDF91020134B1A80134B1C80134BEB
:100C50001D70134B1E7094FBF5F5124B1D8094FB19
:100C6000F6F4114B1C809DF92020104B1A70BDF931
:100C700024200F4B1A80BDF928200E4B1A80F0BC9F
:100C8000704700BF280500203805002029050020F6
:100C90002A0500202E0500203C05002039050020F3
:100CA0003E0500203A0500203205002034050020D2
:100CB000300500202C0500202DE9F04F2DED028B92
:100CC00087B00590BC4BB3F900408C4206DCBB4BAF
:100CD000B3F90000884202DB084600E02046001B12
:100CE000FFF720FC06460F46B54BB3F90000FFF7AF
:100CF00019FC32463B46FFF77FFC06460F46AF4BDA
:100D0000B3F90000001BFFF70DFC02460B4630460E
:100D10003946FFF79BFDFFF71FFF0FFA80FB00210D
:100D2000059F384601F0E1FDA64B1B78A64E3278B0
:100D3000A64D29780F240094384601F0B8F9012116
:100D4000384601F0D2FD32782978009401233846E4
:100D500001F0ADF9002574E09A4B1C789C4BB3F977
:100D6000003005FB03F39B4AB2F90000181AFFF7A5
:100D7000D9FB06460F46984B93F90000FFF7D2FBCC
:100D800032463B46FFF738FC0022944BFFF75EFDEE
:100D900087A3D3E90023FFF72FFC41EC180B41ECAC
:100DA000100B09F03DFC57EC106B2046FFF7BAFB27
:100DB00032463B46FFF720FCFFF7CEFE0FFA80FAE3
:100DC000C4F10008B0EE480AF0EE680A09F088FCA9
:100DD0008DED020B4046FFF7A5FBDDE90223FFF78F
:100DE0000BFCFFF7B9FE0FFA80F87D4B93F80090EB
:100DF000A4EB0900FFF796FB32463B46FFF7FCFBEE
:100E0000FFF7AAFE06B2A9EB0400FFF78BFBDDE9B2
:100E10000223FFF7F1FBFFF79FFE6C4B19786A4B3B
:100E20001C788B1904EB0802514404FA80F0C0B21C
:100E30000090DBB2D2B2C9B2059801F08DFD013548
:100E4000EDB2684B1B78AB4286D2002452E05D4B7A
:100E50001D78654BB3F9003004FB03F35D4AB2F92A
:100E60000000181AFFF75EFB06460F465A4B93F92F
:100E70000000FFF757FB32463B46FFF7BDFB002261
:100E8000564BFFF7E3FC4AA3D3E90023FFF7B4FB7B
:100E900041EC180B41EC100B09F0C2FB57EC106B46
:100EA0002846FFF73FFB32463B46FFF7A5FBFFF71F
:100EB00053FE06B26D42B0EE480AF0EE680A09F041
:100EC0000FFC59EC108B2846FFF72CFB42464B4693
:100ED000FFF792FBFFF740FE3B4B1A7802FA80F2D5
:100EE0003A4B19783144D2B2C9B2059801F0E2FC0C
:100EF0000134E4B23D4B1B78A342A8D2314B1C789D
:100F0000651E344BB3F90000ABEB0000FFF70AFBA2
:100F100006460F46304B93F90000FFF703FB3246BD
:100F20003B46FFF769FB00222C4BFFF78FFC20A309
:100F3000D3E90023FFF760FB41EC180B41EC100BE9
:100F400009F06EFB57EC106B2846FFF7EBFA3246C0
:100F50003B46FFF751FBFFF7FFFD05B2C4F101046B
:100F6000B0EE480AF0EE680A09F0BAFB57EC106BD5
:100F70002046FFF7D7FA32463B46FFF73DFBFFF727
:100F8000EBFD124B1978104B1A784B1902FA80F0CE
:100F9000C0B20090DBB2059801F0DEFC144BA3F860
:100FA00000B007B0BDEC028BBDE8F08FAFF300805E
:100FB000182D4454FB210940300500202C05002049
:100FC0003C050020290500203805002028050020C8
:100FD0003A0500202E0500203405002000806640E0
:100FE0002A05002039050020320500203E0500209A
:100FF000360500202DE9F04F87B004460F4616460F
:101000009B469DF84050BDF844A0454901F072FB55
:101010000021204601F069FC00955B460022114644
:10102000204600F00BFD0121204601F05EFCBDF8DA
:101030004C00FFF767FA80468946CDE902895046A1
:10104000FFF770FA42464B46FFF700FC80468946A0
:101050005846FFF767FA02460B46CDE9042340469F
:101060004946FFF7C9FAFFF79FFDC3B20133721C6F
:10107000A91EC9B20091DBB2D2B23946204600F0B7
:10108000DDFC0221204601F030FC4FF0020822E096
:101090004FF47A7000FB08F0FFF744FADDE9022311
:1010A000FFF7D4FB02460B46DDE90401FFF7A4FA83
:1010B000FFF77AFDC1B20131C9B2AB19DBB2013B16
:1010C000DBB200930B460022204601F045FC08F1FC
:1010D00001085FFA88F8B8F1080FD9D90221204633
:1010E00001F003FC0121204601F05DFA3544EDB228
:1010F0000421504601F0C8FF023D791C0346EAB2C4
:10110000C9B2204601F0B8FA0021204601F04BFA9E
:101110000121204601F0E9FB07B0BDE8F08F00BFD8
:10112000CCDE00082DE9F04383B006460F46154695
:101130001C469DF82880012101F0D7FB224930464A
:1011400001F0D8FA9DF82C30012B28D0022301930E
:10115000CDF8008023462A463946304600F04CFD43
:101160000C98FFF741FDA4EB8001C1F34701013169
:1011700005EB0802D2B2023A57FA81F10C9BD2B2C7
:10118000C9B2304601F078FA0021304601F00BFA7E
:101190000121304601F0A9FB03B0BDE8F0834FF018
:1011A0000209CDF80490CDF8008023462A4639463E
:1011B000304600F0A6FC4946304601F096FB01217E
:1011C000304601F0F0F9CBE7E0E70008F8B5064655
:1011D0000F4614461D46114901F08CFA9DF818304F
:1011E0001C44E4B2023CE4B2079B22463946304636
:1011F00001F042FA0A49304601F07CFA0898FFF7FC
:10120000F3FCA5EB8001C9B2013957FA81F1089BC3
:101210002246C9B2304601F02FFAF8BDD4D70008F3
:1012200084CB0008F8B506460F4615461C460C4907
:1012300001F060FA0798FFF7D7FCA4EB8001C9B270
:1012400001399DF818202A44D2B2023A57FA81F1A6
:10125000079BD2B2C9B2304601F00EFAF8BD00BF0A
:1012600084CB0008000000002DE9F04F87B0049007
:101270008B4691461D469DF840A0BDF9443005932C
:101280009DF848609DF84C709DF85080F41BE4B2C6
:10129000794901F02FFA1598FFF7A6FCB8F1000F75
:1012A0000CBF3346731CC3EBC30303EB8003DBB2F9
:1012B000002F33D003200344DBB2ED1AEDB2023D20
:1012C000EDB20021049801F010FB013CE4B23CB304
:1012D0000598FFF727F9CDE90201E019FFF722F998
:1012E00041EC110B9FED620B09F05AFA53EC102BF5
:1012F000DDE90201FFF706FC90B905EB0B01CDF823
:1013000000A007234A46C9B2049800F097FB0735AE
:10131000EDB2013EF6B2013CE4B2D8E73846CAE786
:101320000121049801F0E1FAB8F1000F56D1002F25
:1013300000F08A803846FFF7E5F841EC110B9FED8D
:101340004C0B09F02DFA51EC100BFFF72DFC1FFA96
:1013500080F8059B93FBF8F305EB0B04E4B2CA4459
:101360005FFA8AFAAAF1020A5FFA8AFA1FFA83F987
:10137000F61BF6B23146484601F086FE0346524659
:101380002146049C204601F077F9C6EBC60655FAC3
:1013900086F5EDB20BEB0501C9B20239374B524667
:1013A000C9B2204601F068F9033519FB08F89DF829
:1013B00014005FFA88F8A0EB08005BFA85FB5FFA7F
:1013C0008BFB3946C0B201F05FFE034652465946D8
:1013D000204601F051F907B0BDE8F08F0021DDF89B
:1013E0001080404601F081FA05EB0B04E4B2CDF821
:1013F00000A007234A462146404600F01FFB01217A
:10140000404601F072FA059B002B0CDB09EB0A0247
:10141000D2B2023A1A4BD2B22146049801F02CF90A
:101420000735EDB283E709EB0A02D2B2023A154B57
:10143000D2B22146049801F01FF9059B5B421BB212
:1014400005930735EDB272E75D44EDB2CA445FFA29
:101450008AFA3146BDF8140001F016FEAAF1020A1C
:1014600003465FFA8AF22946049801F005F9B2E7CB
:101470000000000000002440CCDE000880CB000803
:101480007CCB000878CB00082DE9F04F87B00490A2
:101490008B4691461D469DF840A0BDF9443005930A
:1014A0009DF848609DF84C709DF85080F41BE4B2A4
:1014B000794901F01FF91598FFF796FBB8F1000F75
:1014C0000CBF3346731C03EB830303EB8003DBB2D7
:1014D000002F33D002200344DBB2ED1AEDB2023DFF
:1014E000EDB20021049801F000FA013CE4B23CB3F3
:1014F0000598FFF717F8CDE90201E019FFF712F898
:1015000041EC110B9FED620B09F04AF953EC102BE3
:10151000DDE90201FFF7F6FA90B905EB0B01CDF812
:1015200000A005234A46C9B2049800F087FA0535A1
:10153000EDB2013EF6B2013CE4B2D8E73846CAE764
:101540000121049801F0D1F9B8F1000F56D1002F14
:1015500000F08A803846FEF7D5FF41EC110B9FED75
:101560004C0B09F01DF951EC100BFFF71DFB1FFA96
:1015700080F8059B93FBF8F305EB0B04E4B2CA4437
:101580005FFA8AFAAAF1020A5FFA8AFA1FFA83F965
:10159000F61BF6B23146484601F076FD0346524648
:1015A0002146049C204601F067F806EB860655FAB2
:1015B00086F5EDB20BEB0501C9B20139374B524646
:1015C000C9B2204601F058F8023519FB08F89DF819
:1015D00014005FFA88F8A0EB08005BFA85FB5FFA5D
:1015E0008BFB3946C0B201F04FFD034652465946C7
:1015F000204601F041F807B0BDE8F08F0021DDF88A
:101600001080404601F071F905EB0B04E4B2CDF80F
:1016100000A005234A462146404600F00FFA01216A
:10162000404601F062F9059B002B0CDB09EB0A0236
:10163000D2B2023A1A4BD2B22146049801F01CF8F9
:101640000535EDB283E709EB0A02D2B2023A154B37
:10165000D2B22146049801F00FF8059B5B421BB201
:1016600005930535EDB272E75D44EDB2CA445FFA09
:101670008AFA3146BDF8140001F006FDAAF1020A0B
:1016800003465FFA8AF22946049800F0F5FFB2E7B4
:101690000000000000002440D4D7000880CB0008E0
:1016A0007CCB000878CB0008F0B52DED028B87B01D
:1016B00006460F46BDF93C1008EE901A9DF84450BE
:1016C00007F118003F49087003323F490A701A3B7E
:1016D0003E4A13709DF83830083BDBB23C4A137029
:1016E00007EE903AF8EE677ABDF9403018EE902A8E
:1016F0009B1A07EE103AB8EEC78A87EE887A354B08
:1017000083ED007A344BC3ED008A002440E02E4B79
:101710001B782F4A1278134407EE903A2D4B93ED25
:10172000007A28EE077A06EE905AB8EEE66AC7EE1F
:10173000066A07EE104AB8EEC77A66EE876AF8EED8
:10174000E77A77EEE67AF0EE086A77EEE67AC8EEA8
:10175000066A67EE266AB8EEE87A37EE267A1F4BFD
:101760000593012304930223039303230293BDEE05
:10177000C77A8DED017A082300931823FDEEE77AEE
:1017800017EE902A39463046FFF77EFE0134E4B268
:10179000AC42BCD90D4B1B7802330B4A1278013A8C
:1017A0000849097801390A4800780230C0B200902F
:1017B000DBB2D2B2C9B2304600F065F907B0BDEC79
:1017C000028BF0BD4E050020440500204D05002091
:1017D0004C0500204005002048050020B8EC00081A
:1017E0002DE9F047A2B005461E46BDF9AC90BDF903
:1017F000B0A0DDF8B480BDF8B870002101F075F834
:10180000504B1B78504A127850490978504800785C
:101810000090284600F012F90121284601F065F8F1
:1018200000245AE0534518DB07EE90AAF8EEE77A59
:10183000484B93ED007AB8EEC77A77EEC77A464BFD
:1018400093ED007A67EE877AFCEEE77A17EE903A2E
:1018500022AA024402F8803C55E007EE903AB8EE26
:10186000E77A3C4BD3ED007AF8EEE77A77EE677AC9
:10187000394B93ED007A67EE877AFCEEE77A17EE44
:10188000903A22AA024402F8803C3CE02F4B1B789D
:101890002C4A12781344DBB21B1BDBB22A4A1178A4
:1018A0002B4A12781144C9B2421E0DF1880C6244D1
:1018B00012F8802C8A1AD2B2604410F8800C081AF0
:1018C000C0B2013A591C0138C0B20090D2B2C9B2BC
:1018D000284601F041F80134A4B22046A6F11803CD
:1018E0009C422CDA3B195A4203F07F0302F07F023C
:1018F00058BF534238F913304B4593DC002222ABDA
:10190000034403F8802C002CC0D1104B19780D4BE8
:101910001B781944C9B20C4B1A780D4B1B781A442A
:10192000D2B222AB184410F8803CD21AD2B2013A9B
:10193000091BD2B2C9B2284600F0BCFFCBE722B0E7
:10194000BDE8F0874D050020440500204E0500202D
:101950004C05002048050020400500202DE9F04FEF
:1019600083B007460E4691461D46DDF8308090F85C
:101970007DB0CB18541CE4B20094DBB200F0D3FF6E
:1019800078B3BBFA8BFA4FEA5A1A012414E087F8AD
:101990007DB00023009301234A463146384600F0CB
:1019A00047FF0136F6B2640014F0FF0402D108F1DB
:1019B00001080124013DEDB28DB198F800302342B9
:1019C000E5D197F87C30002BEBD187F87DA0009310
:1019D00001234A463146384600F02AFFE1E787F8FE
:1019E0007DB003B0BDE8F08F2DE9F04782B08246AC
:1019F000894615461F469DF828400B9E03F10708AF
:101A0000C8F3C40803EB010C1319DBB200935FFAAF
:101A10008CF300F088FF60B90DE000963B462A4643
:101A200049465046FFF79AFF46440135EDB2013C66
:101A3000E4B2002CF1D102B0BDE8F0872DE9F0410D
:101A400082B080460F4615461E469DF8204001EBA9
:101A5000030C1319DBB200935FFA8CF300F063FF01
:101A600060B90DE00023009333462A4639464046CC
:101A700000F0DEFE0135EDB2013CE4B2002CF1D104
:101A800002B0BDE8F0812DE9F04F85B003900E461D
:101A9000174698469DF83890CD18EDB202EB090430
:101AA000E4B200942B4600F03EFF10B905B0BDE84B
:101AB000F08F4FF0000ACDF800A043463A46314679
:101AC000039800F0B5FE4FF0010BCDF800B04B4687
:101AD0003A463146039800F0ABFE691ECDF800B0DF
:101AE0004B463A46C9B2039D284600F0A1FE621E4D
:101AF000CDF800A04346D2B23146284600F098FE09
:101B0000D4E72DE9F04F87B00390894693469A4673
:101B10009DF840609DF84470CC18E4B29519EDB280
:101B20000095234600F0FFFE10B907B0BDE8F08F26
:101B300009EB07085FFA88F80BEB0703DAB2E41B3E
:101B4000E4B2013CE4B2ED1BEDB2013DEDB2022383
:101B500000933B4604924146039800F0A8FA012303
:101B600000933B46049A2146039800F0A0FA042310
:101B700000933B4605952A464146039D284600F0C2
:101B800096FA082300933B46059A2146284600F022
:101B90008EFAAAEB0703DBB2DB1BDBB208F101080C
:101BA0005FFA88F8049A541CE4B2022B0FD8F61B93
:101BB000F6B2F71BFFB2022FB7D9023FFFB2009770
:101BC0005346224649460398FFF738FFADE7023BEC
:101BD000DBB27D1CEDB2009504935A464146DDF818
:101BE0000CB05846FFF72AFF0095049B059A414622
:101BF0005846FFF723FFDAE72DE9F04F85B0029052
:101C00008A46934698469DF838909DF83C60CD18DA
:101C1000EDB202EB0904E4B200942B4600F083FE1F
:101C200010B905B0BDE8F08F0AEB0607FFB20BEB69
:101C30000603DAB2AD1BEDB2013DEDB2A41BE4B276
:101C4000013CE4B2022300933346039239460298E2
:101C500000F009FA012300933346039A29460298BB
:101C600000F001FA042300933346224639460298D5
:101C700000F0F9F9082300933346224629460298DA
:101C800000F0F1F9A8EB0605EDB2AD1BEDB2A9EB42
:101C90000603DBB29E1BF6B20137FFB2039A541C57
:101CA000E4B2022D17D8022EBBD9023EF6B208F1DB
:101CB000FF385FFA88F8334622465146029D28468F
:101CC00000F0DDFD0AEB080133462246C9B2284682
:101CD00000F0D5FDA5E7023DEDB209F1FF395FFA4D
:101CE00089F92B465A463946029800F0ADFD0BEBB8
:101CF00009022B46D2B23946029800F0A5FDD2E780
:101D000010B582B003681B7C446B03FB01F1C90072
:101D100089B221440091002101F0E7F802B010BD22
:101D20002DE9F041064690F8387090F83950036874
:101D300093F8118000242A4621463046FFF7E0FF41
:101D40000134E4B20135EDB2A74201D9A845F2D879
:101D5000BDE8F08108B503681A7C90F8383002FBC2
:101D600003F2D2000021406B08F010F808BD10B556
:101D70000446FFF7D5FF204601F0E5F810BD08B591
:101D800080F83910036B1B68984708BD10B50446EE
:101D900090F87E3023B900212046FFF7F0FF10BDF8
:101DA000FFF7D8FFF7E738B50546FFF7B9FF95F815
:101DB000393095F838401C44E4B22B685B7CA34270
:101DC00008D995F87E3053B921462846FFF7D7FF4A
:101DD000012038BD284601F0B6F80020F9E7284672
:101DE000FFF7B8FFF0E72DE9F84307460E469046A7
:101DF0001D469DF820909DF8244014F0010F0AD153
:101E000014F0020F18D114F0080F27D114F0040FAA
:101E100036D1BDE8F883A9EB02025918D2B2C9B293
:101E200000F048FDA9EB060205EB0801D2B2C9B2E9
:101E3000384600F03FFDE3E7A9EB0802A91BD2B248
:101E4000C9B2384600F036FDA9EB0602A5EB080141
:101E5000D2B2C9B2384600F02DFDD4E709EB080232
:101E6000A919D2B2C9B2384600F024FD06EB090226
:101E700005EB0801D2B2C9B2384600F01BFDC5E738
:101E800009EB0802A91BD2B2C9B2384600F012FD14
:101E900006EB0902A5EB0801D2B2C9B2384600F040
:101EA00009FDB6E72DE9F04F85B0039089469246CB
:101EB0001F469DF838B0C3F101084FFA88F8C3EB0C
:101EC000C3135D006DB2CDF804B000920B463A46E4
:101ED0000021FFF788FF0026012411E00136F6B249
:101EE0000234E3B25CB298444FFA88F8CDF804B0FB
:101EF000CDF800A04B463A4631460398FFF773FFF2
:101F0000BE420BD2B8F1000FE8DB013FFFB2023551
:101F1000EBB25DB298444FFA88F8DFE705B0BDE850
:101F2000F08F2DE9F84380460C4617461E469DF873
:101F300020909DF8245015F0010F0AD115F0020FE2
:101F40001BD115F0080F2DD115F0040F3BD1BDE8C2
:101F5000F883531CA9EB02027118DBB2D2B2C9B2EA
:101F600000F08DFC631CA9EB0402F119DBB2D2B2C4
:101F7000C9B2404600F083FCE0E77B1CA9EB0702F6
:101F8000311BDBB2D2B2C9B2404600F078FC631C10
:101F9000A9EB0402F11BDBB2D2B2C9B2404600F099
:101FA0006EFCCEE77B1C3119DBB24A46C9B2404613
:101FB00000F065FC631CF119DBB24A46C9B2404629
:101FC00000F05DFCC0E77B1C311BDBB24A46C9B2A6
:101FD000404600F054FC631CF11BDBB24A46C9B218
:101FE000404600F04CFCB2E72DE9F04F85B003907D
:101FF000894692461F469DF838B0C3F101084FFA52
:1020000088F8C3EBC3135D006DB2CDF804B0009245
:102010000B463A460021FFF784FF0026012411E019
:102020000136F6B20234E3B25CB298444FFA88F853
:10203000CDF804B0CDF800A04B463A46314603989F
:10204000FFF76FFFBE420BD2B8F1000FE8DB013F94
:10205000FFB20235EBB25DB298444FFA88F8DFE781
:1020600005B0BDE8F08F2DE9F04182B080460E4604
:1020700017461D46CB18DBB2AC18E4B20133521B35
:10208000491B0134E4B20094DBB2D2B2C9B200F011
:102090004AFC10B902B0BDE8F0819DF820300093F1
:1020A0002B463A4631464046FFF7FCFEF2E72DE963
:1020B000F04182B080460E4617461D46CB18DBB273
:1020C000AC18E4B20133521B491B0134E4B2009452
:1020D000DBB2D2B2C9B200F026FC10B902B0BDE842
:1020E000F0819DF8203000932B463A463146404619
:1020F000FFF77AFFF2E710B50446FFF747FE2046E8
:10210000FFF751FE0028FAD100212046FFF737FEE5
:1021100010BD00000823037000487047DC00002059
:1021200030B585B004460D4600931346084A094968
:1021300000F07CFF0DF10F00FFF7ECFF9DF80F2082
:102140000095054B0146204600F0FFFC05B030BD70
:10215000092D00080D2E0008252A0008405C704754
:102160004218435C507800EB032080B27047012B8B
:1021700008D023B1022B08D0401AC0B270471044D7
:10218000C0B270470844C0B27047801AC0B27047EE
:10219000012B08D023B1022B08D01044C0B27047E5
:1021A0000844C0B27047801AC0B27047401AC0B22B
:1021B00070470020704738B504460D460021284678
:1021C000FFF7CCFF207001212846FFF7C7FF6070A2
:1021D00002212846FFF7C2FFA07003212846FFF71F
:1021E000BDFFE07004212846FFF7B8FF20710521EC
:1021F0002846FFF7B3FF607106212846FFF7AEFFC0
:10220000A07107212846FFF7A9FFE07108212846A1
:10221000FFF7A4FF207209212846FFF79FFF607295
:102220000A212846FFF79AFFA0720B212846FFF7E4
:1022300095FFE0720C212846FFF790FF20730D21D7
:102240002846FFF78BFF60730E212846FFF786FFB5
:10225000A0730F212846FFF781FFE0731021284665
:10226000FFF77CFF207411212846FFF779FF608279
:1022700013212846FFF774FFA08215212846FFF797
:102280006FFFE08238BD70B4847A0668327842FA13
:1022900004F5EAB26318DBB2072B0AD9C4F10804CB
:1022A000E4B2721C02607278A2402A43D2B2083BA8
:1022B000DBB24FF0FF3404FA01F1837222EA01002D
:1022C00070BC704738B5044600F150050165002325
:1022D00080F85A3090F864102846FFF7D4FF84F84D
:1022E000580094F865102846FFF7CDFF84F8590090
:1022F00094F87D3084F85C30B3FA83F35B0984F89A
:102300005D3038BD10B50C46FFF7BDFF013CE4B2AF
:102310000123A340C01A40B210BD2DE9F04F87B091
:1023200006460C46059290F956305FFA83FA90F90A
:1023300057805FFA88F816E003941DE096F85C3049
:1023400086F87D300097039B02460499304600F0E2
:102350006FFAAC4239D3641BE4B208F101085FFAAA
:1023600088F84FF0000A96F95850EDB2A5EB0A052F
:10237000EDB2AC42E0D3039596F855904FFA8AF14E
:102380004FFA88FB96F85E703B465A46029196F8E3
:102390005400FFF7FDFE04903B465A46029948461A
:1023A000FFF7E5FE059B002BC8D196F85B30002BAC
:1023B000CFD196F85D3086F87D300097039B0246BA
:1023C0000499304600F034FAC3E7544486F8564086
:1023D00086F857B007B0BDE8F08F2DE9F04F85B013
:1023E000044600F15005FFF76DFF94F9598094F809
:1023F00066102846FFF786FF834694F86710284644
:10240000FFF780FF064694F868102846FFF77AFF2A
:10241000029094F95870002F58DD5FFA88F94E4405
:10242000F6B2764276B294F85EA053463246CDF8C4
:102430000CB0594694F85400FFF7AAFE834684F87E
:10244000540053463246039994F85500FFF78FFE27
:10245000024684F85500BAF1030F65D8DFE80AF0A8
:10246000023A47595BFA87F3DBB24844C0B20090A6
:102470005946204600F057FA40B3002384F85630FE
:1024800084F8573094F862102846FFF7FCFE0746A0
:1024900094F863102846FFF7F6FE064600223946F8
:1024A0002046FFF73AFF012231462046FFF735FF6D
:1024B00001212846FFF7E7FE0028EFD194F95730B5
:1024C0004345DFDB94F85C3084F87D30029805B03A
:1024D000BDE8F08FABEB0901C9B201310BF101038B
:1024E000DBB250FA87F0C0B25FFA81FBBFE7F9B206
:1024F000ABEB0101C9B201310BF10103DBB2A0EB7F
:102500000906F6B201360132D0B2F2B25FFA81FBAF
:10251000ADE709EB0B03DBB2F9B2411AC9B20131E5
:102520000132D0B2CAB2A2E75B46A0E7836C173390
:10253000FF2913D8602909D9B0F8742013445A78B8
:10254000DAB11878884207D01344F8E74029F6D961
:10255000B0F872201344F2E7981C7047B0F8760088
:1025600018440278437853EA022308D0994202D0F3
:1025700083781844F5E70330704700207047002047
:10258000704710B5044680F8541080F8552019465D
:10259000FFF7CCFF28B101462046FFF71EFFC0B26F
:1025A00010BD0020FCE780F85B107047F8B50446CA
:1025B0000D4616461F4690F85E30032B07D8DFE81D
:1025C00003F0020D1217C36C98470644F6B23B465F
:1025D000324629462046FFF7D4FFF8BDC36C984722
:1025E0002D1AEDB2F3E7C36C9847361AF6B2EEE750
:1025F000C36C98470544EDB2E9E700002DE9F041CE
:1026000004460F4616461D4600F0C7FA4FF0000874
:1026100004E00744FFB280445FFA88F863682978D1
:10262000204698474FF6FF73984222D001354FF667
:10263000FE739842F2D00346324639462046FFF7F1
:10264000B5FF94F85E30032BE5D801A252F823F0D1
:102650001326000861260008672600086D2600087A
:102660000644F6B2D7E73F1AFFB2D4E7361AF6B2FD
:10267000D1E74046BDE8F08110B5024C4460FFF759
:10268000BDFF10BD852B0008836C63B390F96D20EE
:1026900080F8792090F96E3080F87A3090F87810D0
:1026A00009B3012912D030B490F96A4090F96C1046
:1026B0006518AA4204DACAB252FA84F480F8794062
:1026C0008B4201DD80F87A1030BC704790F96F10B2
:1026D0008A4201DA80F8791090F97020934202DD85
:1026E00080F87A2070477047014BC364704700BF81
:1026F000B3210008836C8B4209D010B50446816475
:102700006030FFF758FD2046FFF7BEFF10BD704751
:1027100010B403780C78A34204D993420AD2541E11
:10272000E4B20C70934208D25CB194420BD90A70A7
:10273000012003E000230370F4E700205DF8044B60
:1027400070470020FAE70120F8E770B586B004462C
:102750009DF828508DF80F108DF80E2090F83B2032
:1027600090F83A000DBB9DF80E10914201D306B0CF
:1027700070BD9DF80F20134406A901F8013D0246E3
:102780000DF10F00FFF7C4FF0028F0D09DF81730BF
:102790009DF80F209B1ADBB2E66A9DF80E209DF88B
:1027A0000F1000952046B047E1E79DF80F108142D9
:1027B000DDD29DF80E100B4406A901F8013D0DF184
:1027C0000E00FFF7A5FF0028D1D09DF817309DF827
:1027D0000E209B1ADBB2DFE730B583B09DF81850AE
:1027E00090F83940A2EBC402D2B2012B0AD0022DDC
:1027F00014D0032D17D005F001050095FFF7A5FFB4
:1028000003B030BD90F83A408C42F9D990F83B4083
:102810009442F5D9C46A0095A047F1E7C91AC9B234
:102820000131C9B2E7E7D21AD2B20132D2B2E2E73D
:102830004BB130B583B0046B64689DF818500095B7
:10284000A04703B030BD70472DE9F04182B080460B
:102850000D4616461F46CB18541CE4B20094DBB25A
:1028600000F061F810B902B0BDE8F08100230093D8
:102870003B46324629464046FFF7DAFFF3E72DE9AB
:10288000F04182B080460D4616461F464B1CD419B7
:10289000E4B20094DBB200F046F810B902B0BDE833
:1028A000F081012300933B46324629464046FFF71C
:1028B000BFFFF3E790F8433093420BD890F84430D1
:1028C000934207D990F841308B4203D890F84230B8
:1028D0008B4200D8704700B583B0002300930123DA
:1028E000FFF7A6FF03B05DF804FB80F87D10022916
:1028F00002D9012380F87D3070478A4205D2834295
:102900000BD89A420BD901207047834209D99A42C9
:1029100001D8002070470120704701207047002037
:1029200070470020704770B504460D461E469DF85E
:10293000103090F8441090F84300FFF7DEFF034694
:1029400040B133462A4694F8421094F84100FFF70C
:10295000D4FF0346184670BD2DE9F04F83B00190B7
:1029600017461E469DF83040994229D9A1EB03082D
:102970005FFA88F8A74228D9A7EB04095FFA89F91A
:10298000C84527D34B46C1469846234634461E4683
:102990003B460F4619464FF0000AA74205D833467A
:1029A0000E46194623463C461F4649F347058E42CC
:1029B00013D24FF0010BFF2F1FD1013FFFB21CE0DC
:1029C000A3EB01085FFA88F8D4E7A4EB07095FFAE4
:1029D00089F9D5E74FF0010ADFE74FF0FF3BEAE75F
:1029E000224631460198FFF765FFA5EB0805EBB2DB
:1029F0005DB2002D0CDB0134E4B2A7420FD3BAF173
:102A0000000FEDD1324621460198FFF753FFECE766
:102A100056FA8BF6F6B203EB09056DB2EBE703B09D
:102A2000BDE8F08FF0B59DF814C002F00705012451
:102A3000AC40E4B290F87D70012F19D90026012F27
:102A400018D002F0F802076897F810E0476B0EFB09
:102A500002113944BCF1000F16D10A783243D2B2C8
:102A6000624001F8012B013B13F0FF03F5D1F0BDEB
:102A70002646E4E70024E4E7012617E07600F6B2F4
:102A80006400E4B2002BF2D00A783243D2B2624042
:102A90000A706A1C013BDBB212F00705EED190F818
:102AA0003A20114490F87D20012AE5D9012AE9D085
:102AB0000124E7E770B490F83830DA0080F83B2062
:102AC00001680A7C1F2A00D91F22D20080F83A2010
:102AD00090F83950EA00D2B280F83C205E194C7C64
:102AE000A64201DD631BDBB2DB00DBB280F83D20D8
:102AF000134480F83E30F02380F83F308B8AF02B6F
:102B000001D880F83F30CB8A80F8403070BC7047E5
:102B100010B50446FFF7CEFF002384F8413094F847
:102B20003A3084F8423094F83D3084F8433094F8D9
:102B30003E3084F8443010BD10B582B09DF810408E
:102B40000094FFF749FE02B010BD70B50446049E24
:102B500000258564C362416380F8382080F83950CD
:102B600080F85B5080F87C50012380F87D3080F83D
:102B70007E300663336898472046FFF7B5FD84F83A
:102B80005E5070BD19B10A2904D088B270474FF663
:102B9000FF7070474FF6FF707047002380F82330B6
:102BA000704710B5046900230A462021A04710BDD4
:102BB00010B5046913460A461721A04710BD00B599
:102BC00083B002AA02F8011D0121FFF7F1FF03B053
:102BD0005DF804FB30B583B014461D46173909294A
:102BE00034D8DFE801F011161D3333333333332487
:102BF00015F8013B02A901F8013D013CE4B20A23AA
:102C00000122134804F038FF002CF1D1012003B059
:102C100030BD002201210F4803F07EFA0120F6E7C3
:102C2000012211460B4803F077FA0120EFE732B991
:102C300000220221074803F06FFA0120E7E7012292
:102C40000221044803F068FA0120E0E70020DEE7F3
:102C5000380700200004004810B5C46800230A4665
:102C60001521A04710BD10B5C46800230A461621DF
:102C7000A04710BD10B5C46813460A461721A047E7
:102C800010BD10B5C46800231A461821A04710BD16
:102C900010B5C46800231A461921A04710BD70B5AD
:102CA00082B006460D462C4614F8011B172918D091
:102CB0000CD919291FD9FE2924D122788DF8072093
:102CC0002921304600F046F90235ECE7152919D3E1
:102CD00022788DF80720F46800233046A04702359B
:102CE000E1E76B7802AA02F8013D01213046FFF7C7
:102CF000C1FF0235D7E7F56800231A463046A847DA
:102D00002546D0E702B070BD2DE9F04104460D46DE
:102D100016469846A1F11403052B21D8DFE803F0ED
:102D200018030C1518180021FFF73BFF3146204609
:102D3000FFF745FF012011E00021FFF732FF314688
:102D40002046FFF73CFF012008E00121FFF729FFA3
:102D500027694346324629462046B847BDE8F081F8
:102D60000020FBE7F8B5054614460E293BD01E4669
:102D70000F2903D00B292BD0002028E0FFF781FF7B
:102D80007779FF00FBB2AF7F1F44FFB2390941F0F2
:102D900010012846FFF760FF07F00F012846FFF7F4
:102DA00062FFB17941F0B0012846FFF75CFF31794D
:102DB000C900326801F0F8012846FFF75BFF621E88
:102DC00012F0FF04F3D12846FFF762FF0120F8BD9F
:102DD00022B90C49FFF763FF0120F8E70A49FFF722
:102DE0005EFF0120F3E7FFF74CFF81212846FFF744
:102DF00033FF21462846FFF736FF2846FFF748FFF6
:102E00000120E4E7ECEA0008F4EA000870B50546A2
:102E10000C461646FFF7A6FF40BB03460A2C1CD003
:102E20000D2C07D0092C22D11249284600F02AF88F
:102E300001231CE046B910492846FFF730FF2B68F4
:102E40009B7CAB77012312E00C492846FFF727FF54
:102E50002B68DB7CAB77012309E0284600F016F8ED
:102E600007492846FFF71BFF012300E0012318460E
:102E700070BD00BFFCEA0008B0EA0008B8EA00082C
:102E8000C0EA000801608B7C8377704738B5044640
:102E9000456900231A462821A847E56800231A46F9
:102EA00014212046A84701224B21204600F052F869
:102EB00023681A792921204600F04CF800224B2182
:102EC000204600F047F823681A792921204600F0AF
:102ED00041F801224B21204600F03CF823685A7942
:102EE0002921204600F036F838BD10B582B08DF8A3
:102EF00005108DF806208DF8043002AB049A43F8D3
:102F0000082D846801220F21A04702B010BD10B522
:102F1000846800231A460921A04710BD10B58468B3
:102F200000231A460A21A04710BD10B5846800236B
:102F30000A460B21A04710BD10B5846800230A463D
:102F40000E21A04710BD10B5846800231A46102139
:102F5000A04710BD10B544690023A04710BD000074
:102F600008B528392B2944D8DFE801F0191B1619B8
:102F70001919434343434343434343434343434375
:102F8000434343431F2419191919191919292E19D3
:102F90001919191933373B3F0120FDF731FE012084
:102FA00008BD104601F058FDF9E71021134803F061
:102FB000B3F8F4E72021114803F0AEF8EFE7012160
:102FC0000E4803F0A9F8EAE702210C4803F0A4F840
:102FD000E5E7002380F82430E1E7002380F824307F
:102FE000DDE7002380F82430D9E7002380F824307F
:102FF000D5E7012380F82430D1E700BF0004004862
:103000000020704700230360074A8260C2600261AB
:103010004261C37780F8223080F82330FF2380F8A4
:10302000203080F82530704701300008F8B504469C
:103030000F4616461D46FFF7E5FFA760E6602561CF
:10304000069B63612046FFF762FFF8BD10B442F2B1
:10305000107200240CE0891A89B20133DBB291426C
:10306000F9D20355074BA3FB0232D2080134E4B274
:10307000042C01D83023F2E7002343715DF8044BA0
:10308000704700BFCDCCCCCC10B5C1F10501CCB29E
:1030900001460248FFF7DAFF204410BDDC0400209F
:1030A00038B505460C460846FDF792F8322382B241
:1030B0002146284606F0D9FB38BD0EB470B583B062
:1030C000064607AB53F8045B01932A4600210846E5
:1030D00006F048FF013006F049FE0446019A2946F1
:1030E00006F064FF21463046FFF7DAFF204606F07F
:1030F00045FE03B0BDE8704003B0704700B58BB02B
:1031000020484FF0A04303604FF440334360102346
:103110008360002303610122C26143620363C262D0
:10312000C36002624263042242618361836301F0EF
:103130005BFDB8B90AA9002341F80C3D114802F023
:1031400015FAA0B90123019302930023049303937A
:103150000593069301A90B4801F0DAFF60B90BB0A3
:103160005DF804FB4D21084800F036FBE2E75521ED
:10317000054800F031FBE5E76221034800F02CFB35
:10318000EDE700BF5005002014EB00080368B3F121
:10319000A04F00D0704730B587B0044603F17043AC
:1031A00003F504335A6942F080525A615B6903F0B7
:1031B00080530093009B0B2301930323029300256C
:1031C000039501A94FF0904002F044FE0E480F4BCA
:1031D0000360456085608023C3604FF480730361A2
:1031E0004FF48063436120238361C56102F0C4FC16
:1031F00020B9054BE3635C6207B030BD8921044808
:1032000000F0EAFAF5E700BFA4050020080002403C
:1032100014EB000808B50C480C4B03601023436006
:1032200000238360C360036143618361C361036200
:1032300043628362C36202F079FA00B908BD452196
:10324000034800F0C9FAF9E7E805002000640040EF
:1032500020EB00080268124B9A4200D0704700B57C
:1032600087B003F5D633DA6942F00072DA61DB69C0
:1032700003F000730093009B4FF4C05301930223AB
:10328000029300230393032304930923059301A9C5
:103290004FF0904002F0DEFD07B05DF804FB00BF88
:1032A0000064004010B50D4C012221460C4806F088
:1032B00016F80C490B78DBB22278D2B20A48C25415
:1032C0000B78DBB2212B03D9064B00221A7010BDFC
:1032D0000B780133DBB20B70F9E700BF2C0600203E
:1032E0009C0800205406002030060020F0B484B072
:1032F00000248AE0554B1A78D2B2815C8DF8081010
:103300001A78024452788DF809201A78024492788B
:103310008DF80A201A780244D2788DF80B201B7899
:1033200003441B798DF80C302B46062B07D8484AEE
:10333000D25CD2B2914202D00133DBB2F5E7062B68
:1033400012D80221042970D804AA0A4412F8082CC1
:10335000A2F13004E4B2413AD2B2052A88BF092C66
:1033600004D801310124EDE72C46EAE72C465CE065
:1033700001F00F0104AF174407F8101C04A9114411
:1033800011F8101CB700B9400D44013E0132042A67
:1033900015D804A9114411F8081C01F0F007302FCA
:1033A000E6D0402F0BD101F00F01093104AF1744D3
:1033B00007F8101CE2E7002502221646E7E707EEB1
:1033C000905AB8EE677ADFED237AC7EE276A224A71
:1033D00052F8232007EE902AF8EE677A27EEA67AB5
:1033E0001E4A52F8232007EE902AF8EEE77A77EE8D
:1033F000877AFDEEE77A17EE902A12B2184921F883
:10340000132014E0114A00211170104A1178C9B23A
:10341000144A1278053A914214D00C4A1278D2B26A
:10342000825C12F0F0053FF465AF012CC3D0074A6F
:103430001278D2B2622AE5D804490A780132D2B2AF
:103440000A70E2E704B0F0BC704700BF53060020EA
:103450000000002000001345080000202400002088
:10346000E40400205406002000B583B00A4B5A69DA
:1034700042F001025A615B6903F001030193019B71
:10348000002211460B2002F0A3FA0B2002F0E6FA0C
:1034900003B05DF804FB00BF001002402DE9F041CD
:1034A00088B0334B5A6942F480025A615A6902F477
:1034B00080020092009A5A6942F400325A615A69B5
:1034C00002F400320192019A5A6942F480225A6150
:1034D0005B6903F480230293029B264E00220B219A
:1034E000304602F019FE02270397DFF89480CDF8EA
:1034F00010800125059503A91F4802F0ABFC40236D
:1035000003931E4B0493059503A94FF0904002F0DE
:10351000A1FC0B230393049500240594069403A9AE
:10352000304602F097FC30230393CDF810800595C8
:1035300003A9304602F08EFC22460A21072002F041
:1035400047FA072002F08AFA224639460A2002F09A
:103550003FFA0A2002F082FA22460A21172002F0DE
:1035600037FA172002F07AFA08B0BDE8F08100BF00
:103570000010024000040048001400480000111030
:103580000000211008B51548154B0360154B43602A
:10359000002383600122C260036143618361C361D0
:1035A000036202F033FF50B900210C4803F070F9B8
:1035B00050B90021094803F0B1F950B908BD4221C2
:1035C000094800F009F9EFE74921074800F004F93C
:1035D000EFE75021044800F0FFF8EFE7580600201D
:1035E000005400400E0900202CEB00080268114B2B
:1035F0009A4200D0704700B587B0C02301931223D0
:1036000002930123039303230493042305930DEBF7
:103610000301094802F01EFC084BDA6942F400126B
:10362000DA61DB6903F400130093009B07B05DF8D7
:1036300004FB00BF0054004000040048001002409A
:1036400000B585B08DF80C108DF80D200A2300937D
:10365000022303AA4100034802F08CFF05B05DF885
:1036600004FB00BF5806002070B586B006AA02F819
:10367000091D4500094C0A260096012329462046CB
:1036800002F078FF009601230DF11702294620462B
:1036900003F037F89DF9170006B070BD58060020FA
:1036A00010B584B0002416E004EB84020C4B1344E4
:1036B000C4EBC40104EB810148310293094B1B5D4B
:1036C0000193092300931B233522C9B20648FDF755
:1036D00029FD0134E4B2012CE6D904B010BD00BFCD
:1036E00050EB00085CEB0008B406002070B586B013
:1036F000002420E0324BA3FB04235B0803EB4303CD
:10370000E31A03EB43039A00D2B21032C4EBC401B4
:103710002C4B0B4404EB84002B4901440291019390
:103720000C230093462302F0FC0200212748FDF7FA
:103730004DFD0134E4B2022CDCD9032420E0204BFF
:10374000A3FB04235B0803EB4303E31A03EB4303EC
:103750009A00D2B21032C4EBC4011A4B0B4404EBF2
:10376000840019490144029101930C2300933823EA
:1037700002F0FC0248211548FDF728FD0134E4B2AF
:10378000052CDCD9114C124E0296124B01930C25DC
:1037900000954623342200212046FDF717FD0596AB
:1037A0000021049103910323029364230193009564
:1037B000462334222046FDF757FD06B070BD00BFFA
:1037C000ABAAAAAA3CED000870ED0008B4060020E0
:1037D00044EB000848EB0008FEE7000000B597B096
:1037E00003230C934FF4A0230D9300230E93012386
:1037F000109310231193022313934FF480331493E7
:103800004FF4E01315930CA803F0CAF860BB0F2324
:10381000079302210891002309934FF480620A92D2
:103820000B9307A803F094FC18BB41F2210301930A
:10383000002303930493069301A803F00BFEE8B959
:1038400003F0D6FD104BA3FB0030800902F032F9E3
:10385000042002F045F9002211464FF0FF3002F03B
:10386000B7F817B05DF804FB40F236310748FFF7B0
:10387000B3FF4FF451710548FFF7AEFF40F24E31F0
:103880000248FFF7A9FF00BFD34D621038EB0008D4
:10389000F0B5ADF6241D01F0BFF84FF480720021A1
:1038A0000DF5026006F072FAFFF798FFFFF7F6FDDC
:1038B000FFF7DAFD01F01EF800F07CFF00F0F6FFE4
:1038C00000F0D0FCFFF71AFC00F01EFEFFF7A2FC90
:1038D00000F0C0FEFFF756FE00F068FE002193489E
:1038E00005F06CF820B140F2B7119148FFF774FF72
:1038F000904804F0DFF920B140F2BD118C48FFF789
:103900006BFF8D4804F0D6F920B140F2C31188480E
:10391000FFF762FF894804F0CDF920B140F2C911E8
:103920008348FFF759FF01228549864805F0D7FCF7
:103930004FF40062002108A806F028FA4FF48062D4
:1039400008A9814801F03CFB804C814B814A8249A7
:103950002046FEF7E5FB814D00220821284602F0B3
:10396000DBFB052001F078F801220821284602F04F
:10397000D3FB2046FFF7D2FA00212046FFF7D5FA05
:10398000FF212046FFF7D8FA2046FEF7B4FB744B20
:10399000019330230093002228212046FEF724F8CB
:1039A00070492046FEF7A6FE6F4B372210212046B5
:1039B000FEF762FE6D4B402228212046FEF75CFE9A
:1039C0002046FEF7D4F94FF47A7001F045F820460E
:1039D000FEF7C0F9664D67492846FFF76EFB664B58
:1039E000B3F90030C3F16403644A5363FFF77EFE0A
:1039F000FFF756FE2046FEF7BAF900211D20FFF71B
:103A000033FEC4B222465E492846FFF756FBE52C3A
:103A100016D15C4B01221A7008222D211D20FFF7C0
:103A20000FFE2D211D20FFF71FFE052231211D2035
:103A3000FFF706FE31211D20FFF716FE0025E5E009
:103A4000504B00221A70E7E74E4B1B78012B13D026
:103A50004D4A11884D4B1980918859804C490988ED
:103A600099809189D98052891A814A4A12885A814B
:103A7000494B00221A6007E133211D20FFF7F4FDB6
:103A8000464C207035211D20FFF7EEFD444B187089
:103A900037211D20FFF7E8FD424B187094F90030E4
:103AA0004FF4C87202FB03F2002A1EDBD2113E4B18
:103AB0001A803B4B93F900104FF4C87303FB01F3DA
:103AC000002B14DBDB1139490B804FF4C87101FB6B
:103AD00000F000280DDB40F3CF103549088000903E
:103AE00034492348FFF7E9FAB2E77F32DEE77F3354
:103AF000E8E77F30EFE7304B00221A7069E02F498A
:103B00001B48FFF7DAFA172001F0BEFF2C4B1B7899
:103B1000002B5ED1284B1B781BB9274B03221A7050
:103B200057E0013B244A137053E000BF1C080020FB
:103B300038EB00085C0800209C070020DC07002010
:103B40002C0600209C08002050050020B406002010
:103B5000612F0008D52B0008A8EA000800040048DF
:103B600060EB000848D1000880EC000898EC0008E1
:103B70000C090020A4EC000840000020002C0140AB
:103B8000BCEC000835070020E404002048000020B9
:103B90004200002044000020F8040020AE0600206F
:103BA000B1060020A4060020AA060020A8060020D6
:103BB000A6060020D0EC0008AD060020E0EC0008CE
:103BC000AF060020AE49AF48FFF777FA072001F0B3
:103BD0005BFFAD48FEF7BEF8AC4B1B78002B79D0ED
:103BE000012B00F09A80022B00F0CF80032B00F015
:103BF000E980A548FEF7BBF80023A54A5362A54A11
:103C00001360A54B1B68012B00F0F980BDF8203034
:103C100007EE903AF8EE677A9FEDA07A67EE877A22
:103C2000DFED9F6A87EEA67ABDEEC77A9D4B17EE51
:103C3000102A1A80BDF8223007EE103AB8EE477A03
:103C4000DFED997A27EE277AC7EE267AFDEEE77A3E
:103C500017EE903A18B2954B1880FCF763FC86A3D8
:103C6000D3E90023FCF7F2FD0022914BFCF7C4FCE2
:103C7000FCF772FF8F4B18808F48FFF737FB8F4B95
:103C80001B68012B3FF4E0AE8A4BB3F90030C3F15F
:103C900064038B4A53637F4B1B68002BB1D0022B0C
:103CA0003FF42DAF032B8DD0012B92D18549754860
:103CB000FFF703FA172001F0E7FE834B1B78002B78
:103CC00087D1724B1B78032B3FF415AF01336F4A3A
:103CD00013707EE7FFF70AFDFFF7E2FC89E704EBCC
:103CE000440204EB8202D2B20232C4EBC401774B2D
:103CF0000B4404EB840076490144029101930D23A7
:103D000000933C23D2B244215F48FDF75FFA0134AF
:103D1000E4B2032CE3D9002418E00024F9E704EB13
:103D200084026C4B1344C4EBC40104EB81014831A1
:103D30000293694B1B5D0193092300931B233522DA
:103D4000C9B25148FDF7EEF90134E4B2032CE6D9CB
:103D5000782306936FF04F0305934FF0FF330493DE
:103D6000142303930A2302934FF4967301936FF085
:103D70003B03009303231F2220210846FCF752FF38
:103D800000214148FCF798FF33E73F4C032303939E
:103D9000C82302936FF063030193342300938023BD
:103DA0000D2200212046FDF77FFC4C4B02934C4B2B
:103DB00001930D2300934023002211462046FDF776
:103DC00005FA16E7304C04230393C82302936FF0DF
:103DD000C70301933423009380230D220021204642
:103DE000FDF762FC3F4B02933F4B01930D23009381
:103DF0004023002211462046FDF7E8F9F9E6234B5F
:103E00001C78A4B1012C00F0CE80022C00F01581AA
:103E1000032C00F042812C4B1B78012B00F06C81AD
:103E20001948FDF7A4FF1C4B00221A60EEE6164F5E
:103E30002E4B0593002604960396032302931D4BF5
:103E4000B3F9003001930C2300934623342231460A
:103E50003846FDF709FA264B1B8842F228320392B6
:103E6000029601930E230093802332463146384652
:103E7000FDF7C0F867E000BF9A9999999999304089
:103E8000E8EC00080C090020B4060020AD06002074
:103E900000100040FC040020F40400200000A543B2
:103EA00000007F4344000020000025434200002022
:103EB000000024404000002030060020F8040020CC
:103EC000002C0140DCEC0008AF0600203CED0008AF
:103ED00070ED000850EB00085CEB0008F0EC000807
:103EE000F4EC0008F8EC0008FCEC000844EB0008D7
:103EF00036070020A04BA3FB04235B0803EB43031E
:103F0000E31A03EB43039A00D2B2103204EB8401AC
:103F10009A4B0B4405939A4B1B5D0493994B1B5D85
:103F20000393994B1B5D0293984B33F91430019323
:103F30000C230093462302F0FC0200219448FDF775
:103F400093F90134E4B2022CD4D9032428E08A4B3B
:103F5000A3FB04235B0803EB4303E31A03EB4303D4
:103F60009A00D2B2103204EB8401844B0B440593C7
:103F7000834B1B5D0493834B1B5D0393824B1B5D43
:103F80000293824B33F9143001930C2300933823AE
:103F900002F0FC0248217E48FDF766F90134E4B2E4
:103FA000052CD4D93CE7794E794CB6F9001020465F
:103FB000FCF782FE774B05930123049302230393BE
:103FC00003230293B6F900300193102600961E23B6
:103FD000212224212046FDF747F96F4B01930096DB
:103FE0001C23282226212046FDF71CF90024032C3F
:103FF0003FF616AF04EB440204EB8202D2B2023267
:1040000004EB84015D4B0B4405935D4B1B5D0493F6
:104010005C4B1B5D03935C4B1B5D02935B4B33F965
:10402000143001930D2300933C23D2B2442158480D
:10403000FDF71AF90134E4B2D9E765B3013DADB239
:10404000524BB3F900300DF5026424F81530504E90
:1040500004950394C82302936FF063030193342300
:10406000009380230D2200213046FDF7B9FB4A4B17
:10407000059301230493022303930323029334F94A
:10408000153001930D230093402300221146304642
:10409000FDF7EAF8C4E68025D2E75DB3013DADB295
:1040A0000DF502643D4B1B8824F81530384E0495FD
:1040B0000394C82302936FF0C70301933423009342
:1040C00080230D2200213046FDF78AFB344B0593F7
:1040D00001230493022303930323029334F915303D
:1040E00001930D2300934023002211463046FDF733
:1040F000BBF895E68025D3E7254C2046FDF72AFE40
:1041000028492046FEF7F6FA274B0F2202212046C7
:10411000FEF7B2FA254B1B7803BB254B1E2202216A
:104120002046FEF7A9FA234B1E220A211848FEF763
:10413000A3FA1E4B1B78012B17D01F4B2D220221F7
:104140001348FEF799FA124C1C4B2D220A212046E7
:10415000FEF792FA2046FDF70AFE61E6164B1E2294
:1041600002210B48FEF788FADDE7114B2D220221D0
:104170000748FEF781FAE6E7ABAAAAAA70ED0008A5
:1041800068ED000834ED00082CED00084800002020
:10419000B4060020B8EC0008F0EC0008A8060020E7
:1041A000F8EC0008CCDE000804ED00080005002053
:1041B00014ED000818ED0008E4EC000824ED0008F8
:1041C00070470000074B1B78DBB2012B03D9064B6D
:1041D00000221A807047034A13780133DBB2137050
:1041E000704700BF0805002036070020174B1B78DA
:1041F000DBB2012B05D90023154A1380134A137033
:10420000704710B5134A1168134B5B6A13605B1A51
:104210000E4C227803EB024307EE903AF8EE677AF1
:10422000DFED0E6A86EEA77A77EE077A17EE900A30
:10423000FCF78AF900220A4BFCF7DEF9FCF78CFC4C
:1042400000B2034B18800023237010BD0805002026
:1042500036070020040500200004004000504348B9
:1042600000004E4008B51148114B03604FF48273B3
:104270004360002383604FF4E062C26003614361E6
:104280004FF4007282611022C26103624362836252
:104290000722C26203630823436303F0E3FA00B911
:1042A00008BD47210348FFF797FAF9E738070020D0
:1042B0000030014090ED00080268114B9A4200D096
:1042C000704700B587B003F560439A6942F48052A5
:1042D0009A619B6903F480530093009BA023019390
:1042E00002230293002303930323049305230593DE
:1042F00001A94FF0904001F0ADFD07B05DF804FB5F
:104300000030014000B583B01C4B9A6942F00102B5
:104310009A619B6903F001030193019B032001F063
:1043200039FB002211466FF00B0001F051FB002217
:1043300011466FF00A0001F04BFB002211466FF0AE
:10434000090001F045FB002211466FF0040001F066
:104350003FFB002211466FF0030001F039FB002201
:1043600011466FF0010001F033FB002211464FF0BF
:10437000FF3001F02DFB03B05DF804FB001002409C
:1043800008B500F05BFB01F0CAFB08BD08B50220D0
:1043900001F0DEFE0221044801F0AAFE10B9034B31
:1043A00003221A6008BD00BF00140048FC0400206E
:1043B00008B5102001F0CCFE1021044801F098FE51
:1043C00000B108BDFFF712FFFBE700BF0004004883
:1043D00008B5024801F0E3FC08BD00BFA4050020B9
:1043E00008B5202001F0B4FE402001F0B1FE2021EC
:1043F000094801F07DFE18B9084B01221A6008BD7A
:1044000040214FF0904001F073FE0028F7D1034B9C
:1044100002221A60F3E700BF00040048FC040020F9
:1044200008B5024803F083FC08BD00BF1C0800204B
:1044300008B5044803F07BFC0123034A1360034AD8
:10444000136008BD5C080020F4040020F80400207C
:1044500008B5034803F06BFCFFF7B4FE08BD00BFCE
:104460009C07002008B5024805F082FB08BD00BF8C
:104470009C08002008B5024805F07AFB08BD00BF83
:104480000C09002008B5054803F051FC072001F095
:10449000E5FA172001F0E2FA08BD00BFDC070020B2
:1044A0001549D1F8883043F47003C1F88830134BB4
:1044B0001A6842F001021A605868114A02405A60B4
:1044C0001A6822F0847222F480321A601A6822F488
:1044D00080221A605A6822F4FE025A60DA6A22F0D8
:1044E0000F02DA62186B074A02401A6300229A60D0
:1044F0004FF000638B60704700ED00E00010024059
:104500000CC07FF8CCFC00FF00B58FB025484FF001
:10451000804303604FF434734360002383604FF49F
:10452000FA62C2600361836103F016FD08BB0EA945
:104530004FF4805341F8103D1A4803F0D5FFE8B915
:10454000184803F071FDF0B900230793099307A9F8
:10455000144804F03BFDD8B9002200920192029267
:10456000049269460F4804F0FDFAB0B90FB05DF847
:1045700004FB89210C48FFF72FF9D8E78F210A485F
:10458000FFF72AF9DCE794210748FFF725F9DBE775
:104590009B210548FFF720F9DEE7A4210248FFF739
:1045A0001BF9E3E75C080020B4ED000800B58FB00C
:1045B0002548264B03604FF4B473436000238360A7
:1045C0004FF6FF72C2600361836103F0C5FC08BB54
:1045D0000EA94FF4805341F8103D1B4803F084FFAF
:1045E000E8B9194803F020FDF0B9002307930993B7
:1045F00007A9154804F0EAFCD8B9002200920192FC
:10460000029204926946104804F0ACFAB0B90FB0B7
:104610005DF804FBB7210E48FFF7DEF8D8E7BD21AF
:104620000B48FFF7D9F8DCE7C2210948FFF7D4F8B7
:10463000DBE7C9210648FFF7CFF8DEE7D2210448BF
:10464000FFF7CAF8E3E700BF9C0700200004004022
:10465000B4ED000800B585B01148124B03604FF46B
:10466000347343600023836042F21072C26083613E
:1046700003F072FC50B900230193039301A9084889
:1046800004F0A4FC38B905B05DF804FBE22106484B
:10469000FFF7A2F8EFE7E9210348FFF79DF8F2E7FB
:1046A000DC07002000100040B4ED000800B585B024
:1046B00003682E4A93420BD0B3F1804F1BD02C4A93
:1046C00093422CD02B4A93423CD005B05DF804FBBA
:1046D000294B9A6942F400629A619B6903F4006372
:1046E0000093009B00220121192001F071F919208B
:1046F00001F0B4F9E9E703F50433DA6942F00102A5
:10470000DA61DB6903F001030193019B00220321BD
:104710001C2001F05DF91C2001F0A0F9D5E7164B33
:10472000DA6942F00202DA61DB6903F00203029304
:10473000029B002211461D2001F04AF91D2001F0C4
:104740008DF9C2E70C4BDA6942F01002DA61DB69DD
:1047500003F010030393039B00220421362001F091
:1047600037F9362001F07AF9AFE700BF002C01409D
:1047700000040040001000400010024002680C4B92
:104780009A4200D0704700B587B04FF48073019310
:10479000022302930023039304930623059301A9A4
:1047A0004FF0904001F056FB07B05DF804FB00BFEE
:1047B000002C014000B59BB03848394B03604823BA
:1047C0004360002383606422C260036143618361AC
:1047D00003F0C2FB002842D11AA94FF4805341F8DC
:1047E000103D2E4803F080FE00283DD12B4803F0F9
:1047F00087FC00283DD1002313931493159313A92C
:10480000264804F0E3FB002838D1264B0C93002205
:104810000D920E920F921092119212920CA91F48B3
:1048200004F082FA00282ED100230193029303930F
:10483000049305934FF400520692079308934FF0A8
:10484000007209920A930B9301A9144804F05AFCD0
:10485000F0B91248FFF792FF1BB05DF804FB452149
:104860001148FEF7B9FFB7E74B210F48FEF7B4FF39
:10487000BCE750210C48FEF7AFFFBCE758210A48BF
:10488000FEF7AAFFC1E764210748FEF7A5FFCBE7C3
:1048900074210548FEF7A0FFDBE700BF1C080020DD
:1048A000002C014070000100B4ED000808B50E486E
:1048B0000E4B03604FF4964343604FF48053836084
:1048C0000023C3604FF4806202610C224261836165
:1048D000C3610362436205F067F800B908BD452172
:1048E0000348FEF779FFF9E79C08002000380140F3
:1048F000C0ED000808B50E480E4B03604FF4964318
:1049000043604FF4805383600023C3604FF48062A0
:1049100002610C2242618361C3610362436205F05C
:1049200043F800B908BD5A210348FEF755FFF9E7DF
:104930000C09002000440040C0ED000800B589B01B
:104940000368274A934205D0264A934225D009B0EE
:104950005DF804FB244B9A6942F480429A619B699A
:1049600003F480430193019B4FF4C063039302233C
:10497000049301230593032306930723079303A9B5
:104980004FF0904001F066FA00220521252001F049
:104990001FF8252001F062F8D9E7134BDA6942F4D9
:1049A0000032DA61DB6903F400330293029B48F2C0
:1049B0000403039302230493012305930323069323
:1049C0000723079303A94FF0904001F043FA002218
:1049D0000F21262000F0FCFF262001F03FF8B6E76B
:1049E00000380140004400400010024010B5044669
:1049F000074B1868074BA3FB0030800901F05AF8F9
:104A0000002221464FF0FF3000F0E2FF002010BDF1
:104A100054000020D34D621008B5074A136843F0D4
:104A200010031360032000F0B5FF0020FFF7DEFF46
:104A3000FFF768FC002008BD00200240024A13680E
:104A400001331360704700BF7C090020014B1868D8
:104A5000704700BF7C09002030B583B00190FFF79C
:104A6000F5FF0546019CB4F1FF3F00D00134FFF78C
:104A7000EDFF401BA042FAD303B030BD7047704732
:104A8000704738B50268936803F00303012B01D027
:104A9000002038BD136813F0010F2FD0936803F086
:104AA0000D03012B09D0436C43F010034364836C66
:104AB00043F0010383640120EBE70446936843F06D
:104AC00002039360036803221A60FFF7BFFF0546E5
:104AD00023689B6813F0010F0ED0FFF7B7FF401B50
:104AE0000228F5D9636C43F010036364A36C43F0B0
:104AF0000103A3640120CCE70020CAE70020C8E737
:104B000038B50268936803F00303012B0DD0916858
:104B1000184B19420FD0436C43F010034364836C6D
:104B200043F001038364012038BD136813F0010FC3
:104B3000EDD00020F8E70446936843F0010393604A
:104B4000FFF784FF054623681B6813F0010F0ED1A1
:104B5000FFF77CFF401B0228F5D9636C43F010037C
:104B60006364A36C43F00103A3640120DCE700202D
:104B7000DAE700BF3F00008008B5406A436C43F0AD
:104B800040034364836C43F004038364FFF778FFBE
:104B900008BD08B5406AFFF772FF08BD08B5436A53
:104BA0005A6C12F0500F03D0DB6B1B6B984708BD9B
:104BB0005A6C42F400725A641A68D26812F4406F58
:104BC0000DD1DA695AB95A6C22F480725A645A6C5F
:104BD00012F4805F03D15A6C42F001025A64184605
:104BE000FFF74CFFE3E7000030B597B000230093D8
:104BF000002800F0DC8104460368B3F1A04F07D021
:104C0000984A934204D040F209119748FFF7D8FA26
:104C100063684BB1B3F5803F06D0B3F5003F03D0D6
:104C2000B3F5403F40F08C80A36833B1082B04D02B
:104C3000102B02D0182B40F08980E36813B1202B91
:104C400040F08A802369012B00F28C80E369012BFC
:104C500000F28E80236B4BB1B3F5806F06D0B3F5B5
:104C6000006F03D0B3F5406F40F08880E36A5BB318
:104C7000402B29D0802B27D0C02B25D0B3F5807FA7
:104C800022D0B3F5A07F1FD0B3F5C07F1CD0B3F501
:104C9000E07F19D0B3F5007F16D0B3F5107F13D0A5
:104CA000B3F5207F10D0B3F5307F0DD0B3F5407F42
:104CB0000AD0B3F5507F07D0B3F5607F04D0B3F5C9
:104CC000707F01D0012B5FD1636B012B62D86369C8
:104CD000042B01D0082B63D1A36B012B66D8A369E9
:104CE000012B69D8236963B1236A013B0F2B69D873
:104CF000636A012B6CD8636A1BB1A36A013B072B63
:104D00006CD8636C13F0100F40F0B480636C002B10
:104D10006AD0002023689A6812F0805F04D09B68F4
:104D200013F0005F00F0A780636C23F0120343F0E0
:104D300010036364A36C43F00103A36401209AE0B1
:104D40004FF485714848FFF73BFA6DE740F20B11CD
:104D50004548FFF735FA70E74FF486714248FFF790
:104D60002FFA6FE740F20D113F48FFF729FA6DE780
:104D70004FF487713C48FFF723FA6BE740F20F11BD
:104D80003948FFF71DFA71E74FF488713648FFF78D
:104D900017FA99E740F211113348FFF711FA96E735
:104DA0004FF489713048FFF70BFA95E740F2131181
:104DB0002D48FFF705FA92E74FF48A712A48FFF76A
:104DC000FFF98FE74FF48C712748FFF7F9F98FE768
:104DD00040F219112448FFF7F3F98CE74FF48E7174
:104DE0002148FFF7EDF98CE7A3642365E36484F8B9
:104DF00040302046FEF7CAF923689B6813F0805FB5
:104E000001D0002086E72046FFF73BFE636C13F0DD
:104E1000100F7FF47FAF00287FF47CAF636C23F426
:104E2000885323F0020343F002036364226893680B
:104E300023F0405393602268936843F0805393605B
:104E40000A4B1B680A4AA2FB03239B0C03EB830358
:104E50005A00009202E0009B013B0093009B002B54
:104E6000F9D157E700010050CCED000854000020B4
:104E700083DE1B430020636C13F0100F40F08E8024
:104E8000002840F08B8023689A6812F0040240F0FA
:104E90008580616C21F4817141F002016164B3F19C
:104EA000A04F52D04FF0A0410191996801F0030149
:104EB00001294DD0019B23B1996801F0030101291B
:104EC0004BD03C498B6823F4403365682B438B609F
:104ED000E1694B03A56B012D01D04FF480521343C0
:104EE000E2681343A2681343626A012A3AD0E26A75
:104EF000012A02D0216B0A4313432268916811F002
:104F00000C0F0BD1D16821F4804121F00201D16056
:104F1000A169626B520042EA813213432168CD6875
:104F2000254A2A401343CB602369012B2DD02268E8
:104F3000136B23F00F0313630023A364636C23F04C
:104F4000030343F0010363642FE01C490191ACE7C4
:104F50001B6813F0010FBBD1ACE71B6813F0010F06
:104F6000B6D1AEE731B9A26A013A43EA424343F40B
:104F70008033BCE7626C22F0220242F020026264BD
:104F8000A26C42F00102A264B1E721680B6B23F02E
:104F90000F03226A013A13430B63CDE7636C23F0DE
:104FA000120343F010036364012017B030BD0120E9
:104FB000FBE700BF0003005007C0F0FF00010050F6
:104FC000F8B504460E4617460368B3F1A04F07D064
:104FD000494A934204D040F628114848FFF7F0F8B8
:104FE00023689B6813F0040F40F0818094F84030F0
:104FF000012B7ED0012384F84030414B9B6813F095
:105000001F0F05D0002384F8403001252846F8BD45
:105010002046FFF775FD0546002864D1636C23F434
:10502000706323F0010343F480736364344B9B6823
:1050300013F01F0F17D02268B2F1A04F13D0636C8A
:1050400043F4801363642C4B9A421BD14FF0A0436E
:10505000DB6813F0007F15D0636C23F4405343F4F6
:10506000805363640EE0636C23F4801363642368ED
:10507000DB6813F0007F05D0636C23F4405343F4E6
:1050800080536364636C13F4805F29D0A36C23F0B6
:105090000603A364002384F84030E36B194A9A6244
:1050A000E36B194ADA62E36B184A1A6323681C221D
:1050B0001A602268536843F0100353602268D36873
:1050C00043F00103D36021683B4632464031E06B38
:1050D00000F0F2FD2268936843F00403936095E7C3
:1050E0000023A364D6E7002384F840308EE702252E
:1050F0008CE702258AE700BF00010050CCED0008D4
:10510000000300509D4B0008934B0008794B0008AA
:1051100030B597B005460C46002300930368B3F101
:10512000A04F07D0B24A934204D041F23A51B1485D
:10513000FFF746F86368013B0F2B73D8A368072B72
:1051400076D8E368012B79D82369042B7CD82B68A7
:10515000DA6812F0180F03D16269B2F5805F16D3D6
:10516000DA6802F01802082A74D0DA6802F018022D
:10517000102A74D0DB6803F01803182B02D163697E
:105180003F2B04D941F23F519A48FFF719F8E368E1
:10519000012B6ED02368013B112B64D895F8403069
:1051A000012B00F0DA81012385F840302A689368EA
:1051B00013F0040F40F0C7816368042B63D8116BB0
:1051C00003EB430358001F23834021EA03032168B4
:1051D00081400B4313632A68936813F00C0F40F06F
:1051E0009A802368092B7FD9916903EB43031E3B07
:1051F0000720984021EA0001A06800FA03F30B435E
:10520000936162692968CB68C3F3C1035B0002FA4A
:1052100003F32269013A032A00F2BC80DFE802F0BE
:105220007199A4AF41F23B517248FEF7C9FF85E77F
:1052300041F23C516F48FEF7C3FF82E741F23D5116
:105240006C48FEF7BDFF7FE741F23E516948FEF72B
:10525000B7FF7CE76269B2F5806F98D385E7626932
:10526000FF2A94D986E741F247516248FEF7A8FF2A
:1052700094E72368013B0D2B90D941F24B515D48D7
:10528000FEF79EFF8AE7092B0ED8516B03EB430311
:1052900058001E381F23834021EA0303216801FAC6
:1052A00000F00343536396E70E2B0ED8916B03EB8C
:1052B000430358003C381F23834021EA030321683D
:1052C00001FA00F00343936385E7D16B03EB4303DB
:1052D00058005A381F23834021EA0303216801FA4A
:1052E00000F00343D36376E7516903EB43030720E0
:1052F000984021EA0001A06800FA03F30B435361D0
:105300007FE70A6E3C481040226843EA82631843F4
:1053100040F0004008662A68936803F00303012BFD
:1053200071D0E368012B74D0D2F8B030206801212D
:10533000814023EA0103C2F8B0302368102B00F04B
:105340009180112B00F0AF80122B00F0B280002072
:10535000FEE04A6E28481040226843EA8263184300
:1053600040F000404866D6E78A6E23481040226825
:1053700043EA8263184340F000408866CBE7C86E7A
:105380001D4A0240206843EA8063134343F0004310
:10539000CB66C0E70B6E03F0F8432268B3EB826F75
:1053A0001CD02A68536E03F0F8432168B3EB816F79
:1053B00019D02A68936E03F0F8432168B3EB816F2C
:1053C0001CD02A68D36E03F0F8432168B3EB816FD9
:1053D000A1D1D36E23F00043D3669CE70B6E23F07C
:1053E00000430B66DDE7536E23F000435366E0E7AE
:1053F00000010050CCED000800F0FF83936E23F015
:1054000000439366DDE7136813F0010F89D0002095
:105410009EE0D2F8B0302068012181400B43C2F8F1
:10542000B0302368092B0ED92868826903EB430347
:105430001B3B0721994022EA0102A16801FA03F30C
:105440001343836179E728684269013303EB43031F
:105450000721994022EA0102A16801FA03F31343EC
:1054600043616AE73E4A926812F4000F7FF469AF25
:105470002968B1F1A04F23D04FF0A04201928A6871
:1054800002F00302012A1ED0019A22B1906800F0B6
:105490000300012821D0102B24D0112B42D0122B35
:1054A0004AD0002054E02E4A926812F0807FDFD06C
:1054B0004AE72B4A926812F4800FD9D0002047E0C7
:1054C000284A0192DBE70A6812F0010FDCD06B6C0E
:1054D00043F020036B6401203AE0126812F0010FE0
:1054E000F5D1D8E7B1F1A04FD7D11D4A936843F465
:1054F000000393601C4B1B68A2F14E62A2F584224C
:10550000A2F27D42A2FB03239B0C03EB83035A0010
:10551000009202E0009B013B0093009B002BF9D11D
:10552000002015E0B1F1A04FB9D10D4A936843F0C6
:105530008073936000200BE0094A936843F4800372
:105540009360002004E06B6C43F020036B64012047
:10555000002385F8403017B030BD0220FBE700BFC4
:1055600000030050000100505400002070B596B0B8
:1055700004460D460368B3F1A04F04D041F617313D
:105580006748FEF71DFE2B68032B07D9052B05D0B6
:10559000062B03D0072B01D0092B6CD12B6853B3FA
:1055A0006B682BB1B3F5004F02D0B3F5404F68D113
:1055B000AB6803B3B3F5807F1DD0B3F5007F1AD07D
:1055C000B3F5407F17D0B3F5806F14D0B3F5A06F5B
:1055D00011D0B3F5C06F0ED0B3F5E06F0BD0B3F5BB
:1055E000006F08D0B3F5106F05D0B3F5206F02D06F
:1055F000B3F5306F4BD12368B3F1A04F4DD04FF0CE
:10560000A0420192019A002A00F0858094F840108F
:10561000012900F08280012184F840109B6813F07A
:10562000040F6ED1936813F0040F6AD12B68002B1E
:1056300042D03C48836823F460436968666B41EA62
:1056400046310B43836021688B6803F00303012B11
:1056500026D0936803F00303012B27D031498B68D0
:1056600023F4716323F00F032A68A86802431343ED
:105670008B6000204AE041F618312948FEF7A0FD72
:105680008CE741F61B312648FEF79AFD90E741F67C
:105690001C312348FEF794FDADE7234A0192B1E7A0
:1056A0000B6813F0010FD4D000202FE0136813F023
:1056B000010FD3D0002029E01A498B6823F46043FE
:1056C0008B6021688B6803F00303012B0DD0936876
:1056D00003F00303012B0ED0124A936823F4716385
:1056E00023F00F039360002010E00B6813F0010F0C
:1056F000EDD000200AE0136813F0010FECD0002079
:1057000004E0636C43F0200363640120002384F809
:10571000403016B070BD0120FBE70220F9E700BF62
:10572000CCED00080003005000010050002800F0FC
:105730002B8138B504460268944B9A4203D0B821B5
:105740009348FEF73DFDA369012B56D8E369012B71
:1057500058D8236A012B5AD8636A012B5CD8A36AF4
:10576000012B5ED8E36A012B60D8A36843B1B3F183
:10577000804F05D0B3F1004F02D0B3F1404F5AD162
:10578000E36843B1B3F1807F05D0B3F1007F02D06D
:10579000B3F1407F54D12369B3F5702F55D86369B5
:1057A000B3F5E00F56D86368013BB3F5806F56D26E
:1057B00094F83D30002B57D0022384F83D30226806
:1057C000136823F0020313602268136843F0010397
:1057D0001360FFF73BF9054623685A6812F0010F82
:1057E00048D1FFF733F9401B0A28F5D9032084F884
:1057F0003D00002384F83C3038BDB9216448FEF7F1
:10580000DFFCA3E7BA216248FEF7DAFCA1E7BB217F
:105810005F48FEF7D5FC9FE7BC215D48FEF7D0FC52
:105820009DE7BD215A48FEF7CBFC9BE7BE215848B7
:10583000FEF7C6FC99E7BF215548FEF7C1FC9FE77C
:10584000C0215348FEF7BCFCA5E7C1215048FEF734
:10585000B7FCA4E7C2214E48FEF7B2FCA3E7C32180
:105860004B48FEF7ADFCA3E784F83C302046FDF73B
:10587000F1FCA1E75A6812F0010F7AD0A269012A5F
:1058800050D01A6822F080021A60E369012B4ED0D2
:105890002268136823F040031360236A012B4CD065
:1058A0002268136823F020031360636A012B4AD037
:1058B0002268136823F010031360A36A012B48D0F9
:1058C0002268136823F008031360E36A012B46D0B3
:1058D0002268136823F004031360A368E26813438B
:1058E00022691343626913436268013A21681343D2
:1058F000CB612268136823F001031360FFF7A6F859
:10590000054623685A6812F0010F2ED0FFF79EF863
:10591000401B0A28F5D9032084F83D00002384F8B1
:105920003C3069E71A6842F080021A60ADE72268ED
:10593000136843F040031360AFE72268136843F035
:1059400020031360B1E72268136843F0100313606B
:10595000B3E72268136843F008031360B5E72268D1
:10596000136843F004031360B7E75B6813F0010F9B
:1059700004D0042384F83D3001203DE7002020645A
:10598000012384F83D3037E7012070470064004070
:1059900004EE000810B50446C31E042B0FD80A4AB3
:1059A000D36823F4E0631B041B0C240204F4E064BA
:1059B000234343F0BF6343F40033D36010BDBC21E5
:1059C0000248FEF7FDFBEAE700ED00E03CEE0008D0
:1059D00070B505460C4616460F2A25D80F2C28D838
:1059E0001B4BDB68C3F30223C3F10702042A28BF61
:1059F0000422191D062921D9033B4FF0FF3101FA7A
:105A000002F224EA02049C4001FA03F326EA0306A8
:105A10003443002D14DB2401E4B205F1604505F5A3
:105A2000614585F8004370BDD4210A48FEF7C8FBE4
:105A3000D4E7D5210748FEF7C3FBD1E70023DCE715
:105A400005F00F052401E4B2034B5C55EBE700BF02
:105A500000ED00E03CEE000814ED00E010B5041E7F
:105A600008DB04F01F02640901239340044A42F852
:105A7000243010BDE8210348FEF7A2FBF1E700BF88
:105A800000E100E03CEE000810B5041E09DB04F064
:105A90001F026409012393402034044A42F8243051
:105AA00010BDF8210248FEF78BFBF0E700E100E0B3
:105AB0003CEE00080138B0F1807F0AD2064B5860F6
:105AC000064AF02182F823100020986007221A600D
:105AD00070470120704700BF10E000E000ED00E0DB
