:020000040800F2
:100000000030002011650008616500086165000886
:100010006165000861650008616500080000000076
:100020000000000000000000000000006165000802
:10003000616500080000000061650008752E000879
:100040006165000861650008616500086165000878
:100050006165000861650008616500086165000868
:10006000616500086165000861650008812E00086F
:100070006165000861650008616500086165000848
:100080006165000861650008616500086165000838
:100090006165000861650008616500086165000828
:1000A0006165000861650008616500086165000818
:1000B00061650008616500080000000061650008D6
:1000C0006165000800000000000000006165000894
:1000D00000000000616500086165000861650008B6
:1000E0006165000861650008000000000000000074
:1000F0000000000000000000000000000000000000
:1001000000000000000000000000000000000000EF
:100110000000000000000000616500086165000843
:1001200000000000000000000000000000000000CF
:1001300000000000000000000000000000000000BF
:100140006165000861650008000000000000000013
:10015000000000000000000000000000000000009F
:10016000000000000000000000000000000000008F
:10017000000000000000000000000000000000007F
:080180000000000061650008A9
:1001880010B5054C237833B9044B13B10448AFF3C9
:1001980000800123237010BDAC0000200000000087
:1001A800CC77000808B5034B1BB103490348AFF3EC
:1001B800008008BD00000000B0000020CC770008D7
:1001C80081F0004102E000BF83F0004330B54FEA00
:1001D80041044FEA430594EA050F08BF90EA020F6D
:1001E8001FBF54EA000C55EA020C7FEA645C7FEA00
:1001F800655C00F0E2804FEA5454D4EB5555B8BF23
:100208006D420CDD2C4480EA020281EA030382EA93
:10021800000083EA010180EA020281EA0303362D25
:1002280088BF30BD11F0004F4FEA01314FF4801CF8
:100238004CEA113102D0404261EB410113F0004F0A
:100248004FEA03334CEA133302D0524263EB4303C1
:1002580094EA050F00F0A780A4F10104D5F1200E5F
:100268000DDB02FA0EFC22FA05F2801841F10001BA
:1002780003FA0EF2801843FA05F359410EE0A5F18E
:1002880020050EF1200E012A03FA0EFC28BF4CF0BF
:10029800020C43FA05F3C01851EBE37101F0004575
:1002A80007D54FF0000EDCF1000C7EEB00006EEB82
:1002B8000101B1F5801F1BD3B1F5001F0CD349080C
:1002C8005FEA30004FEA3C0C04F101044FEA445263
:1002D80012F5800F80F09A80BCF1004F08BF5FEAEA
:1002E800500C50F1000041EB045141EA050130BDCA
:1002F8005FEA4C0C404141EB010111F4801FA4F16D
:100308000104E9D191F0000F04BF01460020B1FAC1
:1003180081F308BF2033A3F10B03B3F120020CDAF9
:100328000C3208DD02F1140CC2F10C0201FA0CF0D7
:1003380021FA02F10CE002F11402D8BFC2F1200C3C
:1003480001FA02F120FA0CFCDCBF41EA0C019040F2
:10035800E41AA2BF01EB0451294330BD6FEA04043B
:100368001F3C1CDA0C340EDC04F11404C4F1200226
:1003780020FA04F001FA02F340EA030021FA04F338
:1003880045EA030130BDC4F10C04C4F1200220FA8F
:1003980002F001FA04F340EA0300294630BD21FACD
:1003A80004F0294630BD94F0000F83F4801306BF93
:1003B80081F480110134013D4EE77FEA645C18BF87
:1003C8007FEA655C29D094EA050F08BF90EA020F1E
:1003D80005D054EA000C04BF1946104630BD91EA16
:1003E800030F1EBF0021002030BD5FEA545C05D119
:1003F8004000494128BF41F0004130BD14F5800458
:100408003CBF01F5801130BD01F0004545F0FE41CB
:1004180041F470014FF0000030BD7FEA645C1ABF00
:10042800194610467FEA655C1CBF0B46024650EA37
:10043800013406BF52EA033591EA030F41F4002163
:1004480030BD00BF90F0000F04BF0021704730B5E9
:100458004FF4806404F132044FF000054FF00001BE
:1004680050E700BF90F0000F04BF0021704730B57F
:100478004FF4806404F1320410F0004548BF404254
:100488004FF000013EE700BF42004FEAE2014FEAA9
:1004980031014FEA02701FBF12F07F4393F07F4F84
:1004A80081F06051704732F07F4208BF704793F087
:1004B8007F4F04BF41F40021704730B54FF460749A
:1004C80001F0004521F000411CE700BF50EA01029D
:1004D80008BF704730B54FF000050AE050EA010246
:1004E80008BF704730B511F0004502D5404261EBB6
:1004F80041014FF4806404F132045FEA915C3FF4F7
:10050800D8AE4FF003025FEADC0C18BF03325FEA93
:10051800DC0C18BF033202EBDC02C2F1200300FA44
:1005280003FC20FA02F001FA03FE40EA0E0021FA69
:1005380002F11444BDE600BF70B54FF0FF0C4CF457
:10054800E06C1CEA11541DBF1CEA135594EA0C0F09
:1005580095EA0C0F00F0DEF82C4481EA030621EA44
:100568004C5123EA4C5350EA013518BF52EA03357F
:1005780041F4801143F4801338D0A0FB02CE4FF031
:100588000005E1FB02E506F00042E0FB03E54FF061
:100598000006E1FB03569CF0000F18BF4EF0010E59
:1005A800A4F1FF04B6F5007F64F5407404D25FEA55
:1005B8004E0E6D4146EB060642EAC62141EA555108
:1005C8004FEAC52040EA5E504FEACE2EB4F1FD0C4A
:1005D80088BFBCF5E06F1ED8BEF1004F08BF5FEAC8
:1005E800500E50F1000041EB045170BD06F000467A
:1005F80046EA010140EA020081EA0301B4EB5C0427
:10060800C2BFD4EB0C0541EA045170BD41F480111E
:100618004FF0000E013C00F3AB8014F1360FDEBF43
:10062800002001F0004170BDC4F10004203C35DA1F
:100638000C341BDC04F11404C4F1200500FA05F3A2
:1006480020FA04F001FA05F240EA020001F0004243
:1006580021F0004110EBD37021FA04F642EB0601B9
:100668005EEA430E08BF20EAD37070BDC4F10C04E3
:10067800C4F1200500FA04F320FA05F001FA04F2A7
:1006880040EA020001F0004110EBD37041F1000193
:100698005EEA430E08BF20EAD37070BDC4F120059E
:1006A80000FA05F24EEA020E20FA04F301FA05F206
:1006B80043EA020321FA04F001F0004121FA04F2AE
:1006C80020EA020000EBD3705EEA430E08BF20EA7E
:1006D800D37070BD94F0000F0FD101F000464000B8
:1006E80041EB010111F4801F08BF013CF7D041EA3A
:1006F800060195F0000F18BF704703F0004652003E
:1007080043EB030313F4801F08BF013DF7D043EA0E
:100718000603704794EA0C0F0CEA135518BF95EAC4
:100728000C0F0CD050EA410618BF52EA4306D1D14B
:1007380081EA030101F000414FF0000070BD50EA6A
:10074800410606BF1046194652EA430619D094EAF4
:100758000C0F02D150EA013613D195EA0C0F05D1DE
:1007680052EA03361CBF104619460AD181EA030132
:1007780001F0004141F0FE4141F470014FF00000EA
:1007880070BD41F0FE4141F4780170BD70B54FF085
:10079800FF0C4CF4E06C1CEA11541DBF1CEA135505
:1007A80094EA0C0F95EA0C0F00F0A7F8A4EB0504E7
:1007B80081EA030E52EA03354FEA013100F08880DE
:1007C8004FEA03334FF0805545EA131343EA1263A7
:1007D8004FEA022245EA111545EA10654FEA00265C
:1007E8000EF000419D4208BF964244F1FD0404F515
:1007F800407402D25B084FEA3202B61A65EB030571
:100808005B084FEA32024FF480104FF4002CB6EB2D
:10081800020E75EB030E22BFB61A754640EA0C00AD
:100828005B084FEA3202B6EB020E75EB030E22BFED
:10083800B61A754640EA5C005B084FEA3202B6EB2E
:10084800020E75EB030E22BFB61A754640EA9C00ED
:100858005B084FEA3202B6EB020E75EB030E22BFBD
:10086800B61A754640EADC0055EA060E18D04FEA7B
:10087800051545EA16754FEA06164FEAC30343EA1B
:1008880052734FEAC2025FEA1C1CC0D111F4801FE8
:100898000BD141EA00014FF000004FF0004CB6E7E1
:1008A80011F4801F04BF01430020B4F1FD0C88BF80
:1008B800BCF5E06F3FF6AFAEB5EB030C04BFB6EB8B
:1008C800020C5FEA500C50F1000041EB045170BD7E
:1008D8000EF0004E4EEA113114EB5C04C2BFD4EBAB
:1008E8000C0541EA045170BD41F480114FF0000E2F
:1008F800013C90E645EA060E8DE60CEA135594EAAB
:100908000C0F08BF95EA0C0F3FF43BAF94EA0C0FAD
:100918000AD150EA01347FF434AF95EA0C0F7FF422
:1009280025AF104619462CE795EA0C0F06D152EA76
:1009380003353FF4FDAE1046194622E750EA41065A
:1009480018BF52EA43067FF4C5AE50EA41047FF46B
:100958000DAF52EA43057FF4EBAE12E74FF0FF3CD0
:1009680006E000BF4FF0010C02E000BF4FF0010CA1
:100978004DF804CD4FEA410C7FEA6C5C4FEA430C1A
:1009880018BF7FEA6C5C1BD001B050EA410C0CBF69
:1009980052EA430C91EA030F02BF90EA020F0020CB
:1009A800704710F1000F91EA030F58BF994208BF32
:1009B80090422CBFD8176FEAE37040F001007047EF
:1009C8004FEA410C7FEA6C5C02D150EA013C07D146
:1009D8004FEA430C7FEA6C5CD6D152EA033CD3D091
:1009E8005DF8040B704700BF8446104662468C468B
:1009F8001946634600E000BF01B5FFF7B7FF0028BE
:100A080048BF10F1000F01BD4DF808EDFFF7F4FFE6
:100A18000CBF012000205DF808FB00BF4DF808ED71
:100A2800FFF7EAFF34BF012000205DF808FB00BF94
:100A38004DF808EDFFF7E0FF94BF012000205DF8B6
:100A480008FB00BF4DF808EDFFF7CEFF94BF01206B
:100A580000205DF808FB00BF4DF808EDFFF7C4FF64
:100A680034BF012000205DF808FB00BF4FEA410CAD
:100A78007FEA6C5C02D150EA013C0AD14FEA430C90
:100A88007FEA6C5C02D152EA033C02D14FF00000CD
:100A980070474FF0010070474FEA410212F500120B
:100AA80015D211D56FF47873B3EB625212D94FEAAD
:100AB800C12343F0004343EA505311F0004F23FA97
:100AC80002F018BF404270474FF00000704750EAEC
:100AD800013005D111F0004008BF6FF000407047A9
:100AE8004FF00000704700BF4A0011D212F5001203
:100AF80011D20DD56FF47873B3EB62520ED44FEA6E
:100B0800C12343F0004343EA505323FA02F07047ED
:100B18004FF00000704750EA013002D14FF0FF302B
:100B280070474FF00000704710B50446054B186831
:100B3800013803F0D1F9044B1C60034B1B68002BF0
:100B4800FBD110BDD8040020DC040020002302E003
:100B58000133DBB20846411C0278002AF8D1184656
:100B6800704700002DE9F04F87B004460F4616463F
:100B78009B469DF84050BDF844A0454901F0AAF8AD
:100B88000021204601F0A1F900955B46002211469C
:100B9800204600F081FA0121204601F096F9BDF8BF
:100BA8004C00FFF74FFC80468946CDE90289504644
:100BB800FFF758FC42464B46FFF7E8FD804689465A
:100BC8005846FFF74FFC02460B46CDE90423404642
:100BD8004946FFF7B1FCFFF787FFC3B20133721C28
:100BE800A91EC9B20091DBB2D2B23946204600F044
:100BF80053FA0221204601F068F94FF0020822E07A
:100C08004FF47A7000FB08F0FFF72CFCDDE90223B3
:100C1800FFF7BCFD02460B46DDE90401FFF78CFC3B
:100C2800FFF762FFC1B20131C9B2AB19DBB2013BB8
:100C3800DBB200930B460022204601F07DF908F153
:100C480001085FFA88F8B8F1080FD9D902212046BF
:100C580001F03BF90121204600F095FF3544EDB243
:100C68000421504601F000FD023D791C0346EAB21A
:100C7800C9B2204600F0F0FF0021204600F083FFB3
:100C88000121204601F021F907B0BDE8F08F00BF2F
:100C98003C8B00082DE9F04383B006460F46154605
:100CA8001C469DF82880012101F00FF922493046A1
:100CB80001F010F89DF82C30012B28D00223019365
:100CC800CDF8008023462A463946304600F084FA9B
:100CD8000C98FFF73BFFA4EB8001C1F347010131FA
:100CE80005EB0802D2B2023A57FA81F10C9BD2B254
:100CF800C9B2304600F0B0FF0021304600F043FF93
:100D08000121304601F0E1F803B0BDE8F0834FF06F
:100D18000209CDF80490CDF8008023462A463946CA
:100D2800304600F0DEF94946304601F0CEF80121A0
:100D3800304600F028FFCBE750940008F8B5064687
:100D48000F4614461D46114900F0C4FF9DF818309F
:100D58001C44E4B2023CE4B2079B224639463046C2
:100D680000F07AFF0A49304600F0B4FF0898FFF710
:100D7800EDFEA5EB8001C9B2013957FA81F1089B54
:100D88002246C9B2304600F067FFF8BD4484000827
:100D9800F4770008000000002DE9F04F87B00490B8
:100DA8008B4691461D469DF840A0BDF944300593F9
:100DB8009DF848609DF84C709DF85080F41BE4B293
:100DC800794900F087FF1598FFF7C0FEB8F1000FCA
:100DD8000CBF3346731CC3EBC30303EB8003DBB2C6
:100DE800002F33D003200344DBB2ED1AEDB2023DED
:100DF800EDB20021049801F068F8013CE4B23CB37C
:100E08000598FFF72FFBCDE90201E019FFF72AFB50
:100E180041EC110B9FED620B05F0CEFB53EC102B50
:100E2800DDE90201FFF70EFE90B905EB0B01CDF8E5
:100E380000A007234A46C9B2049800F02DF90735E7
:100E4800EDB2013EF6B2013CE4B2D8E73846CAE753
:100E58000121049801F039F8B8F1000F56D1002F9C
:100E680000F08A803846FFF7EDFA41EC110B9FED50
:100E78004C0B05F0A1FB51EC100BFFF735FE1FFAE8
:100E880080F8059B93FBF8F305EB0B04E4B2CA4426
:100E98005FFA8AFAAAF1020A5FFA8AFA1FFA83F954
:100EA800F61BF6B23146484601F0DEFB03465246D1
:100EB8002146049C204600F0CFFEC6EBC60655FA34
:100EC80086F5EDB20BEB0501C9B20239374B524634
:100ED800C9B2204600F0C0FE033519FB08F89DF89A
:100EE80014005FFA88F8A0EB08005BFA85FB5FFA4C
:100EF8008BFB3946C0B201F0B7FB03465246594650
:100F0800204600F0A9FE07B0BDE8F08F0021DDF80B
:100F18001080404600F0D9FF05EB0B04E4B2CDF891
:100F280000A007234A462146404600F0B5F80121B3
:100F3800404600F0CAFF059B002B0CDB09EB0A02B8
:100F4800D2B2023A1A4BD2B22146049800F084FE7B
:100F58000735EDB283E709EB0A02D2B2023A154B24
:100F6800D2B22146049800F077FE059B5B421BB283
:100F780005930735EDB272E75D44EDB2CA445FFAF6
:100F88008AFA3146BDF8140001F06EFBAAF1020A94
:100F980003465FFA8AF22946049800F05DFEB2E73C
:100FA80000000000000024403C8B0008F077000897
:100FB800EC770008E87700082DE9F04F83B0074682
:100FC8000E4691461D46DDF8308090F87DB0CB186E
:100FD800541CE4B20094DBB200F095FF78B3BBFA7E
:100FE8008BFA4FEA5A1A012414E087F87DB00023DF
:100FF800009301234A463146384600F009FF01367E
:10100800F6B2640014F0FF0402D108F101080124CB
:10101800013DEDB28DB198F800302342E5D197F843
:101028007C30002BEBD187F87DA0009301234A4642
:101038003146384600F0ECFEE1E787F87DB003B0B2
:10104800BDE8F08F2DE9F04782B082468946154603
:101058001F469DF828400B9E03F10708C8F3C408F3
:1010680003EB010C1319DBB200935FFA8CF300F069
:101078004AFF60B90DE000963B462A46494650466D
:10108800FFF79AFF46440135EDB2013CE4B2002C6B
:10109800F1D102B0BDE8F0872DE9F04182B0804679
:1010A8000F4615461E469DF8204001EB030C131908
:1010B800DBB200935FFA8CF300F025FF60B90DE016
:1010C8000023009333462A463946404600F0A0FEE6
:1010D8000135EDB2013CE4B2002CF1D102B0BDE81B
:1010E800F0812DE9F04F87B00390894693469A46E0
:1010F8009DF840609DF84470CC18E4B29519EDB2A3
:101108000095234600F0FFFE10B907B0BDE8F08F48
:1011180009EB07085FFA88F80BEB0703DAB2E41B60
:10112800E4B2013CE4B2ED1BEDB2013DEDB20223A5
:1011380000933B4604924146039800F0A8FA012325
:1011480000933B46049A2146039800F0A0FA042332
:1011580000933B4605952A464146039D284600F0E4
:1011680096FA082300933B46059A2146284600F044
:101178008EFAAAEB0703DBB2DB1BDBB208F101082E
:101188005FFA88F8049A541CE4B2022B0FD8F61BB5
:10119800F6B2F71BFFB2022FB7D9023FFFB2009792
:1011A8005346224649460398FFF776FFADE7023BD0
:1011B800DBB27D1CEDB2009504935A464146DDF83A
:1011C8000CB05846FFF768FF0095049B059A414606
:1011D8005846FFF761FFDAE72DE9F04F85B0029036
:1011E8008A46934698469DF838909DF83C60CD18FD
:1011F800EDB202EB0904E4B200942B4600F083FE42
:1012080010B905B0BDE8F08F0AEB0607FFB20BEB8B
:101218000603DAB2AD1BEDB2013DEDB2A41BE4B298
:10122800013CE4B202230093334603923946029804
:1012380000F009FA012300933346039A29460298DD
:1012480000F001FA042300933346224639460298F7
:1012580000F0F9F9082300933346224629460298FC
:1012680000F0F1F9A8EB0605EDB2AD1BEDB2A9EB64
:101278000603DBB29E1BF6B20137FFB2039A541C79
:10128800E4B2022D17D8022EBBD9023EF6B208F1FD
:10129800FF385FFA88F8334622465146029D2846B1
:1012A80000F0DDFD0AEB080133462246C9B22846A4
:1012B80000F0D5FDA5E7023DEDB209F1FF395FFA6F
:1012C80089F92B465A463946029800F0ADFD0BEBDA
:1012D80009022B46D2B23946029800F0A5FDD2E7A2
:1012E80010B582B003681B7C446B03FB01F1C90095
:1012F80089B221440091002101F0E7F802B010BD45
:101308002DE9F041064690F8387090F83950036896
:1013180093F8118000242A4621463046FFF7E0FF63
:101328000134E4B20135EDB2A74201D9A845F2D89B
:10133800BDE8F08108B503681A7C90F8383002FBE4
:1013480003F2D2000021406B05F02CF908BD10B55E
:101358000446FFF7D5FF204601F0E5F810BD08B5B3
:1013680080F83910036B1B68984708BD10B5044610
:1013780090F87E3023B900212046FFF7F0FF10BD1A
:10138800FFF7D8FFF7E738B50546FFF7B9FF95F837
:10139800393095F838401C44E4B22B685B7CA34292
:1013A80008D995F87E3053B921462846FFF7D7FF6C
:1013B800012038BD284601F0B6F80020F9E7284694
:1013C800FFF7B8FFF0E72DE9F84307460E469046C9
:1013D8001D469DF820909DF8244014F0010F0AD175
:1013E80014F0020F18D114F0080F27D114F0040FCD
:1013F80036D1BDE8F883A9EB02025918D2B2C9B2B6
:1014080000F048FDA9EB060205EB0801D2B2C9B20B
:10141800384600F03FFDE3E7A9EB0802A91BD2B26A
:10142800C9B2384600F036FDA9EB0602A5EB080163
:10143800D2B2C9B2384600F02DFDD4E709EB080254
:10144800A919D2B2C9B2384600F024FD06EB090248
:1014580005EB0801D2B2C9B2384600F01BFDC5E75A
:1014680009EB0802A91BD2B2C9B2384600F012FD36
:1014780006EB0902A5EB0801D2B2C9B2384600F062
:1014880009FDB6E72DE9F04F85B0039089469246ED
:101498001F469DF838B0C3F101084FFA88F8C3EB2E
:1014A800C3135D006DB2CDF804B000920B463A4606
:1014B8000021FFF788FF0026012411E00136F6B26B
:1014C8000234E3B25CB298444FFA88F8CDF804B01D
:1014D800CDF800A04B463A4631460398FFF773FF14
:1014E800BE420BD2B8F1000FE8DB013FFFB2023574
:1014F800EBB25DB298444FFA88F8DFE705B0BDE873
:10150800F08F2DE9F84380460C4617461E469DF895
:1015180020909DF8245015F0010F0AD115F0020F04
:101528001BD115F0080F2DD115F0040F3BD1BDE8E4
:10153800F883531CA9EB02027118DBB2D2B2C9B20C
:1015480000F08DFC631CA9EB0402F119DBB2D2B2E6
:10155800C9B2404600F083FCE0E77B1CA9EB070218
:10156800311BDBB2D2B2C9B2404600F078FC631C32
:10157800A9EB0402F11BDBB2D2B2C9B2404600F0BB
:101588006EFCCEE77B1C3119DBB24A46C9B2404635
:1015980000F065FC631CF119DBB24A46C9B240464B
:1015A80000F05DFCC0E77B1C311BDBB24A46C9B2C8
:1015B800404600F054FC631CF11BDBB24A46C9B23A
:1015C800404600F04CFCB2E72DE9F04F85B003909F
:1015D800894692461F469DF838B0C3F101084FFA74
:1015E80088F8C3EBC3135D006DB2CDF804B0009268
:1015F8000B463A460021FFF784FF0026012411E03C
:101608000136F6B20234E3B25CB298444FFA88F875
:10161800CDF804B0CDF800A04B463A4631460398C1
:10162800FFF76FFFBE420BD2B8F1000FE8DB013FB6
:10163800FFB20235EBB25DB298444FFA88F8DFE7A3
:1016480005B0BDE8F08F2DE9F04182B080460E4626
:1016580017461D46CB18DBB2AC18E4B20133521B57
:10166800491B0134E4B20094DBB2D2B2C9B200F033
:101678004AFC10B902B0BDE8F0819DF82030009313
:101688002B463A4631464046FFF7FCFEF2E72DE985
:10169800F04182B080460E4617461D46CB18DBB295
:1016A800AC18E4B20133521B491B0134E4B2009474
:1016B800DBB2D2B2C9B200F026FC10B902B0BDE864
:1016C800F0819DF8203000932B463A46314640463B
:1016D800FFF77AFFF2E710B50446FFF747FE20460A
:1016E800FFF751FE0028FAD100212046FFF737FE08
:1016F80010BD00000823037000487047C800002090
:1017080030B585B004460D4600931346084A09498A
:1017180000F07CFF0DF10F00FFF7ECFF9DF80F20A4
:101728000095054B0146204600F0FFFC05B030BD92
:10173800F1220008F52300080D200008405C7047DE
:101748004218435C507800EB032080B27047012BAD
:1017580008D023B1022B08D0401AC0B270471044F9
:10176800C0B270470844C0B27047801AC0B2704710
:10177800012B08D023B1022B08D01044C0B2704707
:101788000844C0B27047801AC0B27047401AC0B24D
:1017980070470020704738B504460D46002128469A
:1017A800FFF7CCFF207001212846FFF7C7FF6070C4
:1017B80002212846FFF7C2FFA07003212846FFF741
:1017C800BDFFE07004212846FFF7B8FF207105210E
:1017D8002846FFF7B3FF607106212846FFF7AEFFE2
:1017E800A07107212846FFF7A9FFE07108212846C4
:1017F800FFF7A4FF207209212846FFF79FFF6072B8
:101808000A212846FFF79AFFA0720B212846FFF706
:1018180095FFE0720C212846FFF790FF20730D21F9
:101828002846FFF78BFF60730E212846FFF786FFD7
:10183800A0730F212846FFF781FFE0731021284687
:10184800FFF77CFF207411212846FFF779FF60829B
:1018580013212846FFF774FFA08215212846FFF7B9
:101868006FFFE08238BD70B4847A0668327842FA35
:1018780004F5EAB26318DBB2072B0AD9C4F10804ED
:10188800E4B2721C02607278A2402A43D2B2083BCA
:10189800DBB24FF0FF3404FA01F1837222EA01004F
:1018A80070BC704738B5044600F150050165002347
:1018B80080F85A3090F864102846FFF7D4FF84F86F
:1018C800580094F865102846FFF7CDFF84F85900B2
:1018D80094F87D3084F85C30B3FA83F35B0984F8BC
:1018E8005D3038BD10B50C46FFF7BDFF013CE4B2D2
:1018F8000123A340C01A40B210BD2DE9F04F87B0B4
:1019080006460C46059290F956305FFA83FA90F92C
:1019180057805FFA88F816E003941DE096F85C306B
:1019280086F87D300097039B02460499304600F004
:101938006FFAAC4239D3641BE4B208F101085FFACC
:1019480088F84FF0000A96F95850EDB2A5EB0A0551
:10195800EDB2AC42E0D3039596F855904FFA8AF170
:101968004FFA88FB96F85E703B465A46029196F805
:101978005400FFF7FDFE04903B465A46029948463C
:10198800FFF7E5FE059B002BC8D196F85B30002BCE
:10199800CFD196F85D3086F87D300097039B0246DC
:1019A8000499304600F034FAC3E7544486F85640A8
:1019B80086F857B007B0BDE8F08F2DE9F04F85B035
:1019C800044600F15005FFF76DFF94F9598094F82B
:1019D80066102846FFF786FF834694F86710284666
:1019E800FFF780FF064694F868102846FFF77AFF4D
:1019F800029094F95870002F58DD5FFA88F94E4428
:101A0800F6B2764276B294F85EA053463246CDF8E6
:101A18000CB0594694F85400FFF7AAFE834684F8A0
:101A2800540053463246039994F85500FFF78FFE49
:101A3800024684F85500BAF1030F65D8DFE80AF0CA
:101A4800023A47595BFA87F3DBB24844C0B20090C8
:101A58005946204600F057FA40B3002384F8563020
:101A680084F8573094F862102846FFF7FCFE0746C2
:101A780094F863102846FFF7F6FE0646002239461A
:101A88002046FFF73AFF012231462046FFF735FF8F
:101A980001212846FFF7E7FE0028EFD194F95730D7
:101AA8004345DFDB94F85C3084F87D30029805B05C
:101AB800BDE8F08FABEB0901C9B201310BF10103AD
:101AC800DBB250FA87F0C0B25FFA81FBBFE7F9B228
:101AD800ABEB0101C9B201310BF10103DBB2A0EBA1
:101AE8000906F6B201360132D0B2F2B25FFA81FBD2
:101AF800ADE709EB0B03DBB2F9B2411AC9B2013108
:101B08000132D0B2CAB2A2E75B46A0E7836C1733B2
:101B1800FF2913D8602909D9B0F8742013445A78DA
:101B2800DAB11878884207D01344F8E74029F6D983
:101B3800B0F872201344F2E7981C7047B0F87600AA
:101B480018440278437853EA022308D0994202D015
:101B580083781844F5E70330704700207047002069
:101B6800704710B5044680F8541080F8552019467F
:101B7800FFF7CCFF28B101462046FFF71EFFC0B291
:101B880010BD0020FCE780F85B107047F8B50446EC
:101B98000D4616461F4690F85E30032B07D8DFE83F
:101BA80003F0020D1217C36C98470644F6B23B4681
:101BB800324629462046FFF7D4FFF8BDC36C984744
:101BC8002D1AEDB2F3E7C36C9847361AF6B2EEE772
:101BD800C36C98470544EDB2E9E700002DE9F041F0
:101BE80004460F4616461D4600F0C7FA4FF0000897
:101BF80004E00744FFB280445FFA88F863682978F4
:101C0800204698474FF6FF73984222D001354FF689
:101C1800FE739842F2D00346324639462046FFF713
:101C2800B5FF94F85E30032BE5D801A252F823F0F3
:101C3800FB1B0008491C00084F1C0008551C000825
:101C48000644F6B2D7E73F1AFFB2D4E7361AF6B21F
:101C5800D1E74046BDE8F08110B5024C4460FFF77B
:101C6800BDFF10BD6D210008836C63B390F96D2032
:101C780080F8792090F96E3080F87A3090F87810F2
:101C880009B3012912D030B490F96A4090F96C1068
:101C98006518AA4204DACAB252FA84F480F8794084
:101CA8008B4201DD80F87A1030BC704790F96F10D4
:101CB8008A4201DA80F8791090F97020934202DDA7
:101CC80080F87A2070477047014BC364704700BFA3
:101CD8009B170008836C8B4209D010B504468164B9
:101CE8006030FFF758FD2046FFF7BEFF10BD704774
:101CF80010B403780C78A34204D993420AD2541E34
:101D0800E4B20C70934208D25CB194420BD90A70C9
:101D1800012003E000230370F4E700205DF8044B82
:101D280070470020FAE70120F8E770B586B004464E
:101D38009DF828508DF80F108DF80E2090F83B2054
:101D480090F83A000DBB9DF80E10914201D306B0F1
:101D580070BD9DF80F20134406A901F8013D024605
:101D68000DF10F00FFF7C4FF0028F0D09DF81730E1
:101D78009DF80F209B1ADBB2E66A9DF80E209DF8AD
:101D88000F1000952046B047E1E79DF80F108142FB
:101D9800DDD29DF80E100B4406A901F8013D0DF1A6
:101DA8000E00FFF7A5FF0028D1D09DF817309DF849
:101DB8000E209B1ADBB2DFE730B583B09DF81850D0
:101DC80090F83940A2EBC402D2B2012B0AD0022DFE
:101DD80014D0032D17D005F001050095FFF7A5FFD6
:101DE80003B030BD90F83A408C42F9D990F83B40A6
:101DF8009442F5D9C46A0095A047F1E7C91AC9B257
:101E08000131C9B2E7E7D21AD2B20132D2B2E2E75F
:101E18004BB130B583B0046B64689DF818500095D9
:101E2800A04703B030BD70472DE9F04182B080462D
:101E38000D4616461F46CB18541CE4B20094DBB27C
:101E480000F061F810B902B0BDE8F08100230093FA
:101E58003B46324629464046FFF7DAFFF3E72DE9CD
:101E6800F04182B080460D4616461F464B1CD419D9
:101E7800E4B20094DBB200F046F810B902B0BDE855
:101E8800F081012300933B46324629464046FFF73E
:101E9800BFFFF3E790F8433093420BD890F84430F3
:101EA800934207D990F841308B4203D890F84230DA
:101EB8008B4200D8704700B583B0002300930123FC
:101EC800FFF7A6FF03B05DF804FB80F87D10022938
:101ED80002D9012380F87D3070478A4205D28342B7
:101EE8000BD89A420BD901207047834209D99A42EC
:101EF80001D800207047012070470120704700205A
:101F080070470020704770B504460D461E469DF880
:101F1800103090F8441090F84300FFF7DEFF0346B6
:101F280040B133462A4694F8421094F84100FFF72E
:101F3800D4FF0346184670BD2DE9F04F83B00190D9
:101F480017461E469DF83040994229D9A1EB03084F
:101F58005FFA88F8A74228D9A7EB04095FFA89F93C
:101F6800C84527D34B46C1469846234634461E46A5
:101F78003B460F4619464FF0000AA74205D833469C
:101F88000E46194623463C461F4649F347058E42EE
:101F980013D24FF0010BFF2F1FD1013FFFB21CE0FE
:101FA800A3EB01085FFA88F8D4E7A4EB07095FFA06
:101FB80089F9D5E74FF0010ADFE74FF0FF3BEAE781
:101FC800224631460198FFF765FFA5EB0805EBB2FD
:101FD8005DB2002D0CDB0134E4B2A7420FD3BAF195
:101FE800000FEDD1324621460198FFF753FFECE789
:101FF80056FA8BF6F6B203EB09056DB2EBE703B0C0
:10200800BDE8F08FF0B59DF814C002F00705012473
:10201800AC40E4B290F87D70012F19D90026012F49
:1020280018D002F0F802076897F810E0476B0EFB2B
:1020380002113944BCF1000F16D10A783243D2B2EA
:10204800624001F8012B013B13F0FF03F5D1F0BD0D
:102058002646E4E70024E4E7012617E07600F6B216
:102068006400E4B2002BF2D00A783243D2B2624064
:102078000A706A1C013BDBB212F00705EED190F83A
:102088003A20114490F87D20012AE5D9012AE9D0A7
:102098000124E7E770B490F83830DA0080F83B2084
:1020A80001680A7C1F2A00D91F22D20080F83A2032
:1020B80090F83950EA00D2B280F83C205E194C7C86
:1020C800A64201DD631BDBB2DB00DBB280F83D20FA
:1020D800134480F83E30F02380F83F308B8AF02B91
:1020E80001D880F83F30CB8A80F8403070BC704708
:1020F80010B50446FFF7CEFF002384F8413094F86A
:102108003A3084F8423094F83D3084F8433094F8FB
:102118003E3084F8443010BD10B582B09DF81040B0
:102128000094FFF749FE02B010BD70B50446049E46
:1021380000258564C362416380F8382080F83950EF
:1021480080F85B5080F87C50012380F87D3080F85F
:102158007E300663336898472046FFF7B5FD84F85C
:102168005E5070BD19B10A2904D088B270474FF685
:10217800FF7070474FF6FF707047002380F82330D8
:10218800704710B5046900230A462021A04710BDF6
:1021980010B5046913460A461721A04710BD00B5BB
:1021A80083B002AA02F8011D0121FFF7F1FF03B075
:1021B8005DF804FB30B583B014461D46173909296C
:1021C80034D8DFE801F011161D33333333333324A9
:1021D80015F8013B02A901F8013D013CE4B2642372
:1021E8000122134803F0F6F9002CF1D1012003B0C5
:1021F80030BD002201210F4802F066F90120F6E700
:10220800012211460B4802F05FF90120EFE732B9CD
:1022180000220221074802F057F90120E7E70122CE
:102228000221044802F050F90120E0E70020DEE72F
:10223800FC0500200004004810B5C46800230A46C5
:102248001521A04710BD10B5C46800230A46162101
:10225800A04710BD10B5C46813460A461721A04709
:1022680010BD10B5C46800231A461821A04710BD38
:1022780010B5C46800231A461921A04710BD70B5CF
:1022880082B006460D462C4614F8011B172918D0B3
:102298000CD919291FD9FE2924D122788DF80720B5
:1022A8002921304600F046F90235ECE7152919D303
:1022B80022788DF80720F46800233046A0470235BD
:1022C800E1E76B7802AA02F8013D01213046FFF7E9
:1022D800C1FF0235D7E7F56800231A463046A847FC
:1022E8002546D0E702B070BD2DE9F04104460D4601
:1022F80016469846A1F11403052B21D8DFE803F010
:1023080018030C1518180021FFF73BFF314620462B
:10231800FFF745FF012011E00021FFF732FF3146AA
:102328002046FFF73CFF012008E00121FFF729FFC5
:1023380027694346324629462046B847BDE8F0811A
:102348000020FBE7F8B5054614460E293BD01E468B
:102358000F2903D00B292BD0002028E0FFF781FF9D
:102368007779FF00FBB2AF7F1F44FFB2390941F014
:1023780010012846FFF760FF07F00F012846FFF716
:1023880062FFB17941F0B0012846FFF75CFF31796F
:10239800C900326801F0F8012846FFF75BFF621EAA
:1023A80012F0FF04F3D12846FFF762FF0120F8BDC1
:1023B80022B90C49FFF763FF0120F8E70A49FFF744
:1023C8005EFF0120F3E7FFF74CFF81212846FFF766
:1023D80033FF21462846FFF736FF2846FFF748FF18
:1023E8000120E4E75C9700086497000870B505468B
:1023F8000C461646FFF7A6FF40BB03460A2C1CD026
:102408000D2C07D0092C22D11249284600F02AF8B1
:1024180001231CE046B910492846FFF730FF2B6816
:102428009B7CAB77012312E00C492846FFF727FF76
:102438002B68DB7CAB77012309E0284600F016F80F
:1024480007492846FFF71BFF012300E00123184630
:1024580070BD00BF6C9700082097000828970008F7
:102468003097000801608B7C8377704738B5044645
:10247800456900231A462821A847E56800231A461B
:1024880014212046A84701224B21204600F052F88B
:1024980023681A792921204600F04CF800224B21A4
:1024A800204600F047F823681A792921204600F0D1
:1024B80041F801224B21204600F03CF823685A7964
:1024C8002921204600F036F838BD10B582B08DF8C5
:1024D80005108DF806208DF8043002AB049A43F8F5
:1024E800082D846801220F21A04702B010BD10B545
:1024F800846800231A460921A04710BD10B58468D6
:1025080000231A460A21A04710BD10B5846800238D
:102518000A460B21A04710BD10B5846800230A465F
:102528000E21A04710BD10B5846800231A4610215B
:10253800A04710BD10B544690023A04710BD000096
:1025480008B528392B2945D8DFE801F0191B1619D9
:102558001919444444444444444444444444444489
:10256800444444442025191919191919192A2F19ED
:102578001919191934383C400120FEF7D5FA012001
:1025880008BD4FF47A7000F0C3FDF8E71021134836
:1025980001F09AFFF3E72021104801F095FFEEE7DC
:1025A80001210E4801F090FFE9E702210B4801F0F4
:1025B8008BFFE4E7002380F82430E0E7002380F86D
:1025C8002430DCE7002380F82430D8E7002380F8A3
:1025D8002430D4E7012380F82430D0E700040048F1
:1025E8000020704700230360074A8260C2600261CE
:1025F8004261C37780F8223080F82330FF2380F8C7
:10260800203080F825307047E9250008F8B50446E1
:102618000F4616461D46FFF7E5FFA760E6602561F1
:10262800069B63612046FFF762FFF8BD10B442F2D3
:10263800107200240CE0891A89B20133DBB291428E
:10264800F9D20355074BA3FB0232D2080134E4B296
:10265800042C01D83023F2E7002343715DF8044BC2
:10266800704700BFCDCCCCCC10B5C1F10501CCB2C0
:1026780001460248FFF7DAFF204410BDC8040020D5
:1026880000B58BB020484FF0A04303604FF44033AF
:10269800436010238360002303610122C261436207
:1026A8000363C262C36002624263042242618361BF
:1026B800836300F0F5FDB8B90AA9002341F80C3D81
:1026C800114801F0AFFAA0B9012301930293002346
:1026D800049303930593069301A90B4801F074F83A
:1026E80060B90BB05DF804FB4D21084800F0A2F872
:1026F800E2E75521054800F09DF8E5E76221034827
:1027080000F098F8EDE700BFE40400208497000883
:102718000368B3F1A04F00D0704730B587B00446C6
:1027280003F1704303F504335A6942F080525A6149
:102738005B6903F080530093009B0323019302938A
:102748000025039501A94FF0904001F06FFD0E4858
:102758000E4B0360456085608023C3604FF480732F
:1027680003614FF48063436120238361C56101F0F5
:1027780015FC20B9044BE3635C6207B030BD8821C7
:10278800034800F057F8F5E7380500200800024034
:102798008497000800B583B00A4B5A6942F00102D9
:1027A8005A615B6903F001030193019B0022114602
:1027B8000B2001F035FB0B2001F078FB03B05DF82E
:1027C80004FB00BF0010024010B588B0174B5A69CF
:1027D80042F480025A615A6902F480020092009A17
:1027E8005A6942F400325A615A6902F4003201927D
:1027F800019A5A6942F480225A615B6903F4802382
:102808000293029B0A4C00223B21204601F05CFE09
:102818003B2303930123049300230593069303A901
:10282800204601F003FD08B010BD00BF00100240B3
:1028380000040048FEE7000000B597B001230C93A0
:102848004FF4A0220D9200220E92109302231393AC
:102858004FF4803314934FF4E01315930CA801F050
:102868004DFE58BB0F2307930221089100230993BB
:102878004FF480620A920B9307A802F017FA10BB74
:1028880041F20103019300230393069301A802F088
:102898008FFBE8B902F05AFB104BA3FB003080090C
:1028A80001F01AFB042001F02DFB002211464FF025
:1028B800FF3001F0B5FA17B05DF804FB4FF4E6718C
:1028C8000748FFF7B7FF4FF4ED710548FFF7B2FF70
:1028D8004FF4F1710248FFF7ADFF00BFD34D62100E
:1028E8009097000800000000F0B5ADF61C0D00F050
:1028F800EFFBFFF7A1FFFFF767FFFFF74BFF00F0C4
:1029080069FB00F0F5FA00F043FB00F021FAFFF74D
:10291800B7FE4FF40062002106A803F043FE4FF40F
:10292800806206A9A64800F0A7FEA64CA64BA74AB7
:10293800A7492046FEF7E4FE01220821A54801F038
:10294800C3FD2046FFF7DAFD00212046FFF7DDFD35
:1029580080212046FFF7E0FD2046FEF7BCFE20461A
:10296800FEF7E8FC9C4B01933023009300222821BA
:102978002046FEF767FB99492046FFF7ABF9984BCD
:10298800372210212046FFF767F9964B402228216D
:102998002046FFF761F92046FEF7D9FC4FF4FA60AC
:1029A80000F0B6FB2046FEF7C5FC002420E08E4B65
:1029B800A3FB04235B0803EB4303E31A03EB430283
:1029C80003EB8202D2B21032C4EBC401874B0B4432
:1029D80004EB840086490144029101930D2300937E
:1029E8004623D2B200217748FEF7A8F90134E4B2B1
:1029F800022CDCD9032420E07B4BA3FB04235B08D7
:102A080003EB4303E31A03EB430203EB8202D2B264
:102A18001032C4EBC401754B0B4404EB84007449B9
:102A28000144029101930D2300933823D2B2482127
:102A38006448FEF783F90134E4B2052CDCD900249C
:102A4800012C16D8C4EBC40104EB8101694B1A5D53
:102A580004EB8400684B034402930192092300931A
:102A68001B23372248315748FEF714F90134E4B2E2
:102A7800E6E7544C2046FEF76AFC2046FEF767FC62
:102A88000025FFE05D4B1B78032B23D80133DCB214
:102A98005A4B1C705A4B1888FDF7D4FC44A3D3E951
:102AA8000023FDF773FE06460F46564B03EBC4049E
:102AB80041A3D3E90023D4E90001FDF73DFD024617
:102AC8000B4630463946FDF737FDFEF70DF84E4BFD
:102AD8001880EEE0494B00221A704B4B4FF47A7283
:102AE8001A80E6E000250CE1A5F14B02474921F8E0
:102AF80013200133DBB2052B05D8012BF4D0434A50
:102B080022F81350F5E7BDF8183007EE103AB8EE82
:102B1800477ADFED3F7A27EE277ADFED3E6AC7EE88
:102B2800267AFDEEE77A17EE903A1BB2374A5381C0
:102B3800394A138042F22833039300240294019601
:102B48000E2300938023224621461E48FEF70AF8EA
:102B580028E0254BA3FB04235B0803EB4303E31A9C
:102B680003EB430203EB8202D2B21032274B33F954
:102B780014102A4B185D2A4B1E5D2A4B1F5D04EB6F
:102B8800840C1B4B634405930497039602900191B0
:102B98000D2300934623D2B200210A48FEF7FCF821
:102BA8000134E4B2022CD4D9032466E0AFF30080E8
:102BB800B81E85EB51B8BE3F66666666666610400D
:102BC800E40400207C05002049250008BD210008F8
:102BD8001897000800040048AC970008B87D000862
:102BE800CC980008E4980008ABAAAAAA00990008A3
:102BF80034990008A89700089C970008CE04002084
:102C08003C00002008000020D004002030000020F4
:102C18000000A54300007F4300000020F098000852
:102C2800F89800082C9900083B4AA2FB0432520885
:102C380002EB4202A21A02EB420302EB8302D2B277
:102C48001032364B33F91410354B185D354B1E5D79
:102C5800354B1F5D04EB840C344B63440593049798
:102C68000396029001910D2300933823D2B2482194
:102C78002F48FEF791F80134E4B2052CD4D92C483A
:102C8800FEF765FB2B4B1C8842F208039C423FF67B
:102C9800F9AE294B1B78294901EBC3010022284BC7
:102CA800D1E90001FDF748FCFDF7F6FE2044214B71
:102CB8001880204B1E883046FDF7C4FB12A3D3E9C9
:102CC8000023FDF739FC00221E4BFDF735FC1A4B9B
:102CD8001A781A4B03EBC203D3E90023FDF756FD1C
:102CE8000BA3D3E90023FDF751FDFDF7FDFE80B2EC
:102CF800154B1880094B1880952D3FF6F3AE01351A
:102D0800ADB20123F7E600BFFCA9F1D24D62603FE6
:102D18006666666666661040ABAAAAAA30000020FE
:102D2800F0980008F89800082C99000834990008D1
:102D38007C050020D0040020CE04002008000020DC
:102D48000000244000004E403C0000207047000076
:102D580008B51148114B03604FF482734360002398
:102D680083604FF4E062C260036143614FF4007214
:102D780082611022C2610362436283620722C262D7
:102D880003630823436302F01BFB00B908BD472116
:102D98000348FFF74FFDF9E7FC050020003001402C
:102DA800549900080268114B9A4200D0704700B548
:102DB80087B003F560439A6942F480529A619B692F
:102DC80003F480530093009BA023019302230293F2
:102DD80000230393032304930523059301A94FF0CC
:102DE800904001F023FA07B05DF804FB0030014081
:102DF80000B583B01C4B9A6942F001029A619B6945
:102E080003F001030193019B032000F0EBFF002274
:102E180011466FF00B0001F003F8002211466FF025
:102E28000A0000F0FDFF002211466FF0090000F0D3
:102E3800F7FF002211466FF0040000F0F1FF0022B6
:102E480011466FF0030000F0EBFF002211466FF00F
:102E5800010000F0E5FF002211464FF0FF3000F0BE
:102E6800DFFF03B05DF804FB0010024008B500F076
:102E780041F901F066F808BD08B5024801F07CF98F
:102E880008BD00BF380500201549D1F8883043F443
:102E98007003C1F88830134B1A6842F001021A60B7
:102EA8005868114A02405A601A6822F0847222F463
:102EB80080321A601A6822F480221A605A6822F452
:102EC800FE025A60DA6A22F00F02DA62186B074AC9
:102ED80002401A6300229A604FF000638B607047CB
:102EE80000ED00E0001002400CC07FF8CCFC00FFB1
:102EF80000B589B01848194B03600023436083600C
:102F0800C36003614361836102F0CAFCA0B908A9E8
:102F18004FF4805341F8103D0F4802F035FD80B959
:102F2800002301930293039301A90B4802F054FF75
:102F380060B909B05DF804FB40210948FFF77AFC45
:102F4800E5E746210648FFF775FCE9E74E21044806
:102F5800FFF770FCEDE700BF60060020002C014081
:102F6800789900080268094B9A4200D0704782B0ED
:102F780003F564439A6942F400629A619B6903F419
:102F880000630193019B02B0704700BF002C014011
:102F980008B50D480D4B03604FF4164343604FF0DE
:102FA800805383600023C36003610C224261836104
:102FB800C3610362436203F047FA00B908BD4521C3
:102FC8000348FFF737FCF9E7A00600200038014066
:102FD8008499000808B50C480C4B03604FF416435D
:102FE80043600023C36003610C2242618361C361B3
:102FF8000362436203F028FA00B908BD5921044866
:10300800FFF718FCF9E700BF100700200044004054
:103018008499000800B589B003681F4A934205D017
:103028001E4A93421DD009B05DF804FB1C4B9A69F7
:1030380042F480429A619B6903F480430193019BA7
:103048004FF4C063039302230493012305930323DE
:1030580006930723079303A94FF0904001F0E6F881
:10306800E1E70F4BDA6942F40032DA61DB6903F415
:1030780000330293029B48F2040303930223049350
:1030880001230593032306930723079303A94FF00E
:10309800904001F0CBF8C6E70038014000440040FA
:1030A8000010024010B50446074B1868074BA3FBF5
:1030B8000030800900F010FF002221464FF0FF3059
:1030C80000F0AEFE002010BD40000020D34D62107D
:1030D80008B5074A136843F010031360032000F093
:1030E80081FE0020FFF7DEFFFFF782FE002008BD0B
:1030F80000200240024A136801331360704700BF82
:1031080080070020014B1868704700BF8007002027
:1031180030B583B00190FFF7F5FF0546019CB4F187
:10312800FF3F00D00134FFF7EDFF401BA042FAD368
:1031380003B030BD70477047704738B50268936870
:1031480003F00303012B01D0002038BD136813F0EE
:10315800010F2FD0936803F00D03012B09D0436CA6
:1031680043F010034364836C43F00103836401203C
:10317800EBE70446936843F0020393600368032275
:103188001A60FFF7BFFF054623689B6813F0010F1D
:103198000ED0FFF7B7FF401B0228F5D9636C43F048
:1031A80010036364A36C43F00103A3640120CCE71C
:1031B8000020CAE70020C8E738B50268936803F022
:1031C8000303012B0DD09168184B19420FD0436CA3
:1031D80043F010034364836C43F0010383640120CC
:1031E80038BD136813F0010FEDD00020F8E704464E
:1031F800936843F001039360FFF784FF0546236853
:103208001B6813F0010F0ED1FFF77CFF401B02284B
:10321800F5D9636C43F010036364A36C43F00103B6
:10322800A3640120DCE70020DAE700BF3F0000804C
:1032380008B5406A436C43F040034364836C43F031
:1032480004038364FFF778FF08BD08B5406AFFF7F9
:1032580072FF08BD08B5436A5A6C12F0500F03D0CC
:10326800DB6B1B6B984708BD5A6C42F400725A64BA
:103278001A68D26812F4406F0DD1DA695AB95A6CDB
:1032880022F480725A645A6C12F4805F03D15A6C2B
:1032980042F001025A641846FFF74CFFE3E70000CA
:1032A80030B597B000230093002800F0DC81044675
:1032B8000368B3F1A04F07D0984A934204D040F274
:1032C80009119748FFF742FD63684BB1B3F5803F9A
:1032D80006D0B3F5003F03D0B3F5403F40F08C80F3
:1032E800A36833B1082B04D0102B02D0182B40F060
:1032F8008980E36813B1202B40F08A802369012B71
:1033080000F28C80E369012B00F28E80236B4BB1B5
:10331800B3F5806F06D0B3F5006F03D0B3F5406FF7
:1033280040F08880E36A5BB3402B29D0802B27D0FC
:10333800C02B25D0B3F5807F22D0B3F5A07F1FD056
:10334800B3F5C07F1CD0B3F5E07F19D0B3F5007F8B
:1033580016D0B3F5107F13D0B3F5207F10D0B3F596
:10336800307F0DD0B3F5407F0AD0B3F5507F07D03A
:10337800B3F5607F04D0B3F5707F01D0012B5FD126
:10338800636B012B62D86369042B01D0082B63D1CE
:10339800A36B012B66D8A369012B69D8236963B194
:1033A800236A013B0F2B69D8636A012B6CD8636AC7
:1033B8001BB1A36A013B072B6CD8636C13F0100F89
:1033C80040F0B480636C002B6AD0002023689A68B0
:1033D80012F0805F04D09B6813F0005F00F0A780B4
:1033E800636C23F0120343F010036364A36C43F08F
:1033F8000103A36401209AE04FF485714848FFF760
:10340800A5FC6DE740F20B114548FFF79FFC70E7FC
:103418004FF486714248FFF799FC6FE740F20D11AF
:103428003F48FFF793FC6DE74FF487713C48FFF77F
:103438008DFC6BE740F20F113948FFF787FC71E705
:103448004FF488713648FFF781FC99E740F2111173
:103458003348FFF77BFC96E74FF489713048FFF754
:1034680075FC95E740F213112D48FFF76FFC92E7C2
:103478004FF48A712A48FFF769FC8FE74FF48C7183
:103488002748FFF763FC8FE740F219112448FFF73C
:103498005DFC8CE74FF48E712148FFF757FC8CE7F1
:1034A800A3642365E36484F840302046FFF730F9CD
:1034B80023689B6813F0805F01D0002086E72046D0
:1034C800FFF73BFE636C13F0100F7FF47FAF00280B
:1034D8007FF47CAF636C23F4885323F0020343F03A
:1034E800020363642268936823F040539360226860
:1034F800936843F0805393600A4B1B680A4AA2FB07
:1035080003239B0C03EB83035A00009202E0009B09
:10351800013B0093009B002BF9D157E700010050B5
:10352800909900084000002083DE1B430020636C54
:1035380013F0100F40F08E80002840F08B80236835
:103548009A6812F0040240F08580616C21F4817160
:1035580041F002016164B3F1A04F52D04FF0A04195
:103568000191996801F0030101294DD0019B23B114
:10357800996801F0030101294BD03C498B6823F479
:10358800403365682B438B60E1694B03A56B012DC4
:1035980001D04FF480521343E2681343A2681343E7
:1035A800626A012A3AD0E26A012A02D0216B0A43F0
:1035B80013432268916811F00C0F0BD1D16821F4E4
:1035C800804121F00201D160A169626B520042EA98
:1035D800813213432168CD68254A2A401343CB60C2
:1035E8002369012B2DD02268136B23F00F0313637B
:1035F8000023A364636C23F0030343F001036364B3
:103608002FE01C490191ACE71B6813F0010FBBD1F7
:10361800ACE71B6813F0010FB6D1AEE731B9A26A67
:10362800013A43EA424343F48033BCE7626C22F038
:10363800220242F020026264A26C42F00102A264FB
:10364800B1E721680B6B23F00F03226A013A134399
:103658000B63CDE7636C23F0120343F0100363643C
:10366800012017B030BD0120FBE700BF0003005068
:1036780007C0F0FF00010050F8B504460E46174693
:103688000368B3F1A04F07D0494A934204D040F6EB
:1036980028114848FFF75AFB23689B6813F0040F6A
:1036A80040F0818094F84030012B7ED0012384F8CB
:1036B8004030414B9B6813F01F0F05D0002384F85E
:1036C800403001252846F8BD2046FFF775FD054620
:1036D800002864D1636C23F4706323F0010343F47E
:1036E80080736364344B9B6813F01F0F17D02268F4
:1036F800B2F1A04F13D0636C43F4801363642C4B76
:103708009A421BD14FF0A043DB6813F0007F15D01D
:10371800636C23F4405343F4805363640EE0636C9A
:1037280023F4801363642368DB6813F0007F05D0FB
:10373800636C23F4405343F480536364636C13F461
:10374800805F29D0A36C23F00603A364002384F8C8
:103758004030E36B194A9A62E36B194ADA62E36B09
:10376800184A1A6323681C221A602268536843F0B7
:10377800100353602268D36843F00103D3602168C3
:103788003B4632464031E06B00F0A8FC2268936863
:1037980043F00403936095E70023A364D6E700236E
:1037A80084F840308EE702258CE702258AE700BFBF
:1037B8000001005090990008000300505D32000895
:1037C800533200083932000830B597B005460C4628
:1037D800002300930368B3F1A04F07D0B24A934285
:1037E80004D041F23A51B148FFF7B0FA6368013B9F
:1037F8000F2B73D8A368072B76D8E368012B79D8E9
:103808002369042B7CD82B68DA6812F0180F03D1CF
:103818006269B2F5805F16D3DA6802F01802082AE6
:1038280074D0DA6802F01802102A74D0DB6803F04A
:103838001803182B02D163693F2B04D941F23F5179
:103848009A48FFF783FAE368012B6ED02368013B9F
:10385800112B64D895F84030012B00F0DA81012350
:1038680085F840302A68936813F0040F40F0C78148
:103878006368042B63D8116B03EB430358001F23C1
:10388800834021EA0303216881400B4313632A68BC
:10389800936813F00C0F40F09A802368092B7FD9A6
:1038A800916903EB43031E3B0720984021EA00017E
:1038B800A06800FA03F30B43936162692968CB6837
:1038C800C3F3C1035B0002FA03F32269013A032A36
:1038D80000F2BC80DFE802F07199A4AF41F23B51DD
:1038E8007248FFF733FA85E741F23C516F48FFF71A
:1038F8002DFA82E741F23D516C48FFF727FA7FE73E
:1039080041F23E516948FFF721FA7CE76269B2F556
:10391800806F98D385E76269FF2A94D986E741F2D8
:1039280047516248FFF712FA94E72368013B0D2BD1
:1039380090D941F24B515D48FFF708FA8AE7092B05
:103948000ED8516B03EB430358001E381F238340E6
:1039580021EA0303216801FA00F00343536396E761
:103968000E2B0ED8916B03EB430358003C381F23F2
:10397800834021EA0303216801FA00F003439363BB
:1039880085E7D16B03EB430358005A381F23834064
:1039980021EA0303216801FA00F00343D36376E7C1
:1039A800516903EB43030720984021EA0001A0680E
:1039B80000FA03F30B4353617FE70A6E3C4810405B
:1039C800226843EA8263184340F0004008662A6888
:1039D800936803F00303012B71D0E368012B74D0C3
:1039E800D2F8B03020680121814023EA0103C2F8EF
:1039F800B0302368102B00F09180112B00F0AF80BD
:103A0800122B00F0B2800020FEE04A6E28481040D9
:103A1800226843EA8263184340F000404866D6E7CC
:103A28008A6E23481040226843EA8263184340F0B4
:103A380000408866CBE7C86E1D4A0240206843EA0A
:103A48008063134343F00043CB66C0E70B6E03F07B
:103A5800F8432268B3EB826F1CD02A68536E03F0D8
:103A6800F8432168B3EB816F19D02A68936E03F08D
:103A7800F8432168B3EB816F1CD02A68D36E03F03A
:103A8800F8432168B3EB816FA1D1D36E23F00043D3
:103A9800D3669CE70B6E23F000430B66DDE7536E9D
:103AA80023F000435366E0E70001005090990008B6
:103AB80000F0FF83936E23F000439366DDE71368FD
:103AC80013F0010F89D000209EE0D2F8B0302068B2
:103AD800012181400B43C2F8B0302368092B0ED96D
:103AE8002868826903EB43031B3B0721994022EABC
:103AF8000102A16801FA03F31343836179E7286897
:103B08004269013303EB43030721994022EA01028A
:103B1800A16801FA03F3134343616AE73E4A9268D6
:103B280012F4000F7FF469AF2968B1F1A04F23D0D8
:103B38004FF0A04201928A6802F00302012A1ED0C7
:103B4800019A22B1906800F00300012821D0102BBF
:103B580024D0112B42D0122B4AD0002054E02E4AF8
:103B6800926812F0807FDFD04AE72B4A926812F4FD
:103B7800800FD9D0002047E0284A0192DBE70A6885
:103B880012F0010FDCD06B6C43F020036B64012052
:103B98003AE0126812F0010FF5D1D8E7B1F1A04F61
:103BA800D7D11D4A936843F4000393601C4B1B68EC
:103BB800A2F14E62A2F58422A2F27D42A2FB032367
:103BC8009B0C03EB83035A00009202E0009B013B2D
:103BD8000093009B002BF9D1002015E0B1F1A04F14
:103BE800B9D10D4A936843F08073936000200BE0CD
:103BF800094A936843F480039360002004E06B6CE7
:103C080043F020036B640120002385F8403017B08F
:103C180030BD0220FBE700BF000300500001005048
:103C28004000002070B596B004460D460368B3F115
:103C3800A04F04D041F617316748FFF787F82B6883
:103C4800032B07D9052B05D0062B03D0072B01D052
:103C5800092B6CD12B6853B36B682BB1B3F5004FAC
:103C680002D0B3F5404F68D1AB6803B3B3F5807F9A
:103C78001DD0B3F5007F1AD0B3F5407F17D0B3F548
:103C8800806F14D0B3F5A06F11D0B3F5C06F0ED00C
:103C9800B3F5E06F0BD0B3F5006F08D0B3F5106F34
:103CA80005D0B3F5206F02D0B3F5306F4BD1236840
:103CB800B3F1A04F4DD04FF0A0420192019A002AD3
:103CC80000F0858094F84010012900F082800121DD
:103CD80084F840109B6813F0040F6ED1936813F0BA
:103CE800040F6AD12B68002B42D03C48836823F428
:103CF80060436968666B41EA46310B43836021681B
:103D08008B6803F00303012B26D0936803F00303A9
:103D1800012B27D031498B6823F4716323F00F03FB
:103D28002A68A868024313438B6000204AE041F6E2
:103D380018312948FFF70AF88CE741F61B31264865
:103D4800FFF704F890E741F61C312348FEF7FEFF21
:103D5800ADE7234A0192B1E70B6813F0010FD4D005
:103D680000202FE0136813F0010FD3D0002029E0C2
:103D78001A498B6823F460438B6021688B6803F0D1
:103D88000303012B0DD0936803F00303012B0ED01E
:103D9800124A936823F4716323F00F0393600020A1
:103DA80010E00B6813F0010FEDD000200AE0136853
:103DB80013F0010FECD0002004E0636C43F0200303
:103DC80063640120002384F8403016B070BD0120E0
:103DD800FBE70220F9E700BF9099000800030050B4
:103DE8000001005010B50446C31E042B0FD80A4A20
:103DF800D36823F4E0631B041B0C240204F4E0647E
:103E0800234343F0BF6343F40033D36010BDBC21A8
:103E18000248FEF79BFFEAE700ED00E0C8990008BA
:103E280070B505460C4616460F2A25D80F2C28D8FB
:103E38001B4BDB68C3F30223C3F10702042A28BF24
:103E48000422191D062921D9033B4FF0FF3101FA3D
:103E580002F224EA02049C4001FA03F326EA03066C
:103E68003443002D14DB2401E4B205F1604505F567
:103E7800614585F8004370BDD4210A48FEF766FF06
:103E8800D4E7D5210748FEF761FFD1E70023DCE737
:103E980005F00F052401E4B2034B5C55EBE700BFC6
:103EA80000ED00E0C899000814ED00E010B5041E0C
:103EB80008DB04F01F02640901239340044A42F816
:103EC800243010BDE8210348FEF740FFF1E700BFAA
:103ED80000E100E0C89900080138B0F1807F0AD2FB
:103EE800064B5860064AF02182F82310002098609B
:103EF80007221A6070470120704700BF10E000E0F9
:103F080000ED00E010B50446042800D038B9042CB0
:103F18000BD0094A136823F00403136010BD40F264
:103F2800E1110648FEF712FFF1E7034A136843F070
:103F380004031360F2E700BF10E000E0C89900082E
:103F4800704708B5FFF7FCFF08BD70B4066CC56B79
:103F58000124B4406C60046863604368102B05D08A
:103F6800036899600368DA6070BC704703689A60F8
:103F78000368D960F8E700000268054B1344054A56
:103F8800A2FB03231B099B000364034BC363704715
:103F9800F8FFFDBFCDCCCCCC00000240002800F0DB
:103FA800968010B5044603684A4A934215D01432E5
:103FB800934212D0143293420FD0143293420CD051
:103FC8001432934209D01432934206D014329342E9
:103FD80003D0A4214048FEF7B9FE636823B1102B33
:103FE80002D0B3F5804F4FD1A368402B01D0002BEE
:103FF8004FD1E368802B01D0002B4FD123692BB11F
:10400800B3F5807F02D0B3F5007F4CD163692BB143
:10401800B3F5806F02D0B3F5006F49D1A3690BB136
:10402800202B4AD1E36943B1B3F5805F05D0B3F5DE
:10403800005F02D0B3F5405F44D1022384F82130F9
:1040480021680A6822F47F5222F030026368A0686F
:104058000343E06803432069034360690343A0699D
:104068000343E069034313430B602046FFF784FFD3
:104078000020A062E06220636063A063012384F8EB
:10408800213084F8200010BDA5211348FEF75EFEFC
:10409800AAE7A6211048FEF759FEAAE7A7210E486D
:1040A800FEF754FEAAE7A8210B48FEF74FFEADE73E
:1040B800A9210948FEF74AFEB0E7AA210648FEF7FB
:1040C80045FEAFE7AB210448FEF740FEB5E7012007
:1040D800704700BF08000240009A0008F8B504467F
:1040E8000E4617461D465A1E4FF6FE739A420FD8C3
:1040F80094F82030012B3AD0012384F8203094F82A
:104108002130012B0AD0002384F820300220F8BD8A
:1041180040F25D111748FEF719FEE9E7022384F81B
:1041280021300023A3632268136823F0010313607E
:104138002B463A4631462046FFF707FFE36A5BB154
:104148002268136843F00E0313602268136843F073
:10415800010313600020DAE72268136843F00A03BA
:1041680013602268136823F004031360EDE702204C
:10417800CDE700BF009A000838B5C36B1A68046819
:104188002568016C04238B40134213D015F0040FEB
:1041980010D0236813F0200F03D1236823F0040301
:1041A8002360016CC26B04238B405360C36A03B164
:1041B800984738BD02238B4013421AD015F0020FDE
:1041C80017D0236813F0200F06D1236823F00A03C1
:1041D8002360012380F82130016CC26B02238B40DD
:1041E8005360002380F82030836A002BE1D0984781
:1041F800DFE7082303FA01F11142DAD015F0080FBE
:10420800D7D0236823F00E032360026CC16B01230F
:1042180003FA02F24A60836380F82130002380F8B1
:104228002030036B002BC4D09847C2E72DE9F04734
:1042380082B007460C46B0F1904F12D09C4B984282
:104248000FD003F5806398420BD003F58063984242
:1042580007D003F50063984203D0C3219548FEF7C1
:1042680075FD23689AB212B11B0C1B041BB1C42143
:104278009048FEF76BFD6368012B1ED9112B1CD0EB
:10428800022B1AD0122B18D08B4A934215D002F564
:104298008012934211D002F5801293420DD0A2F5FC
:1042A800F812934209D002F58012934205D002F524
:1042B8008012934201D0032B04D1A368022B06D8A5
:1042C80000254AE0C5217B48FEF740FDF5E7C621F9
:1042D8007848FEF73BFDF3E7D6217648FEF736FD32
:1042E80067E0EA217348FEF731FD92E0032300E01E
:1042F80000238B4003430232704941F82230704B4F
:104308001A68F34303EA0201606810F4803F01D0A1
:1043180046EA02016A4A1160526803EA02016068CB
:1043280010F4003F01D046EA0201654A51609268E4
:1043380003EA0201606810F4801F01D046EA020116
:104348005F4A9160D2681340616811F4001F01D080
:1043580046EA02035A4AD3600135266836FA05F35D
:1043680000F0A2804FF0010808FA05F818EA0606DE
:10437800F2D06368022B01D0122B2AD1B7F1904FEB
:1043880012D04B4B9F420FD003F580639F420BD056
:1043980003F580639F4207D003F500639F4203D073
:1043A800D5214448FEF7D2FC23690D2B01D90F2BE8
:1043B80092D1EA08083257F8220005F0070399005D
:1043C8000F238B4020EA030023698B40034347F8FF
:1043D80022303A684FEA450A4FF0030909FA0AF908
:1043E8006FEA090909EA0202636803F0030303FAA2
:1043F8000AF313433B6063685A1E012A03D9112B41
:1044080001D0122B17D1E368012B02D9032B7FF4BB
:1044180068AFBA6809EA0202E36803FA0AF31343C9
:10442800BB607B6823EA08086368C3F30013AB40EA
:1044380043EA08037B60FB6809EA0309A36803FAF7
:104448000AF343EA0903FB60636813F0805F83D0D3
:104458001C4B9A6942F001029A619B6903F00103BF
:104468000193019BAA08911C144B53F8210005F0F5
:10447800030399000F238B4020EA0300B7F1904F04
:104488003FF436AF0A4B9F420AD003F580639F4240
:1044980008D003F580639F423FF428AF052328E73F
:1044A800012326E7022324E702B0BDE8F08700BF16
:1044B80000040048389A000800001110000001406C
:1044C800000401400010024070B5054614460E462F
:1044D80021B1012C08D86CB9AE6270BD4FF4D87107
:1044E8000548FEF733FCF4E740F2B1110248FEF745
:1044F8002DFCF0E7AE61F0E7389A000870B582B09D
:10450800044688B3236813B113F00F0F32D0236821
:1045180013F0010F56D063682BB1B3F5803F02D07A
:10452800B3F5A02F2CD1B74B5B6803F00C03042B19
:1045380031D0B44B5B6803F00C03082B26D06368BA
:10454800B3F5803F00F08380002B40F0AC8003F18E
:10455800804303F504331A6822F480321A601A681B
:1045680022F480221A6077E040F21911A648FEF77B
:10457800EDFBC7E74FF48D71A348FEF7E7FBC6E7ED
:104588004FF49071A048FEF7E1FBCCE79D4B5B68C8
:1045980013F4803FD3D04FF4003393FAA3F3994B2D
:1045A80019684FF4003393FAA3F3B3FA83F303F0D3
:1045B8001F03012202FA03F30B4203D06368002BA6
:1045C80000F02D83236813F0020F00F0DA802369CE
:1045D800012B00F2A08063691F2B00F2A280894B97
:1045E8005B6813F00C0F00F0A880864B5B6803F043
:1045F8000C03082B00F09B802369002B00F0088136
:10460800012292FAA2F3B3FA83F303F1845303F578
:1046180084139B001A60FEF775FD0546022393FA82
:10462800A3F3784B1968022393FAA3F3B3FA83F33D
:1046380003F01F03012202FA03F30B4240F0D38078
:10464800FEF760FD401B0228E8D90320EEE26D4A20
:10465800136843F4803313606A4AD36A23F00F0364
:10466800A1680B43D3626368002B36D0FEF74AFD7E
:1046780005464FF4003393FAA3F3624B19684FF4DD
:10468800003393FAA3F3B3FA83F303F01F03012271
:1046980002FA03F30B4295D1FEF734FD401B642860
:1046A800E7D90320C2E2B3F5A02F09D0554B1A6809
:1046B80022F480321A601A6822F480221A60CBE74A
:1046C80003F18043A3F53C331A6842F480221A6050
:1046D8001A6842F480321A60BEE7FEF713FD0546F9
:1046E8004FF4003393FAA3F3464B19684FF40033A1
:1046F80093FAA3F3B3FA83F303F01F03012202FA38
:1047080003F30B423FF45EAFFEF7FCFC401B64284A
:10471800E6D903208AE24FF4AC713B48FEF716FB5A
:1047280059E740F259113848FEF710FB57E7354B67
:104738005B6813F4803F7FF45FAF022393FAA3F31F
:10474800304B1968022393FAA3F3B3FA83F303F007
:104758001F03012202FA03F30B4204D02369934298
:1047680001D0012062E22748036823F0F803616959
:10477800F82292FAA2F2B2FA82F201FA02F2134392
:104788000360236813F0080F00F09780A369012BDA
:1047980065D8A369002B68D0012191FAA1F2B2FA79
:1047A80082F21A4B13449B001960FEF7ABFC0546D6
:1047B800022393FAA3F293FAA3F293FAA3F2114A0B
:1047C800516A93FAA3F3B3FA83F303F01F030122A8
:1047D80002FA03F30B4270D1FEF794FC401B022847
:1047E800E6D9032022E20748036823F0F803616949
:1047F800F82292FAA2F2B2FA82F201FA02F2134312
:104808000360BEE700100240709A000820819010F3
:10481800012393FAA3F3B3FA83F303F1845303F563
:1048280084139B0000221A60FEF76CFC05460223E5
:1048380093FAA3F3B94B1968022393FAA3F3B3FAD3
:1048480083F303F01F03012202FA03F30B4298D00B
:10485800FEF758FC401B0228E9D90320E6E140F2A4
:104868009911AF48FEF772FA93E7012292FAA2F281
:10487800B2FA82F2AB4B13449B0000221A60FEF797
:1048880041FC0546022393FAA3F293FAA3F293FAA2
:10489800A3F2A24A516A93FAA3F3B3FA83F303F09B
:1048A8001F03012202FA03F30B4206D0FEF72AFC8B
:1048B800401B0228E6D90320B8E1236813F0040F4F
:1048C80000F0C080E368012B01D9052B26D1934B5A
:1048D800DB6913F0805F27D1904BDA6942F0805290
:1048E800DA61DB6903F080530193019B01258E4B4C
:1048F8001B6813F4807F19D0E368012B2AD0002BA2
:1049080034D103F1804303F504331A6A22F001021B
:104918001A621A6A22F004021A6220E040F2C511F3
:104928007F48FEF713FAD2E70025E0E77E4A1368CE
:1049380043F480731360FEF7E5FB06467A4B1B6869
:1049480013F4807FD8D1FEF7DDFB801B6428F5D9EE
:1049580003206BE1714A136A43F001031362E368B1
:10496800002B41D0FEF7CEFB06462BE0052B09D0E5
:104978006A4B1A6A22F001021A621A6A22F00402C9
:104988001A62ECE7654B1A6A42F004021A621A6A64
:1049980042F001021A62E2E7604B196A022393FAB5
:1049A800A3F3B3FA83F303F01F03012202FA03F31C
:1049B800194245D1FEF7A6FB801B41F28833984285
:1049C80000F22F81022393FAA3F293FAA3F3B3FA26
:1049D80083F35B0943F00203022BDDD0022393FA31
:1049E800A3F34E4B596AD9E7FEF78CFB064615E050
:1049F8004A4B196A022393FAA3F3B3FA83F303F039
:104A08001F03012202FA03F3194219D0FEF77AFBB9
:104A1800801B41F28833984200F20581022393FA01
:104A2800A3F293FAA3F3B3FA83F35B0943F0020307
:104A3800022BDDD0022393FAA3F3384B596AD9E746
:104A4800002D73D1E369022B76D8E369002B00F0BF
:104A5800EC80324A526802F00C02082A00F0E88022
:104A6800022B40F0B080236A13B1B3F5803F69D1BF
:104A7800636A4BB3B3F5802F26D0B3F5002F23D04C
:104A8800B3F5402F20D0B3F5801F1DD0B3F5A01F7C
:104A98001AD0B3F5C01F17D0B3F5E01F14D0B3F583
:104AA800001F11D0B3F5101F0ED0B3F5201F0BD087
:104AB800B3F5301F08D0B3F5401F05D0B3F5501F2C
:104AC80002D0B3F5601F43D14FF0807393FAA3F37C
:104AD800B3FA83F303F1845303F584139B00002294
:104AE8001A60FEF70FFB05464FF0007393FAA3F325
:104AF8000A4B19684FF0007393FAA3F3B3FA83F3E0
:104B080003F01F03012202FA03F3194226D0FEF72D
:104B1800F9FA401B0228E7D9032087E00010024079
:104B2800709A00082081901000700040414AD369B3
:104B380023F08053D36185E740F209213E48FEF710
:104B480005F982E740F212213B48FEF7FFF88FE7AC
:104B580040F213213848FEF7F9F8B5E735494B68B4
:104B680023F47413626A206A024313434B604FF0C4
:104B7800807393FAA3F3B3FA83F303F1845303F531
:104B880084139B0001221A60FEF7BCFA04464FF01A
:104B9800007393FAA3F3274B19684FF0007393FA45
:104BA800A3F3B3FA83F303F01F03012202FA03F31A
:104BB800194206D1FEF7A6FA001B0228E7D90320FE
:104BC80034E0002032E04FF0807393FAA3F3B3FA95
:104BD80083F303F1845303F584139B0000221A60C6
:104BE800FEF790FA04464FF0007393FAA3F3114BC3
:104BF80019684FF0007393FAA3F3B3FA83F303F041
:104C08001F03012202FA03F3194206D0FEF77AFACB
:104C1800001B0228E7D9032008E0002006E0012055
:104C280004E0032002E0032000E0002002B070BD91
:104C38000120FBE700100240709A0008164B5968E3
:104C480001F00C03082B24D101F470124FF47013F7
:104C580093FAA3F3B3FA83F322FA03F30F4AD05C6F
:104C68000D4BDB6A03F00F030F2292FAA2F2B2FA9D
:104C780082F2D3400A4AD25C11F4803F03D1094B37
:104C880003FB00F07047084BB3FBF2F300FB03F0A3
:104C980070470548704700BF00100240A89A0008F6
:104CA800B89A000800093D0000127A0070B50D4658
:104CB8000446C0B1236813F00F0F1AD0022D1ED876
:104CC8009D4B1B6803F00703AB421ED29A4A136838
:104CD80023F007032B431360136803F00703AB4269
:104CE80013D0012070BD40F277219448FEF72EF8CA
:104CF800E0E74FF41E719148FEF728F8DEE740F22E
:104D080079218E48FEF722F8DAE7236813F0020FBC
:104D180018D0A3687BB1802B0DD0902B0BD0A02B83
:104D280009D0B02B07D0C02B05D0D02B03D0E02B57
:104D380001D0F02B41D1824A536823F0F003A168D7
:104D48000B435360236813F0010F00F08A806368F7
:104D5800022B38D86368012B3BD0022B4ED002229D
:104D680092FAA2F2764A1068022292FAA2F2B2FAF3
:104D780082F202F01F02012101FA02F2104200F051
:104D8800D8806F494A6822F0030213434B60FEF74C
:104D9800B9F906466368012B45D0022B52D0684BFF
:104DA8005B6813F00C0F5CD0FEF7ACF9801B41F286
:104DB80088339842F3D9032094E74FF424715F486D
:104DC800FDF7C4FFB7E740F297215C48FDF7BEFF47
:104DD800C0E74FF4003292FAA2F2594A10684FF431
:104DE800003292FAA2F2B2FA82F202F01F02012114
:104DF80001FA02F20242C4D1012073E74FF00072B7
:104E080092FAA2F24E4A10684FF0007292FAA2F299
:104E1800B2FA82F202F01F02012101FA02F21042F4
:104E2800AFD101205EE7464B5B6803F00C03042B0F
:104E380017D0FEF767F9801B41F288339842F2D900
:104E480003204FE73E4B5B6803F00C03082B08D0A8
:104E5800FEF758F9801B41F288339842F2D90320B3
:104E680040E7354B1B6803F00703AB420CD9324AC5
:104E7800136823F007032B431360136803F0070339
:104E8800AB4201D001202DE7236813F0040F14D0A2
:104E9800E3685BB1B3F5806F08D0B3F5A06F05D0B8
:104EA800B3F5C06F02D0B3F5E06F36D1244A53682A
:104EB80023F4E063E1680B435360236813F0080FA1
:104EC80015D023695BB1B3F5806F08D0B3F5A06F37
:104ED80005D0B3F5C06F02D0B3F5E06F23D1184AFF
:104EE800536823F46053216943EAC1035360FFF711
:104EF800A5FE134B5B6803F0F003F02292FAA2F2CE
:104F0800B2FA82F2D3400F4AD35CD8400E4B1860F5
:104F18000020FEF7C7F80020E4E640F2E921074840
:104F2800FDF714FFC2E74FF43C710448FDF70EFF8C
:104F3800D5E70120D6E600BF00200240709A00089D
:104F4800001002406099000840000020014B1868DA
:104F5800704700BF4000002008B5FFF7F7FF074B78
:104F68005B6803F4E0634FF4E06292FAA2F2B2FAEB
:104F780082F2D340024AD35CD84008BD00100240F8
:104F88007099000808B5FFF7E1FF074B5B6803F469
:104F980060534FF4605292FAA2F2B2FA82F2D3400E
:104FA800024AD35CD84008BD00100240709900083E
:104FB800F0B583B004460268954B9A4200F2C1806E
:104FC800236813F4803F54D063684BB1B3F5807FF6
:104FD80006D0B3F5007F03D0B3F5407F40F0B6802C
:104FE8008C4BDB6913F0805F40F0B580894BDA6940
:104FF80042F08052DA61DB6903F080530193019B30
:105008000125854B1B6813F4807F00F0A680814B37
:105018001B6A13F4407322D0626802F440729A4209
:105028001DD07C48016A21F440764FF4803393FA0E
:10503800A3F2B2FA82F2794F3A4492004FF0010C8F
:10504800C2F800C093FAA3F3B3FA83F33B449B007E
:1050580000221A60066211F0010F40F093806D4A39
:10506800136A23F4407361680B431362002D40F008
:10507800B580236813F0010F0AD0A368032B00F250
:10508800B280644A136B23F00303A1680B431363D4
:10509800236813F0200F0BD0E36813B1102B40F0F6
:1050A800A7805C4A136B23F01003E1680B4313637A
:1050B800236813F0800F31D0236943B3B3F5807FA1
:1050C80025D0B3F5887F22D0B3F5907F1FD0B3F5F4
:1050D800987F1CD0B3F5A07F19D0B3F5A87F16D060
:1050E800B3F5B07F13D0B3F5B87F10D0B3F5C07F58
:1050F8000DD0B3F5C87F0AD0B3F5D07F07D0B3F58C
:10510800D87F04D040F269114548FDF71FFE414A97
:10511800D36A23F4F87321690B43D362236813F429
:10512800805F72D0636913B1B3F5807F65D1394A66
:10513800136B23F4807361690B431363002003B07E
:10514800F0BD7D213648FDF701FE39E7832134485B
:10515800FDF7FCFD44E7002553E72F4A136843F4A5
:1051680080731360FDF7CEFF06462B4B1B6813F4C4
:10517800807F7FF44CAFFDF7C5FF801B6428F4D90E
:105188000320DCE7FDF7BEFF064615E0214B196A50
:10519800022393FAA3F3B3FA83F303F01F03012264
:1051A80002FA03F30B427FF45AAFFDF7ABFF801B03
:1051B80041F28833984226D8022393FAA3F293FA4D
:1051C800A3F3B3FA83F35B0943F00203022BDDD0A8
:1051D800022393FAA3F30F4B596AD9E7D36923F053
:1051E8008053D36145E7CA210D48FDF7AFFD48E775
:1051F800EC210B48FDF7AAFD53E74FF4CD710848A1
:10520800FDF7A4FD93E7032099E7002097E700BF87
:10521800A1100100001002400070004000819010B1
:10522800C89A0008F8B505460F4616461C4639E0E8
:105238002CB1FDF767FF069BC01AA04232D32A683B
:10524800536823F0E00353606B68B3F5827F0BD09B
:10525800AB6AB3F5005F14D0012385F85D300023F5
:1052680085F85C30032025E0AB68B3F5004F02D029
:10527800B3F5806FECD12A68136823F040031360FC
:10528800E6E72A68136823F4005313602A68136852
:1052980043F400531360DFE70123B34209D0B4F1AC
:1052A800FF3FC5D12B689B6837EA0303F4D000237E
:1052B800F3E70020F8BDF0B583B007460C46154665
:1052C8001E4602E0B6F1FF3F10D13A6893682340CA
:1052D800AB423FD0B4F5C06FF4D1002DF2D1137BAF
:1052E800DBB28DF807309DF80730EBE72EB1FDF7FC
:1052F80009FF089BC01AB042E7D33A68536823F005
:10530800E00353607B68B3F5827F0BD0BB6AB3F5CB
:10531800005F14D0012387F85D30002387F85C30E4
:10532800032018E0BB68B3F5004F02D0B3F5806FD7
:10533800ECD13A68136823F040031360E6E73A6853
:10534800136823F4005313603A68136843F4005356
:105358001360DFE7002003B0F0BD70B582B00446EB
:105368000D46164600920B4600224FF4C051FFF737
:10537800A2FFB8B900962B46002280212046FFF7ED
:1053880051FFB8B900962B4600224FF4C061204661
:10539800FFF791FF034650B1236E43F020032366C5
:1053A800032304E0236E43F02003236603231846F7
:1053B80002B070BD236E43F0200323660323F6E793
:1053C800002800F0008110B5044602687F4B9A421D
:1053D80004D040F21B117E48FDF7B8FC63681BB18E
:1053E800B3F5827F40F0A780A36833B1B3F5806F2F
:1053F80003D0B3F5004F40F0A480E368B3F5706FB5
:1054080024D0B3F5606F21D0B3F5506F1ED0B3F53B
:10541800406F1BD0B3F5306F18D0B3F5206F15D09F
:10542800B3F5106F12D0B3F5006F0FD0B3F5E06F7E
:105438000CD0B3F5C06F09D0B3F5A06F06D0B3F5A3
:10544800806F03D0B3F5407F40F08180A369B3F546
:10545800007F03D013B1B3F5802F7ED1636B082B87
:1054680001D0002B7FD1E3696BB1082B0BD0102B37
:1054780009D0182B07D0202B05D0282B03D0302B90
:1054880001D0382B75D1236A0BB1802B77D1636A91
:105498000BB1102B79D1636A33B923690BB1022B95
:1054A80079D16369012B7CD80023A36294F85D301D
:1054B800002B7CD0022384F85D302268136823F027
:1054C80040031360E368B3F5E06F76D90022B3F5C3
:1054D800706F04D0B3F5E06F01D00021A162216B99
:1054E80021B9B3F5E06F6BD9022323636368A16820
:1054F8000B4321690B4361690B43A16901F40071F6
:105508000B43E1690B43216A0B43A06A21680343FB
:105518000B60638B03F00403616A0B43616B0B43FD
:10552800E1680B43216813434B6000202066012388
:1055380084F85D3010BD4FF48E712548FDF706FCE8
:1055480052E740F21D112248FDF700FC55E74FF4E1
:105558008F711F48FDF7FAFB78E740F21F111C48CE
:10556800FDF7F4FB7AE74FF490711948FDF7EEFB6D
:1055780079E740F221111648FDF7E8FB83E74FF47D
:1055880091711348FDF7E2FB81E740F223111048BF
:10559800FDF7DCFB7FE74FF493710D48FDF7D6FB71
:1055A8007FE740F227110A48FDF7D0FB7CE784F833
:1055B8005C302046FDF7F6FB7CE74FF4805286E727
:1055C8000123236392E70120704700BF00300140A8
:1055D800009B00082DE9F04182B004460D461746AD
:1055E8001E46836813B1B3F5004F19D194F85C30A7
:1055F800012B00F0D880012384F85C30FDF782FD90
:10560800804694F85D30DBB2012B0FD002200123D5
:1056180084F85D30002384F85C3002B0BDE8F08186
:105628004FF4FF716148FDF791FBDFE7002D00F0B3
:10563800B080002F00F0AF80032384F85D30002392
:105648002366A563A787E7872364A4F84430A4F8F2
:1056580046302365E364A368B3F5004F1BD0236885
:105668001A6812F0400F03D11A6842F040021A601B
:10567800E368B3F5E06F32D963681BB1E38F9BB27F
:10568800012B13D1236835F8022BDA60E38F013B35
:105698009BB2E3870AE02268136843F480431360EF
:1056A800DDE7002E79D0B6F1FF3F10D1E38F9BB232
:1056B800002B59D023689A6812F0020FF1D035F800
:1056C800022BDA60E38F013B9BB2E387EEE7FDF73D
:1056D80019FDA0EB0800B042E8D3032097E7636800
:1056E8001BB1E38F9BB2012B22D1E38F9BB2012B1D
:1056F80008D9236835F8022BDA60E38F023B9BB2A6
:10570800E38715E023682A781A73E38F013B9BB27D
:10571800E38701350CE02A781A73E38F013B9BB2CB
:10572800E387013504E0002E39D0B6F1FF3F13D1ED
:10573800E38F9BB2C3B123689A6812F0020FF2D0CC
:10574800E28F92B2012AE6D935F8022BDA60E38FAC
:10575800023B9BB2E387EBE7FDF7D4FCA0EB080024
:10576800B042E5D3032052E7424631462046FFF7D0
:10577800F4FD08B120232366A36833B90193236895
:10578800DA6801929B680193019B236E4BB9002054
:105798003DE701203BE7012039E7032037E70320F5
:1057A80035E7012033E7022037E700BF009B0008F8
:1057B80010B4036A046A24F001040462846924F0C2
:1057C800F00444EA021223F00A030B4382610362E5
:1057D8005DF8044B704710B4036A23F010030362AA
:1057E8008469036A24F4704444EA023223F0A00373
:1057F80043EA0113826103625DF8044B70478368D2
:1058080023F0700341F007011943816070470000DD
:105818000368224A904206D0B0F1804F03D0A2F527
:105828009432904203D123F070034A6813431B4A11
:10583800904212D0B0F1804F0FD0A2F5943290422E
:105848000BD002F59E32904207D002F5806290425A
:1058580003D002F58062904203D123F44073CA68F2
:10586800134323F080034A69134303608B68C362C0
:105878000B688362094B98420BD003F5A0539842FA
:1058880007D003F58063984203D003F580639842FC
:1058980001D10B690363012343617047002C014068
:1058A80000285ED010B5044603682F4A93421ED0E4
:1058B800B3F1804F1BD0A2F59432934217D002F572
:1058C8004062934213D002F5806293420FD002F5F2
:1058D800963293420BD002F58062934207D002F5CC
:1058E8008062934203D0D1212048FDF72FFAA368A4
:1058F8003BB1102B05D0202B03D0402B01D0602BBF
:105908001AD123692BB1B3F5807F02D0B3F5007F9C
:1059180017D1A3690BB1802B18D194F83D30D3B1BE
:10592800022384F83D30211D2068FFF771FF012311
:1059380084F83D30002010BDD2210C48FDF706FA4E
:10594800DFE7D3210948FDF701FAE2E7D421074848
:10595800FDF7FCF9E1E784F83C302046FDF702FB4F
:10596800DEE70120704700BF002C0140389B00088B
:1059780010B4846824F47F4442EA03230B4323438E
:1059880083605DF8044B704738B590F83C30012BC4
:1059980000F01C820D460446012380F83C300223A7
:1059A80080F83D300B68B3F5805F11D0B3F5005F28
:1059B8000ED06BB1102B0BD0202B09D0302B07D079
:1059C800402B05D0502B03D0602B01D0702B3FD13A
:1059D80022689168A54B0B4093602B68402B00F020
:1059E8008D813BD9702B00F0E58075D8502B00F0E5
:1059F8004381602B40F0D78023689D4A93420FD0A3
:105A0800B3F1804F0CD0A2F59432934208D002F53E
:105A18009E32934204D041F202019648FDF796F96E
:105A28006B68B3F5004F05D023B1022B02D00A2BC7
:105A380040F05881EB680F2B00F25A81EA686968D8
:105A48002068FFF7C8FE60212068FFF7D8FEAAE0AB
:105A58004FF47B618748FDF779F9B9E7102B00F01F
:105A680083811ED9202B00F09881302B40F09B8039
:105A780023687F4A93420FD0B3F1804F0CD0A2F530
:105A88009432934208D002F59E32934204D041F2F8
:105A980038017848FDF75AF930212068FFF7AFFE42
:105AA80081E0002B7FD12368714A93420FD0B3F174
:105AB800804F0CD0A2F59432934208D002F59E3262
:105AC800934204D04FF481516A48FDF73FF9002111
