:020000040800F2
:1000000000300020018D0008518D0008518D00083E
:10001000518D0008518D0008518D0008000000002E
:10002000000000000000000000000000518D0008EA
:10003000518D000800000000518D0008B53B0008FC
:10004000518D0008518D0008518D0008518D000818
:10005000518D0008518D0008518D0008C13B0008EA
:10006000518D0008518D0008E53B0008113C000847
:10007000518D0008518D0008518D0008518D0008E8
:10008000518D0008518D0008518D0008518D0008D8
:10009000518D0008518D0008518D0008213C000849
:1000A000518D0008613C0008518D0008518D0008F9
:1000B000713C0008518D000800000000518D0008BF
:1000C000518D00080000000000000000518D000864
:1000D00000000000913C0008A13C0008518D000880
:1000E000518D0008518D0008000000000000000044
:1000F0000000000000000000000000000000000000
:1001000000000000000000000000000000000000EF
:100110000000000000000000B13C0008518D000804
:1001200000000000000000000000000000000000CF
:1001300000000000000000000000000000000000BF
:10014000518D0008518D00080000000000000000E3
:10015000000000000000000000000000000000009F
:10016000000000000000000000000000000000008F
:10017000000000000000000000000000000000007F
:0801800000000000518D000891
:1001900010B5054C237833B9044B13B10448AFF3C1
:1001A00000800123237010BDEC000020000000003F
:1001B00078A8000808B5034B1BB103490348AFF307
:1001C000008008BD00000000F000002078A80008B2
:1001D000034613F8012B002AFBD1181A0138704787
:1001E00001F0FF01102A2BDB10F0070F08D010F8E8
:1001F000013B013A8B422DD010F0070F42B3F6D1EC
:10020000F0B441EA012141EA014122F007047FF004
:1002100000070023F0E80256083C85EA010586EA5B
:10022000010685FA47F5A3FA87F586FA47F6A5FA97
:1002300087F68EB9EED1F0BC01F0FF0102F00702A3
:1002400032B110F8013B013A83EA010313B1F8D14E
:100250000020704701387047002D06BF354603382F
:10026000073815F0010F07D1013015F4807F02BF68
:10027000013015F4C03F0130F0BC0138704700BFB9
:1002800081F0004102E000BF83F0004330B54FEA47
:1002900041044FEA430594EA050F08BF90EA020FB4
:1002A0001FBF54EA000C55EA020C7FEA645C7FEA47
:1002B000655C00F0E2804FEA5454D4EB5555B8BF6A
:1002C0006D420CDD2C4480EA020281EA030382EADB
:1002D000000083EA010180EA020281EA0303362D6D
:1002E00088BF30BD11F0004F4FEA01314FF4801C40
:1002F0004CEA113102D0404261EB410113F0004F52
:100300004FEA03334CEA133302D0524263EB430308
:1003100094EA050F00F0A780A4F10104D5F1200EA6
:100320000DDB02FA0EFC22FA05F2801841F1000101
:1003300003FA0EF2801843FA05F359410EE0A5F1D5
:1003400020050EF1200E012A03FA0EFC28BF4CF006
:10035000020C43FA05F3C01851EBE37101F00045BC
:1003600007D54FF0000EDCF1000C7EEB00006EEBC9
:100370000101B1F5801F1BD3B1F5001F0CD3490853
:100380005FEA30004FEA3C0C04F101044FEA4452AA
:1003900012F5800F80F09A80BCF1004F08BF5FEA31
:1003A000500C50F1000041EB045141EA050130BD11
:1003B0005FEA4C0C404141EB010111F4801FA4F1B4
:1003C0000104E9D191F0000F04BF01460020B1FA09
:1003D00081F308BF2033A3F10B03B3F120020CDA41
:1003E0000C3208DD02F1140CC2F10C0201FA0CF01F
:1003F00021FA02F10CE002F11402D8BFC2F1200C84
:1004000001FA02F120FA0CFCDCBF41EA0C01904039
:10041000E41AA2BF01EB0451294330BD6FEA040482
:100420001F3C1CDA0C340EDC04F11404C4F120026D
:1004300020FA04F001FA02F340EA030021FA04F37F
:1004400045EA030130BDC4F10C04C4F1200220FAD6
:1004500002F001FA04F340EA0300294630BD21FA14
:1004600004F0294630BD94F0000F83F4801306BFDA
:1004700081F480110134013D4EE77FEA645C18BFCE
:100480007FEA655C29D094EA050F08BF90EA020F65
:1004900005D054EA000C04BF1946104630BD91EA5D
:1004A000030F1EBF0021002030BD5FEA545C05D160
:1004B0004000494128BF41F0004130BD14F580049F
:1004C0003CBF01F5801130BD01F0004545F0FE4113
:1004D00041F470014FF0000030BD7FEA645C1ABF48
:1004E000194610467FEA655C1CBF0B46024650EA7F
:1004F000013406BF52EA033591EA030F41F40021AB
:1005000030BD00BF90F0000F04BF0021704730B530
:100510004FF4806404F132044FF000054FF0000105
:1005200050E700BF90F0000F04BF0021704730B5C6
:100530004FF4806404F1320410F0004548BF40429B
:100540004FF000013EE700BF42004FEAE2014FEAF0
:1005500031014FEA02701FBF12F07F4393F07F4FCB
:1005600081F06051704732F07F4208BF704793F0CE
:100570007F4F04BF41F40021704730B54FF46074E1
:1005800001F0004521F000411CE700BF50EA0102E4
:1005900008BF704730B54FF000050AE050EA01028D
:1005A00008BF704730B511F0004502D5404261EBFD
:1005B00041014FF4806404F132045FEA915C3FF43E
:1005C000D8AE4FF003025FEADC0C18BF03325FEADB
:1005D000DC0C18BF033202EBDC02C2F1200300FA8C
:1005E00003FC20FA02F001FA03FE40EA0E0021FAB1
:1005F00002F11444BDE600BF70B54FF0FF0C4CF49F
:10060000E06C1CEA11541DBF1CEA135594EA0C0F50
:1006100095EA0C0F00F0DEF82C4481EA030621EA8B
:100620004C5123EA4C5350EA013518BF52EA0335C6
:1006300041F4801143F4801338D0A0FB02CE4FF078
:100640000005E1FB02E506F00042E0FB03E54FF0A8
:100650000006E1FB03569CF0000F18BF4EF0010EA0
:10066000A4F1FF04B6F5007F64F5407404D25FEA9C
:100670004E0E6D4146EB060642EAC62141EA55514F
:100680004FEAC52040EA5E504FEACE2EB4F1FD0C91
:1006900088BFBCF5E06F1ED8BEF1004F08BF5FEA0F
:1006A000500E50F1000041EB045170BD06F00046C1
:1006B00046EA010140EA020081EA0301B4EB5C046E
:1006C000C2BFD4EB0C0541EA045170BD41F4801166
:1006D0004FF0000E013C00F3AB8014F1360FDEBF8B
:1006E000002001F0004170BDC4F10004203C35DA67
:1006F0000C341BDC04F11404C4F1200500FA05F3EA
:1007000020FA04F001FA05F240EA020001F000428A
:1007100021F0004110EBD37021FA04F642EB060100
:100720005EEA430E08BF20EAD37070BDC4F10C042A
:10073000C4F1200500FA04F320FA05F001FA04F2EE
:1007400040EA020001F0004110EBD37041F10001DA
:100750005EEA430E08BF20EAD37070BDC4F12005E5
:1007600000FA05F24EEA020E20FA04F301FA05F24D
:1007700043EA020321FA04F001F0004121FA04F2F5
:1007800020EA020000EBD3705EEA430E08BF20EAC5
:10079000D37070BD94F0000F0FD101F000464000FF
:1007A00041EB010111F4801F08BF013CF7D041EA81
:1007B000060195F0000F18BF704703F00046520085
:1007C00043EB030313F4801F08BF013DF7D043EA56
:1007D0000603704794EA0C0F0CEA135518BF95EA0C
:1007E0000C0F0CD050EA410618BF52EA4306D1D193
:1007F00081EA030101F000414FF0000070BD50EAB2
:10080000410606BF1046194652EA430619D094EA3B
:100810000C0F02D150EA013613D195EA0C0F05D125
:1008200052EA03361CBF104619460AD181EA030179
:1008300001F0004141F0FE4141F470014FF0000031
:1008400070BD41F0FE4141F4780170BD70B54FF0CC
:10085000FF0C4CF4E06C1CEA11541DBF1CEA13554C
:1008600094EA0C0F95EA0C0F00F0A7F8A4EB05042E
:1008700081EA030E52EA03354FEA013100F0888025
:100880004FEA03334FF0805545EA131343EA1263EE
:100890004FEA022245EA111545EA10654FEA0026A3
:1008A0000EF000419D4208BF964244F1FD0404F55C
:1008B000407402D25B084FEA3202B61A65EB0305B8
:1008C0005B084FEA32024FF480104FF4002CB6EB75
:1008D000020E75EB030E22BFB61A754640EA0C00F5
:1008E0005B084FEA3202B6EB020E75EB030E22BF35
:1008F000B61A754640EA5C005B084FEA3202B6EB76
:10090000020E75EB030E22BFB61A754640EA9C0034
:100910005B084FEA3202B6EB020E75EB030E22BF04
:10092000B61A754640EADC0055EA060E18D04FEAC2
:10093000051545EA16754FEA06164FEAC30343EA62
:1009400052734FEAC2025FEA1C1CC0D111F4801F2F
:100950000BD141EA00014FF000004FF0004CB6E728
:1009600011F4801F04BF01430020B4F1FD0C88BFC7
:10097000BCF5E06F3FF6AFAEB5EB030C04BFB6EBD2
:10098000020C5FEA500C50F1000041EB045170BDC5
:100990000EF0004E4EEA113114EB5C04C2BFD4EBF2
:1009A0000C0541EA045170BD41F480114FF0000E76
:1009B000013C90E645EA060E8DE60CEA135594EAF2
:1009C0000C0F08BF95EA0C0F3FF43BAF94EA0C0FF5
:1009D0000AD150EA01347FF434AF95EA0C0F7FF46A
:1009E00025AF104619462CE795EA0C0F06D152EABE
:1009F00003353FF4FDAE1046194622E750EA4106A2
:100A000018BF52EA43067FF4C5AE50EA41047FF4B2
:100A10000DAF52EA43057FF4EBAE12E74FF0FF3C17
:100A200006E000BF4FF0010C02E000BF4FF0010CE8
:100A30004DF804CD4FEA410C7FEA6C5C4FEA430C61
:100A400018BF7FEA6C5C1BD001B050EA410C0CBFB0
:100A500052EA430C91EA030F02BF90EA020F002012
:100A6000704710F1000F91EA030F58BF994208BF79
:100A700090422CBFD8176FEAE37040F00100704736
:100A80004FEA410C7FEA6C5C02D150EA013C07D18D
:100A90004FEA430C7FEA6C5CD6D152EA033CD3D0D8
:100AA0005DF8040B704700BF8446104662468C46D2
:100AB0001946634600E000BF01B5FFF7B7FF002805
:100AC00048BF10F1000F01BD4DF808EDFFF7F4FF2E
:100AD0000CBF012000205DF808FB00BF4DF808EDB9
:100AE000FFF7EAFF34BF012000205DF808FB00BFDC
:100AF0004DF808EDFFF7E0FF94BF012000205DF8FE
:100B000008FB00BF4DF808EDFFF7CEFF94BF0120B2
:100B100000205DF808FB00BF4DF808EDFFF7C4FFAB
:100B200034BF012000205DF808FB00BF4FEA410CF4
:100B30007FEA6C5C02D150EA013C0AD14FEA430CD7
:100B40007FEA6C5C02D152EA033C02D14FF0000014
:100B500070474FF0010070474FEA410212F5001252
:100B600015D211D56FF47873B3EB625212D94FEAF4
:100B7000C12343F0004343EA505311F0004F23FADE
:100B800002F018BF404270474FF00000704750EA33
:100B9000013005D111F0004008BF6FF000407047F0
:100BA0004FF00000704700BF4A0011D212F500124A
:100BB00011D20DD56FF47873B3EB62520ED44FEAB5
:100BC000C12343F0004343EA505323FA02F0704735
:100BD0004FF00000704750EA013002D14FF0FF3073
:100BE00070474FF000007047002302E00133DBB292
:100BF0000846411C0278002AF8D1184670470000C8
:100C000010B50446054B1868013804F0FDFA044B92
:100C10001C60034B1B68002BFBD110BD300500206E
:100C2000340500202DE9F04F87B004460F461646E4
:100C30009B469DF84050BDF844A0454901F04CFB4F
:100C40000021204601F043FC00955B46002211463E
:100C5000204600F0E5FC0121204601F038FCBDF8FB
:100C60004C00FFF74FFC80468946CDE9028950468B
:100C7000FFF758FC42464B46FFF7E8FD80468946A1
:100C80005846FFF74FFC02460B46CDE90423404689
:100C90004946FFF7B1FCFFF787FFC3B20133721C6F
:100CA000A91EC9B20091DBB2D2B23946204600F08B
:100CB000B7FC0221204601F00AFC4FF0020822E0B6
:100CC0004FF47A7000FB08F0FFF72CFCDDE90223FB
:100CD000FFF7BCFD02460B46DDE90401FFF78CFC83
:100CE000FFF762FFC1B20131C9B2AB19DBB2013B00
:100CF000DBB200930B460022204601F01FFC08F1F6
:100D000001085FFA88F8B8F1080FD9D90221204606
:100D100001F0DDFB0121204601F037FA3544EDB248
:100D20000421504601F0A2FF023D791C0346EAB2BD
:100D3000C9B2204601F092FA0021204601F025FABE
:100D40000121204601F0C3FB07B0BDE8F08F00BFD2
:100D5000E4BB00082DE9F04383B006460F46154674
:100D60001C469DF82880012101F0B1FB2249304644
:100D700001F0B2FA9DF82C30012B28D00223019308
:100D8000CDF8008023462A463946304600F026FD3D
:100D90000C98FFF729FFA4EB8001C1F34701013153
:100DA00005EB0802D2B2023A57FA81F10C9BD2B29B
:100DB000C9B2304601F052FA0021304601F0E5F99F
:100DC0000121304601F083FB03B0BDE8F0834FF012
:100DD0000209CDF80490CDF8008023462A46394612
:100DE000304600F080FC4946304601F070FB01219E
:100DF000304601F0CAF9CBE7F8C40008F8B506465A
:100E00000F4614461D46114901F066FA9DF8183048
:100E10001C44E4B2023CE4B2079B22463946304609
:100E200001F01CFA0A49304601F056FA0898FFF71B
:100E3000DBFEA5EB8001C9B2013957FA81F1089BAD
:100E40002246C9B2304601F009FAF8BDECB40008F8
:100E50009CA80008000000002DE9F04F87B0049026
:100E60008B4691461D469DF840A0BDF94430059340
:100E70009DF848609DF84C709DF85080F41BE4B2DA
:100E8000794901F029FA1598FFF7AEFEB8F1000F85
:100E90000CBF3346731CC3EBC30303EB8003DBB20D
:100EA000002F33D003200344DBB2ED1AEDB2023D34
:100EB000EDB20021049801F00AFB013CE4B23CB31E
:100EC0000598FFF72FFBCDE90201E019FFF72AFB98
:100ED00041EC110B9FED620B08F0BAFB53EC102BA9
:100EE000DDE90201FFF70EFE90B905EB0B01CDF82D
:100EF00000A007234A46C9B2049800F091FB0735C9
:100F0000EDB2013EF6B2013CE4B2D8E73846CAE79A
:100F10000121049801F0DBFAB8F1000F56D1002F3F
:100F200000F08A803846FFF7EDFA41EC110B9FED97
:100F30004C0B08F08DFB51EC100BFFF735FE1FFA40
:100F400080F8059B93FBF8F305EB0B04E4B2CA446D
:100F50005FFA8AFAAAF1020A5FFA8AFA1FFA83F99B
:100F6000F61BF6B23146484601F080FE0346524673
:100F70002146049C204601F071F9C6EBC60655FADD
:100F800086F5EDB20BEB0501C9B20239374B52467B
:100F9000C9B2204601F062F9033519FB08F89DF843
:100FA00014005FFA88F8A0EB08005BFA85FB5FFA93
:100FB0008BFB3946C0B201F059FE034652465946F2
:100FC000204601F04BF907B0BDE8F08F0021DDF8B5
:100FD0001080404601F07BFA05EB0B04E4B2CDF83B
:100FE00000A007234A462146404600F019FB012194
:100FF000404601F06CFA059B002B0CDB09EB0A0262
:10100000D2B2023A1A4BD2B22146049801F026F924
:101010000735EDB283E709EB0A02D2B2023A154B6B
:10102000D2B22146049801F019F9059B5B421BB22C
:1010300005930735EDB272E75D44EDB2CA445FFA3D
:101040008AFA3146BDF8140001F010FEAAF1020A36
:1010500003465FFA8AF22946049801F0FFF8B2E7E6
:101060000000000000002440E4BB000898A800082D
:1010700094A8000890A800082DE9F04F87B00490CC
:101080008B4691461D469DF840A0BDF9443005931E
:101090009DF848609DF84C709DF85080F41BE4B2B8
:1010A000794901F019F91598FFF79EFDB8F1000F85
:1010B0000CBF3346731C03EB830303EB8003DBB2EB
:1010C000002F33D002200344DBB2ED1AEDB2023D13
:1010D000EDB20021049801F0FAF9013CE4B23CB30E
:1010E0000598FFF71FFACDE90201E019FFF71AFA98
:1010F00041EC110B9FED620B08F0AAFA53EC102B98
:10110000DDE90201FFF7FEFC90B905EB0B01CDF81C
:1011100000A005234A46C9B2049800F081FA0535BB
:10112000EDB2013EF6B2013CE4B2D8E73846CAE778
:101130000121049801F0CBF9B8F1000F56D1002F2E
:1011400000F08A803846FFF7DDF941EC110B9FED86
:101150004C0B08F07DFA51EC100BFFF725FD1FFA40
:1011600080F8059B93FBF8F305EB0B04E4B2CA444B
:101170005FFA8AFAAAF1020A5FFA8AFA1FFA83F979
:10118000F61BF6B23146484601F070FD0346524662
:101190002146049C204601F061F806EB860655FACC
:1011A00086F5EDB20BEB0501C9B20139374B52465A
:1011B000C9B2204601F052F8023519FB08F89DF833
:1011C00014005FFA88F8A0EB08005BFA85FB5FFA71
:1011D0008BFB3946C0B201F049FD034652465946E1
:1011E000204601F03BF807B0BDE8F08F0021DDF8A4
:1011F0001080404601F06BF905EB0B04E4B2CDF82A
:1012000000A005234A462146404600F009FA012184
:10121000404601F05CF9059B002B0CDB09EB0A0250
:10122000D2B2023A1A4BD2B22146049801F016F813
:101230000535EDB283E709EB0A02D2B2023A154B4B
:10124000D2B22146049801F009F8059B5B421BB21B
:1012500005930535EDB272E75D44EDB2CA445FFA1D
:101260008AFA3146BDF8140001F000FDAAF1020A25
:1012700003465FFA8AF22946049800F0EFFFB2E7CE
:101280000000000000002440ECB4000898A800080A
:1012900094A8000890A8000870B52DED028B86B0C8
:1012A00005460E46BDF9341008EE901A06F11800F6
:1012B0003D49087003323D490A701A3B3C4A13709D
:1012C0009DF83030083BDBB23A4A137007EE903A93
:1012D000F8EE677ABDF9383018EE902A9B1A07EEBF
:1012E000103AB8EEC78A87EE887A334B83ED007ADE
:1012F000324BC3ED008A00243BE02C4B1B782D4A77
:101300001278134407EE903A2B4B93ED007A28EEB7
:10131000077AB0EE086AC7EE066A07EE104AB8EE22
:10132000C77A66EE876AF8EEE77A77EEE67A77EEC6
:10133000C67AC8EE066A67EE266AB8EEE87A37EE35
:10134000267A1F4B059301230493039303230293EF
:10135000BDEEC77A8DED017A082300931823FDEEC8
:10136000E77A17EE902A31462846FFF785FE0134CA
:10137000E4B2032CC1D90E4B1B7802330B4A12780E
:10138000013A0949097801390A4800780230C0B2A7
:101390000090DBB2D2B2C9B2284600F066F906B0BE
:1013A000BDEC028B70BD00BF4A0500204005002047
:1013B00049050020480500203C0500204405002088
:1013C000D0C900082DE9F047A2B005461E46BDF978
:1013D000AC90BDF9B0A0DDF8B480BDF8B8700021C4
:1013E00001F075F8504B1B78504A12785049097833
:1013F000504800780090284600F012F90121284654
:1014000001F065F800245AE0534518DB07EE90AA76
:10141000F8EEE77A484B93ED007AB8EEC77A77EEAC
:10142000C77A464B93ED007A67EE877AFCEEE77A4F
:1014300017EE903A22AA024402F8803C55E007EEEB
:10144000903AB8EEE77A3C4BD3ED007AF8EEE77AC3
:1014500077EE677A394B93ED007A67EE877AFCEE88
:10146000E77A17EE903A22AA024402F8803C3CE068
:101470002F4B1B782C4A12781344DBB21B1BDBB2B8
:101480002A4A11782B4A12781144C9B2421E0DF132
:10149000880C624412F8802C8A1AD2B2604410F888
:1014A000800C081AC0B2013A591C0138C0B2009031
:1014B000D2B2C9B2284601F041F80134A4B22046A4
:1014C000A6F118039C422CDA3B195A4203F07F0321
:1014D00002F07F0258BF534238F913304B4593DC7A
:1014E000002222AB034403F8802C002CC0D1104B07
:1014F00019780D4B1B781944C9B20C4B1A780D4B57
:101500001B781A44D2B222AB184410F8803CD21A8D
:10151000D2B2013A091BD2B2C9B2284600F0BCFFD0
:10152000CBE722B0BDE8F087490500204005002048
:101530004A05002048050020440500203C05002005
:101540002DE9F04F83B007460E4691461D46DDF863
:10155000308090F87DB0CB18541CE4B20094DBB21C
:1015600000F0D3FF78B3BBFA8BFA4FEA5A1A012482
:1015700014E087F87DB00023009301234A463146EA
:10158000384600F047FF0136F6B2640014F0FF045D
:1015900002D108F101080124013DEDB28DB198F8A6
:1015A00000302342E5D197F87C30002BEBD187F84F
:1015B0007DA0009301234A463146384600F02AFFB9
:1015C000E1E787F87DB003B0BDE8F08F2DE9F04783
:1015D00082B08246894615461F469DF828400B9EDC
:1015E00003F10708C8F3C40803EB010C1319DBB2BD
:1015F00000935FFA8CF300F088FF60B90DE000966D
:101600003B462A4649465046FFF79AFF4644013575
:10161000EDB2013CE4B2002CF1D102B0BDE8F0879C
:101620002DE9F04182B080460F4615461E469DF8D2
:10163000204001EB030C1319DBB200935FFA8CF32B
:1016400000F063FF60B90DE00023009333462A46A3
:101650003946404600F0DEFE0135EDB2013CE4B211
:10166000002CF1D102B0BDE8F0812DE9F04F85B03A
:1016700003900E46174698469DF83890CD18EDB267
:1016800002EB0904E4B200942B4600F03EFF10B9CF
:1016900005B0BDE8F08F4FF0000ACDF800A043463A
:1016A0003A463146039800F0B5FE4FF0010BCDF8F5
:1016B00000B04B463A463146039800F0ABFE691E37
:1016C000CDF800B04B463A46C9B2039D284600F01B
:1016D000A1FE621ECDF800A04346D2B23146284694
:1016E00000F098FED4E72DE9F04F87B003908946CB
:1016F00093469A469DF840609DF84470CC18E4B239
:101700009519EDB20095234600F0FFFE10B907B021
:10171000BDE8F08F09EB07085FFA88F80BEB0703C9
:10172000DAB2E41BE4B2013CE4B2ED1BEDB2013DE0
:10173000EDB2022300933B4604924146039800F029
:10174000A8FA012300933B46049A2146039800F02F
:10175000A0FA042300933B4605952A464146039D83
:10176000284600F096FA082300933B46059A214646
:10177000284600F08EFAAAEB0703DBB2DB1BDBB2D4
:1017800008F101085FFA88F8049A541CE4B2022BAD
:101790000FD8F61BF6B2F71BFFB2022FB7D9023FE4
:1017A000FFB200975346224649460398FFF738FF99
:1017B000ADE7023BDBB27D1CEDB2009504935A46C7
:1017C0004146DDF80CB05846FFF72AFF0095049B10
:1017D000059A41465846FFF723FFDAE72DE9F04F17
:1017E00085B002908A46934698469DF838909DF8B9
:1017F0003C60CD18EDB202EB0904E4B200942B4634
:1018000000F083FE10B905B0BDE8F08F0AEB0607C3
:10181000FFB20BEB0603DAB2AD1BEDB2013DEDB248
:10182000A41BE4B2013CE4B20223009333460392CA
:101830003946029800F009FA012300933346039ACF
:101840002946029800F001FA042300933346224609
:101850003946029800F0F9F90823009333462246EE
:101860002946029800F0F1F9A8EB0605EDB2AD1B90
:10187000EDB2A9EB0603DBB29E1BF6B20137FFB255
:10188000039A541CE4B2022D17D8022EBBD9023E93
:10189000F6B208F1FF385FFA88F83346224651461F
:1018A000029D284600F0DDFD0AEB08013346224682
:1018B000C9B2284600F0D5FDA5E7023DEDB209F119
:1018C000FF395FFA89F92B465A463946029800F0EB
:1018D000ADFD0BEB09022B46D2B23946029800F05F
:1018E000A5FDD2E710B582B003681B7C446B03FBF7
:1018F00001F1C90089B221440091002101F0E7F80B
:1019000002B010BD2DE9F041064690F8387090F80D
:101910003950036893F8118000242A462146304646
:10192000FFF7E0FF0134E4B20135EDB2A74201D97F
:10193000A845F2D8BDE8F08108B503681A7C90F894
:10194000383002FB03F2D2000021406B07F036FA78
:1019500008BD10B50446FFF7D5FF204601F0E5F8B5
:1019600010BD08B580F83910036B1B68984708BD97
:1019700010B5044690F87E3023B900212046FFF7C9
:10198000F0FF10BDFFF7D8FFF7E738B50546FFF7C2
:10199000B9FF95F8393095F838401C44E4B22B680B
:1019A0005B7CA34208D995F87E3053B9214628467E
:1019B000FFF7D7FF012038BD284601F0B6F8002018
:1019C000F9E72846FFF7B8FFF0E72DE9F8430746A7
:1019D0000E4690461D469DF820909DF8244014F038
:1019E000010F0AD114F0020F18D114F0080F27D1FB
:1019F00014F0040F36D1BDE8F883A9EB02025918A0
:101A0000D2B2C9B200F048FDA9EB060205EB08010D
:101A1000D2B2C9B2384600F03FFDE3E7A9EB0802B5
:101A2000A91BD2B2C9B2384600F036FDA9EB0602B6
:101A3000A5EB0801D2B2C9B2384600F02DFDD4E7BB
:101A400009EB0802A919D2B2C9B2384600F024FD48
:101A500006EB090205EB0801D2B2C9B2384600F024
:101A60001BFDC5E709EB0802A91BD2B2C9B2384673
:101A700000F012FD06EB0902A5EB0801D2B2C9B2D3
:101A8000384600F009FDB6E72DE9F04F85B0039028
:101A9000894692461F469DF838B0C3F101084FFAB7
:101AA00088F8C3EBC3135D006DB2CDF804B00092AB
:101AB0000B463A460021FFF788FF0026012411E07B
:101AC0000136F6B20234E3B25CB298444FFA88F8B9
:101AD000CDF804B0CDF800A04B463A463146039805
:101AE000FFF773FFBE420BD2B8F1000FE8DB013FF6
:101AF000FFB20235EBB25DB298444FFA88F8DFE7E7
:101B000005B0BDE8F08F2DE9F84380460C46174636
:101B10001E469DF820909DF8245015F0010F0AD123
:101B200015F0020F1BD115F0080F2DD115F0040F81
:101B30003BD1BDE8F883531CA9EB02027118DBB25C
:101B4000D2B2C9B200F08DFC631CA9EB0402F119FA
:101B5000DBB2D2B2C9B2404600F083FCE0E77B1CA6
:101B6000A9EB0702311BDBB2D2B2C9B2404600F08A
:101B700078FC631CA9EB0402F11BDBB2D2B2C9B240
:101B8000404600F06EFCCEE77B1C3119DBB24A46C2
:101B9000C9B2404600F065FC631CF119DBB24A464D
:101BA000C9B2404600F05DFCC0E77B1C311BDBB2D4
:101BB0004A46C9B2404600F054FC631CF11BDBB23C
:101BC0004A46C9B2404600F04CFCB2E72DE9F04F5E
:101BD00085B00390894692461F469DF838B0C3F100
:101BE00001084FFA88F8C3EBC3135D006DB2CDF85E
:101BF00004B000920B463A460021FFF784FF00260E
:101C0000012411E00136F6B20234E3B25CB298442A
:101C10004FFA88F8CDF804B0CDF800A04B463A460C
:101C200031460398FFF76FFFBE420BD2B8F1000FA9
:101C3000E8DB013FFFB20235EBB25DB298444FFAE8
:101C400088F8DFE705B0BDE8F08F2DE9F04182B0FC
:101C500080460E4617461D46CB18DBB2AC18E4B2E0
:101C60000133521B491B0134E4B20094DBB2D2B2FF
:101C7000C9B200F04AFC10B902B0BDE8F0819DF88D
:101C8000203000932B463A4631464046FFF7FCFE93
:101C9000F2E72DE9F04182B080460E4617461D4618
:101CA000CB18DBB2AC18E4B20133521B491B013430
:101CB000E4B20094DBB2D2B2C9B200F026FC10B993
:101CC00002B0BDE8F0819DF8203000932B463A46E3
:101CD00031464046FFF77AFFF2E710B50446FFF7BA
:101CE00047FE2046FFF751FE0028FAD1002120468A
:101CF000FFF737FE10BD000008230370004870474F
:101D00000801002030B585B004460D460093134607
:101D1000084A094900F07CFF0DF10F00FFF7ECFFC6
:101D20009DF80F200095054B0146204600F0FFFC72
:101D300005B030BDED280008F1290008092600088B
:101D4000405C70474218435C507800EB032080B23F
:101D50007047012B08D023B1022B08D0401AC0B223
:101D600070471044C0B270470844C0B27047801A30
:101D7000C0B27047012B08D023B1022B08D0104409
:101D8000C0B270470844C0B27047801AC0B27047F2
:101D9000401AC0B270470020704738B504460D465F
:101DA00000212846FFF7CCFF207001212846FFF7CD
:101DB000C7FF607002212846FFF7C2FFA070032111
:101DC0002846FFF7BDFFE07004212846FFF7B8FF63
:101DD000207105212846FFF7B3FF607106212846D0
:101DE000FFF7AEFFA07107212846FFF7A9FFE071BA
:101DF00008212846FFF7A4FF207209212846FFF793
:101E00009FFF60720A212846FFF79AFFA0720B21FC
:101E10002846FFF795FFE0720C212846FFF790FF58
:101E200020730D212846FFF78BFF60730E21284693
:101E3000FFF786FFA0730F212846FFF781FFE073AD
:101E400010212846FFF77CFF207411212846FFF758
:101E500079FF608213212846FFF774FFA0821521C5
:101E60002846FFF76FFFE08238BD70B4847A0668B9
:101E7000327842FA04F5EAB26318DBB2072B0AD9CA
:101E8000C4F10804E4B2721C02607278A2402A43D2
:101E9000D2B2083BDBB24FF0FF3404FA01F1837297
:101EA00022EA010070BC704738B5044600F15005C5
:101EB0000165002380F85A3090F864102846FFF737
:101EC000D4FF84F8580094F865102846FFF7CDFF3A
:101ED00084F8590094F87D3084F85C30B3FA83F3C9
:101EE0005B0984F85D3038BD10B50C46FFF7BDFFC7
:101EF000013CE4B20123A340C01A40B210BD2DE959
:101F0000F04F87B006460C46059290F956305FFABE
:101F100083FA90F957805FFA88F816E003941DE081
:101F200096F85C3086F87D300097039B0246049952
:101F3000304600F06FFAAC4239D3641BE4B208F1CA
:101F400001085FFA88F84FF0000A96F95850EDB290
:101F5000A5EB0A05EDB2AC42E0D3039596F8559097
:101F60004FFA8AF14FFA88FB96F85E703B465A4664
:101F7000029196F85400FFF7FDFE04903B465A4646
:101F800002994846FFF7E5FE059B002BC8D196F85D
:101F90005B30002BCFD196F85D3086F87D3000970E
:101FA000039B02460499304600F034FAC3E75444D8
:101FB00086F8564086F857B007B0BDE8F08F2DE997
:101FC000F04F85B0044600F15005FFF76DFF94F91E
:101FD000598094F866102846FFF786FF834694F8E8
:101FE00067102846FFF780FF064694F868102846D9
:101FF000FFF77AFF029094F95870002F58DD5FFACE
:1020000088F94E44F6B2764276B294F85EA0534612
:102010003246CDF80CB0594694F85400FFF7AAFEAA
:10202000834684F8540053463246039994F8550089
:10203000FFF78FFE024684F85500BAF1030F65D80A
:10204000DFE80AF0023A47595BFA87F3DBB248440B
:10205000C0B200905946204600F057FA40B3002322
:1020600084F8563084F8573094F862102846FFF709
:10207000FCFE074694F863102846FFF7F6FE064676
:10208000002239462046FFF73AFF0122314620461A
:10209000FFF735FF01212846FFF7E7FE0028EFD1C3
:1020A00094F957304345DFDB94F85C3084F87D3099
:1020B000029805B0BDE8F08FABEB0901C9B2013160
:1020C0000BF10103DBB250FA87F0C0B25FFA81FB7B
:1020D000BFE7F9B2ABEB0101C9B201310BF101036A
:1020E000DBB2A0EB0906F6B201360132D0B2F2B291
:1020F0005FFA81FBADE709EB0B03DBB2F9B2411AE2
:10210000C9B201310132D0B2CAB2A2E75B46A0E740
:10211000836C1733FF2913D8602909D9B0F87420CC
:1021200013445A78DAB11878884207D01344F8E794
:102130004029F6D9B0F872201344F2E7981C704792
:10214000B0F8760018440278437853EA022308D0A6
:10215000994202D083781844F5E703307047002095
:1021600070470020704710B5044680F8541080F87E
:1021700055201946FFF7CCFF28B101462046FFF74E
:102180001EFFC0B210BD0020FCE780F85B10704756
:10219000F8B504460D4616461F4690F85E30032BF0
:1021A00007D8DFE803F0020D1217C36C9847064406
:1021B000F6B23B46324629462046FFF7D4FFF8BD2B
:1021C000C36C98472D1AEDB2F3E7C36C9847361AE3
:1021D000F6B2EEE7C36C98470544EDB2E9E70000BC
:1021E0002DE9F04104460F4616461D4600F0C7FA99
:1021F0004FF0000804E00744FFB280445FFA88F81B
:1022000063682978204698474FF6FF73984222D09A
:1022100001354FF6FE739842F2D0034632463946F6
:102220002046FFF7B5FF94F85E30032BE5D801A2F6
:1022300052F823F0F7210008452200084B2200083D
:10224000512200080644F6B2D7E73F1AFFB2D4E79E
:10225000361AF6B2D1E74046BDE8F08110B5024C1F
:102260004460FFF7BDFF10BD69270008836C63B3AE
:1022700090F96D2080F8792090F96E3080F87A30EE
:1022800090F8781009B3012912D030B490F96A405F
:1022900090F96C106518AA4204DACAB252FA84F4B2
:1022A00080F879408B4201DD80F87A1030BC7047AD
:1022B00090F96F108A4201DA80F8791090F9702055
:1022C000934202DD80F87A2070477047014BC36467
:1022D000704700BF971D0008836C8B4209D010B572
:1022E000044681646030FFF758FD2046FFF7BEFFCB
:1022F00010BD704710B403780C78A34204D9934200
:102300000AD2541EE4B20C70934208D25CB19442DB
:102310000BD90A70012003E000230370F4E70020CA
:102320005DF8044B70470020FAE70120F8E770B52C
:1023300086B004469DF828508DF80F108DF80E20B9
:1023400090F83B2090F83A000DBB9DF80E1091429A
:1023500001D306B070BD9DF80F20134406A901F803
:10236000013D02460DF10F00FFF7C4FF0028F0D039
:102370009DF817309DF80F209B1ADBB2E66A9DF896
:102380000E209DF80F1000952046B047E1E79DF81C
:102390000F108142DDD29DF80E100B4406A901F802
:1023A000013D0DF10E00FFF7A5FF0028D1D09DF8EB
:1023B00017309DF80E209B1ADBB2DFE730B583B0F3
:1023C0009DF8185090F83940A2EBC402D2B2012B0C
:1023D0000AD0022D14D0032D17D005F00105009569
:1023E000FFF7A5FF03B030BD90F83A408C42F9D911
:1023F00090F83B409442F5D9C46A0095A047F1E7B4
:10240000C91AC9B20131C9B2E7E7D21AD2B2013250
:10241000D2B2E2E74BB130B583B0046B64689DF88B
:1024200018500095A04703B030BD70472DE9F0412A
:1024300082B080460D4616461F46CB18541CE4B2A7
:102440000094DBB200F061F810B902B0BDE8F08191
:10245000002300933B46324629464046FFF7DAFF09
:10246000F3E72DE9F04182B080460D4616461F463F
:102470004B1CD419E4B20094DBB200F046F810B95A
:1024800002B0BDE8F081012300933B463246294665
:102490004046FFF7BFFFF3E790F8433093420BD875
:1024A00090F84430934207D990F841308B4203D8DA
:1024B00090F842308B4200D8704700B583B00023BB
:1024C00000930123FFF7A6FF03B05DF804FB80F83B
:1024D0007D10022902D9012380F87D3070478A429D
:1024E00005D283420BD89A420BD901207047834210
:1024F00009D99A4201D80020704701207047012075
:102500007047002070470020704770B504460D46A4
:102510001E469DF8103090F8441090F84300FFF7E5
:10252000DEFF034640B133462A4694F8421094F841
:102530004100FFF7D4FF0346184670BD2DE9F04F68
:1025400083B0019017461E469DF83040994229D924
:10255000A1EB03085FFA88F8A74228D9A7EB040982
:102560005FFA89F9C84527D34B46C14698462346AA
:1025700034461E463B460F4619464FF0000AA74216
:1025800005D833460E46194623463C461F4649F3B6
:1025900047058E4213D24FF0010BFF2F1FD1013F91
:1025A000FFB21CE0A3EB01085FFA88F8D4E7A4EBC4
:1025B00007095FFA89F9D5E74FF0010ADFE74FF025
:1025C000FF3BEAE7224631460198FFF765FFA5EB9E
:1025D0000805EBB25DB2002D0CDB0134E4B2A7427A
:1025E0000FD3BAF1000FEDD1324621460198FFF723
:1025F00053FFECE756FA8BF6F6B203EB09056DB222
:10260000EBE703B0BDE8F08FF0B59DF814C002F021
:1026100007050124AC40E4B290F87D70012F19D970
:102620000026012F18D002F0F802076897F810E092
:10263000476B0EFB02113944BCF1000F16D10A782A
:102640003243D2B2624001F8012B013B13F0FF0389
:10265000F5D1F0BD2646E4E70024E4E7012617E0C3
:102660007600F6B26400E4B2002BF2D00A7832436E
:10267000D2B262400A706A1C013BDBB212F007055D
:10268000EED190F83A20114490F87D20012AE5D946
:10269000012AE9D00124E7E770B490F83830DA0075
:1026A00080F83B2001680A7C1F2A00D91F22D20033
:1026B00080F83A2090F83950EA00D2B280F83C20F5
:1026C0005E194C7CA64201DD631BDBB2DB00DBB292
:1026D00080F83D20134480F83E30F02380F83F30EE
:1026E0008B8AF02B01D880F83F30CB8A80F84030BD
:1026F00070BC704710B50446FFF7CEFF002384F886
:10270000413094F83A3084F8423094F83D3084F8FF
:10271000433094F83E3084F8443010BD10B582B098
:102720009DF810400094FFF749FE02B010BD70B54F
:102730000446049E00258564C362416380F8382006
:1027400080F8395080F85B5080F87C50012380F885
:102750007D3080F87E300663336898472046FFF767
:10276000B5FD84F85E5070BD19B10A2904D088B255
:1027700070474FF6FF7070474FF6FF7070470023A9
:1027800080F82330704710B5046900230A462021E1
:10279000A04710BD10B5046913460A461721A0478B
:1027A00010BD00B583B002AA02F8011D0121FFF798
:1027B000F1FF03B05DF804FB30B583B014461D464D
:1027C0001739092934D8DFE801F011161D333333E6
:1027D0003333332415F8013B02A901F8013D013CD4
:1027E000E4B264230122134804F012FA002CF1D160
:1027F000012003B030BD002201210F4803F036F85C
:102800000120F6E7012211460B4803F02FF80120C2
:10281000EFE732B900220221074803F027F8012030
:10282000E7E701220221044803F020F80120E0E755
:102830000020DEE7080700200004004810B5C46847
:1028400000230A461521A04710BD10B5C468002317
:102850000A461621A04710BD10B5C46813460A46A3
:102860001721A04710BD10B5C46800231A461821CF
:10287000A04710BD10B5C46800231A461921A0470F
:1028800010BD70B582B006460D462C4614F8011BEB
:10289000172918D00CD919291FD9FE2924D122783B
:1028A0008DF807202921304600F046F90235ECE783
:1028B000152919D322788DF80720F46800233046B3
:1028C000A0470235E1E76B7802AA02F8013D012139
:1028D0003046FFF7C1FF0235D7E7F56800231A46F7
:1028E0003046A8472546D0E702B070BD2DE9F0413B
:1028F00004460D4616469846A1F11403052B21D82F
:10290000DFE803F018030C1518180021FFF73BFF50
:1029100031462046FFF745FF012011E00021FFF777
:1029200032FF31462046FFF73CFF012008E001213D
:10293000FFF729FF27694346324629462046B84714
:10294000BDE8F0810020FBE7F8B5054614460E29E6
:102950003BD01E460F2903D00B292BD0002028E0A6
:10296000FFF781FF7779FF00FBB2AF7F1F44FFB213
:10297000390941F010012846FFF760FF07F00F0109
:102980002846FFF762FFB17941F0B0012846FFF712
:102990005CFF3179C900326801F0F8012846FFF781
:1029A0005BFF621E12F0FF04F3D12846FFF762FFBF
:1029B0000120F8BD22B90C49FFF763FF0120F8E7B9
:1029C0000A49FFF75EFF0120F3E7FFF74CFF812183
:1029D0002846FFF733FF21462846FFF736FF2846F3
:1029E000FFF748FF0120E4E704C800080CC800080E
:1029F00070B505460C461646FFF7A6FF40BB0346DA
:102A00000A2C1CD00D2C07D0092C22D112492846A3
:102A100000F02AF801231CE046B910492846FFF7C8
:102A200030FF2B689B7CAB77012312E00C492846D2
:102A3000FFF727FF2B68DB7CAB77012309E02846F3
:102A400000F016F807492846FFF71BFF012300E0B6
:102A50000123184670BD00BF14C80008C8C700088D
:102A6000D0C70008D8C7000801608B7C8377704707
:102A700038B50446456900231A462821A847E56869
:102A800000231A4614212046A84701224B21204644
:102A900000F052F823681A792921204600F04CF8FA
:102AA00000224B21204600F047F823681A7929219B
:102AB000204600F041F801224B21204600F03CF86E
:102AC00023685A792921204600F036F838BD10B520
:102AD00082B08DF805108DF806208DF8043002AB19
:102AE000049A43F8082D846801220F21A04702B000
:102AF00010BD10B5846800231A460921A04710BDF7
:102B000010B5846800231A460A21A04710BD10B5ED
:102B1000846800230A460B21A04710BD10B58468C5
:102B200000230A460E21A04710BD10B5846800237B
:102B30001A461021A04710BD10B544690023A047D4
:102B400010BD000008B528392B2945D8DFE801F071
:102B5000191B161919194444444444444444444438
:102B6000444444444444444420251919191919196A
:102B7000192A2F191919191934383C400120FEF768
:102B80003FF8012008BD4FF47A7001F00FFBF8E721
:102B90001021134802F06AFEF3E72021104802F0EA
:102BA00065FEEEE701210E4802F060FEE9E7022132
:102BB0000B4802F05BFEE4E7002380F82430E0E7F6
:102BC000002380F82430DCE7002380F82430D8E7A5
:102BD000002380F82430D4E7012380F82430D0E7A4
:102BE000000400480020704700230360074A826009
:102BF000C26002614261C37780F8223080F82330DE
:102C0000FF2380F8203080F825307047E52B00083E
:102C1000F8B504460F4616461D46FFF7E5FFA760C8
:102C2000E6602561069B63612046FFF762FFF8BD01
:102C300010B442F2107200240CE0891A89B20133F8
:102C4000DBB29142F9D20355074BA3FB0232D20803
:102C50000134E4B2042C01D83023F2E7002343719D
:102C60005DF8044B704700BFCDCCCCCC10B5C1F1A2
:102C70000501CCB201460248FFF7DAFF204410BD3F
:102C80000805002038B505460C460846FDF7A0FAB1
:102C90000A2382B22146284605F0FFFD38BD0EB456
:102CA00070B583B0064607AB53F8045B01932A4620
:102CB0000021084606F06EF9013006F06FF8044670
:102CC000019A294606F08AF921463046FFF7DAFFD5
:102CD000204606F06BF803B0BDE8704003B07047C3
:102CE00000B58BB020484FF0A04303604FF4403351
:102CF000436010238360002303610122C2614362A9
:102D00000363C262C3600262426304224261836160
:102D1000836301F013FBB8B90AA9002341F80C3D05
:102D2000114801F0CDFFA0B90123019302930023C4
:102D3000049303930593069301A90B4801F092FDB8
:102D400060B90BB05DF804FB4D21084800F0DEFAD5
:102D5000E2E75521054800F0D9FAE5E7622103488A
:102D600000F0D4FAEDE700BF4C0500202CC80008A5
:102D70000368B3F1A04F00D0704730B587B0044668
:102D800003F1704303F504335A6942F080525A61EB
:102D90005B6903F080530093009B0B230193032393
:102DA00002930025039501A94FF0904002F0FCFB2F
:102DB0000E480F4B0360456085608023C3604FF46D
:102DC000807303614FF48063436120238361C56195
:102DD00002F07CFA20B9054BE3635C6207B030BDBA
:102DE0008921044800F092FAF5E700BFA005002011
:102DF000080002402CC8000808B50C480C4B0360C2
:102E00001023436000238360C360036143618361D7
:102E1000C361036243628362C36202F031F800B9A6
:102E200008BD4521034800F071FAF9E7E4050020E8
:102E30000064004038C800080268124B9A4200D073
:102E4000704700B587B003F5D633DA6942F00072F7
:102E5000DA61DB6903F000730093009B4FF4C05309
:102E60000193022302930023039303230493092372
:102E7000059301A94FF0904002F096FB07B05DF872
:102E800004FB00BF0064004010B50D4C0122214638
:102E90000C4805F03CFA0C490B78DBB22278D2B230
:102EA0000A48C2540B78DBB2082B03D9064B002228
:102EB0001A7010BD0B780133DBB20B70F9E700BF5D
:102EC000280600202C080020360600202C060020B2
:102ED00030B484B00023082B36D8C25C12F0F00462
:102EE00001D00133F7E78DF80820184443788DF8B6
:102EF000093083788DF80A30C3788DF80B30037968
:102F00008DF80C302146062907D8374B5B5CDBB2C5
:102F10009A4216D00131C9B2F5E723460222042AAB
:102F200013D804AB134413F8083CA3F13000C0B22B
:102F3000413BDBB2052B88BF09280CD801320123A5
:102F4000EDE723460222EAE70023012B05D100200A
:102F500002231C4613E02346F7E7DFED247A3EE028
:102F600002F00F0204AD1D4405F8102C04AA1A4407
:102F700012F8102CA500AA401044013C0133042B88
:102F800011D804AA1A4412F8082C02F0F005302DCA
:102F9000E6D0402D07D102F00F02093204AD1D44E6
:102FA00005F8102CE2E707EE900AF8EE676ADFED0D
:102FB000107A86EEA77A0F4B53F8213007EE903A3D
:102FC000F8EE677A27EE877A0B4B53F8213007EE3D
:102FD000903AF8EEE77A77EE277AFDEEE77A17EE89
:102FE000900A04B030BC704700000020FFFFFFFFD4
:102FF00000001345080000202400002000B583B025
:103000000A4B5A6942F001025A615B6903F00103FD
:103010000193019B002211460B2002F083F80B2044
:1030200002F0C6F803B05DF804FB00BF00100240D8
:103030002DE9F04188B0334B5A6942F480025A615D
:103040005A6902F480020092009A5A6942F40032EE
:103050005A615A6902F400320192019A5A6942F4A3
:1030600080225A615B6903F480230293029B264EFF
:1030700000220B21304602F0F9FB02270397DFF80C
:103080009480CDF810800125059503A91F4802F012
:103090008BFA402303931E4B0493059503A94FF02D
:1030A000904002F081FA0B230393049500240594C9
:1030B000069403A9304602F077FA30230393CDF843
:1030C0001080059503A9304602F06EFA22460A21C7
:1030D000072002F027F8072002F06AF82246394656
:1030E0000A2002F01FF80A2002F062F822460A21A4
:1030F000172002F017F8172002F05AF808B0BDE8C0
:10310000F08100BF00100240000400480014004895
:10311000000011100000211008B51548154B036080
:10312000154B4360002383600122C2600361436149
:103130008361C361036202F0C3FB50B900210C48F4
:1031400002F072FC50B90021094802F0B3FC50B9FA
:1031500008BD4221094800F0D9F8EFE749210748A6
:1031600000F0D4F8EFE75021044800F0CFF8EFE783
:1031700038060020005400400E09002044C8000812
:103180000268114B9A4200D0704700B587B0C02347
:103190000193122302930123039303230493042333
:1031A00005930DEB0301094802F0FEF9084BDA69BB
:1031B00042F40012DA61DB6903F400130093009B10
:1031C00007B05DF804FB00BF005400400004004855
:1031D0000010024010B584B0002416E004EB840215
:1031E0000C4B1344C4EBC40104EB8101483102933E
:1031F000094B1B5D0193092300931B233522C9B2A0
:103200000648FDF7A7FD0134E4B2012CE6D904B06D
:1032100010BD00BF68C8000874C8000888060020F8
:1032200070B586B0002420E0324BA3FB04235B087A
:1032300003EB4303E31A03EB43039A00D2B21032C9
:10324000C4EBC4012C4B0B4404EB84002B49014418
:10325000029101930C230093462302F0FC0200210B
:103260002748FDF7CBFD0134E4B2022CDCD903245E
:1032700020E0204BA3FB04235B0803EB4303E31A8A
:1032800003EB43039A00D2B21032C4EBC4011A4BD1
:103290000B4404EB840019490144029101930C236F
:1032A0000093382302F0FC0248211548FDF7A6FDE3
:1032B0000134E4B2052CDCD9114C124E0296124BAB
:1032C00001930C2500954623342200212046FDF76A
:1032D00095FD059600210491039103230293642335
:1032E00001930095462334222046FDF7B5FD06B034
:1032F00070BD00BFABAAAAAA28CA00085CCA000811
:10330000880600205CC8000860C80008FEE70000CE
:1033100000B597B003230C934FF4A0230D93002323
:103320000E930123109310231193022313934FF450
:10333000803314934FF4E01315930CA802F0FCFBB8
:1033400060BB0F23079302210891002309934FF4D8
:1033500080620A920B9307A802F0C6FF18BB41F2E5
:1033600021030193002303930493069301A803F020
:103370003DF9E8B903F008F9104BA3FB00308009D0
:1033800001F042FF042001F055FF002211464FF0EA
:10339000FF3001F0C7FE17B05DF804FB40F2762164
:1033A0000748FFF7B3FF4FF421710548FFF7AEFF61
:1033B00040F28E210248FFF7A9FF00BFD34D6210F3
:1033C00050C80008000000002DE9F043ADF61C1DB8
:1033D00000F0CCFE4FF4807200210DF6180005F0CD
:1033E000EDFCFFF795FFFFF723FEFFF707FE00F068
:1033F0002BFE00F089FD00F003FE00F04DFBFFF70F
:103400006FFC00F097FCFFF7F7FC00F0E5FCFFF71E
:1034100083FE914803F01AFD20B140F26F118F48EE
:10342000FFF774FF8E4803F011FD20B140F27511D3
:103430008A48FFF76BFF8B4803F008FD20B140F28C
:103440007B118648FFF762FF01228749874804F015
:103450005EFF4FF40062002106A805F0AFFC4FF4B8
:10346000806206A9824801F055F9824C824B834A5A
:1034700083492046FEF746FC824D0022082128465B
:1034800002F0F4F9052000F091FE012208212846FF
:1034900002F0ECF92046FFF733FB00212046FFF74E
:1034A00036FBFF212046FFF739FB2046FEF715FCCF
:1034B000754B019330230093002228212046FEF70C
:1034C00085F872492046FEF707FF714B372210211D
:1034D0002046FEF7C3FE6F4B402228212046FEF710
:1034E000BDFE2046FEF735FA2046FEF725FA6A496A
:1034F0006A48FFF7D4FBFFF793FEFFF76BFE204609
:10350000FEF727FA00263546FEE0654B1C8842F29E
:1035100008039C4234D8634B1B78634901EBC30119
:103520000022624BD1E90001FDF766F8FDF714FBBC
:1035300020445B4B18805A4B1888FCF7E3FF40A3EC
:10354000D3E90023FDF758F80022594BFDF754F852
:10355000544B1A78544B03EBC203D3E90023FDF715
:1035600075F939A3D3E90023FDF770F9FDF71CFBCA
:10357000504B1880952D33D80135ADB2002439E079
:10358000484B1B78032B23D80133DCB2454B1C700E
:10359000484B1888FCF7B6FF2DA3D3E90023FDF7AD
:1035A00055F980468946404B03EBC40426A3D3E972
:1035B0000023D4E90001FDF71FF802460B46404600
:1035C0004946FDF719F8FDF7EFFA354B1880B2E7D9
:1035D000344B00221A70324B4FF47A721A80AAE7E9
:1035E0000025CBE73448FFF773FC344B23F8140075
:1035F0000134E4B2052C05D8002CF3D02F4B23F86E
:103600001450F5E72E4B00221A6082E02D4B002269
:103610001A7064E02C492148FFF741FB172001F0A4
:10362000DDFD2A4B1B78002B59D1264B1B781BB98B
:10363000244B01221A7052E0013B224A13704EE0E3
:10364000FCA9F1D24D62603F666666666666104010
:10365000B81E85EB51B8BE3FAC07002050C800082B
:10366000EC0700206C070020280600202C08002012
:103670004C05002088060020452B0008B9270008CB
:10368000C0C700080004004878C8000860AE000801
:1036900098C90008B0C90008BCC900089C080020EF
:1036A0001E0500201D0500204800002000003440B9
:1036B00000004E407C0000202C06002070000020FE
:1036C0001405002084060020D8C9000885060020C3
:1036D000AF49B048FFF7E3FA072001F07FFDAE489D
:1036E000FEF72AF9AD4B1B78002B59D0012B5CD08B
:1036F000A948FEF72EF90023A94A5362A94A13608C
:10370000A94B1B68012B6BD0A84B1B68012B3FF406
:10371000FCAEBDF8183007EE103AB8EE477ADFED90
:10372000A47A27EE277ADFEDA36AC7EE267AFDEEAC
:10373000E77A17EE903A1CB29F4F7C819F4B1C801A
:103740002046FCF7EFFE90A3D3E90023FDF77EF8B7
:1037500000229B4BFCF750FFFDF7FEF9994B1880B8
:10376000BC80904B1B68002BCAD0022B3FF452AF99
:10377000032BADD0012BB2D193498648FFF78FFAC6
:10378000172001F02BFD914B1B78002BA7D1834B09
:103790001B78012B3FF43AAF0133804A13709EE748
:1037A000FFF73EFDFFF716FDA2E77B4C0C230293CB
:1037B0006FF0050301933423009380230D22002131
:1037C0002046FDF769FD824B0293824B01930D2346
:1037D00000934023002211462046FDF70FFB87E7A8
:1037E0006E4B1C7874B1012C00F08A80774B1B78EB
:1037F000012B00F0FF806848FEF7ABF86A4B00220F
:103800001A6081E7DFF89081734B059300270497D6
:103810000397032302936B4BB3F9003001930C23FE
:1038200000934623342239464046FDF715FB42F209
:10383000283303930297694B1B8801930E2300934F
:1038400080233A4639464046FDF7ECF928E0644BC0
:10385000A3FB04235B0803EB4303E31A03EB4303DB
:103860009A00D2B2103204EB84015E4B0B440593F4
:103870005D4B1B5D04935D4B1B5D03935C4B1B5DBC
:1038800002934D4B33F9143001930C2300934623DC
:1038900002F0FC0200214048FDF7DEFA0134E4B2F8
:1038A000022CD4D9032428E04D4BA3FB04235B084E
:1038B00003EB4303E31A03EB43039A00D2B2103243
:1038C00004EB8401474B0B440593474B1B5D04936A
:1038D000464B1B5D0393464B1B5D0293364B33F9FE
:1038E000143001930C230093382302F0FC0248218A
:1038F0002948FDF7B1FA0134E4B2052CD4D97AE7AE
:10390000002E3ED0013EB6B2BDF8183007EE103A98
:10391000B8EE477AF3EE027A27EE277ADFED256AD2
:10392000C7EE267AB1EE087A77EEC77AFDEEE77A2F
:103930000DF6180417EE903A24F81630164F049638
:1039400003940C2302936FF0050301933423009337
:1039500080230D2200213846FDF734FD1C4B0593D2
:103960000123049303930323029334F91630019344
:103970000D2300934023002211463846FDF76CFAD0
:1039800039E78026C0E700BFCDCCCCCCCCCC2C40D6
:10399000E0C900089C08002088060020840600205A
:1039A000001000401805002010050020140500201C
:1039B0000000A54300007F4370000020420000206B
:1039C0000000244040000020D4C9000885060020E3
:1039D000E8C90008ECC900085CC800081E05002002
:1039E000ABAAAAAA5CCA000854CA000820CA0008E8
:1039F00018CA00081F4C2046FDF79EFF1E492046AE
:103A0000FEF76AFC1D4B0F2202212046FEF726FC22
:103A10001B4B1B7803BB1B4B1E2202212046FEF7CB
:103A20001DFC194B1E220A211248FEF717FC144BED
:103A30001B78012B17D0154B2D2202210D48FEF7C4
:103A40000DFC0C4C124B2D220A212046FEF706FCE1
:103A50002046FDF77EFFCEE60C4B1E2202210548D4
:103A6000FEF7FCFBDDE7074B2D2202210148FEF7A4
:103A7000F5FBE6E788060020E4BB0008F0C9000873
:103A80001C05002000CA000804CA0008DCC90008A0
:103A900010CA00087047000008B51148114B0360B8
:103AA0004FF482734360002383604FF4E062C2608E
:103AB000036143614FF4007282611022C2610362AC
:103AC000436283620722C26203630823436302F0F6
:103AD00095FF00B908BD47210348FFF717FCF9E738
:103AE00008070020003001407CCA00080268114B22
:103AF0009A4200D0704700B587B003F560439A69D9
:103B000042F480529A619B6903F480530093009BB6
:103B1000A02301930223029300230393032304931E
:103B20000523059301A94FF0904001F03DFD07B03A
:103B30005DF804FB0030014000B583B01C4B9A696E
:103B400042F001029A619B6903F001030193019B1A
:103B5000032001F0C9FA002211466FF00B0001F0BA
:103B6000E1FA002211466FF00A0001F0DBFA0022B0
:103B700011466FF0090001F0D5FA002211466FF0EE
:103B8000040001F0CFFA002211466FF0030001F0AB
:103B9000C9FA002211466FF0010001F0C3FA0022B9
:103BA00011464FF0FF3001F0BDFA03B05DF804FBA1
:103BB0000010024008B500F0EBFA01F05AFB08BD16
:103BC00008B5022001F06EFE0221044801F03AFE21
:103BD00010B9034B03221A6008BD00BF001400484F
:103BE0001805002008B5102001F05CFE10210548E2
:103BF00001F028FE00B108BD03490448FFF74FF863
:103C0000F9E700BF0004004888CA00089C080020AB
:103C100008B5024801F06DFC08BD00BFA0050020FA
:103C200008B5202001F03EFE402001F03BFE20219F
:103C3000094801F007FE18B9084B01221A6008BDB7
:103C400040214FF0904001F0FDFD0028F7D1034BDB
:103C500002221A60F3E700BF0004004818050020A4
:103C600008B5024803F02FF908BD00BFAC070020DB
:103C700008B5044803F027F90123034A1360034AF7
:103C8000136008BDEC07002010050020140500207B
:103C900008B5024804F084FF08BD00BF2C080020CE
:103CA00008B5024804F07CFF08BD00BF9C08002056
:103CB00008B5054803F007F9072001F079FA172045
:103CC00001F076FA08BD00BF6C0700201549D1F855
:103CD000883043F47003C1F88830134B1A6842F0FF
:103CE00001021A605868114A02405A601A6822F0AC
:103CF000847222F480321A601A6822F480221A60D8
:103D00005A6822F4FE025A60DA6A22F00F02DA627E
:103D1000186B074A02401A6300229A604FF0006352
:103D20008B60704700ED00E0001002400CC07FF88F
:103D3000CCFC00FF00B58FB025484FF080430360F6
:103D40004FF434734360002383604FF4FA62C2601F
:103D50000361836103F0CCF908BB0EA94FF48053D3
:103D600041F8103D1A4803F08BFCE8B9184803F0FD
:103D700027FAF0B900230793099307A9144804F020
:103D80003DF9D8B90022009201920292049269464C
:103D90000F4803F0FFFEB0B90FB05DF804FB8821B7
:103DA0000C48FFF7B3FAD8E78E210A48FFF7AEFABE
:103DB000DCE793210748FFF7A9FADBE79A210548DA
:103DC000FFF7A4FADEE7A3210248FFF79FFAE3E733
:103DD000EC070020A8CA000800B585B01148124BB6
:103DE00003604FF4347343600023836044F6206221
:103DF000C260836103F07CF950B9002301930393FF
:103E000001A9084804F0FAF838B905B05DF804FBD8
:103E1000B3210648FFF77AFAEFE7BA210348FFF724
:103E200075FAF2E76C07002000100040A8CA0008ED
:103E300000B585B00368234A934208D0B3F1804FA0
:103E400018D0214A934229D005B05DF804FB1F4BDE
:103E50009A6942F400629A619B6903F400630193DA
:103E6000019B00220121192001F05CF9192001F0C9
:103E70009FF9E9E703F50433DA6942F00102DA61F8
:103E8000DB6903F001030293029B002203211C2043
:103E900001F048F91C2001F08BF9D5E70B4BDA69EA
:103EA00042F01002DA61DB6903F010030393039B15
:103EB00000220421362001F035F9362001F078F98E
:103EC000C2E700BF002C014000100040001002407B
:103ED00002680C4B9A4200D0704700B587B04FF48F
:103EE0008073019302230293002303930493062318
:103EF000059301A94FF0904001F056FB07B05DF823
:103F000004FB00BF002C014000B59BB039483A4B80
:103F100003604FF434734360002383604FF4FA620C
:103F2000C26003614361836103F0E2F8002842D17B
:103F30001AA94FF4805341F8103D2E4803F0A0FB1E
:103F400000283DD12B4803F0A7F900283DD10023DC
:103F500013931493159313A9264804F04FF80028DF
:103F600038D160230C9300220D920E920F92109282
:103F7000119212920CA91F4803F0EEFE00282ED1D8
:103F80000023019302930393049305934FF400528B
:103F90000692079308934FF0007209920A930B93CD
:103FA00001A9144804F0C6F8F0B91248FFF790FFD1
:103FB0001BB05DF804FB44211048FFF7A7F9B7E7F1
:103FC0004A210E48FFF7A2F9BCE74F210B48FFF743
:103FD0009DF9BCE757210948FFF798F9C1E763212C
:103FE0000648FFF793F9CBE773210448FFF78EF9F2
:103FF000DBE700BFAC070020002C0140A8CA000886
:1040000008B50E480E4B03604FF4964343604FF4DF
:10401000805383600023C3604FF4806202610C22EE
:1040200042618361C3610362436204F0D5FC00B95D
:1040300008BD45210348FFF769F9F9E72C0800207E
:1040400000380140B4CA000808B50E480E4B0360A2
:104050004FF4964343604FF4805383600023C36062
:104060004FF4806202610C2242618361C36103628A
:10407000436204F0B1FC00B908BD5A210348FFF7C0
:1040800045F9F9E79C08002000440040B4CA000844
:1040900000B589B00368274A934205D0264A934267
:1040A00025D009B05DF804FB244B9A6942F48042A4
:1040B0009A619B6903F480430193019B4FF4C063B1
:1040C00003930223049301230593032306930723F9
:1040D000079303A94FF0904001F066FA00220521F2
:1040E000252001F01FF8252001F062F8D9E7134BD5
:1040F000DA6942F40032DA61DB6903F400330293D7
:10410000029B48F2040303930223049301230593C3
:10411000032306930723079303A94FF0904001F070
:1041200043FA00220F21262000F0FCFF262001F098
:104130003FF8B6E70038014000440040001002405C
:1041400010B50446074B1868074BA3FB00308009E5
:1041500001F05AF8002221464FF0FF3000F0E2FF54
:10416000002010BD80000020D34D621008B5074A22
:10417000136843F010031360032000F0B5FF002024
:10418000FFF7DEFFFFF7D8FC002008BD002002404B
:10419000024A136801331360704700BF0C09002006
:1041A000014B1868704700BF0C09002030B583B080
:1041B0000190FFF7F5FF0546019CB4F1FF3F00D0E9
:1041C0000134FFF7EDFF401BA042FAD303B030BD2E
:1041D00070477047704738B50268936803F003036F
:1041E000012B01D0002038BD136813F0010F2FD030
:1041F000936803F00D03012B09D0436C43F01003C7
:104200004364836C43F0010383640120EBE70446BD
:10421000936843F002039360036803221A60FFF778
:10422000BFFF054623689B6813F0010F0ED0FFF710
:10423000B7FF401B0228F5D9636C43F01003636499
:10424000A36C43F00103A3640120CCE70020CAE77C
:104250000020C8E738B50268936803F00303012B18
:104260000DD09168184B19420FD0436C43F01003E6
:104270004364836C43F001038364012038BD1368F9
:1042800013F0010FEDD00020F8E70446936843F0E7
:1042900001039360FFF784FF054623681B6813F052
:1042A000010F0ED1FFF77CFF401B0228F5D9636C8C
:1042B00043F010036364A36C43F00103A364012083
:1042C000DCE70020DAE700BF3F00008008B5406A65
:1042D000436C43F040034364836C43F00403836402
:1042E000FFF778FF08BD08B5406AFFF772FF08BD09
:1042F00008B5436A5A6C12F0500F03D0DB6B1B6B8E
:10430000984708BD5A6C42F400725A641A68D26821
:1043100012F4406F0DD1DA695AB95A6C22F48072E6
:104320005A645A6C12F4805F03D15A6C42F0010255
:104330005A641846FFF74CFFE3E7000030B597B02A
:1043400000230093002800F0DC8104460368B3F1E9
:10435000A04F07D0984A934204D040F209119748E1
:10436000FFF798FB63684BB1B3F5803F06D0B3F518
:10437000003F03D0B3F5403F40F08C80A36833B1D9
:10438000082B04D0102B02D0182B40F08980E36852
:1043900013B1202B40F08A802369012B00F28C801E
:1043A000E369012B00F28E80236B4BB1B3F5806F74
:1043B00006D0B3F5006F03D0B3F5406F40F08880AE
:1043C000E36A5BB3402B29D0802B27D0C02B25D0AC
:1043D000B3F5807F22D0B3F5A07F1FD0B3F5C07FA7
:1043E0001CD0B3F5E07F19D0B3F5007F16D0B3F53C
:1043F000107F13D0B3F5207F10D0B3F5307F0DD0F0
:10440000B3F5407F0AD0B3F5507F07D0B3F5607F96
:1044100004D0B3F5707F01D0012B5FD1636B012B0A
:1044200062D86369042B01D0082B63D1A36B012BE5
:1044300066D8A369012B69D8236963B1236A013B5C
:104440000F2B69D8636A012B6CD8636A1BB1A36A0E
:10445000013B072B6CD8636C13F0100F40F0B48055
:10446000636C002B6AD0002023689A6812F0805F8A
:1044700004D09B6813F0005F00F0A780636C23F00A
:10448000120343F010036364A36C43F00103A364BD
:1044900001209AE04FF485714848FFF7FBFA6DE779
:1044A00040F20B114548FFF7F5FA70E74FF48671BB
:1044B0004248FFF7EFFA6FE740F20D113F48FFF770
:1044C000E9FA6DE74FF487713C48FFF7E3FA6BE7D1
:1044D00040F20F113948FFF7DDFA71E74FF48871A8
:1044E0003648FFF7D7FA99E740F211113348FFF742
:1044F000D1FA96E74FF489713048FFF7CBFA95E788
:1045000040F213112D48FFF7C5FA92E74FF48A7174
:104510002A48FFF7BFFA8FE74FF48C712748FFF75F
:10452000B9FA8FE740F219112448FFF7B3FA8CE784
:104530004FF48E712148FFF7ADFA8CE7A364236531
:10454000E36484F840302046FEF712FC23689B6841
:1045500013F0805F01D0002086E72046FFF73BFE86
:10456000636C13F0100F7FF47FAF00287FF47CAFF3
:10457000636C23F4885323F0020343F00203636463
:104580002268936823F0405393602268936843F055
:10459000805393600A4B1B680A4AA2FB03239B0CBF
:1045A00003EB83035A00009202E0009B013B00935F
:1045B000009B002BF9D157E700010050C0CA00084A
:1045C0008000002083DE1B430020636C13F0100F7B
:1045D00040F08E80002840F08B8023689A6812F0AB
:1045E000040240F08580616C21F4817141F0020188
:1045F0006164B3F1A04F52D04FF0A041019199688E
:1046000001F0030101294DD0019B23B1996801F00C
:10461000030101294BD03C498B6823F44033656882
:104620002B438B60E1694B03A56B012D01D04FF447
:1046300080521343E2681343A2681343626A012A5B
:104640003AD0E26A012A02D0216B0A43134322685E
:10465000916811F00C0F0BD1D16821F4804121F049
:104660000201D160A169626B520042EA81321343B8
:104670002168CD68254A2A401343CB602369012B6A
:104680002DD02268136B23F00F0313630023A36460
:10469000636C23F0030343F0010363642FE01C49C0
:1046A0000191ACE71B6813F0010FBBD1ACE71B68AD
:1046B00013F0010FB6D1AEE731B9A26A013A43EA6D
:1046C000424343F48033BCE7626C22F0220242F0A2
:1046D00020026264A26C42F00102A264B1E7216888
:1046E0000B6B23F00F03226A013A13430B63CDE7F0
:1046F000636C23F0120343F010036364012017B0CE
:1047000030BD0120FBE700BF0003005007C0F0FFF1
:1047100000010050F8B504460E4617460368B3F191
:10472000A04F07D0494A934204D040F62811484888
:10473000FFF7B0F923689B6813F0040F40F0818005
:1047400094F84030012B7ED0012384F84030414B57
:104750009B6813F01F0F05D0002384F8403001251B
:104760002846F8BD2046FFF775FD0546002864D1B0
:10477000636C23F4706323F0010343F48073636478
:10478000344B9B6813F01F0F17D02268B2F1A04F73
:1047900013D0636C43F4801363642C4B9A421BD197
:1047A0004FF0A043DB6813F0007F15D0636C23F457
:1047B000405343F4805363640EE0636C23F480132E
:1047C00063642368DB6813F0007F05D0636C23F417
:1047D000405343F480536364636C13F4805F29D0C7
:1047E000A36C23F00603A364002384F84030E36B3A
:1047F000194A9A62E36B194ADA62E36B184A1A6340
:1048000023681C221A602268536843F01003536027
:104810002268D36843F00103D36021683B463246E7
:104820004031E06B00F0F2FD2268936843F004032E
:10483000936095E70023A364D6E7002384F8403013
:104840008EE702258CE702258AE700BF00010050B1
:10485000C0CA000800030050F1420008E742000807
:10486000CD42000830B597B005460C4600230093B2
:104870000368B3F1A04F07D0B24A934204D041F28B
:104880003A51B148FFF706F96368013B0F2B73D823
:10489000A368072B76D8E368012B79D82369042B0A
:1048A0007CD82B68DA6812F0180F03D16269B2F570
:1048B000805F16D3DA6802F01802082A74D0DA682A
:1048C00002F01802102A74D0DB6803F01803182BCA
:1048D00002D163693F2B04D941F23F519A48FFF757
:1048E000D9F8E368012B6ED02368013B112B64D803
:1048F00095F84030012B00F0DA81012385F8403033
:104900002A68936813F0040F40F0C7816368042B92
:1049100063D8116B03EB430358001F23834021EA44
:104920000303216881400B4313632A68936813F0E3
:104930000C0F40F09A802368092B7FD9916903EB13
:1049400043031E3B0720984021EA0001A06800FABB
:1049500003F30B43936162692968CB68C3F3C10316
:104960005B0002FA03F32269013A032A00F2BC80D9
:10497000DFE802F07199A4AF41F23B517248FFF7B2
:1049800089F885E741F23C516F48FFF783F882E7E9
:1049900041F23D516C48FFF77DF87FE741F23E510F
:1049A0006948FFF777F87CE76269B2F5806F98D3C2
:1049B00085E76269FF2A94D986E741F24751624848
:1049C000FFF768F894E72368013B0D2B90D941F27B
:1049D0004B515D48FFF75EF88AE7092B0ED8516B03
:1049E00003EB430358001E381F23834021EA0303CF
:1049F000216801FA00F00343536396E70E2B0ED8AB
:104A0000916B03EB430358003C381F23834021EA9A
:104A10000303216801FA00F00343936385E7D16B38
:104A200003EB430358005A381F23834021EA030352
:104A3000216801FA00F00343D36376E7516903EB81
:104A400043030720984021EA0001A06800FA03F31D
:104A50000B4353617FE70A6E3C481040226843EAEB
:104A60008263184340F0004008662A68936803F0A8
:104A70000303012B71D0E368012B74D0D2F8B0305E
:104A800020680121814023EA0103C2F8B030236885
:104A9000102B00F09180112B00F0AF80122B00F052
:104AA000B2800020FEE04A6E28481040226843EAA7
:104AB0008263184340F000404866D6E78A6E234878
:104AC0001040226843EA8263184340F00040886641
:104AD000CBE7C86E1D4A0240206843EA8063134357
:104AE00043F00043CB66C0E70B6E03F0F843226847
:104AF000B3EB826F1CD02A68536E03F0F843216831
:104B0000B3EB816F19D02A68936E03F0F8432168E4
:104B1000B3EB816F1CD02A68D36E03F0F843216891
:104B2000B3EB816FA1D1D36E23F00043D3669CE732
:104B30000B6E23F000430B66DDE7536E23F000435A
:104B40005366E0E700010050C0CA000800F0FF8390
:104B5000936E23F000439366DDE7136813F0010FB3
:104B600089D000209EE0D2F8B03020680121814039
:104B70000B43C2F8B0302368092B0ED9286882692C
:104B800003EB43031B3B0721994022EA0102A16882
:104B900001FA03F31343836179E72868426901331B
:104BA00003EB43030721994022EA0102A16801FABD
:104BB00003F3134343616AE73E4A926812F4000F1D
:104BC0007FF469AF2968B1F1A04F23D04FF0A04224
:104BD00001928A6802F00302012A1ED0019A22B1D2
:104BE000906800F00300012821D0102B24D0112B55
:104BF00042D0122B4AD0002054E02E4A926812F084
:104C0000807FDFD04AE72B4A926812F4800FD9D018
:104C1000002047E0284A0192DBE70A6812F0010F02
:104C2000DCD06B6C43F020036B6401203AE0126827
:104C300012F0010FF5D1D8E7B1F1A04FD7D11D4A3D
:104C4000936843F4000393601C4B1B68A2F14E620F
:104C5000A2F58422A2F27D42A2FB03239B0C03EB6C
:104C600083035A00009202E0009B013B0093009BEB
:104C7000002BF9D1002015E0B1F1A04FB9D10D4AB8
:104C8000936843F08073936000200BE0094A9368B7
:104C900043F480039360002004E06B6C43F0200336
:104CA0006B640120002385F8403017B030BD02202E
:104CB000FBE700BF0003005000010050800000200F
:104CC00070B596B004460D460368B3F1A04F04D00A
:104CD00041F617316748FEF7DDFE2B68032B07D935
:104CE000052B05D0062B03D0072B01D0092B6CD147
:104CF0002B6853B36B682BB1B3F5004F02D0B3F5FB
:104D0000404F68D1AB6803B3B3F5807F1DD0B3F5D6
:104D1000007F1AD0B3F5407F17D0B3F5806F14D061
:104D2000B3F5A06F11D0B3F5C06F0ED0B3F5E06F3F
:104D30000BD0B3F5006F08D0B3F5106F05D0B3F505
:104D4000206F02D0B3F5306F4BD12368B3F1A04F81
:104D50004DD04FF0A0420192019A002A00F08580C8
:104D600094F84010012900F08280012184F840105D
:104D70009B6813F0040F6ED1936813F0040F6AD18F
:104D80002B68002B42D03C48836823F46043696859
:104D9000666B41EA46310B43836021688B6803F000
:104DA0000303012B26D0936803F00303012B27D0C4
:104DB00031498B6823F4716323F00F032A68A868D4
:104DC000024313438B6000204AE041F61831294822
:104DD000FEF760FE8CE741F61B312648FEF75AFECF
:104DE00090E741F61C312348FEF754FEADE7234A15
:104DF0000192B1E70B6813F0010FD4D000202FE02F
:104E0000136813F0010FD3D0002029E01A498B68F2
:104E100023F460438B6021688B6803F00303012B4C
:104E20000DD0936803F00303012B0ED0124A936850
:104E300023F4716323F00F039360002010E00B68EC
:104E400013F0010FEDD000200AE0136813F0010FFA
:104E5000ECD0002004E0636C43F020036364012085
:104E6000002384F8403016B070BD0120FBE702201B
:104E7000F9E700BFC0CA000800030050000100505D
:104E8000002800F02B8138B504460268944B9A4202
:104E900003D0B8219348FEF7FDFDA369012B56D836
:104EA000E369012B58D8236A012B5AD8636A012B76
:104EB0005CD8A36A012B5ED8E36A012B60D8A36893
:104EC00043B1B3F1804F05D0B3F1004F02D0B3F13D
:104ED000404F5AD1E36843B1B3F1807F05D0B3F1BD
:104EE000007F02D0B3F1407F54D12369B3F5702F16
:104EF00055D86369B3F5E00F56D86368013BB3F545
:104F0000806F56D294F83D30002B57D0022384F89E
:104F10003D302268136823F002031360226813688F
:104F200043F001031360FFF73BF9054623685A6815
:104F300012F0010F48D1FFF733F9401B0A28F5D9C9
:104F4000032084F83D00002384F83C3038BDB921AB
:104F50006448FEF79FFDA3E7BA216248FEF79AFD79
:104F6000A1E7BB215F48FEF795FD9FE7BC215D48A7
:104F7000FEF790FD9DE7BD215A48FEF78BFD9BE7AC
:104F8000BE215848FEF786FD99E7BF215548FEF738
:104F900081FD9FE7C0215348FEF77CFDA5E7C121B5
:104FA0005048FEF777FDA4E7C2214E48FEF772FD98
:104FB000A3E7C3214B48FEF76DFDA3E784F83C301F
:104FC0002046FDF739FFA1E75A6812F0010F7AD0A9
:104FD000A269012A50D01A6822F080021A60E3699F
:104FE000012B4ED02268136823F040031360236A1C
:104FF000012B4CD02268136823F020031360636AEE
:10500000012B4AD02268136823F010031360A36AAF
:10501000012B48D02268136823F008031360E36A69
:10502000012B46D02268136823F004031360A368A1
:10503000E268134322691343626913436268013AC9
:1050400021681343CB612268136823F001031360C6
:10505000FFF7A6F8054623685A6812F0010F2ED014
:10506000FFF79EF8401B0A28F5D9032084F83D007D
:10507000002384F83C3069E71A6842F080021A6025
:10508000ADE72268136843F040031360AFE722687E
:10509000136843F020031360B1E72268136843F0FC
:1050A00010031360B3E72268136843F0080313602A
:1050B000B5E72268136843F004031360B7E75B6841
:1050C00013F0010F04D0042384F83D3001203DE7A4
:1050D00000202064012384F83D3037E70120704729
:1050E00000640040F8CA000810B50446C31E042B33
:1050F0000FD80A4AD36823F4E0631B041B0C240274
:1051000004F4E064234343F0BF6343F40033D3600B
:1051100010BDBC210248FEF7BDFCEAE700ED00E04F
:1051200030CB000870B505460C4616460F2A25D828
:105130000F2C28D81B4BDB68C3F30223C3F10702F3
:10514000042A28BF0422191D062921D9033B4FF048
:10515000FF3101FA02F224EA02049C4001FA03F34F
:1051600026EA03063443002D14DB2401E4B205F1E2
:10517000604505F5614585F8004370BDD4210A48B6
:10518000FEF788FCD4E7D5210748FEF783FCD1E77A
:105190000023DCE705F00F052401E4B2034B5C5566
:1051A000EBE700BF00ED00E030CB000814ED00E0BD
:1051B00010B5041E08DB04F01F02640901239340AC
:1051C000044A42F8243010BDE8210348FEF762FC8F
:1051D000F1E700BF00E100E030CB000810B5041E8D
:1051E00009DB04F01F026409012393402034044AC0
:1051F00042F8243010BDF8210248FEF74BFCF0E7DE
:1052000000E100E030CB00080138B0F1807F0AD225
:10521000064B5860064AF02182F82310002098605F
:1052200007221A6070470120704700BF10E000E0BD
:1052300000ED00E010B50446042800D038B9042C75
:105240000BD0094A136823F00403136010BD40F229
:10525000E1110648FEF71EFCF1E7034A136843F02C
:1052600004031360F2E700BF10E000E030CB000859
:10527000704708B5FFF7FCFF08BD70B4066CC56B3E
:105280000124B4406C60046863604368102B05D04F
:10529000036899600368DA6070BC704703689A60BD
:1052A0000368D960F8E700000268054B1344054A1B
:1052B000A2FB03231B099B000364034BC3637047DA
:1052C000F8FFFDBFCDCCCCCC00000240002800F0A0
:1052D000968010B5044603684A4A934215D01432AA
:1052E000934212D0143293420FD0143293420CD016
:1052F0001432934209D01432934206D014329342AE
:1053000003D0A4214048FEF7C5FB636823B1102BEE
:1053100002D0B3F5804F4FD1A368402B01D0002BB2
:105320004FD1E368802B01D0002B4FD123692BB1E3
:10533000B3F5807F02D0B3F5007F4CD163692BB108
:10534000B3F5806F02D0B3F5006F49D1A3690BB1FB
:10535000202B4AD1E36943B1B3F5805F05D0B3F5A3
:10536000005F02D0B3F5405F44D1022384F82130BE
:1053700021680A6822F47F5222F030026368A06834
:105380000343E06803432069034360690343A06962
:105390000343E069034313430B602046FFF784FF98
:1053A0000020A062E06220636063A063012384F8B0
:1053B000213084F8200010BDA5211348FEF76AFBB8
:1053C000AAE7A6211048FEF765FBAAE7A7210E4829
:1053D000FEF760FBAAE7A8210B48FEF75BFBADE7F1
:1053E000A9210948FEF756FBB0E7AA210648FEF7B7
:1053F00051FBAFE7AB210448FEF74CFBB5E70120BA
:10540000704700BF0800024068CB0008F8B50446AA
:105410000E4617461D465A1E4FF6FE739A420FD887
:1054200094F82030012B3AD0012384F8203094F8EE
:105430002130012B0AD0002384F820300220F8BD4F
:1054400040F25D111748FEF725FBE9E7022384F8D7
:1054500021300023A3632268136823F00103136043
:105460002B463A4631462046FFF707FFE36A5BB119
:105470002268136843F00E0313602268136843F038
:10548000010313600020DAE72268136843F00A037F
:1054900013602268136823F004031360EDE7022011
:1054A000CDE700BF68CB000808B590F82130022B8B
:1054B00003D004238363012008BD0268136823F02E
:1054C0000E0313600268136823F001031360036C7A
:1054D000C16B012202FA03F34B6080F82120002304
:1054E00080F82030436B13B198470020E4E7002098
:1054F000E2E738B5C36B1A6804682568016C0423B9
:105500008B40134213D015F0040F10D0236813F012
:10551000200F03D1236823F004032360016CC26BC6
:1055200004238B405360C36A03B1984738BD0223FC
:105530008B4013421AD015F0020F17D0236813F0D6
:10554000200F06D1236823F00A032360012380F88B
:105550002130016CC26B02238B405360002380F822
:105560002030836A002BE1D09847DFE7082303FA55
:1055700001F11142DAD015F0080FD7D0236823F0DB
:105580000E032360026CC16B012303FA02F24A602E
:10559000836380F82130002380F82030036B002BD8
:1055A000C4D09847C2E700002DE9F04782B0074613
:1055B0000C46B0F1904F12D09C4B98420FD003F59F
:1055C000806398420BD003F58063984207D003F5BF
:1055D0000063984203D0C3219548FEF75BFA236825
:1055E0009AB212B11B0C1B041BB1C4219048FEF7E8
:1055F00051FA6368012B1ED9112B1CD0022B1AD033
:10560000122B18D08B4A934215D002F58012934288
:1056100011D002F5801293420DD0A2F5F8129342F8
:1056200009D002F58012934205D002F58012934210
:1056300001D0032B04D1A368022B06D800254AE031
:10564000C5217B48FEF726FAF5E7C6217848FEF724
:1056500021FAF3E7D6217648FEF71CFA67E0EA2143
:105660007348FEF717FA92E0032300E000238B4013
:1056700003430232704941F82230704B1A68F343F9
:1056800003EA0201606810F4803F01D046EA02019B
:105690006A4A1160526803EA0201606810F4003F30
:1056A00001D046EA0201654A5160926803EA0201AC
:1056B000606810F4801F01D046EA02015F4A9160E1
:1056C000D2681340616811F4001F01D046EA02035A
:1056D0005A4AD3600135266836FA05F300F0A280F5
:1056E0004FF0010808FA05F818EA0606F2D06368D8
:1056F000022B01D0122B2AD1B7F1904F12D04B4B75
:105700009F420FD003F580639F420BD003F5806367
:105710009F4207D003F500639F4203D0D521444840
:10572000FEF7B8F923690D2B01D90F2B92D1EA08A6
:10573000083257F8220005F0070399000F238B4029
:1057400020EA030023698B40034347F822303A687C
:105750004FEA450A4FF0030909FA0AF96FEA090905
:1057600009EA0202636803F0030303FA0AF313432E
:105770003B6063685A1E012A03D9112B01D0122BFA
:1057800017D1E368012B02D9032B7FF468AFBA6805
:1057900009EA0202E36803FA0AF31343BB607B6879
:1057A00023EA08086368C3F30013AB4043EA080325
:1057B0007B60FB6809EA0309A36803FA0AF343EA7A
:1057C0000903FB60636813F0805F83D01C4B9A6908
:1057D00042F001029A619B6903F001030193019B6E
:1057E000AA08911C144B53F8210005F003039900FB
:1057F0000F238B4020EA0300B7F1904F3FF436AF00
:105800000A4B9F420AD003F580639F4208D003F5FC
:1058100080639F423FF428AF052328E7012326E752
:10582000022324E702B0BDE8F08700BF000400486F
:10583000A0CB00080000111000000140000401404E
:105840000010024038B505460C4621B12B691C42B8
:1058500007D1002038BD4FF4C8710348FEF71AF98C
:10586000F4E70120F6E700BFA0CB000870B50546BD
:1058700014460E4621B1012C08D86CB9AE6270BD39
:105880004FF4D8710548FEF705F9F4E740F2B1117D
:105890000248FEF7FFF8F0E7AE61F0E7A0CB0008A2
:1058A0007047000008B5054B5B69034200D108BD95
:1058B000024B5861FFF7F4FFF9E700BF0004014015
:1058C000002800F0AB8010B504460268544B9A42A1
:1058D00004D040F29D115348FEF7DCF8A368B3F5FD
:1058E000806F60D2E368013B012B62D8236913B15A
:1058F000B3F5004F63D16369FF2B66D8A369072B0B
:1059000069D8E36913B1B3F5002F6AD1236A13B1E3
:10591000B3F5003F6BD194F84130002B6DD02423B8
:1059200084F841302268136823F001031360636830
:10593000226823F0706313612268936823F40043A4
:105940009360E368012B5ED0A368226843F40443AC
:105950009360E368022B5CD02268536843F00073C5
:1059600043F4004353602268D36823F40043D360B8
:10597000236962691343A169226843EA0123D36062
:10598000E369216A22680B4313602268136843F0BD
:105990000103136000206064202384F841302063F9
:1059A00084F8420010BD4FF4CF711E48FEF772F824
:1059B00098E740F29F111B48FEF76CF896E74FF40A
:1059C000D0711848FEF766F895E740F2A111154826
:1059D000FEF760F892E74FF4D1711248FEF75AF8DB
:1059E0008FE740F2A3110F48FEF754F88EE74FF40B
:1059F000D2710C48FEF74EF88DE784F8403020460F
:105A0000FDF7BEFB8BE7A368226843F40043936075
:105A10009FE723684FF400625A609DE701207047BA
:105A200000540040D8CB000838B504460D46026843
:105A30001E4B9A4203D072211D48FEF72BF815B178
:105A4000B5F5805F28D194F84130DBB2202B28D106
:105A500094F84030012B26D0012384F840302423D1
:105A600084F841302268136823F001031360226830
:105A7000136823F480531360226813681D43156074
:105A80002268136843F001031360202384F8413037
:105A9000002084F8400005E073210548FDF7FAFF77
:105AA000D1E7022038BD0220FCE700BF00540040CF
:105AB00010CC000838B504460D4602681C4B9A42CB
:105AC00003D0A0211B48FDF7E5FF0F2D26D894F841
:105AD0004130DBB2202B26D194F84030012B24D06A
